:100000000C94F0000C9418010C9418010C94180135
:100010000C9418010C9418010C9418010C941801FC
:100020000C9418010C9418010C9418010C941801EC
:100030000C9418010C9418010C9418010C941801DC
:100040000C94290C0C9418010C94990C0C94730CBE
:100050000C9418010C9418010C9418010C941801BC
:100060000C94CB0C0C941801207C2000525443209B
:1000700053796E63204F4B212043757272656E7405
:100080003A20005254432053796E63204572726FB8
:100090007221003D3D3D3D3D3D3D3D3D3D3D3D3DB4
:1000A0003D3D3D3D3D3D3D3D3D3D3D3D3D3D3D3D80
:1000B0003D3D3D3D3D3D3D3D3D3D3D00466F726D0D
:1000C000617420746F207365743A204848204D4D48
:1000D000205353204444204D4D2059595959004C28
:1000E0006963656E73656420756E646572204D4941
:1000F00054204C6963656E736500436F7079726953
:10010000676874204D6172656B2042756A6B6F0081
:1001100050726F6A6563743A205247422042696E9A
:1001200061727920436C6F636B2076312E31003D14
:100130003D3D3D3D3D3D3D3D3D3D3D3D3D3D3D3DEF
:100140003D3D3D3D3D3D3D3D3D3D3D3D3D3D3D3DDF
:100150003D3D3D3D3D3D3D00204300207C2054651C
:100160006D703A2000207C20002A204461746520B4
:10017000616E642074696D65207570646174656476
:10018000207669612053657269616C202A00000045
:100190000008000201000003040700000000000046
:1001A000000000000000250028002B0000000000D7
:1001B000240027002A0004040404040404040202A6
:1001C00002020202030303030303010204081020D6
:1001D0004080010204081020010204081020EA0DEA
:1001E00011241FBECFEFD8E0DEBFCDBF23E0A6E7CE
:1001F000B1E001C01D92AC30B207E1F711E0A0E020
:10020000B1E0E8E1F8E202C005900D92A637B1072F
:10021000D9F710E0C0EFD0E004C02197FE010E94A2
:100220000414CF3ED107C9F70E942D0E0C940A1476
:100230000C940000282F30E094E0359527959A958E
:10024000E1F7922F990F990F291B220F820F089522
:1002500090E0FC01E653FE4F24918A549E4FFC012E
:100260008491882399F090E0880F991FFC01E45550
:10027000FE4FA591B491FC01EE55FE4F85919491EE
:100280008FB7F894EC91E22BEC938FBF089590E038
:10029000FC01E257FE4F2491FC01E653FE4F3491DE
:1002A000FC01EA54FE4FE491EE23C9F0222339F019
:1002B000233001F1A8F4213019F1223029F1F0E0C6
:1002C000EE0FFF1FEE55FE4FA591B4918FB7F89436
:1002D000EC91611126C030953E233C938FBF089569
:1002E0002730A9F02830C9F0243049F780918000E8
:1002F0008F7D03C0809180008F7780938000DFCF57
:1003000084B58F7784BDDBCF84B58F7DFBCF8091A3
:10031000B0008F778093B000D2CF8091B0008F7DF6
:10032000F9CF3E2BDACF3FB7F8948091EA01909154
:10033000EB01A091EC01B091ED0126B5A89B05C0A1
:100340002F3F19F00196A11DB11D3FBFBA2FA92F54
:10035000982F8827BC01CD01620F711D811D911D51
:1003600042E0660F771F881F991F4A95D1F70895BD
:100370002FB7F8946091E6017091E7018091E80150
:100380009091E9012FBF089508950895AF92BF920B
:10039000CF92DF92EF92FF920F931F93CF93DF9351
:1003A0006C017B018B01040F151FEB015E01AE1880
:1003B000BF08C017D10759F06991D601ED91FC91A2
:1003C0000190F081E02DC6010995892B79F7C501CF
:1003D000DF91CF911F910F91FF90EF90DF90CF9021
:1003E000BF90AF900895FC01538D448D252F30E0D0
:1003F000842F90E0821B930B541710F0CF96089532
:1004000001970895FC01918D828D981761F0A28D5E
:10041000AE0FBF2FB11D5D968C91928D9F5F9F7324
:10042000928F90E008958FEF9FEF0895FC01918DDA
:10043000828D981731F0828DE80FF11D858D90E047
:1004400008958FEF9FEF08950F931F930E94B801B7
:1004500060936602709367028093680290936902CA
:100460008EE592E00E94160297FF1DC00E94B8011F
:100470000091660210916702209168023091690232
:10048000601B710B820B930B00916202109163024F
:10049000209164023091650260177107820793070B
:1004A000F8F28FEF9FEF1F910F910895CF92DF9297
:1004B000EF92FF92CF930E942402FC0197FD4EC061
:1004C0008D32910521F0C0970A9708F040C0C12CE9
:1004D000D12C7601C0E0E130F105D1F0ED32F1052B
:1004E000D9F1CF01C0970A9798F4AAE0B0E0A7012C
:1004F00096010E94E6126F01FF0FEE08FF08C60E7C
:10050000D71EE81EF91E80E3C81AD108E108F108D9
:100510008EE592E00E9402020E942402FC01C09734
:100520000A97C8F2E130F105B1F2CC2341F0F09422
:10053000E094D094C094C11CD11CE11CF11CC701F3
:10054000B601CF91FF90EF90DF90CF9008958EE5A8
:1005500092E00E940202AFCFC1E0DACFC12CD12CD1
:100560007601EDCFFC01918D228D892F90E0805C8A
:100570009F4F821B91098F73992708958EE592E012
:100580000E94B20221E0892B09F420E0822F089515
:1005900080E090E0892B29F00E94BE0281110C942A
:1005A00000000895FC01A48DA80FB92FB11DA35A16
:1005B000BF4F2C91848D90E001968F739927848F83
:1005C000A689B7892C93A089B1898C9183708064A6
:1005D0008C93938D848D981306C00288F389E02D47
:1005E00080818F7D80830895EF92FF920F931F93F8
:1005F000CF93DF93EC0181E0888F9B8D8C8D9813D6
:100600001AC0E889F989808185FF15C09FB7F894E1
:10061000EE89FF896083E889F9898081837080642D
:1006200080839FBF81E090E0DF91CF911F910F9178
:10063000FF90EF900895F62E0B8D10E00F5F1F4F87
:100640000F731127E02E8C8D8E110CC00FB607FC96
:10065000FACFE889F989808185FFF5CFCE010E9424
:10066000D202F1CFEB8DEC0FFD2FF11DE35AFF4FBE
:10067000F0829FB7F8940B8FEA89FB8980818062B2
:10068000CFCF682F8EE592E00C94F4020F931F9366
:10069000CF93DF938C01D0E0C0E0F801EC0FFD1F99
:1006A0006491662341F08EE592E00E94F402892B6A
:1006B00011F02196F2CFCE01DF91CF911F910F91D2
:1006C0000895CF93DF93EC01888D8823B9F0AA8930
:1006D000BB89E889F9898C9185FD03C0808186FDFD
:1006E0000DC00FB607FCF7CF8C9185FFF2CF80814C
:1006F00085FFEDCFCE010E94D202E9CFDF91CF91ED
:10070000089520919F01260F3327331F2132310591
:10071000ECF420915802FC0190E080E0243069F074
:1007200082E00895A0919F012191AC0141585E4F54
:10073000A40FB52FB11D2C930196861798F38091C5
:100740009F01680F60939F0180E0089581E0089504
:100750001092580281E0809337021092320261E0D9
:1007600082E10E94470161E083E10E944701E9EBD9
:10077000F0E080818E7F808380818D7F808388E41C
:100780008093B80085E48093BC000895CF93DF93F5
:1007900091E090937E018823B9F0C091B800D09188
:1007A000BA008091BC008A7B8093BC0060E082E14B
:1007B0000E94470160E083E10E9447010E94A80374
:1007C000D093BA00C093B800DF91CF910895CF9233
:1007D000DF92EF92FF920F931F93CF93C82F813236
:1007E00008F096C00E9493016B017C018091580231
:1007F000811169C081E080935802809337029FEF96
:1008000090933602109235029C0F9093340280939D
:10081000330280913302806D8093330280913202E3
:10082000813009F077C0109232020E9493016B016F
:100830007C01809133028093BB0080915A02909199
:100840005B02A0915C02B0915D02892B8A2B8B2BFD
:10085000A1F00E94930100915A0210915B02209135
:100860005C0230915D026C197D098E099F090617A3
:1008700017072807390708F447C08091BC0083FD9B
:10088000D8CF85EC8093BC000E9493016B017C0162
:1008900080915802813009F43FC0809135028C1755
:1008A00010F4C0913502A2E1B2E0E8E3F2E080E0AA
:1008B0008C1354C08C2FCF911F910F91FF90EF900C
:1008C000DF90CF90089580915A0290915B02A091A1
:1008D0005C02B0915D02892B8A2B8B2B09F486CFA9
:1008E0000E94930100915A0210915B0220915C02D8
:1008F00030915D026C197D098E099F090617170753
:100900002807390708F072CF809159020E94C60368
:10091000C0E0D0CF85EEB6CF80915A0290915B02B5
:10092000A0915C02B0915D02892B8A2B8B2B09F47C
:10093000AFCF0E94930100915A0210915B02209167
:100940005C0230915D026C197D098E099F090617C2
:1009500017072807390708F09BCFD6CF9D919193B1
:100960008F5FA6CF8F929F92AF92BF92CF92DF926E
:10097000EF92FF920F931F93CF93DF93D0911102C9
:10098000D13208F0D7C0182FC09110020E949301F5
:100990006B017C018091580281116BC082E08093D1
:1009A0005802109337028FEF80933602109235026F
:1009B000D0933402A0EFB1E0E2E1F2E080E0D8139E
:1009C00091C01092330280913302CC0FC82BC09398
:1009D000330280913202813009F088C010923202D5
:1009E0000E9493016B017C01809133028093BB00D4
:1009F00080915A0290915B02A0915C02B0915D02DD
:100A0000892B8A2B8B2BA1F00E94930100915A0213
:100A100010915B0220915C0230915D026C197D099E
:100A20008E099F09061717072807390708F442C0DF
:100A30008091BC0083FDD8CF85EC8093BC000E94E0
:100A400093016B017C0180915802823009F450C0FF
:100A5000809136028F3F09F46FC080913602803258
:100A600009F46CC080913602803309F469C084E0D7
:100A700026C080915A0290915B02A0915C02B091D5
:100A80005D02892B8A2B8B2B09F484CF0E94930162
:100A900080905A0290905B02A0905C02B0905D0240
:100AA0006C197D098E099F0986169706A806B90656
:100AB00008F070CF809159020E94C60385E0109221
:100AC000EF01109211021092EE01DF91CF911F9170
:100AD0000F91FF90EF90DF90CF90BF90AF909F90DD
:100AE0008F9008959D9191938F5F69CF85EEA5CFEB
:100AF00080915A0290915B02A0915C02B0915D02DC
:100B0000892B8A2B8B2B09F49ECF0E949301009195
:100B10005A0210915B0220915C0230915D026C19C7
:100B20007D098E099F09061717072807390708F05E
:100B30008ACFC0CF81E0C3CF80E0C1CF82E0BFCFFA
:100B400083E0BDCF0895E091C7018091C601E81709
:100B500030F4F0E0E85CFD4F808190E008958FEF85
:100B60009FEF08959091C7018091C6012FEF3FEF4D
:100B7000981748F4E92FF0E0E85CFD4F208130E061
:100B80009F5F9093C701C90108958091C60190911C
:100B9000C701891B990B0895CF92DF92EF92FF92C4
:100BA0000F931F93CF93DF937C01CB018A01209198
:100BB000EE01222389F0EB016B01C40ED51ECC158A
:100BC000DD0569F06991D701ED91FC910190F0810B
:100BD000E02DC7010995F3CF642F0E948103C8015E
:100BE000DF91CF911F910F91FF90EF90DF90CF9009
:100BF0000895CF93DF931F92CDB7DEB7698320911D
:100C0000EE012223F9F020911102203258F021E068
:100C100030E0FC013383228390E080E00F90DF918D
:100C2000CF9108958091EF01E82FF0E0E051FE4F61
:100C3000998190838F5F8093EF018093110281E00F
:100C400090E0ECCF61E0CE0101960E948103F7CFE6
:100C500090E080E008956093CC017093CD01809383
:100C6000CE019093CF01645D7E4F8F4F9F4F609375
:100C7000C8017093C9018093CA019093CB0182E0AF
:100C800090E09093D3018093D2010E94B8016093C9
:100C90007A0170937B0180937C0190937D0108958C
:100CA0000F931F930E94B8018B019C0140917A0120
:100CB00050917B0160917C0170917D018091CC010C
:100CC0009091CD01A091CE01B091CF01041B150BE5
:100CD000260B370B083E134021053105C0F0019665
:100CE000A11DB11D8093CC019093CD01A093CE01A5
:100CF000B093CF0148515C4F6F4F7F4F40937A01C3
:100D000050937B0160937C0170937D01CBCF409128
:100D1000C8015091C9016091CA017091CB0184173B
:100D20009507A607B70770F0E091D001F091D101C7
:100D3000309741F00995611571058105910569F0BC
:100D40000E942B066091CC017091CD018091CE0163
:100D50009091CF011F910F9108958091CC019091B6
:100D6000CD01A091CE01B091CF01845D9E4FAF4FD8
:100D7000BF4F8093C8019093C901A093CA01B0935B
:100D8000CB0181E090E02091D2013091D301232B5F
:100D900011F490E080E09093D3018093D201D2CF00
:100DA0004F925F926F927F928F929F92AF92BF927B
:100DB000CF92DF92EF92FF920F931F93CF93DF9327
:100DC000FC011681A12FB0E020E833E341EE51E0B1
:100DD0000E94E6124B015C01C2EBD7E09D0104E6E4
:100DE00010E080E9E82EFF24F394CE01825B974067
:100DF000821793079CF14580512C2E54384FC9011E
:100E000064E670E00E94B2137C01C90160E971E000
:100E10000E94B2136C0102E011E0C1E0D0E03901A0
:100E200083E068227724C415D5050CF040C0C23099
:100E3000D10571F56114710459F5E114F10419F447
:100E4000C114D10429F5B0E88B0EBBE39B1EB6E2BA
:100E5000AB1EB11C21960F5F1F4FE5CFCE018370F3
:100E60009927892B99F4CE01B8010E94B213892BDE
:100E700031F4CE01B7010E94B213892B39F4A0E8F6
:100E80008A0EA1E59A1EA1E0AA1EB11C2196ADCF43
:100E9000D8018C91A82FB0E020E831E541E050E086
:100EA0000E94E612860E971EA81EB91ED3CF22817D
:100EB00030E0A0E1BEE00E94F1126B017C012181D3
:100EC00030E0ACE3B0E00E94F112C60ED71EE81E7F
:100ED000F91E8081C80ED11CE11CF11CA481A15017
:100EE000BB0B20E831E541E050E00E94E8136C0DB7
:100EF0007D1D8E1D9F1D680D791D8A1D9B1DDF9117
:100F0000CF911F910F91FF90EF90DF90CF90BF9006
:100F1000AF909F908F907F906F905F904F900895CB
:100F20006F927F928F929F92AF92BF92CF92DF92F9
:100F3000EF92FF920F931F93CF93DF936B017C018E
:100F4000EA018CE3882E912CA12CB12CC701A501BC
:100F500094010E94C6136883CA01B901A5019401D6
:100F60000E94C6136983C701B60120E13EE040E05C
:100F700050E00E94C613CA01B90128E130E040E008
:100F800050E00E94C6136A83C701B60120E831E52C
:100F900041E050E00E94C61369017A01CA01B9011B
:100FA0006C5F7F4F8F4F9F4F27E030E040E050E075
:100FB0000E94C6136F5F6B83812C912C540140E01B
:100FC00094E6692E712C00E911E0242F30E02E54B4
:100FD000384FF901E370FF273097F9F4C901B301E5
:100FE0000E94B213892B31F4C901B8010E94B213D7
:100FF000892B99F48EE691E0A0E0B0E0880E991E6E
:10100000AA1EBB1ED501C401AA27BB27C816D90634
:10101000EA06FB0638F04F5FD8CF8DE691E0A0E0FE
:10102000B0E0ECCF4E83C90164E670E00E94B213D9
:101030008C01C90160E971E00E94B213309729F474
:1010400001151105E1F40097D1F04DE651E060E0A3
:1010500070E0841A950AA60AB70AC818D908EA08DF
:10106000FB08A2E0B1E020E0213071F4309791F567
:101070000115110511F4009769F54DE106C04EE622
:1010800051E060E070E0E5CF4C9150E070E060E04E
:1010900031E0320FC416D506E606F70640F0C41A52
:1010A000D50AE60AF70A1196232F3C30E9F62F5F9E
:1010B0002D83C394CC82DF91CF911F910F91FF902C
:1010C000EF90DF90CF90BF90AF909F908F907F90E8
:1010D0006F9008954CE1D9CFCF92DF92EF92FF92BB
:1010E000C0907601D0907701E0907801F09079017E
:1010F000C616D706E806F90671F06B017C014DEDC6
:1011000051E00E949007C0927601D0927701E09260
:101110007801F0927901FF90EF90DF90CF900895E1
:101120000E9450060E946C088091E30190E08E546A
:10113000984F08950E9450060E946C088091E20129
:1011400090E008950E9450060E946C088091E10191
:1011500090E008950E9450060E946C088091DD0185
:1011600090E008950E9450060E946C088091DE0174
:1011700090E008950E9450060E946C088091DF0163
:1011800090E008951F93CF93DF93EC01E881F981FC
:101190000484F585E02D62E10995182FE881F98135
:1011A0000484F585E02D61E1CE010995212F382FCA
:1011B00037FF02C0215C3F4FC90126E09595879516
:1011C0002A95E1F7DF91CF911F910895CF93DF9397
:1011D0001F92CDB7DEB7DC01ED91FC910284F3855F
:1011E000E02D21E0AE014F5F5F4F099589810F909F
:1011F000DF91CF910895CF93DF931F92CDB7DEB7E4
:101200004983DC01ED91FC910680F781E02D21E01E
:10121000AE014F5F5F4F09950F90DF91CF91089519
:10122000DF92EF92FF920F931F93CF93DF937C0196
:10123000D42E152F022FDC0112968D919C9121E066
:101240002093EE0128E6209310021092EF011092F5
:101250001102DC01ED91FC910190F081E02D0995E6
:10126000CD2DD12F0C0F1D2F111DC017D10761F0EF
:10127000F701828193816991DC01ED91FC910190EC
:10128000F081E02D0995F1CF81E0DF91CF911F91A1
:101290000F91FF90EF90DF900C94B204FF920F93A8
:1012A0001F93CF93DF93EC018B018A819B8121E017
:1012B0002093EE0128E6209310021092EF01109285
:1012C0001102DC01ED91FC910190F081E02D60E0D4
:1012D0000995AA81BB81F80120818AE0F82E822F2E
:1012E0006F2D0E94A613682F660F680F660F620F9E
:1012F000ED91FC9111970190F081E02DCD010995C0
:10130000AA81BB81F8012181822F6F2D0E94A61333
:10131000682F660F680F660F620FED91FC911197B1
:101320000190F081E02DCD010995AA81BB81F801E2
:101330002281822F6F2D0E94A613682F660F680FDF
:10134000660F620FED91FC9111970190F081E02DF5
:10135000CD0109958A819B81DC01ED91FC91019081
:10136000F081E02DD80113966C910995AA81BB817B
:10137000F8012481822F6F2D0E94A613682F660F1B
:10138000680F660F620FED91FC9111970190F0814B
:10139000E02DCD010995AA81BB81F8012581822F1D
:1013A0006F2D0E94A613682F660F680F660F620FDD
:1013B000ED91FC9111970190F081E02DCD010995FF
:1013C000AA81BB81F80126812E51822F6F2D0E94A8
:1013D000A613682F660F680F660F620FED91FC91E0
:1013E00011970190F081E02DCD01099581E00E94D7
:1013F000B204182FE881F9810484F585E02D6FE0AF
:10140000CE010995482F4F77E881F9810084F18555
:10141000E02D6FE0CE010995812FDF91CF911F91D3
:101420000F91FF9008950F931F93CF93DF9300D0F8
:1014300000D000D01F92CDB7DEB78C01CB01BA012E
:10144000AE014F5F5F4F0E949007BE016F5F7F4FFD
:10145000C8010E944E0927960FB6F894DEBF0FBE52
:10146000CDBFDF91CF911F910F9108951092C701C9
:101470001092C6011092EF01109211020E94A8036F
:1014800084EC91E09093C5018093C40185EC91E0D8
:101490009093C3018093C2010895CF92DF92FF928F
:1014A0000F931F93CF93DF93F62E6A018C01D0E048
:1014B000C0E0B6010C2E02C0759567950A94E2F75C
:1014C0006170F80181918F010E9447012196CF152B
:1014D00080F3DF91CF911F910F91FF90DF90CF901C
:1014E0000895FC0101900020E9F73197AF01481BF6
:1014F000590BBC018EE592E00C94C6018F929F922D
:10150000AF92BF920F931F93CF93DF93CDB7DEB708
:10151000A1970FB6F894DEBF0FBECDBF19A242301F
:1015200008F44AE08E010F5D1F4F842E912CB12CE0
:10153000A12CA50194010E94C613E62FB901CA018E
:10154000EA30F4F4E05DD801EE938D01232B242BD7
:10155000252B79F790E080E0109719F0CD010E94DB
:10156000710AA1960FB6F894DEBF0FBECDBFDF9112
:10157000CF911F910F91BF90AF909F908F90089542
:10158000E95CE1CFCF93DF930E944603EC0186E64E
:1015900091E00E94710A8C0F9D1FDF91CF910895F9
:1015A000CF92DF92EF92FF92CF93DF936C01990F6E
:1015B000EE08FF08F7FE17C08DE20E944103EC0120
:1015C00066277727CB016C197D098E099F094AE0B0
:1015D0000E947E0A8C0F9D1FDF91CF91FF90EF90AC
:1015E000DF90CF9008954AE0C701B601DF91CF9117
:1015F000FF90EF90DF90CF900C947E0A0F931F9393
:10160000CF93DF9300D000D000D01F92CDB7DEB7CC
:101610008C01DC0112968D919C9121E02093EE01CA
:1016200028E6209310021092EF0110921102DC01C3
:10163000ED91FC910190F081E02D60E0099581E051
:101640000E94B204882381F0F801848360E070E096
:10165000CB0127960FB6F894DEBF0FBECDBFDF914A
:10166000CF911F910F91089587E00E94E703109298
:10167000C7018093C601D80112968D919C91DC011F
:10168000ED91FC910284F385E02D09958F770E94FE
:101690001A018983F80182819381DC01ED91FC912B
:1016A0000284F385E02D09950E941A018A83F801CE
:1016B00082819381DC01ED91FC910284F385E02D20
:1016C00009958F7B0E941A018B83F8018281938197
:1016D000DC01ED91FC910284F385E02D09958C836A
:1016E000F80182819381DC01ED91FC910284F38504
:1016F000E02D09950E941A018D83F8018281938162
:10170000DC01ED91FC910284F385E02D09958F7742
:101710000E941A018E83F80182819381DC01ED9190
:10172000FC910284F385E02D09950E941A01825EE6
:101730008F83CE0101960E94D0068BCF87E093E085
:101740000C94FE0ACF92DF92EF92FF920F931F93B9
:10175000CF93DF936C01E42E152F022FDC0112963C
:101760008D919C9121E02093EE0128E620931002B8
:101770001092EF0110921102DC01ED91FC910190A9
:10178000F081E02D099581E00E94B204F82E8111CC
:101790001EC0802F013208F080E20E94E703109201
:1017A000C7018093C601CE2DD12F0C0F1D2F111D07
:1017B000C017D10761F0F60182819381DC01ED91C0
:1017C000FC910284F385E02D09958993F1CF8F2D4B
:1017D000DF91CF911F910F91FF90EF90DF90CF900D
:1017E000089585ED8093BC0080915A0290915B0230
:1017F000A0915C02B0915D020796A11DB11D23E08E
:10180000B695A795979587952A95D1F72091BC0015
:1018100024FD03C010925802089540915A0250913D
:101820005B0260915C0270915D02452B462B472B59
:1018300069F30097A105B10541F02AE22A95F1F775
:1018400000C00197A109B109E1CF809159020C9420
:10185000C6031F920F920FB60F9211242F933F933E
:101860008F939F93AF93BF938091E6019091E7018F
:10187000A091E801B091E9013091E50123E0230F47
:101880002D3758F50196A11DB11D2093E5018093D8
:10189000E6019093E701A093E801B093E9018091FC
:1018A000EA019091EB01A091EC01B091ED0101965C
:1018B000A11DB11D8093EA019093EB01A093EC016F
:1018C000B093ED01BF91AF919F918F913F912F9177
:1018D0000F900FBE0F901F90189526E8230F0296C9
:1018E000A11DB11DD2CF1F920F920FB60F921124DE
:1018F0002F933F934F935F936F937F938F939F9318
:10190000AF93BF93EF93FF938EE592E00E94D202D4
:10191000FF91EF91BF91AF919F918F917F916F91C7
:101920005F914F913F912F910F900FBE0F901F909D
:1019300018951F920F920FB60F9211242F938F9329
:101940009F93EF93FF93E0916E02F0916F0280817D
:10195000E0917402F091750282FD1BC0908180912C
:1019600077028F5F8F7320917802821741F0E091A8
:101970007702F0E0E25AFD4F958F80937702FF9156
:10198000EF919F918F912F910F900FBE0F901F900D
:1019900018958081F4CF1F920F920FB60F921124E9
:1019A0002F933F934F935F936F937F938F939F9367
:1019B000AF93BF93EF93FF938091B900887F8036F8
:1019C00009F44AC0F0F5883209F4A7C018F580314F
:1019D00009F49BC0B8F4882309F4F9C0883009F4ED
:1019E00094C0FF91EF91BF91AF919F918F917F91A3
:1019F0006F915F914F913F912F910F900FBE0F907C
:101A00001F901895883109F488C0803251F780936F
:101A1000360214C0803409F49DC040F48033B9F319
:101A20008833F9F68093360285ECB0C0803509F42E
:101A300085C0883509F496C0883499F60E94F10B68
:101A4000D0CF883909F48CC038F5883729F050F4A4
:101A5000883611F0803729F683E08093580210927F
:101A6000C10157C0883809F47BC0803919F080382B
:101A700009F0B7CF8091C101803208F071C0E091C8
:101A8000C10181E08E0F8093C1018091BB00F0E025
:101A9000EF55FE4F80833DC0803B39F0E0F4803A43
:101AA00009F479C0883A09F09CCF84E08093580209
:101AB0001092A00110929F01E091C401F091C50124
:101AC000099580919F0181110FC081E080939F0152
:101AD00010927F0109C0803C09F4A6CF883C09F42C
:101AE000A3CF883B09F07DCFE091A00181E08E0F6C
:101AF0008093A001F0E0E158FE4F80818093BB000D
:101B00009091A00180919F0129C080913302809320
:101B1000BB0085EC8093BC0064CF9091350280912E
:101B20003402981758F5E091350281E08E0F8093CA
:101B30003502F0E0EE5EFD4F8081E9CFE0913502A5
:101B400081E08E0F809335028091BB00F0E0EE5E65
:101B5000FD4F808390913502809134029817C8F22E
:101B600085E8D8CFE091350281E08E0F8093350271
:101B70008091BB00F0E0EE5EFD4F808380913702E4
:101B800081115CCF81E08093320284EA8093BC00B3
:101B90001092580226CF85EC8093BC001092580218
:101BA0008091C101803230F4E091C101F0E0EF5545
:101BB000FE4F10826091C10170E0E091C201F0918E
:101BC000C30181EA91E009951092C1010ACF1092F8
:101BD000360234CFEEE5F2E01382128288EE93E013
:101BE000A0E0B0E084839583A683B78322E331E04D
:101BF0003183208325EC30E03587248724EC30E0E6
:101C00003787268720EC30E0318B208B21EC30E0C9
:101C1000338B228B22EC30E0358B248B26EC30E0AA
:101C2000378B268B118E128E138E148EEBEFF2E013
:101C30001382128284839583A683B78384E491E020
:101C400091838083A7E0B3E01396FC93EE93129701
:101C500086E591E08D939C930895CF93DF93CDB764
:101C6000DEB72B970FB6F894DEBF0FBECDBF7894CA
:101C700084B5826084BD84B5816084BD85B5826091
:101C800085BD85B5816085BD80916E008160809342
:101C90006E001092810080918100826080938100AB
:101CA00080918100816080938100809180008160BB
:101CB000809380008091B10084608093B100809116
:101CC000B00081608093B00080917A00846080933E
:101CD0007A0080917A00826080937A0080917A0005
:101CE000816080937A0080917A00806880937A0086
:101CF0001092C1001092C7011092C6011092EF011C
:101D0000109211020E94A80384EC91E09093C50107
:101D10008093C40185EC91E09093C3018093C2014C
:101D2000E0916E02F0916F0282E08083E0916A029E
:101D3000F0916B021082E0916C02F0916D0280E1F3
:101D4000808310927602E0917202F091730286E035
:101D50008083E0917002F0917102808180618083C4
:101D6000E0917002F0917102808188608083E0913F
:101D70007002F0917102808180688083E09170022E
:101D8000F091710280818F7D80838FE291E00E94CB
:101D9000C20A80E191E00E94C20A8AEF90E00E94AC
:101DA000C20A8FED90E00E94C20A8CEB90E00E9484
:101DB000C20A83E990E00E94C20A8EE99BE09093F8
:101DC000D1018093D0018091CC019091CD01A0915F
:101DD000CE01B091CF018093C8019093C901A09327
:101DE000CA01B093CB010E9450060E945006809118
:101DF000D2019091D301029709F496C083E890E054
:101E00000E94C20A84E00E94280183E00E94280107
:101E100082E00E94280181E10E9428018AE00E945C
:101E2000280189E00E94280188E00E94280187E0BB
:101E30000E94280186E00E94280185E00E94280176
:101E400080E10E9428018FE00E9428018EE00E941C
:101E500028018DE00E9428018CE00E9428018BE07F
:101E60000E94280130E0232E30E0332E8EE592E0F0
:101E70000E94B202181619060CF0AFC00E9456025A
:101E80002B010E945602062F0E945602162F0E9416
:101E900056026B010E945602688779878A879B8762
:101EA0000E9456024B0188E14816510480F54B828E
:101EB0000A8319838C2D1C141D0414F00E94A2089F
:101EC0008D83E885F98588851E161F0614F00E940B
:101ED0009A0894018E83181419040CF079C02436E2
:101EE000310514F42053384F225B2F83BE016F5FFE
:101EF0007F4F87E093E00E944E09CE0101960E9439
:101F0000D0060E942B0689E691E00E94C20A8EE567
:101F100092E00E94B202181619060CF05EC08EE51F
:101F200092E00E940202F3CF8CE690E00E9446030A
:101F30000E94A2080A971CF480E30E9441030E94B9
:101F4000A2080E94D00A8EE20E9441030E949A08D1
:101F50000A971CF480E30E9441030E949A080E94A1
:101F6000D00A8EE20E9441030E9490080E94D00A8B
:101F700088E690E00E9446030E94BA080A971CF483
:101F800080E30E9441030E94BA080E94D00A8AE3BB
:101F90000E9441030E94B2080A971CF480E30E9449
:101FA00041030E94B2080E94D00A8AE30E944103C2
:101FB0000E94AA080A971CF480E30E9441030E9431
:101FC000AA080E94D00A86E691E00E94710A1ACF00
:101FD0000E949008825B8F8389CF8091E4018823DF
:101FE00009F453C00E94B8010091D4011091D501A9
:101FF0002091D6013091D701601B710B820B930B9E
:102000006E3171058105910508F43FC00E94B80149
:102010006093D4017093D5018093D6019093D7013A
:102020000EE011E060E0F80181918F010E9447010C
:10203000F1E00E311F07B1F70091D80110E0F8016F
:10204000E25FFE4F61E080810E9447010F5F1F4FFA
:102050000F7011270093D8018091D9019091DA0176
:1020600001969093DA018093D9012091DB013091A0
:10207000DC018217930748F0025F1E4F60E0F80111
:1020800080810E9447011092E4010E94AA088C01FD
:1020900080910001909101010817190709F4CCC043
:1020A0000E94B208892B11F501151105F9F48091F0
:1020B000E40181111BC00E94BA08009709F4C8C04E
:1020C0008D3091050CF00C9724E0880F991F2A950C
:1020D000E1F79093DC018093DB011092DA0110921A
:1020E000D9011092D80181E08093E4018091E4014C
:1020F00081112CC00E9450066B017C010E946C086B
:102100004091DF0150E04D3051050CF4A4C04C501B
:10211000510964E08AE291E00E944D0AC701B601CC
:102120000E946C084091DE0150E066E084E291E09C
:102130000E944D0AC701B6010E946C084091DD0162
:1021400050E066E08EE191E00E944D0A0E94A208F4
:102150000A971CF480E30E9441030E94A2080E9497
:10216000D00A8EE20E9441030E949A080A971CF44A
:1021700080E30E9441030E949A080E94D00A8EE2E6
:102180000E9441030E9490080E94D00A85E691E0D7
:102190000E9446030E94BA080A971CF480E30E943A
:1021A00041030E94BA080E94D00A8AE30E944103B8
:1021B0000E94B2080A971CF480E30E9441030E9427
:1021C000B2080E94D00A8AE30E9441030E94AA0832
:1021D0000A971CF480E30E944103C8010E94D00AC0
:1021E00087E093E00E94C208BC01990F880B990B0D
:1021F0000E94C91120E030E040E85EE30E9428120E
:102200006B017C012B013C018BE591E00E944603B0
:10221000A7019601C701B6010E94A113882311F1FD
:1022200089E691E00E94710A88E591E00E94C20A65
:1022300010930101009300012114310409F416CE1A
:102240000E94BE02882309F411CE0E9400000ECE27
:102250008CE090E039CF4115510509F05ACF4CE0A0
:1022600050E057CF46015701E894B7F82FEF3FEF02
:102270004FE75FE7C501B4010E94A11381110DC0B2
:102280002FEF3FEF4FE75FE7C501B4010E94C21196
:1022900018161CF48DE691E0C5CF2FEF3FEF4FE706
:1022A0005FE4C701B6010E949C1318161CF481E775
:1022B00091E0B8CF2FEF3FEF4FE75FECC701B601DA
:1022C0000E94C21187FDF3CF20E030E0A901C701D1
:1022D000B6010E94C21187FF09C08DE20E9441032E
:1022E0002601370177FA709477F870942AE037ED79
:1022F00043EA5BE3C301B2010E9401132B013C01DD
:102300000E946D136B017C010E94C7119B01AC01FF
:10231000C301B2010E9400132B013C014AE0C70136
:10232000B6010E947E0A8EE20E94410320E030E066
:1023300040E251E4C301B2010E9428122B013C018A
:102340000E946D136B01F12CE12C4AE0C701B6012C
:102350000E947E0AC701B6010E94C7119B01AC0111
:10236000C301B2010E94001320E030E040E251E4DA
:102370000E9428120E946D1390E080E04AE00E94C3
:102380007E0A52CF0E94041208F481E00895E89476
:1023900009C097FB3EF490958095709561957F4FAD
:1023A0008F4F9F4F9923A9F0F92F96E9BB2793955B
:1023B000F695879577956795B795F111F8CFFAF46B
:1023C000BB0F11F460FF1BC06F5F7F4F8F4F9F4F9C
:1023D00016C0882311F096E911C0772321F09EE8FA
:1023E000872F762F05C0662371F096E8862F70E060
:1023F00060E02AF09A95660F771F881FDAF7880F3A
:102400009695879597F90895990F0008550FAA0B8F
:10241000E0E8FEEF16161706E807F907C0F01216F7
:102420001306E407F50798F0621B730B840B950BFA
:1024300039F40A2661F0232B242B252B21F408954F
:102440000A2609F4A140A6958FEF811D811D0895EC
:102450000E943B120C94AC120E949E1238F00E9413
:10246000A51220F0952311F00C9495120C949B1258
:1024700011240C94E0120E94BD1270F3959FC1F3D9
:10248000950F50E0551F629FF001729FBB27F00D22
:10249000B11D639FAA27F00DB11DAA1F649F662777
:1024A000B00DA11D661F829F2227B00DA11D621FC6
:1024B000739FB00DA11D621F839FA00D611D221F80
:1024C000749F3327A00D611D231F849F600D211D64
:1024D000822F762F6A2F11249F5750409AF0F1F0E7
:1024E00088234AF0EE0FFF1FBB1F661F771F881F50
:1024F00091505040A9F79E3F510580F00C949512E1
:102500000C94E0125F3FE4F3983ED4F38695779500
:102510006795B795F795E7959F5FC1F7FE2B880FF5
:10252000911D9695879597F9089597F99F6780E88B
:1025300070E060E008959FEF80EC089500240A9415
:102540001616170618060906089500240A9412168E
:102550001306140605060895092E0394000C11F4C1
:10256000882352F0BB0F40F4BF2B11F460FF04C06E
:102570006F5F7F4F8F4F9F4F089557FD9058440FC7
:10258000551F59F05F3F71F04795880F97FB991FD2
:1025900061F09F3F79F0879508951216130614068F
:1025A000551FF2CF4695F1DF08C01616170618061C
:1025B000991FF1CF86957105610508940895E894F7
:1025C000BB2766277727CB0197F908950E94F11260
:1025D000A59F900DB49F900DA49F800D911D112477
:1025E0000895A29FB001B39FC001A39F700D811DEC
:1025F0001124911DB29F700D811D1124911D08950C
:102600005058BB27AA270E9418130C94AC120E94A2
:102610009E1238F00E94A51220F039F49F3F19F461
:1026200026F40C949B120EF4E095E7FB0C949512A3
:10263000E92F0E94BD1258F3BA1762077307840787
:10264000950720F079F4A6F50C94DF120EF4E095CE
:102650000B2EBA2FA02D0B01B90190010C01CA015C
:10266000A0011124FF27591B99F0593F50F4503E07
:1026700068F11A16F040A22F232F342F4427585FF9
:10268000F3CF469537952795A795F0405395C9F711
:102690007EF41F16BA0B620B730B840BBAF09150C9
:1026A000A1F0FF0FBB1F661F771F881FC2F70EC068
:1026B000BA0F621F731F841F48F48795779567953B
:1026C000B795F7959E3F08F0B0CF9395880F08F027
:1026D0009927EE0F9795879508950E94C51288F067
:1026E0009F5798F0B92F9927B751B0F0E1F0660FD6
:1026F000771F881F991F1AF0BA95C9F714C0B13017
:1027000091F00E94DF12B1E008950C94DF12672F60
:10271000782F8827B85F39F0B93FCCF38695779545
:102720006795B395D9F73EF490958095709561952E
:102730007F4F8F4F9F4F08950E94041208F48FEF30
:1027400008950E940412880B990B0895991B79E053
:1027500004C0991F961708F0961B881F7A95C9F731
:102760008095089597FB072E16F4009407D077FD07
:1027700009D00E94F01307FC05D03EF49095819596
:102780009F4F0895709561957F4F0895A1E21A2E8D
:10279000AA1BBB1BFD010DC0AA1FBB1FEE1FFF1F05
:1027A000A217B307E407F50720F0A21BB30BE40B55
:1027B000F50B661F771F881F991F1A9469F760959C
:1027C0007095809590959B01AC01BD01CF01089556
:1027D000B7FF0C94E6120E94E612821B930B089539
:1027E000AA1BBB1B51E107C0AA1FBB1FA617B70737
:1027F00010F0A61BB70B881F991F5A95A9F7809553
:102800009095BC01CD010895EE0FFF1F0590F49146
:08281000E02D0994F894FFCFBC
:10281800FFFF1F1C1F1E1F1E1F1F1E1F1E1F100F26
:102828000E0D0C0B0A090807060504030211100F08
:102838000E0D0C0B0A090807060504030211000017
:102848000000F402C601F3016103B202020216029B
:1028580000000000F905CC052806A205C505B2054B
:10286800A30500000000360AFE0A130A1009FB0837
:10287800A20BE608C2080D0A006E616E00696E665A
:06288800006F76660000FF
:00000001FF
