:100000000C944D010C9475010C9475010C947501C0
:100010000C9475010C9475010C9475010C94750188
:100020000C9475010C9475010C9475010C94750178
:100030000C9475010C9475010C9475010C94750168
:100040000C946A0D0C9475010C94DA0D0C94B40D9B
:100050000C9475010C9475010C9475010C94750148
:100060000C940C0E0C94750120414D0020504D0055
:10007000207C20005254432053796E63204F4B2143
:100080002043757272656E743A20005254432053B7
:10009000796E63204572726F72210052544320536F
:1000A000796E63204572726F7221003D3D3D3D3D8A
:1000B0003D3D3D3D3D3D3D3D3D3D3D3D3D3D3D3D70
:1000C0003D3D3D3D3D3D3D3D3D3D3D3D3D3D3D3D60
:1000D0003D3D3D3D3D3D3D004578616D706C653A6F
:1000E0002030322033302030302031203132203265
:1000F0003520323032362028323A33303A30302010
:10010000504D2900414D5F504D3A2030203D204157
:100110004D2C2031203D20504D00466F726D617492
:1001200020746F207365743A204848204D4D205349
:100130005320414D5F504D204D4D2044442059598E
:100140005959004C6963656E73656420756E64650A
:1001500072204D4954204C6963656E736500436F8E
:1001600070797269676874204D6172656B204275A1
:100170006A6B6F0050726F6A6563743A205247422F
:100180002042696E61727920436C6F636B20763117
:100190002E312028555329003D3D3D3D3D3D3D3DFF
:1001A0003D3D3D3D3D3D3D3D3D3D3D3D3D3D3D3D7F
:1001B0003D3D3D3D3D3D3D3D3D3D3D3D3D3D3D3D6F
:1001C0003D3D3D3D00286329204D6172656B204215
:1001D000756A6B6F0052474220436C6F636B2076E9
:1001E000312E31004600200020414D0020504D00AE
:1001F00020414D0020504D00204600207C205465B9
:100200006D703A2000207C200054696D6520757067
:10021000646174656421002A204461746520616E04
:10022000642074696D6520757064617465642076FE
:1002300069612053657269616C2028555320466FAF
:10024000726D617429202A0000000008000201007C
:100250000003040700000000000000000000000090
:10026000250028002B0000000000240027002A00A1
:10027000040404040404040402020202020203034C
:100280000303030301020408102040800102040854
:1002900010200102040810202B0F11241FBECFEFE5
:1002A000D8E0DEBFCDBF23E0AAE8B1E001C01D92D7
:1002B000AD32B207E1F711E0A0E0B1E0E8E7FFE21C
:1002C00002C005900D92AA38B107D9F711E0CDE42C
:1002D000D1E004C02197FE010E94B417CC34D107AD
:1002E000C9F70E947E0F0C94BA170C940000282FB7
:1002F00030E094E0359527959A95E1F7922F990F84
:10030000990F291B220F820F089590E0FC01EC57F2
:10031000FD4F249180599D4FFC018491882399F0D1
:1003200090E0880F991FFC01EA59FD4FA591B49107
:10033000FC01E45AFD4F859194918FB7F894EC91AC
:10034000E22BEC938FBF08950895089590E0FC018F
:10035000E85BFD4F2491FC01EC57FD4F3491FC010B
:10036000E059FD4FE491EE23C9F0222339F0233008
:1003700001F1A8F4213019F1223029F1F0E0EE0F5B
:10038000FF1FE45AFD4FA591B4918FB7F894EC91FB
:10039000611126C030953E233C938FBF08952730CE
:1003A000A9F02830C9F0243049F7809180008F7D72
:1003B00003C0809180008F7780938000DFCF84B569
:1003C0008F7784BDDBCF84B58F7DFBCF8091B0006C
:1003D0008F778093B000D2CF8091B0008F7DF9CF1E
:1003E0003E2BDACF3FB7F8948091F8019091F90154
:1003F000A091FA01B091FB0126B5A89B05C02F3F43
:1004000019F00196A11DB11D3FBFBA2FA92F982F3A
:100410008827BC01CD01620F711D811D911D42E035
:10042000660F771F881F991F4A95D1F708958F92FD
:100430009F92AF92BF92CF92DF92EF92FF924B01C9
:100440005C010E94F2016B017C010E94F2016C19B7
:100450007D098E099F09683E734081059105A8F3C7
:1004600021E0821A9108A108B10888EEC80E83E045
:10047000D81EE11CF11C81149104A104B10429F7D8
:10048000FF90EF90DF90CF90BF90AF909F908F90B4
:1004900008952FB7F8946091F4017091F50180915F
:1004A000F6019091F7012FBF0895DC01ED91FC91C9
:1004B0000190F081E02D0994EF92FF920F931F932A
:1004C000CF93DF938C017B01D0E0C0E0F701EC0F0C
:1004D000FD1F6491662361F0D801ED91FC910190BC
:1004E000F081E02DC8010995892B11F02196EECFFE
:1004F000CE01DF91CF911F910F91FF90EF90089562
:10050000AF92BF92CF92DF92EF92FF920F931F9321
:10051000CF93DF936C017B018B01040F151FEB015F
:100520005E01AE18BF08C017D10759F06991D60116
:10053000ED91FC910190F081E02DC6010995892B88
:1005400079F7C501DF91CF911F910F91FF90EF9047
:10055000DF90CF90BF90AF900895FC01538D448DF4
:10056000252F30E0842F90E0821B930B541710F05E
:10057000CF96089501970895FC01918D828D98176B
:1005800061F0A28DAE0FBF2FB11D5D968C91928D43
:100590009F5F9F73928F90E008958FEF9FEF089574
:1005A000FC01918D828D981731F0828DE80FF11D3D
:1005B000858D90E008958FEF9FEF08950F931F931F
:1005C0000E94490260937A0270937B0280937C02BE
:1005D00090937D0282E792E00E94D00297FF1DC0B7
:1005E0000E94490200917A0210917B0220917C02C4
:1005F00030917D02601B710B820B930B0091760290
:10060000109177022091780230917902601771077A
:1006100082079307F8F28FEF9FEF1F910F910895D4
:10062000CF92DF92EF92FF92CF930E94DE02FC0105
:1006300097FD4EC08D32910521F0C0970A9708F0C2
:1006400040C0C12CD12C7601C0E0E130F105D1F0E1
:10065000ED32F105D9F1CF01C0970A9798F4AAE0DD
:10066000B0E0A70196010E941D166F01FF0FEE0872
:10067000FF08C60ED71EE81EF91E80E3C81AD1086F
:10068000E108F10882E792E00E94BC020E94DE02CB
:10069000FC01C0970A97C8F2E130F105B1F2CC2312
:1006A00041F0F094E094D094C094C11CD11CE11CA2
:1006B000F11CC701B601CF91FF90EF90DF90CF9072
:1006C000089582E792E00E94BC02AFCFC1E0DACF8A
:1006D000C12CD12C7601EDCFFC01918D228D892F7B
:1006E00090E0805C9F4F821B91098F73992708953A
:1006F00082E792E00E946C0321E0892B09F420E05C
:10070000822F089580E090E0892B29F00E947803E1
:1007100081110C9400000895FC01A48DA80FB92F3D
:10072000B11DA35ABF4F2C91848D90E001968F7319
:100730009927848FA689B7892C93A089B1898C9138
:10074000837080648C93938D848D981306C0028887
:10075000F389E02D80818F7D80830895EF92FF9251
:100760000F931F93CF93DF93EC0181E0888F9B8DD4
:100770008C8D98131AC0E889F989808185FF15C08E
:100780009FB7F894EE89FF896083E889F9898081B1
:100790008370806480839FBF81E090E0DF91CF9180
:1007A0001F910F91FF90EF900895F62E0B8D10E0A2
:1007B0000F5F1F4F0F731127E02E8C8D8E110CC011
:1007C0000FB607FCFACFE889F989808185FFF5CF5C
:1007D000CE010E948C03F1CFEB8DEC0FFD2FF11DAC
:1007E000E35AFF4FF0829FB7F8940B8FEA89FB8999
:1007F00080818062CFCFCF93DF93EC01888D8823F7
:10080000B9F0AA89BB89E889F9898C9185FD03C073
:10081000808186FD0DC00FB607FCF7CF8C9185FF58
:10082000F2CF808185FFEDCFCE010E948C03E9CF0E
:10083000DF91CF91089508952091B301260F3327BA
:10084000331F21323105ECF420916C02FC0190E061
:1008500080E0243069F082E00895A091B3012191F5
:10086000AC014D565E4FA40FB52FB11D2C930196D0
:10087000861798F38091B301680F6093B30180E00D
:10088000089581E0089510926C0281E080934B02FC
:100890001092460261E082E10E94A60161E083E1DC
:1008A0000E94A601E9EBF0E080818E7F8083808149
:1008B0008D7F808388E48093B80085E48093BC00BA
:1008C00008951092010210920002109203021092F9
:1008D00025020E94430484EA91E09093FF018093F3
:1008E000FE0185EA91E09093FD018093FC0108955B
:1008F000CF93DF9391E0909392018823B9F0C09158
:10090000B800D091BA008091BC008A7B8093BC0073
:1009100060E082E10E94A60160E083E10E94A601FE
:100920000E944304D093BA00C093B800DF91CF91E6
:100930000895CF92DF92EF92FF920F931F93CF9380
:10094000C82F813208F096C00E94F2016B017C0131
:1009500080916C02811169C081E080936C02809368
:100960004B029FEF90934A02109249029C0F909382
:1009700048028093470280914702806D809347022E
:1009800080914602813009F077C0109246020E94A1
:10099000F2016B017C01809147028093BB00809142
:1009A0006E0290916F02A0917002B0917102892B3A
:1009B0008A2B8B2BA1F00E94F20100916E02109104
:1009C0006F0220917002309171026C197D098E09BD
:1009D0009F09061717072807390708F447C08091B1
:1009E000BC0083FDD8CF85EC8093BC000E94F2014F
:1009F0006B017C0180916C02813009F43FC08091D1
:100A000049028C1710F4C0914902A6E2B2E0ECE46E
:100A1000F2E080E08C1354C08C2FCF911F910F9186
:100A2000FF90EF90DF90CF90089580916E029091AB
:100A30006F02A0917002B0917102892B8A2B8B2BCF
:100A400009F486CF0E94F20100916E0210916F02AC
:100A500020917002309171026C197D098E099F09F5
:100A6000061717072807390708F072CF80916D0223
:100A70000E947804C0E0D0CF85EEB6CF80916E02A0
:100A800090916F02A0917002B0917102892B8A2B14
:100A90008B2B09F4AFCF0E94F20100916E021091EE
:100AA0006F0220917002309171026C197D098E09DC
:100AB0009F09061717072807390708F09BCFD6CFDD
:100AC0009D9191938F5FA6CF8F929F92AF92BF928D
:100AD000CF92DF92EF92FF920F931F93CF93DF930A
:100AE000D0912502D13208F0D7C0182FC09124022E
:100AF0000E94F2016B017C0180916C0281116BC03C
:100B000082E080936C0210934B028FEF80934A0235
:100B100010924902D0934802A4E0B2E0E6E2F2E08B
:100B200080E0D81391C01092470280914702CC0F09
:100B3000C82BC093470280914602813009F088C0DB
:100B4000109246020E94F2016B017C0180914702E3
:100B50008093BB0080916E0290916F02A091700211
:100B6000B0917102892B8A2B8B2BA1F00E94F2018C
:100B700000916E0210916F0220917002309171020B
:100B80006C197D098E099F09061717072807390771
:100B900008F442C08091BC0083FDD8CF85EC8093DF
:100BA000BC000E94F2016B017C0180916C028230DA
:100BB00009F450C080914A028F3F09F46FC08091C0
:100BC0004A02803209F46CC080914A02803309F4F1
:100BD00069C084E026C080916E0290916F02A0915E
:100BE0007002B0917102892B8A2B8B2B09F484CF70
:100BF0000E94F20180906E0290906F02A0907002AD
:100C0000B09071026C197D098E099F0986169706AE
:100C1000A806B90608F070CF80916D020E94780492
:100C200085E0109203021092250210920202DF91D9
:100C3000CF911F910F91FF90EF90DF90CF90BF90D9
:100C4000AF909F908F9008959D9191938F5F69CF02
:100C500085EEA5CF80916E0290916F02A0917002F7
:100C6000B0917102892B8A2B8B2B09F49ECF0E94A5
:100C7000F20100916E0210916F022091700230918A
:100C800071026C197D098E099F090617170728073D
:100C9000390708F08ACFC0CF81E0C3CF80E0C1CF51
:100CA00082E0BFCF83E0BDCF0895E0910102809143
:100CB0000002E81730F4F0E0E45BFD4F808190E043
:100CC00008958FEF9FEF08959091010280910002A7
:100CD0002FEF3FEF981748F4E92FF0E0E45BFD4F6A
:100CE000208130E09F5F90930102C90108958091B7
:100CF000000290910102891B990B0895CF92DF9217
:100D0000EF92FF920F931F93CF93DF937C01CB0160
:100D10008A0120910202222389F0EB016B01C40EAB
:100D2000D51ECC15DD0569F06991D701ED91FC91D7
:100D30000190F081E02DC7010995F3CF642F0E9447
:100D40001C04C801DF91CF911F910F91FF90EF908C
:100D5000DF90CF900895CF93DF931F92CDB7DEB78A
:100D60006983209102022223F9F02091250220328A
:100D700058F021E030E0FC013383228390E080E0F2
:100D80000F90DF91CF91089580910302E82FF0E05A
:100D9000EC5FFD4F998190838F5F80930302809376
:100DA000250281E090E0ECCF61E0CE0101960E9447
:100DB0001C04F7CFFC01248131E030930202209320
:100DC000240210920302109225028485682B8CE184
:100DD00093E00E94AB0681E00C94640590E080E013
:100DE00008956093DA017093DB018093DC019093A6
:100DF000DD01645D7E4F8F4F9F4F6093D6017093EE
:100E0000D7018093D8019093D90182E090E090932C
:100E1000E1018093E0010E94490260938E0170938A
:100E20008F01809390019093910108950F931F93E8
:100E30000E9449028B019C0140918E0150918F01CB
:100E400060919001709191018091DA019091DB01A4
:100E5000A091DC01B091DD01041B150B260B370BB3
:100E6000083E134021053105C0F00196A11DB11DBA
:100E70008093DA019093DB01A093DC01B093DD0154
:100E800048515C4F6F4F7F4F40938E0150938F01BD
:100E90006093900170939101CBCF4091D601509116
:100EA000D7016091D8017091D90184179507A607E1
:100EB000B70770F0E091DE01F091DF01309741F06B
:100EC0000995611571058105910569F00E94F1068A
:100ED0006091DA017091DB018091DC019091DD017C
:100EE0001F910F9108958091DA019091DB01A091FB
:100EF000DC01B091DD01845D9E4FAF4FBF4F809309
:100F0000D6019093D701A093D801B093D90181E085
:100F100090E02091E0013091E101232B11F490E069
:100F200080E09093E1018093E001D2CF4F925F92F5
:100F30006F927F928F929F92AF92BF92CF92DF92E9
:100F4000EF92FF920F931F93CF93DF93FC011681D3
:100F5000A12FB0E020E833E341EE51E00E941D16DE
:100F60004B015C01C2EBD7E09D0104E610E080E993
:100F7000E82EFF24F394CE01825B974082179307FB
:100F80009CF14580512C2E54384FC90164E670E025
:100F90000E9462177C01C90160E971E00E9462173A
:100FA0006C010AE011E0C1E0D0E0390183E0682281
:100FB0007724C415D5050CF040C0C230D10571F5B9
:100FC0006114710459F5E114F10419F4C114D10448
:100FD00029F5B0E88B0EBBE39B1EB6E2AB1EB11C3D
:100FE00021960F5F1F4FE5CFCE0183709927892B84
:100FF00099F4CE01B8010E946217892B31F4CE0119
:10100000B7010E946217892B39F4A0E88A0EA1E586
:101010009A1EA1E0AA1EB11C2196ADCFD8018C91D9
:10102000A82FB0E020E831E541E050E00E941D1615
:10103000860E971EA81EB91ED3CF228130E0A0E1F4
:10104000BEE00E9428166B017C01218130E0ACE3F8
:10105000B0E00E942816C60ED71EE81EF91E808139
:10106000C80ED11CE11CF11CA481A150BB0B20E8CF
:1010700031E541E050E00E9498176C0D7D1D8E1DFA
:101080009F1D680D791D8A1D9B1DDF91CF911F91BA
:101090000F91FF90EF90DF90CF90BF90AF909F9017
:1010A0008F907F906F905F904F9008956F927F9296
:1010B0008F929F92AF92BF92CF92DF92EF92FF9268
:1010C0000F931F93CF93DF936B017C01EA018CE3B5
:1010D000882E912CA12CB12CC701A50194010E944E
:1010E00076176883CA01B901A50194010E94761799
:1010F0006983C701B60120E13EE040E050E00E9474
:101100007617CA01B90128E130E040E050E00E94C2
:1011100076176A83C701B60120E831E541E050E067
:101120000E94761769017A01CA01B9016C5F7F4F8D
:101130008F4F9F4F27E030E040E050E00E9476174D
:101140006F5F6B83812C912C540140E094E6692EF3
:10115000712C00E911E0242F30E02E54384FF901B2
:10116000E370FF273097F9F4C901B3010E946217B9
:10117000892B31F4C901B8010E946217892B99F4B7
:101180008EE691E0A0E0B0E0880E991EAA1EBB1E7C
:10119000D501C401AA27BB27C816D906EA06FB0653
:1011A00038F04F5FD8CF8DE691E0A0E0B0E0ECCF13
:1011B0004E83C90164E670E00E9462178C01C90188
:1011C00060E971E00E946217309729F4011511055A
:1011D000E1F40097D1F04DE651E060E070E0841A50
:1011E000950AA60AB70AC818D908EA08FB08AAE0AF
:1011F000B1E020E0213071F4309791F5011511052F
:1012000011F4009769F54DE106C04EE651E060E04B
:1012100070E0E5CF4C9150E070E060E031E0320FDB
:10122000C416D506E606F70640F0C41AD50AE60A43
:10123000F70A1196232F3C30E9F62F5F2D83C394D4
:10124000CC82DF91CF911F910F91FF90EF90DF90B3
:10125000CF90BF90AF909F908F907F906F900895A8
:101260004CE1D9CFCF92DF92EF92FF92C0908A01EA
:10127000D0908B01E0908C01F0908D01C616D706BE
:10128000E806F90671F06B017C014BEE51E00E941B
:101290005608C0928A01D0928B01E0928C01F092A4
:1012A0008D01FF90EF90DF90CF9008950E94160778
:1012B0000E9432098091F10190E08E54984F089578
:1012C0000E9416070E9432098091F00190E0089573
:1012D0000E9416070E9432098091EF0190E0089564
:1012E0000E9416070E9432098091EB0190E0089558
:1012F0000E9416070E9432098091EC0190E0089547
:101300000E9416070E9432098091ED0190E0089535
:101310001F93CF93DF93EC01E881F9810484F58575
:10132000E02D62E10995182FE881F9810484F585A3
:10133000E02D61E1CE010995212F382F37FF02C042
:10134000215C3F4FC90126E0959587952A95E1F7E5
:10135000DF91CF911F910895CF93DF931F92CDB767
:10136000DEB7DC01ED91FC910284F385E02D21E0F4
:10137000AE014F5F5F4F099589810F90DF91CF914B
:101380000895CF93DF931F92CDB7DEB74983DC0179
:10139000ED91FC910680F781E02D21E0AE014F5FD9
:1013A0005F4F09950F90DF91CF910895DF92EF92F3
:1013B000FF920F931F93CF93DF937C01D42E152FB1
:1013C000022FDC0112968D919C9121E02093020264
:1013D00028E6209324021092030210922502DC01D9
:1013E000ED91FC910190F081E02D0995CD2DD12F4B
:1013F0000C0F1D2F111DC017D10761F0F70182815D
:1014000093816991DC01ED91FC910190F081E02DD7
:101410000995F1CF81E0DF91CF911F910F91FF905E
:10142000EF90DF900C946405FF920F931F93CF937E
:10143000DF93EC018B018A819B8121E020930202E2
:1014400028E6209324021092030210922502DC0168
:10145000ED91FC910190F081E02D60E00995AA8169
:10146000BB81F80120818AE0F82E822F6F2D0E9427
:101470005617682F660F680F660F620FED91FC918B
:1014800011970190F081E02DCD010995AA81BB81D2
:10149000F8012181822F6F2D0E945617682F660F49
:1014A000680F660F620FED91FC9111970190F0812A
:1014B000E02DCD010995AA81BB81F8012281822FFF
:1014C0006F2D0E945617682F660F680F660F620F08
:1014D000ED91FC9111970190F081E02DCD010995DE
:1014E0008A819B81DC01ED91FC910190F081E02DDE
:1014F000D80113966C910995AA81BB81F8012481CA
:10150000822F6F2D0E945617682F660F680F660F87
:10151000620FED91FC9111970190F081E02DCD01CA
:101520000995AA81BB81F8012581822F6F2D0E9428
:101530005617682F660F680F660F620FED91FC91CA
:1015400011970190F081E02DCD010995AA81BB8111
:10155000F80126812E51822F6F2D0E945617682F79
:10156000660F680F660F620FED91FC911197019065
:10157000F081E02DCD01099581E00E946405182FCE
:10158000E881F9810484F585E02D6FE0CE010995AD
:10159000482F4F77E881F9810084F185E02D6FE0D5
:1015A000CE010995812FDF91CF911F910F91FF906F
:1015B00008950F931F93CF93DF9300D000D000D0F6
:1015C0001F92CDB7DEB78C01CB01BA01AE014F5FE0
:1015D0005F4F0E945608BE016F5F7F4FC8010E9497
:1015E000140A27960FB6F894DEBF0FBECDBFDF9169
:1015F000CF911F910F9108950C946104CF92DF92C7
:10160000FF920F931F93CF93DF93F62E6A018C0105
:10161000D0E0C0E0B6010C2E02C0759567950A9423
:10162000E2F76170F80181918F010E94A601219675
:10163000CF1580F3DF91CF911F910F91FF90DF9035
:10164000CF9008950F931F93CF938C01C62F0E94C4
:10165000DA066C2F6460C8010E94DA066C2F6B7F7B
:10166000C8010E94DA0683EC90E00197F1F7CF9170
:101670001F910F9108950F931F93CF93DF938C01C8
:10168000D62FC42F607F642B0E94220B80E1D89F4D
:10169000B00111246C2BC801DF91CF911F910F91E4
:1016A0000C94220BCF93DF93CDB7DEB728970FB6FC
:1016B000F894DEBF0FBECDBF98E0E2E0F1E0DE01BE
:1016C000119601900D929A95E1F790911703981752
:1016D00008F48FEF90E0880F991F21E030E02C0F85
:1016E0003D1F820F931FFC016081606840E08FE026
:1016F00093E028960FB6F894DEBF0FBECDBFDF9102
:10170000CF910C943B0B40E061E08FE093E00E94AE
:101710003B0B8BE39FE10197F1F78091180388233E
:1017200019F080E00C94520B089541E00E943B0BAD
:1017300081E090E008950F931F93CF93DF9300D043
:1017400000D000D01F92CDB7DEB78C01DC0112961D
:101750008D919C9121E02093020228E6209324029F
:101760001092030210922502DC01ED91FC91019090
:10177000F081E02D60E0099581E00E9464058823F6
:1017800081F0F801848360E070E0CB0127960FB60A
:10179000F894DEBF0FBECDBFDF91CF911F910F91A7
:1017A000089587E00E94990410920102809300023C
:1017B000D80112968D919C91DC01ED91FC910284EF
:1017C000F385E02D09958F770E9477018983F801D1
:1017D00082819381DC01ED91FC910284F385E02DFF
:1017E00009950E9477018A83F80182819381DC0147
:1017F000ED91FC910284F385E02D09958F7B0E9489
:1018000077018B83F80182819381DC01ED91FC915A
:101810000284F385E02D09958C83F8018281938100
:10182000DC01ED91FC910284F385E02D09950E9485
:1018300077018D83F80182819381DC01ED91FC9128
:101840000284F385E02D09958F770E9477018E83BE
:10185000F80182819381DC01ED91FC910284F38592
:10186000E02D09950E947701825E8F83CE0101965B
:101870000E9496078BCF88E293E00C949B0BCF924B
:10188000DF92EF92FF920F931F93CF93DF936C0140
:10189000E42E152F022FDC0112968D919C9121E0F0
:1018A0002093020228E62093240210920302109251
:1018B0002502DC01ED91FC910190F081E02D09956C
:1018C00081E00E946405F82E81111EC0802F013234
:1018D00008F080E20E9499041092010280930002B5
:1018E000CE2DD12F0C0F1D2F111DC017D10761F068
:1018F000F60182819381DC01ED91FC910284F385F4
:10190000E02D09958993F1CF8F2DDF91CF911F9114
:101910000F91FF90EF90DF90CF900895FB01019021
:101920000020E9F73197AF01461B570BDC01ED9121
:10193000FC910280F381E02D0994CF93DF93BC01E9
:1019400082E792E00E945C02EC016AE771E082E7C4
:1019500092E00E948E0C8C0F9D1FDF91CF91089515
:101960008F929F92AF92BF92EF92FF920F931F932D
:10197000CF93DF93CDB7DEB7A1970FB6F894DEBF54
:101980000FBECDBF7C01FA01CB0119A2223008F4B1
:101990002AE08E010F5D1F4F822E912CB12CA12CBD
:1019A000BF01A50194010E947617F901CA016A30AE
:1019B0000CF5605DD8016E938D01232B242B252B14
:1019C00079F790E080E0109721F0BD01C7010E94F7
:1019D0008E0CA1960FB6F894DEBF0FBECDBFDF917F
:1019E000CF911F910F91FF90EF90BF90AF909F907C
:1019F0008F900895695CDECFCF92DF92EF92FF92D5
:101A00000F931F93CF93DF936B01770FEE08FF08BF
:101A1000F7FE1BC0EC016DE20E9455028C014427C9
:101A20005527BA014C195D096E097F092AE0CE01DC
:101A30000E94B00C800F911FDF91CF911F910F91E9
:101A4000FF90EF90DF90CF9008952AE0B701A601B4
:101A5000DF91CF911F910F91FF90EF90DF90CF908A
:101A60000C94B00C85ED8093BC0080916E02909137
:101A70006F02A0917002B09171020796A11DB11D75
:101A800023E0B695A795979587952A95D1F720914C
:101A9000BC0024FD03C010926C02089540916E02B8
:101AA00050916F026091700270917102452B462B2C
:101AB000472B69F30097A105B10541F02AE22A9569
:101AC000F1F700C00197A109B109E1CF80916D0242
:101AD0000C9478041F920F920FB60F9211242F933B
:101AE0003F938F939F93AF93BF938091F401909115
:101AF000F501A091F601B091F7013091F30123E0D7
:101B0000230F2D3758F50196A11DB11D2093F30128
:101B10008093F4019093F501A093F601B093F7013F
:101B20008091F8019091F901A091FA01B091FB0127
:101B30000196A11DB11D8093F8019093F901A09326
:101B4000FA01B093FB01BF91AF919F918F913F91AB
:101B50002F910F900FBE0F901F90189526E8230F1E
:101B60000296A11DB11DD2CF1F920F920FB60F92F8
:101B700011242F933F934F935F936F937F938F9392
:101B80009F93AF93BF93EF93FF9382E792E00E94FE
:101B90008C03FF91EF91BF91AF919F918F917F91B6
:101BA0006F915F914F913F912F910F900FBE0F90CA
:101BB0001F9018951F920F920FB60F9211242F931A
:101BC0008F939F93EF93FF93E0918202F0918302B2
:101BD0008081E0918802F091890282FD1BC0908192
:101BE00080918B028F5F8F7320918C02821741F05E
:101BF000E0918B02F0E0EE58FD4F958F80938B02C1
:101C0000FF91EF919F918F912F910F900FBE0F90A9
:101C10001F9018958081F4CF1F920F920FB60F92EC
:101C200011242F933F934F935F936F937F938F93E1
:101C30009F93AF93BF93EF93FF938091B900887FF9
:101C4000803609F44AC0F0F5883209F4A7C018F5C7
:101C5000803109F49BC0B8F4882309F4F9C08830B6
:101C600009F494C0FF91EF91BF91AF919F918F9133
:101C70007F916F915F914F913F912F910F900FBE88
:101C80000F901F901895883109F488C0803251F761
:101C900080934A0214C0803409F49DC040F480331C
:101CA000B9F38833F9F680934A0285ECB0C08035E9
:101CB00009F485C0883509F496C0883499F60E94E5
:101CC000320DD0CF883909F48CC038F5883729F027
:101CD00050F4883611F0803729F683E080936C0247
:101CE0001092D50157C0883809F47BC0803919F0AB
:101CF000803809F0B7CF8091D501803208F071C0EB
:101D0000E091D50181E08E0F8093D5018091BB00D9
:101D1000F0E0EB54FE4F80833DC0803B39F0E0F4AF
:101D2000803A09F479C0883A09F09CCF84E0809326
:101D30006C021092B4011092B301E091FE01F09197
:101D4000FF0109958091B30181110FC081E080935B
:101D5000B3011092930109C0803C09F4A6CF883CDE
:101D600009F4A3CF883B09F07DCFE091B40181E075
:101D70008E0F8093B401F0E0ED56FE4F808180938A
:101D8000BB009091B4018091B30129C080914702BA
:101D90008093BB0085EC8093BC0064CF9091490296
:101DA00080914802981758F5E091490281E08E0F22
:101DB00080934902F0E0EA5DFD4F8081E9CFE09138
:101DC000490281E08E0F809349028091BB00F0E0D0
:101DD000EA5DFD4F808390914902809148029817F7
:101DE000C8F285E8D8CFE091490281E08E0F809358
:101DF00049028091BB00F0E0EA5DFD4F8083809155
:101E00004B0281115CCF81E08093460284EA80938B
:101E1000BC0010926C0226CF85EC8093BC0010921F
:101E20006C028091D501803230F4E091D501F0E070
:101E3000EB54FE4F10826091D50170E0E091FC01FF
:101E4000F091FD0185EB91E009951092D5010ACF43
:101E500010924A0234CFE2E7F2E01382128288EE57
:101E600093E0A0E0B0E084839583A683B7832AE360
:101E700031E03183208325EC30E03587248724EC62
:101E800030E03787268720EC30E0318B208B21EC47
:101E900030E0338B228B22EC30E0358B248B26EC28
:101EA00030E0378B268B118E128E138E148EECE160
:101EB000F3E01382128284839583A683B7838CE434
:101EC00091E091838083A8E2B3E01396FC93EE93B4
:101ED00012978AE691E08D939C93EFE0F3E01382F2
:101EE00012828EE591E09183808311868FE3848353
:101EF00080E1828782E0838714860895CF93DF9301
:101F0000CDB7DEB72D970FB6F894DEBF0FBECDBFAD
:101F1000789484B5826084BD84B5816084BD85B5C4
:101F2000826085BD85B5816085BD80916E008160D0
:101F300080936E0010928100809181008260809376
:101F40008100809181008160809381008091800078
:101F50008160809380008091B10084608093B100A3
:101F60008091B00081608093B00080917A0084609D
:101F700080937A0080917A00826080937A008091C9
:101F80007A00816080937A0080917A0080688093E3
:101F90007A001092C1000E946104E0918202F091E7
:101FA000830282E08083E0917E02F0917F021082C2
:101FB000E0918002F091810280E1808310928A0298
:101FC000E0918602F091870286E08083E0918402AE
:101FD000F0918502808180618083E0918402F0919C
:101FE0008502808188608083E0918402F09185027F
:101FF000808180688083E0918402F09185028081F5
:102000008F7D80830E9461041092140380911A03D3
:10201000823018F098E0909314038093170362E3E2
:1020200070E080E090E00E94170260911B038FE057
:1020300093E00E94DA0668EE73E080E090E00E9490
:10204000170260E38FE093E00E94220B0BE416E49A
:10205000C8010197F1F760E38FE093E00E94220B43
:10206000C8010197F1F760E38FE093E00E94220B33
:1020700083E592E00197F1F760E28FE093E00E9440
:10208000220B60911403606240E08FE093E00E94B5
:102090003B0B84E08093150340E06CE08FE093E01D
:1020A0000E943B0B0E94830B82E08093160340E06A
:1020B00066E08FE093E00E943B0B40E062E08FE03F
:1020C00093E00E943B0B8BE39FE10197F1F788E0DF
:1020D00080931B0360E08FE093E00E94DA0680E0CB
:1020E0000E94520B65ED71E08FE093E00E945C026C
:1020F00081E00E94520B65EC71E08FE093E00E945A
:102100005C0260ED77E080E090E00E9417020E94A0
:10211000830B88E991E00E949D0C84E791E00E9486
:102120009D0C8EE591E00E949D0C83E491E00E945D
:102130009D0C8AE191E00E949D0C84E091E00E9458
:102140009D0C88ED90E00E949D0C8BEA90E00E942F
:102150009D0C8BE39CE09093DF018093DE018091E6
:10216000DA019091DB01A091DC01B091DD01809357
:10217000D6019093D701A093D801B093D9010E94C2
:1021800016070E9416078091E0019091E1010297E5
:1021900009F4C0C08BE990E00E949D0C80E00E9491
:1021A000520B6BE870E08FE093E00E945C0284E0E9
:1021B0000E94850183E00E94850182E00E948501E2
:1021C00081E10E9485018AE00E94850189E00E94E8
:1021D000850188E00E94850187E00E94850186E0F4
:1021E0000E94850185E00E94850180E10E948501B1
:1021F0008FE00E9485018EE00E9485018DE00E94A3
:1022000085018CE00E9485018BE00E94850182E7B8
:1022100092E00E946C03181619060CF01DC10E9472
:1022200010032B011B010E9410036C870E941003F6
:102230006D870E9410038B010E9410036B010E94A6
:102240001003688779878A879B870E9410034B0158
:102250000130110509F0EEC0ECE04E1651041CF4FB
:10226000FCE02F0E311C98E12916310408F045C01E
:102270002B82EC85EA83FD85F9838C2D1C141D04CB
:1022800014F00E9460098E838885998518161906B6
:102290000CF4DBC00E94680994018D8318141904A2
:1022A0000CF0D5C02436310514F42053384F225B8E
:1022B0002F83BE016F5F7F4F88E293E00E94140A74
:1022C000CE0101960E9496070E94F10687E192E0F6
:1022D0000E949D0C0E94830B80E00E94520B69E0DB
:1022E00072E08FE093E00E945C0268EE73E080E0B1
:1022F00090E00E9417020E94830B82E792E00E9406
:102300006C03181619060CF0A7C082E792E00E9431
:10231000BC02F3CF64E770E082E792E00E945C02C7
:102320000E9460090A972CF460E382E792E00E9421
:1023300055020E946009BC0182E792E00E94FC0CF9
:102340006FE282E792E00E9455020E9468090A97B4
:102350002CF460E382E792E00E9455020E94680933
:10236000BC0182E792E00E94FC0C6FE282E792E0FF
:102370000E9455020E945609BC0182E792E00E9429
:10238000FC0C60E770E082E792E00E945C020E9431
:1023900080098C017C018CE0E81AF1080D301105F0
:1023A0003CF43CE0E32EF12C0115110551F07801CD
:1023B0009AE0E916F1042CF460E382E792E00E94CF
:1023C0005502B70182E792E00E94FC0C6AE382E7C3
:1023D00092E00E9455020E9478090A972CF460E36B
:1023E00082E792E00E9455020E947809BC0182E7D0
:1023F00092E00E94FC0C6AE382E792E00E945502A0
:102400000E9470090A972CF460E382E792E00E9430
:1024100055020E947009BC0182E792E00E94FC0C08
:102420008CE690E00C30110514F488E690E00E94F0
:102430009D0CBDCE012B09F016CF8CE0481651043F
:1024400009F011CF312C212C0ECF888525CF0E9489
:102450005609825B8F832DCF8091F201882309F486
:1024600054C00E9449020091E2011091E3012091C1
:10247000E4013091E501601B710B820B930B6E310F
:1024800071058105910508F440C00E9449026093DE
:10249000E2017093E3018093E4019093E50106E18A
:1024A00011E060E0F80181918F010E94A60186E2AF
:1024B00091E080179107A9F70091E60110E0F8017B
:1024C000EA5EFE4F61E080810E94A6010F5F1F4F10
:1024D0000F7011270093E6018091E7019091E801C8
:1024E00001969093E8018093E7012091E9013091F2
:1024F000EA018217930748F00A5E1E4F60E0F80178
:1025000080810E94A6011092F2010E9470095C0174
:102510008091000190910101A816B90609F4C8C183
:102520000E947809892B11F5A114B104F9F4809166
:10253000F20181111BC00E948009009709F4C5C1F6
:102540008D3091050CF00C9724E0880F991F2A9587
:10255000E1F79093EA018093E9011092E80110926B
:10256000E7011092E60181E08093F2018091F2018F
:1025700081112CC00E9416076B017C010E94320958
:102580004091ED0150E04D3051050CF4A1C14C508B
:10259000510964E082E391E00E94FE0AC701B6019E
:1025A0000E9432094091EC0150E066E08CE291E03B
:1025B0000E94FE0AC701B6010E9432094091EB0158
:1025C00050E066E086E291E00E94FE0A0E94600907
:1025D0000A972CF460E382E792E00E9455020E9481
:1025E0006009BC0182E792E00E94FC0C6FE282E786
:1025F00092E00E9455020E9468090A972CF460E359
:1026000082E792E00E9455020E946809BC0182E7BD
:1026100092E00E94FC0C6FE282E792E00E94550279
:102620000E945609BC0182E792E00E94FC0C65E022
:1026300072E082E792E00E945C020E9480094C01F5
:102640008C010C5011098D3091052CF40CE010E038
:10265000009749F08C010A3011052CF460E382E701
:1026600092E00E945502B80182E792E00E94FC0CC1
:102670006AE382E792E00E9455020E9478090A9775
:102680002CF460E382E792E00E9455020E947809F0
:10269000BC0182E792E00E94FC0C6AE382E792E0D0
:1026A0000E9455028AE0A816B1042CF460E382E788
:1026B00092E00E945502B50182E792E00E94FC0C74
:1026C00064EF71E09CE08916910414F460EF71E00E
:1026D00082E792E00E945C0288E293E00E9488090F
:1026E000BC01990F880B990B0E94001520E030E087
:1026F00040E85EE30E945F1520E030E040E151E4F5
:102700000E945F1520E030E040EA50E40E94A416E9
:1027100020E030E040E052E40E9438166B017C017A
:102720006BEF71E082E792E00E945C02A7019601E4
:10273000C701B6010E9451176DE771E081111BC0FE
:1027400026013701E89477F82FEF3FEF4FE75FE777
:10275000C301B2010E9451178111C1C02FEF3FEF99
:102760004FE75FE7C301B2010E94F91418160CF09D
:10277000B6C061E871E082E792E00E948E0C88EFBB
:1027800091E00E949D0C80E00E94520B0A301105DE
:102790002CF460E38FE093E00E945502B8018FE0D3
:1027A00093E00E94FC0C6AE38FE093E00E945502E4
:1027B0000E9478090A972CF460E38FE093E00E946E
:1027C00055020E947809BC018FE093E00E94FC0C46
:1027D0006AE38FE093E00E945502EAE0AE16B1048E
:1027E0002CF460E38FE093E00E945502B5018FE086
:1027F00093E00E94FC0C6CEE71E0FCE08F169104FB
:1028000014F468EE71E08FE093E00E945C0281E0D6
:102810000E94520B0E9460090A972CF460E38FE03B
:1028200093E00E9455020E946009BC018FE093E092
:102830000E94FC0C6FE28FE093E00E9455020E9420
:1028400068090A972CF460E38FE093E00E94550238
:102850000E946809BC018FE093E00E94FC0C6FE2CB
:102860008FE093E00E9455020E945609BC018FE060
:1028700093E00E94FC0C66EE71E08FE093E00E9412
:102880005C02C701B6010E9416178FE093E00E9418
:10289000FC0C6FED8FE093E00E94550264EE71E056
:1028A0008FE093E00E945C02B0920101A0920001CF
:1028B00080E090E0892B09F4AACC0E947803882359
:1028C00009F4A5CC0E940000A2CC8CE090E03CCEA4
:1028D0004115510509F05DCE4CE050E05ACE2FEF86
:1028E0003FEF4FE75FE4C701B6010E944C1718168F
:1028F0001CF465E871E03FCF2FEF3FEF4FE75FEC4F
:10290000C701B6010E94F91487FDF3CF20E030E043
:10291000A901C701B6010E94F91487FF67C06DE2E3
:1029200082E792E00E945502C701B60190582AE062
:1029300037ED43EA5BE30E943816688779878A8718
:102940009B870E941D172B013C010E94FE149B01D6
:10295000AC01688579858A859B850E9437166887D2
:1029600079878A879B872AE0B301A20182E792E0F8
:102970000E94B00C6EE282E792E00E94550220E0D5
:1029800030E040E251E4688579858A859B850E9424
:102990005F15688779878A879B870E941D172B019F
:1029A000712C612C2AE0B301A20182E792E00E941F
:1029B000B00CC301B2010E94FE149B01AC016885FA
:1029C00079858A859B850E94371620E030E040E2B9
:1029D00051E40E945F150E941D17AB0170E060E09A
:1029E0002AE082E792E00E94B00CC9CEC701B6018E
:1029F0009ECF0E943B1508F481E00895E89409C039
:102A000097FB3EF490958095709561957F4F8F4F21
:102A10009F4F9923A9F0F92F96E9BB279395F69537
:102A2000879577956795B795F111F8CFFAF4BB0FB5
:102A300011F460FF1BC06F5F7F4F8F4F9F4F16C019
:102A4000882311F096E911C0772321F09EE8872FA3
:102A5000762F05C0662371F096E8862F70E060E05F
:102A60002AF09A95660F771F881FDAF7880F9695D8
:102A7000879597F90895990F0008550FAA0BE0E87C
:102A8000FEEF16161706E807F907C0F01216130630
:102A9000E407F50798F0621B730B840B950B39F470
:102AA0000A2661F0232B242B252B21F408950A26D6
:102AB00009F4A140A6958FEF811D811D08950E9404
:102AC00072150C94E3150E94D51538F00E94DC15A0
:102AD00020F0952311F00C94CC150C94D2151124F0
:102AE0000C9417160E94F41570F3959FC1F3950F7F
:102AF00050E0551F629FF001729FBB27F00DB11D82
:102B0000639FAA27F00DB11DAA1F649F6627B00D11
:102B1000A11D661F829F2227B00DA11D621F739FFA
:102B2000B00DA11D621F839FA00D611D221F749F08
:102B30003327A00D611D231F849F600D211D822F4F
:102B4000762F6A2F11249F5750409AF0F1F0882376
:102B50004AF0EE0FFF1FBB1F661F771F881F9150A3
:102B60005040A9F79E3F510580F00C94CC150C9471
:102B700017165F3FE4F3983ED4F3869577956795F3
:102B8000B795F795E7959F5FC1F7FE2B880F911DCD
:102B90009695879597F9089597F99F6780E870E073
:102BA00060E008959FEF80EC089500240A941616C3
:102BB000170618060906089500240A94121613062B
:102BC000140605060895092E0394000C11F48823B9
:102BD00052F0BB0F40F4BF2B11F460FF04C06F5FD5
:102BE0007F4F8F4F9F4F089557FD9058440F551FAB
:102BF00059F05F3F71F04795880F97FB991F61F07F
:102C00009F3F79F087950895121613061406551FF5
:102C1000F2CF4695F1DF08C0161617061806991F61
:102C2000F1CF86957105610508940895E894BB2756
:102C300066277727CB0197F908950E942816A59F4C
:102C4000900DB49F900DA49F800D911D11240895A7
:102C5000A29FB001B39FC001A39F700D811D1124DD
:102C6000911DB29F700D811D1124911D0895505822
:102C7000BB27AA270E944F160C94E3150E94D51576
:102C800038F00E94DC1520F039F49F3F19F426F447
:102C90000C94D2150EF4E095E7FB0C94CC15E92FBB
:102CA0000E94F41558F3BA17620773078407950753
:102CB00020F079F4A6F50C9416160EF4E0950B2E80
:102CC000BA2FA02D0B01B90190010C01CA01A0017E
:102CD0001124FF27591B99F0593F50F4503E68F1D9
:102CE0001A16F040A22F232F342F4427585FF3CF1A
:102CF000469537952795A795F0405395C9F77EF4EB
:102D00001F16BA0B620B730B840BBAF09150A1F033
:102D1000FF0FBB1F661F771F881FC2F70EC0BA0FB9
:102D2000621F731F841F48F4879577956795B79541
:102D3000F7959E3F08F0B0CF9395880F08F099273C
:102D4000EE0F9795879508950E94B8160C94E31599
:102D50000E94DC1558F00E94D51540F029F45F3F21
:102D600029F00C94CC1551110C9417160C94D21513
:102D70000E94F41568F39923B1F3552391F3951B41
:102D8000550BBB27AA2762177307840738F09F5F8C
:102D90005F4F220F331F441FAA1FA9F335D00E2EF9
:102DA0003AF0E0E832D091505040E695001CCAF766
:102DB0002BD0FE2F29D0660F771F881FBB1F261729
:102DC00037074807AB07B0E809F0BB0B802DBF0100
:102DD000FF2793585F4F3AF09E3F510578F00C94CF
:102DE000CC150C9417165F3FE4F3983ED4F3869508
:102DF00077956795B795F7959F5FC9F7880F911DF0
:102E00009695879597F90895E1E0660F771F881FDB
:102E1000BB1F621773078407BA0720F0621B730B8E
:102E2000840BBA0BEE1F88F7E09508950E941D17DA
:102E30006894B1110C94171608950E94FC1588F03F
:102E40009F5798F0B92F9927B751B0F0E1F0660F6E
:102E5000771F881F991F1AF0BA95C9F714C0B130AF
:102E600091F00E941616B1E008950C941616672F83
:102E7000782F8827B85F39F0B93FCCF386957795DE
:102E80006795B395D9F73EF49095809570956195C7
:102E90007F4F8F4F9F4F08950E943B1508F48FEF8F
:102EA00008950E943B15880B990B0895991B79E0B2
:102EB00004C0991F961708F0961B881F7A95C9F7CA
:102EC0008095089597FB072E16F4009407D077FDA0
:102ED00009D00E94A01707FC05D03EF4909581957B
:102EE0009F4F0895709561957F4F0895A1E21A2E26
:102EF000AA1BBB1BFD010DC0AA1FBB1FEE1FFF1F9E
:102F0000A217B307E407F50720F0A21BB30BE40BED
:102F1000F50B661F771F881F991F1A9469F7609534
:102F20007095809590959B01AC01BD01CF010895EE
:102F3000B7FF0C941D160E941D16821B930B08955B
:102F4000AA1BBB1B51E107C0AA1FBB1FA617B707CF
:102F500010F0A61BB70B881F991F5A95A9F78095EB
:102F60009095BC01CD010895EE0FFF1F0590F491DF
:082F7000E02D0994F894FFCF55
:102F7800FFFF00004000140054001F1C1F1E1F1EEE
:102F88001F1F1E1F1E1F100F0E0D0C0B0A0908070E
:102F9800060504030211100F0E0D0C0B0A09080791
:102FA80006050403021100000000AE038002AD0212
:102FB800FB036C03BC02D00200000000AB067E06D7
:102FC800EE06540677066406550600000000950BC9
:102FD8008002EE061B0400000000FC0A9B0BD90AC5
:102FE800D609C1093F0CAC0988090D0A006E616E4B
:0A2FF80000696E66006F7666000047
:00000001FF
