:100000000C94F0000C9418010C9418010C94180135
:100010000C9418010C9418010C9418010C941801FC
:100020000C9418010C9418010C9418010C941801EC
:100030000C9418010C9418010C9418010C941801DC
:100040000C943F0C0C9418010C94AF0C0C94890C7C
:100050000C9418010C9418010C9418010C941801BC
:100060000C94E10C0C941801207C20005254432085
:1000700053796E63204F4B212043757272656E7405
:100080003A20005254432053796E63204572726FB8
:100090007221003D3D3D3D3D3D3D3D3D3D3D3D3DB4
:1000A0003D3D3D3D3D3D3D3D3D3D3D3D3D3D3D3D80
:1000B0003D3D3D3D3D3D3D3D3D3D3D00466F726D0D
:1000C000617420746F207365743A204848204D4D48
:1000D000205353204444204D4D2059595959004C28
:1000E0006963656E73656420756E646572204D4941
:1000F00054204C6963656E736500436F7079726953
:10010000676874204D6172656B2042756A6B6F0081
:1001100050726F6A6563743A205247422042696E9A
:1001200061727920436C6F636B2076312E31003D14
:100130003D3D3D3D3D3D3D3D3D3D3D3D3D3D3D3DEF
:100140003D3D3D3D3D3D3D3D3D3D3D3D3D3D3D3DDF
:100150003D3D3D3D3D3D3D00204300207C2054651C
:100160006D703A2000207C20002A204461746520B4
:10017000616E642074696D65207570646174656476
:10018000207669612053657269616C202A00000045
:100190000008000201000003040700000000000046
:1001A000000000000000250028002B0000000000D7
:1001B000240027002A0004040404040404040202A6
:1001C00002020202030303030303010204081020D6
:1001D0004080010204081020010204081020000ED3
:1001E00011241FBECFEFD8E0DEBFCDBF23E0A6E9CC
:1001F000B1E001C01D92A232B207E1F711E0A0E028
:10020000B1E0EAEEF7E202C005900D92A639B1071F
:10021000D9F710E0C0EFD0E004C02197FE010E94A2
:10022000ED13CF3ED107C9F70E94430E0C94F31390
:100230000C940000282F30E094E0359527959A958E
:10024000E1F7922F990F990F291B220F820F089522
:1002500090E0FC01E653FE4F24918A549E4FFC012E
:100260008491882399F090E0880F991FFC01E45550
:10027000FE4FA591B491FC01EE55FE4F85919491EE
:100280008FB7F894EC91E22BEC938FBF089590E038
:10029000FC01E257FE4F2491FC01E653FE4F3491DE
:1002A000FC01EA54FE4FE491EE23C9F0222339F019
:1002B000233001F1A8F4213019F1223029F1F0E0C6
:1002C000EE0FFF1FEE55FE4FA591B4918FB7F89436
:1002D000EC91611126C030953E233C938FBF089569
:1002E0002730A9F02830C9F0243049F780918000E8
:1002F0008F7D03C0809180008F7780938000DFCF57
:1003000084B58F7784BDDBCF84B58F7DFBCF8091A3
:10031000B0008F778093B000D2CF8091B0008F7DF6
:10032000F9CF3E2BDACF3FB7F8948091FC01909142
:10033000FD01A091FE01B091FF0126B5A89B05C06B
:100340002F3F19F00196A11DB11D3FBFBA2FA92F54
:10035000982F8827BC01CD01620F711D811D911D51
:1003600042E0660F771F881F991F4A95D1F70895BD
:1003700008950895AF92BF92CF92DF92EF92FF92CD
:100380000F931F93CF93DF936C017B018B01040FBD
:10039000151FEB015E01AE18BF08C017D10759F059
:1003A0006991D601ED91FC910190F081E02DC6019B
:1003B0000995892B79F7C501DF91CF911F910F9195
:1003C000FF90EF90DF90CF90BF90AF900895FC0129
:1003D000538D448D252F30E0842F90E0821B930BAA
:1003E000541710F0CF96089501970895FC01918D50
:1003F000828D981761F0A28DAE0FBF2FB11D5D9653
:100400008C91928D9F5F9F73928F90E008958FEFF4
:100410009FEF0895FC01918D828D981731F0828DA8
:10042000E80FF11D858D90E008958FEF9FEF0895FF
:100430002FB7F8948091000290910102A0910202DE
:10044000B09103022FBF80937C0290937D02A09312
:100450007E02B0937F0284E792E00E940A0297FF37
:1004600026C02FB7F8948091000290910102A091CC
:100470000202B09103022FBF40917C0250917D0295
:1004800060917E0270917F02841B950BA60BB70BC7
:10049000409178025091790260917A0270917B02CA
:1004A00084179507A607B707B0F28FEF9FEF08955F
:1004B000CF92DF92EF92FF92CF930E941802FC013D
:1004C00097FD4EC08D32910521F0C0970A9708F034
:1004D00040C0C12CD12C7601C0E0E130F105D1F053
:1004E000ED32F105D9F1CF01C0970A9798F4AAE04F
:1004F000B0E0A70196010E94CF126F01FF0FEE0836
:10050000FF08C60ED71EE81EF91E80E3C81AD108E0
:10051000E108F10884E792E00E94F6010E941802C7
:10052000FC01C0970A97C8F2E130F105B1F2CC2383
:1005300041F0F094E094D094C094C11CD11CE11C13
:10054000F11CC701B601CF91FF90EF90DF90CF90E3
:10055000089584E792E00E94F601AFCFC1E0DACFC0
:10056000C12CD12C7601EDCFFC01918D228D892FEC
:1005700090E0805C9F4F821B91098F7399270895AB
:1005800084E792E00E94B40221E0892B09F420E084
:10059000822F089580E090E0892B29F00E94C0020C
:1005A00081110C9400000895FC01A48DA80FB92FAF
:1005B000B11DA35ABF4F2C91848D90E001968F738B
:1005C0009927848FA689B7892C93A089B1898C91AA
:1005D000837080648C93938D848D981306C00288F9
:1005E000F389E02D80818F7D80830895EF92FF92C3
:1005F0000F931F93CF93DF93EC0181E0888F9B8D46
:100600008C8D98131AC0E889F989808185FF15C0FF
:100610009FB7F894EE89FF896083E889F989808122
:100620008370806480839FBF81E090E0DF91CF91F1
:100630001F910F91FF90EF900895F62E0B8D10E013
:100640000F5F1F4F0F731127E02E8C8D8E110CC082
:100650000FB607FCFACFE889F989808185FFF5CFCD
:10066000CE010E94D402F1CFEB8DEC0FFD2FF11DD6
:10067000E35AFF4FF0829FB7F8940B8FEA89FB890A
:1006800080818062CFCF682F84E792E00C94F602DD
:100690000F931F93CF93DF938C01D0E0C0E0F8015C
:1006A000EC0FFD1F6491662341F084E792E00E9405
:1006B000F602892B11F02196F2CFCE01DF91CF9176
:1006C0001F910F910895CF93DF93EC01888D8823BC
:1006D000B9F0AA89BB89E889F9898C9185FD03C0A5
:1006E000808186FD0DC00FB607FCF7CF8C9185FF8A
:1006F000F2CF808185FFEDCFCE010E94D402E9CFF9
:10070000DF91CF9108952091BF01260F3327331F2A
:1007100021323105ECF420916E02FC0190E080E082
:10072000243069F082E00895A091BF012191AC01CD
:1007300041565E4FA40FB52FB11D2C93019686171D
:1007400098F38091BF01680F6093BF0180E0089526
:1007500081E0089510926E0281E080934D02109224
:10076000480261E082E10E94470161E083E10E946A
:100770004701E9EBF0E080818E7F808380818D7F6F
:10078000808388E48093B80085E48093BC0008955A
:10079000CF93DF9391E090939E018823B9F0C091AD
:1007A000B800D091BA008091BC008A7B8093BC00D5
:1007B00060E082E10E94470160E083E10E9447011E
:1007C0000E94AA03D093BA00C093B800DF91CF91E2
:1007D0000895CF92DF92EF92FF920F931F93CF93E2
:1007E000C82F813208F096C00E9493016B017C01F2
:1007F00080916E02811169C081E080936E028093C6
:100800004D029FEF90934C0210924B029C0F9093DD
:100810004A028093490280914902806D8093490287
:1008200080914802813009F077C0109248020E94FE
:1008300093016B017C01809149028093BB00809100
:10084000700290917102A0917202B0917302892B93
:100850008A2B8B2BA1F00E949301009170021091C2
:10086000710220917202309173026C197D098E0918
:100870009F09061717072807390708F447C0809112
:10088000BC0083FDD8CF85EC8093BC000E9493010F
:100890006B017C0180916E02813009F43FC0809130
:1008A0004B028C1710F4C0914B02A8E2B2E0EEE4C8
:1008B000F2E080E08C1354C08C2FCF911F910F91E8
:1008C000FF90EF90DF90CF9008958091700290910B
:1008D0007102A0917202B0917302892B8A2B8B2B2B
:1008E00009F486CF0E949301009170021091710269
:1008F00020917202309173026C197D098E099F0953
:10090000061717072807390708F072CF80916F0282
:100910000E94C803C0E0D0CF85EEB6CF80917002B0
:1009200090917102A0917202B0917302892B8A2B6F
:100930008B2B09F4AFCF0E949301009170021091AC
:10094000710220917202309173026C197D098E0937
:100950009F09061717072807390708F09BCFD6CF3E
:100960009D9191938F5FA6CF8F929F92AF92BF92EE
:10097000CF92DF92EF92FF920F931F93CF93DF936B
:10098000D0912702D13208F0D7C0182FC09126028B
:100990000E9493016B017C0180916E0281116BC0FA
:1009A00082E080936E0210934D028FEF80934C0291
:1009B00010924B02D0934A02A6E0B2E0E8E2F2E0E5
:1009C00080E0D81391C01092490280914902CC0F67
:1009D000C82BC093490280914802813009F088C039
:1009E000109248020E9493016B017C0180914902A0
:1009F0008093BB008091700290917102A09172026D
:100A0000B0917302892B8A2B8B2BA1F00E9493014A
:100A10000091700210917102209172023091730264
:100A20006C197D098E099F090617170728073907D2
:100A300008F442C08091BC0083FDD8CF85EC809340
:100A4000BC000E9493016B017C0180916E02823098
:100A500009F450C080914C028F3F09F46FC080911F
:100A60004C02803209F46CC080914C02803309F44E
:100A700069C084E026C08091700290917102A091BB
:100A80007202B0917302892B8A2B8B2B09F484CFCD
:100A90000E9493018090700290907102A090720267
:100AA000B09073026C197D098E099F09861697060E
:100AB000A806B90608F070CF80916F020E94C803A3
:100AC00085E0109205021092270210920402DF9135
:100AD000CF911F910F91FF90EF90DF90CF90BF903B
:100AE000AF909F908F9008959D9191938F5F69CF64
:100AF00085EEA5CF8091700290917102A091720253
:100B0000B0917302892B8A2B8B2B09F49ECF0E9404
:100B10009301009170021091710220917202309144
:100B200073026C197D098E099F090617170728079C
:100B3000390708F08ACFC0CF81E0C3CF80E0C1CFB2
:100B400082E0BFCF83E0BDCF0895E091E7018091BF
:100B5000E601E81730F4F0E0E25BFD4F808190E0C1
:100B600008958FEF9FEF08959091E7018091E6013E
:100B70002FEF3FEF981748F4E92FF0E0E25BFD4FCD
:100B8000208130E09F5F9093E701C9010895809133
:100B9000E6019091E701891B990B0895CF92DF92AE
:100BA000EF92FF920F931F93CF93DF937C01CB01C2
:100BB0008A0120910402222389F0EB016B01C40E0B
:100BC000D51ECC15DD0569F06991D701ED91FC9139
:100BD0000190F081E02DC7010995F3CF642F0E94A9
:100BE0008303C801DF91CF911F910F91FF90EF9088
:100BF000DF90CF900895CF93DF931F92CDB7DEB7EC
:100C00006983209104022223F9F0209127022032E7
:100C100058F021E030E0FC013383228390E080E053
:100C20000F90DF91CF91089580910502E82FF0E0B9
:100C3000EA5FFD4F998190838F5F809305028093D7
:100C4000270281E090E0ECCF61E0CE0101960E94A6
:100C50008303F7CF90E080E008956093EC017093F8
:100C6000ED018093EE019093EF01645D7E4F8F4F15
:100C70009F4F6093E8017093E9018093EA0190939C
:100C8000EB0182E090E09093F3018093F2012FB7A3
:100C9000F8948091000290910102A0910202B0911B
:100CA00003022FBF80939A0190939B01A0939C0114
:100CB000B0939D0108950F931F938FB7F8940091FF
:100CC00000021091010220910202309103028FBFB5
:100CD00040919A0150919B0160919C0170919D01FE
:100CE000041B150B260B370B8091EC019091ED0145
:100CF000A091EE01B091EF01083E134021053105AE
:100D0000C0F00196A11DB11D8093EC019093ED01FF
:100D1000A093EE01B093EF0148515C4F6F4F7F4FAE
:100D200040939A0150939B0160939C0170939D01A5
:100D3000C4CF4091E8015091E9016091EA017091BE
:100D4000EB0184179507A607B70770F0E091F00153
:100D5000F091F101309741F0099561157105810518
:100D6000910569F00E942D066091EC017091ED01F2
:100D70008091EE019091EF011F910F910895809164
:100D8000EC019091ED01A091EE01B091EF01845D35
:100D90009E4FAF4FBF4F8093E8019093E901A0931E
:100DA000EA01B093EB0181E090E02091F2013091F3
:100DB000F301232B11F490E080E09093F3018093F2
:100DC000F201D2CF4F925F926F927F928F929F9259
:100DD000AF92BF92CF92DF92EF92FF920F931F9349
:100DE000CF93DF93FC011681A12FB0E020E833E31D
:100DF00041EE51E00E94CF124B015C01C2EBD7E003
:100E00009D0104E610E080E9E82EFF24F394CE0172
:100E1000825B9740821793079CF14580512C2E549A
:100E2000384FC90164E670E00E949B137C01C90140
:100E300060E971E00E949B136C0102E211E0C1E0E5
:100E4000D0E0390183E068227724C415D5050CF081
:100E500040C0C230D10571F56114710459F5E11437
:100E6000F10419F4C114D10429F5B0E88B0EBBE3E9
:100E70009B1EB6E2AB1EB11C21960F5F1F4FE5CF44
:100E8000CE0183709927892B99F4CE01B8010E9475
:100E90009B13892B31F4CE01B7010E949B13892B40
:100EA00039F4A0E88A0EA1E59A1EA1E0AA1EB11CA1
:100EB0002196ADCFD8018C91A82FB0E020E831E584
:100EC00041E050E00E94CF12860E971EA81EB91E68
:100ED000D3CF228130E0A0E1BEE00E94DA126B01A4
:100EE0007C01218130E0ACE3B0E00E94DA12C60E52
:100EF000D71EE81EF91E8081C80ED11CE11CF11C12
:100F0000A481A150BB0B20E831E541E050E00E94F4
:100F1000D1136C0D7D1D8E1D9F1D680D791D8A1DC1
:100F20009B1DDF91CF911F910F91FF90EF90DF906C
:100F3000CF90BF90AF909F908F907F906F905F9079
:100F40004F9008956F927F928F929F92AF92BF922F
:100F5000CF92DF92EF92FF920F931F93CF93DF9385
:100F60006B017C01EA018CE3882E912CA12CB12C21
:100F7000C701A50194010E94AF136883CA01B9019A
:100F8000A50194010E94AF136983C701B60120E156
:100F90003EE040E050E00E94AF13CA01B90128E1F1
:100FA00030E040E050E00E94AF136A83C701B60111
:100FB00020E831E541E050E00E94AF1369017A0179
:100FC000CA01B9016C5F7F4F8F4F9F4F27E030E020
:100FD00040E050E00E94AF136F5F6B83812C912C37
:100FE000540140E094E6692E712C00E911E0242FB1
:100FF00030E02E54384FF901E370FF273097F9F4B1
:10100000C901B3010E949B13892B31F4C901B801B6
:101010000E949B13892B99F48EE691E0A0E0B0E04A
:10102000880E991EAA1EBB1ED501C401AA27BB2784
:10103000C816D906EA06FB0638F04F5FD8CF8DE612
:1010400091E0A0E0B0E0ECCF4E83C90164E670E02F
:101050000E949B138C01C90160E971E00E949B13FF
:10106000309729F401151105E1F40097D1F04DE610
:1010700051E060E070E0841A950AA60AB70AC81821
:10108000D908EA08FB08A2E2B1E020E0213071F4BF
:10109000309791F50115110511F4009769F54DE1AF
:1010A00006C04EE651E060E070E0E5CF4C9150E0C4
:1010B00070E060E031E0320FC416D506E606F706B0
:1010C00040F0C41AD50AE60AF70A1196232F3C30DD
:1010D000E9F62F5F2D83C394CC82DF91CF911F91CE
:1010E0000F91FF90EF90DF90CF90BF90AF909F90C7
:1010F0008F907F906F9008954CE1D9CFCF92DF927F
:10110000EF92FF92C0909601D0909701E0909801E5
:10111000F0909901C616D706E806F90671F06B0142
:101120007C0144EF51E00E94A207C0929601D09248
:101130009701E0929801F0929901FF90EF90DF9073
:10114000CF9008950E945B060E947E088091FA016C
:1011500090E08E54984F08950E945B060E947E088E
:101160008091F90190E008950E945B060E947E083C
:101170008091F80190E008950E945B060E947E082D
:101180008091F40190E008950E945B060E947E0821
:101190008091F50190E008950E945B060E947E0810
:1011A0008091F60190E008951F93CF93DF93EC01B7
:1011B000E881F9810484F585E02D62E10995182F15
:1011C000E881F9810484F585E02D61E1CE0109957E
:1011D000212F382F37FF02C0215C3F4FC90126E085
:1011E000959587952A95E1F7DF91CF911F91089505
:1011F000CF93DF931F92CDB7DEB7DC01ED91FC9169
:101200000284F385E02D21E0AE014F5F5F4F099529
:1012100089810F90DF91CF910895CF93DF931F9233
:10122000CDB7DEB74983DC01ED91FC910680F781F3
:10123000E02D21E0AE014F5F5F4F09950F90DF91E8
:10124000CF910895DF92EF92FF920F931F93CF9368
:10125000DF937C01D42E152F022FDC0112968D9185
:101260009C9121E02093040228E62093260210920C
:10127000050210922702DC01ED91FC910190F081B2
:10128000E02D0995CD2DD12F0C0F1D2F111DC0174D
:10129000D10761F0F701828193816991DC01ED91C1
:1012A000FC910190F081E02D0995F1CF81E0DF9173
:1012B000CF911F910F91FF90EF90DF900C94B404A9
:1012C000FF920F931F93CF93DF93EC018B018A81E1
:1012D0009B8121E02093040228E6209326021092AD
:1012E000050210922702DC01ED91FC910190F08142
:1012F000E02D60E00995AA81BB81F80120818AE098
:10130000F82E822F6F2D0E948F13682F660F680FA3
:10131000660F620FED91FC9111970190F081E02D25
:10132000CD010995AA81BB81F8012181822F6F2D02
:101330000E948F13682F660F680F660F620FED9182
:10134000FC9111970190F081E02DCD010995AA81C2
:10135000BB81F8012281822F6F2D0E948F13682F8D
:10136000660F680F660F620FED91FC911197019067
:10137000F081E02DCD0109958A819B81DC01ED9101
:10138000FC910190F081E02DD80113966C910995A4
:10139000AA81BB81F8012481822F6F2D0E948F13B7
:1013A000682F660F680F660F620FED91FC91119721
:1013B0000190F081E02DCD010995AA81BB81F80152
:1013C0002581822F6F2D0E948F13682F660F680F63
:1013D000660F620FED91FC9111970190F081E02D65
:1013E000CD010995AA81BB81F80126812E51822F5A
:1013F0006F2D0E948F13682F660F680F660F620FA4
:10140000ED91FC9111970190F081E02DCD010995AE
:1014100081E00E94B404182FE881F9810484F585E5
:10142000E02D6FE0CE010995482F4F77E881F981D3
:101430000084F185E02D6FE0CE010995812FDF91C9
:10144000CF911F910F91FF9008950F931F93CF930A
:10145000DF9300D000D000D01F92CDB7DEB78C0153
:10146000CB01BA01AE014F5F5F4F0E94A207BE01E0
:101470006F5F7F4FC8010E94600927960FB6F894EE
:10148000DEBF0FBECDBFDF91CF911F910F910895A9
:101490001092E7011092E6011092050210922702C5
:1014A0000E94AA0388EB91E09093E5018093E40108
:1014B00089EB91E09093E3018093E2010895CF924C
:1014C000DF92EF92FF920F931F93CF93DF937B01F5
:1014D0006A018C01D0E0C0E0F80180810E5F1F4FEF
:1014E000B6010C2E02C0759567950A94E2F76170FB
:1014F0000E9447012196EC16FD0671F7DF91CF910E
:101500001F910F91FF90EF90DF90CF900895FC0115
:1015100001900020E9F73197AF01481B590BBC013E
:1015200084E792E00C94BA018F929F92AF92BF929F
:101530000F931F93CF93DF93CDB7DEB7A1970FB66D
:10154000F894DEBF0FBECDBF19A2423008F44AE0C6
:101550008E010F5D1F4F842E912CB12CA12CA50163
:1015600094010E94AF13E62FB901CA01EA30F4F4E6
:10157000E05DD801EE938D01232B242B252B79F7E9
:1015800090E080E0109719F0CD010E94870AA196A3
:101590000FB6F894DEBF0FBECDBFDF91CF911F9184
:1015A0000F91BF90AF909F908F900895E95CE1CF2D
:1015B000CF93DF930E944803EC0186E891E00E94FC
:1015C000870A8C0F9D1FDF91CF910895CF92DF92F4
:1015D000EF92FF92CF93DF936C01990FEE08FF0813
:1015E000F7FE17C08DE20E944303EC0166277727C0
:1015F000CB016C197D098E099F094AE00E94940A6B
:101600008C0F9D1FDF91CF91FF90EF90DF90CF90D7
:1016100008954AE0C701B601DF91CF91FF90EF90A6
:10162000DF90CF900C94940A0F931F93CF93DF9386
:1016300000D000D000D01F92CDB7DEB78C01DC0106
:1016400012968D919C9121E02093040228E620932C
:1016500026021092050210922702DC01ED91FC9106
:101660000190F081E02D60E0099581E00E94B404D2
:10167000882381F0F801848360E070E0CB01279635
:101680000FB6F894DEBF0FBECDBFDF91CF911F9193
:101690000F91089587E00E94E9031092E70180937B
:1016A000E601D80112968D919C91DC01ED91FC919F
:1016B0000284F385E02D09958F770E941A018983B2
:1016C000F80182819381DC01ED91FC910284F38524
:1016D000E02D09950E941A018A83F8018281938185
:1016E000DC01ED91FC910284F385E02D09958F7B5F
:1016F0000E941A018B83F80182819381DC01ED91B4
:10170000FC910284F385E02D09958C83F801828198
:101710009381DC01ED91FC910284F385E02D099524
:101720000E941A018D83F80182819381DC01ED9181
:10173000FC910284F385E02D09958F770E941A01B0
:101740008E83F80182819381DC01ED91FC9102840A
:10175000F385E02D09950E941A01825E8F83CE01E8
:1017600001960E94E2068BCF8DE193E00C94140B5E
:10177000CF92DF92EF92FF920F931F93CF93DF935D
:101780006C01E42E152F022FDC0112968D919C9195
:1017900021E02093040228E62093260210920502FD
:1017A00010922702DC01ED91FC910190F081E02D77
:1017B000099581E00E94B404F82E81111EC0802F8B
:1017C000013208F080E20E94E9031092E701809361
:1017D000E601CE2DD12F0C0F1D2F111DC017D107E3
:1017E00061F0F60182819381DC01ED91FC9102842C
:1017F000F385E02D09958993F1CF8F2DDF91CF915E
:101800001F910F91FF90EF90DF90CF90089585ED9D
:101810008093BC008091700290917102A09172023D
:10182000B09173020796A11DB11D23E0B695A7954F
:10183000979587952A95D1F72091BC0024FD03C088
:1018400010926E0208954091700250917102609161
:10185000720270917302452B462B472B69F3009758
:10186000A105B10541F02AE22A95F1F700C00197E0
:10187000A109B109E1CF80916F020C94C8031F92B6
:101880000F920FB60F9211242F933F938F939F9334
:10189000AF93BF938091000290910102A091020248
:1018A000B09103023091FB0123E0230F2D3758F54F
:1018B0000196A11DB11D2093FB018093000290931E
:1018C0000102A0930202B09303028091FC01909167
:1018D000FD01A091FE01B091FF010196A11DB11D76
:1018E0008093FC019093FD01A093FE01B093FF0152
:1018F000BF91AF919F918F913F912F910F900FBE0C
:101900000F901F90189526E8230F0296A11DB11D78
:10191000D2CF1F920F920FB60F9211242F933F93A5
:101920004F935F936F937F938F939F93AF93BF93E7
:10193000EF93FF9384E792E00E94D402FF91EF912E
:10194000BF91AF919F918F917F916F915F914F91D7
:101950003F912F910F900FBE0F901F9018951F92DF
:101960000F920FB60F9211242F938F939F93EF93A3
:10197000FF93E0918402F09185028081E0918A02D8
:10198000F0918B0282FD1BC0908180918D028F5F50
:101990008F7320918E02821741F0E0918D02F0E06A
:1019A000EC58FD4F958F80938D02FF91EF919F91A1
:1019B0008F912F910F900FBE0F901F9018958081DF
:1019C000F4CF1F920F920FB60F9211242F933F93D3
:1019D0004F935F936F937F938F939F93AF93BF9337
:1019E000EF93FF938091B900887F803609F44AC055
:1019F000F0F5883209F4A7C018F5803109F49BC0CE
:101A0000B8F4882309F4F9C0883009F494C0FF9130
:101A1000EF91BF91AF919F918F917F916F915F9166
:101A20004F913F912F910F900FBE0F901F901895DF
:101A3000883109F488C0803251F780934C0214C079
:101A4000803409F49DC040F48033B9F38833F9F64B
:101A500080934C0285ECB0C0803509F485C0883590
:101A600009F496C0883499F60E94070CD0CF8839C3
:101A700009F48CC038F5883729F050F4883611F015
:101A8000803729F683E080936E021092E10157C0FF
:101A9000883809F47BC0803919F0803809F0B7CF55
:101AA0008091E101803208F071C0E091E10181E0B4
:101AB0008E0F8093E1018091BB00F0E0EF53FE4F69
:101AC00080833DC0803B39F0E0F4803A09F479C06E
:101AD000883A09F09CCF84E080936E021092C00196
:101AE0001092BF01E091E401F091E5010995809128
:101AF000BF0181110FC081E08093BF0110929F014F
:101B000009C0803C09F4A6CF883C09F4A3CF883BE8
:101B100009F07DCFE091C00181E08E0F8093C0017C
:101B2000F0E0E156FE4F80818093BB009091C001B0
:101B30008091BF0129C0809149028093BB0085EC50
:101B40008093BC0064CF90914B0280914A02981719
:101B500058F5E0914B0281E08E0F80934B02F0E04C
:101B6000E85DFD4F8081E9CFE0914B0281E08E0F6F
:101B700080934B028091BB00F0E0E85DFD4F8083D5
:101B800090914B0280914A029817C8F285E8D8CF0D
:101B9000E0914B0281E08E0F80934B028091BB005D
:101BA000F0E0E85DFD4F808380914D0281115CCFB4
:101BB00081E08093480284EA8093BC0010926E0218
:101BC00026CF85EC8093BC0010926E028091E101DB
:101BD000803230F4E091E101F0E0EF53FE4F1082EB
:101BE0006091E10170E0E091E201F091E30181ECAC
:101BF00091E009951092E1010ACF10924C0234CF86
:101C0000E4E7F2E01382128288EE93E0A0E0B0E015
:101C100084839583A683B78322E531E031832083D3
:101C200025EC30E03587248724EC30E037872687A1
:101C300020EC30E0318B208B21EC30E0338B228B99
:101C400022EC30E0358B248B26EC30E0378B268B72
:101C5000118E128E138E148EE1E1F3E01382128244
:101C600084839583A683B78384E691E09183808300
:101C7000ADE1B3E01396FC93EE93129786E791E003
:101C80008D939C930895CF93DF93CDB7DEB72B97B9
:101C90000FB6F894DEBF0FBECDBF789484B58260D6
:101CA00084BD84B5816084BD85B5826085BD85B500
:101CB000816085BD80916E00816080936E0010927E
:101CC00081008091810082608093810080918100F9
:101CD000816080938100809180008160809380008A
:101CE0008091B10084608093B1008091B0008160E8
:101CF0008093B00080917A00846080937A00809114
:101D00007A00826080937A0080917A00816080936B
:101D10007A0080917A00806880937A001092C100E6
:101D20001092E7011092E60110920502109227022C
:101D30000E94AA0388EB91E09093E5018093E4016F
:101D400089EB91E09093E3018093E201E0918402BA
:101D5000F091850282E08083E0918002F09181021F
:101D60001082E0918202F09183028FEC80831092C6
:101D70008C02E0918802F091890286E08083E091F4
:101D80008602F0918702808180618083E0918602E3
:101D9000F0918702808188608083E0918602F091D3
:101DA0008702808180688083E0918602F0918702BB
:101DB00080818F7D80838FE291E00E94D80A80E14C
:101DC00091E00E94D80A8AEF90E00E94D80A8FED35
:101DD00090E00E94D80A8CEB90E00E94D80A83E938
:101DE00090E00E94D80A84EB9BE09093F1018093ED
:101DF000F0018091EC019091ED01A091EE01B09184
:101E0000EF018093E8019093E901A093EA01B09378
:101E1000EB010E945B060E945B068091F2019091AB
:101E2000F301029709F48CC083E890E00E94D80A7D
:101E300008E111E0F80180810E5F1F4F0E94280128
:101E4000F1E000321F07B1F70CE011E038E1E32EBA
:101E500031E0F32EF80180810E5F1F4F0E942801B0
:101E6000E016F106B9F700E011E02CE0E22E21E0E7
:101E7000F22EF80180810E5F1F4F0E942801E016AC
:101E8000F106B9F784E792E00E94B4021816190629
:101E90000CF0B1C00E9458022B010E945802062F7C
:101EA0000E945802162F0E9458026B010E9458028D
:101EB000688779878A879B870E9458024B01F8E1DF
:101EC0004F16510480F54B820A8319838C2D1C1404
:101ED0001D0414F00E94B4088D8388859985181616
:101EE00019060CF481C00E94AC0894018E8318146A
:101EF00019040CF07BC02436310514F42053384FFC
:101F0000225B2F83BE016F5F7F4F8DE193E00E94C4
:101F10006009CE0101960E94E2060E942D0689E624
:101F200091E00E94D80A84E792E00E94B402181659
:101F300019060CF060C084E792E00E94F601F3CF2E
:101F40008CE690E00E9448030E94B4080A971CF4B3
:101F500080E30E9443030E94B4080E94E60A8EE2D6
:101F60000E9443030E94AC080A971CF480E30E947D
:101F700043030E94AC080E94E60A8EE20E944303DB
:101F80000E94A2080E94E60A88E690E00E944803A8
:101F90000E94CC080A971CF480E30E9443030E942D
:101FA000CC080E94E60A8AE30E9443030E94C40808
:101FB0000A971CF480E30E9443030E94C4080E9415
:101FC000E60A8AE30E9443030E94BC080A971CF4B5
:101FD00080E30E9443030E94BC080E94E60A86E850
:101FE00091E00E94870A24CF88857FCF0E94A208B3
:101FF000825B8F8387CF0E94C408892B09F055C06C
:102000000E94BC087C01892B09F04FC00E94CC08BB
:102010008C01009709F446C00D9714F00C5011097B
:10202000E016F1060CF041C09EE2C92E91E0D92ED7
:10203000F6013080F2E0CF0ED11C61E0832D0E94CA
:1020400047010E9493012B013C0182E3882E912CD1
:10205000A12CB12C0E949301641975098609970976
:10206000683E734081059105A8F321E0821A91082A
:10207000A108B10888EE480E83E0581E611C711C4F
:1020800081149104A104B10429F760E0832D0E941A
:1020900047018EE491E08C159D0551F69FEFE91AFA
:1020A000F90ABECF0CE010E0BBCF0E945B066B01CB
:1020B0007C010E947E084091F60150E04D305105B0
:1020C0000CF4B2C04C50510964E070E088E191E03A
:1020D0000E945F0AC701B6010E947E084091F50187
:1020E00050E066E070E08CE091E00E945F0AC7017A
:1020F000B6010E947E084091F40150E066E070E075
:1021000080E091E00E945F0A0E94BC0820912001BB
:10211000309121018217930709F479C00E94B40815
:102120000A971CF480E30E9443030E94B4080E94B3
:10213000E60A8EE20E9443030E94AC080A971CF450
:1021400080E30E9443030E94AC080E94E60A8EE2EC
:102150000E9443030E94A2080E94E60A85E691E0DD
:102160000E9448030E94CC080A971CF480E30E9456
:1021700043030E94CC080E94E60A8AE30E944303BC
:102180000E94C4080A971CF480E30E9443030E9443
:10219000C4080E94E60A8AE30E9443030E94BC0826
:1021A0000A971CF480E30E9443030E94BC080E942B
:1021B000E60A8DE193E00E94D408BC01990F880BD8
:1021C000990B0E94B21120E030E040E85EE30E94EB
:1021D00011126B017C014B015C018BE591E00E94C7
:1021E0004803A7019601C701B6010E948A138823FC
:1021F00011F189E891E00E94870A88E591E00E9448
:10220000D80A0E94BC089093210180932001E0E04D
:10221000F0E0EF2B09F436CE0E94C002882309F4C7
:1022200031CE0E9400002ECE4115510509F04CCF51
:102230004CE050E049CF26013701E89477F82FEFC2
:102240003FEF4FE75FE7C301B2010E948A1381119C
:102250000DC02FEF3FEF4FE75FE7C301B2010E94D0
:10226000AB1118161CF48DE891E0C5CF2FEF3FEFAE
:102270004FE75FE4C701B6010E94851318161CF4EE
:1022800081E991E0B8CF2FEF3FEF4FE75FECC70157
:10229000B6010E94AB1187FDF3CF20E030E0A90129
:1022A000C701B6010E94AB1187FF09C08DE20E94F1
:1022B000430346015701B7FAB094B7F8B0942AE047
:1022C00037ED43EA5BE3C501B4010E94EA124B011A
:1022D0005C010E9456136B017C010E94B0119B01AE
:1022E000AC01C501B4010E94E9124B015C014AE056
:1022F000C701B6010E94940A8EE20E94430320E0C7
:1023000030E040E251E4C501B4010E9411124B01DA
:102310005C010E9456136B01F12CE12C4AE0C701CD
:10232000B6010E94940AC701B6010E94B0119B0138
:10233000AC01C501B4010E94E91220E030E040E2A6
:1023400051E40E9411120E94561390E080E04AE08E
:102350000E94940A52CF0E94ED1108F481E0089582
:10236000E89409C097FB3EF490958095709561952F
:102370007F4F8F4F9F4F9923A9F0F92F96E9BB27E5
:102380009395F695879577956795B795F111F8CF61
:10239000FAF4BB0F11F460FF1BC06F5F7F4F8F4FCC
:1023A0009F4F16C0882311F096E911C0772321F0C2
:1023B0009EE8872F762F05C0662371F096E8862F5A
:1023C00070E060E02AF09A95660F771F881FDAF7B1
:1023D000880F9695879597F90895990F0008550FDE
:1023E000AA0BE0E8FEEF16161706E807F907C0F09B
:1023F00012161306E407F50798F0621B730B840BA3
:10240000950B39F40A2661F0232B242B252B21F47C
:1024100008950A2609F4A140A6958FEF811D811D1C
:1024200008950E9424120C9495120E94871238F08D
:102430000E948E1220F0952311F00C947E120C94C1
:10244000841211240C94C9120E94A61270F3959F55
:10245000C1F3950F50E0551F629FF001729FBB279B
:10246000F00DB11D639FAA27F00DB11DAA1F649F37
:102470006627B00DA11D661F829F2227B00DA11DEA
:10248000621F739FB00DA11D621F839FA00D611D70
:10249000221F749F3327A00D611D231F849F600D91
:1024A000211D822F762F6A2F11249F5750409AF0BA
:1024B000F1F088234AF0EE0FFF1FBB1F661F771F46
:1024C000881F91505040A9F79E3F510580F00C9411
:1024D0007E120C94C9125F3FE4F3983ED4F38695C4
:1024E00077956795B795F795E7959F5FC1F7FE2BB1
:1024F000880F911D9695879597F9089597F99F678D
:1025000080E870E060E008959FEF80EC089500247B
:102510000A941616170618060906089500240A9448
:1025200012161306140605060895092E0394000CCE
:1025300011F4882352F0BB0F40F4BF2B11F460FF5D
:1025400004C06F5F7F4F8F4F9F4F089557FD905886
:10255000440F551F59F05F3F71F04795880F97FB67
:10256000991F61F09F3F79F0879508951216130621
:102570001406551FF2CF4695F1DF08C01616170650
:102580001806991FF1CF8695710561050894089585
:10259000E894BB2766277727CB0197F908950E9417
:1025A000DA12A59F900DB49F900DA49F800D911DF0
:1025B00011240895A29FB001B39FC001A39F700D85
:1025C000811D1124911DB29F700D811D1124911D3B
:1025D00008955058BB27AA270E9401130C94951206
:1025E0000E94871238F00E948E1220F039F49F3F2B
:1025F00019F426F40C9484120EF4E095E7FB0C9485
:102600007E12E92F0E94A61258F3BA1762077307C9
:102610008407950720F079F4A6F50C94C8120EF4FF
:10262000E0950B2EBA2FA02D0B01B90190010C01E2
:10263000CA01A0011124FF27591B99F0593F50F4FA
:10264000503E68F11A16F040A22F232F342F442752
:10265000585FF3CF469537952795A795F04053954A
:10266000C9F77EF41F16BA0B620B730B840BBAF01A
:102670009150A1F0FF0FBB1F661F771F881FC2F785
:102680000EC0BA0F621F731F841F48F48795779599
:102690006795B795F7959E3F08F0B0CF9395880F53
:1026A00008F09927EE0F9795879508950E94AE122E
:1026B00088F09F5798F0B92F9927B751B0F0E1F003
:1026C000660F771F881F991F1AF0BA95C9F714C0B3
:1026D000B13091F00E94C812B1E008950C94C81274
:1026E000672F782F8827B85F39F0B93FCCF38695EC
:1026F00077956795B395D9F73EF490958095709549
:1027000061957F4F8F4F9F4F08950E94ED1108F400
:102710008FEF08950E94ED11880B990B0895991B76
:1027200079E004C0991F961708F0961B881F7A95C8
:10273000C9F78095089597FB072E16F4009407D0EB
:1027400077FD09D00E94D91307FC05D03EF490957F
:1027500081959F4F0895709561957F4F0895A1E2EF
:102760001A2EAA1BBB1BFD010DC0AA1FBB1FEE1F0B
:10277000FF1FA217B307E407F50720F0A21BB30B56
:10278000E40BF50B661F771F881F991F1A9469F7D2
:1027900060957095809590959B01AC01BD01CF012E
:1027A0000895B7FF0C94CF120E94CF12821B930B97
:1027B0000895AA1BBB1B51E107C0AA1FBB1FA61788
:1027C000B70710F0A61BB70B881F991F5A95A9F7DA
:1027D00080959095BC01CD010895EE0FFF1F0590E7
:0A27E000F491E02D0994F894FFCF66
:1027EA0010000F000E000D000C000B000A0009007B
:1027FA00080007000600050004000300020011009B
:10280A00FFFF1F1C1F1E1F1E1F1F1E1F1E1F100043
:10281A000F000E000D000C000B000A000900080052
:10282A000700060005000400030002001100000072
:10283A000000F602BA01E7016303B402F6010A02D4
:10284A0000000000FB05CE052A06A405C705B4054D
:10285A00A50500000000480A140B250A22090D09E3
:10286A00B80BF808D4080D0A006E616E00696E662E
:06287A00006F766600000D
:00000001FF
