:100000000C9421010C9449010C9449010C94490170
:100010000C9449010C9449010C9449010C94490138
:100020000C9449010C9449010C9449010C94490128
:100030000C9449010C9449010C9449010C94490118
:100040000C94910D0C9449010C94010E0C94DB0D51
:100050000C9449010C9449010C9449010C944901F8
:100060000C94330E0C944901207C20005254432000
:1000700053796E63204F4B212043757272656E7405
:100080003A20005254432053796E63204572726FB8
:100090007221003D3D3D3D3D3D3D3D3D3D3D3D3DB4
:1000A0003D3D3D3D3D3D3D3D3D3D3D3D3D3D3D3D80
:1000B0003D3D3D3D3D3D3D3D3D3D3D3D3D3D3D00AD
:1000C0004578616D706C653A2030322033302030D5
:1000D0003020312031322032352032303236202863
:1000E000323A33303A303020504D2900414D5F5084
:1000F0004D3A2030203D20414D2C2031203D2050D4
:100100004D00466F726D617420746F207365743A90
:10011000204848204D4D20535320414D5F504D20E5
:100120004D4D2044442059595959004C6963656E1E
:1001300073656420756E646572204D4954204C6966
:1001400063656E736500436F7079726967687420C8
:100150004D6172656B2042756A6B6F0050726F6AF9
:100160006563743A205247422042696E6172792079
:10017000436C6F636B2076312E3120285553290054
:100180003D3D3D3D3D3D3D3D3D3D3D3D3D3D3D3D9F
:100190003D3D3D3D3D3D3D3D3D3D3D3D3D3D3D3D8F
:1001A0003D3D3D3D3D3D3D3D3D3D3D3D002046000D
:1001B000207C2054656D703A2000207C20002A208D
:1001C0004461746520616E642074696D652075708A
:1001D0006461746564207669612053657269616C3D
:1001E0002028555320466F726D617429202A000023
:1001F00000000800020100000304070000000000E6
:1002000000000000000000250028002B0000000076
:1002100000240027002A0004040404040404040247
:100220000202020202030303030303010204081093
:100230002040800102040810200102040810200060
:10024000520F11241FBECFEFD8E0DEBFCDBF23E099
:10025000A8EFB1E001C01D92A539B207E1F711E0A6
:10026000A0E0B1E0E6E9F3E302C005900D92A83FFB
:10027000B107D9F711E0C1E2D1E004C02197FE0136
:100280000E94D117C032D107C9F70E94A50F0C9464
:10029000C9190C940000282F30E094E0359527957B
:1002A0009A95E1F7922F990F990F291B220F820F30
:1002B000089590E0FC01E55DFD4F2491895E9D4F1E
:1002C000FC018491882399F090E0880F991FFC012C
:1002D000E35FFD4FA591B491FC01ED5FFD4F85916A
:1002E00094918FB7F894EC91E22BEC938FBF089523
:1002F0000895089590E0FC01E151FE4F2491FC0126
:10030000E55DFD4F3491FC01E95EFD4FE491EE2384
:10031000C9F0222339F0233001F1A8F4213019F17A
:10032000223029F1F0E0EE0FFF1FED5FFD4FA591A8
:10033000B4918FB7F894EC91611126C030953E23AB
:100340003C938FBF08952730A9F02830C9F024309E
:1003500049F7809180008F7D03C0809180008F7766
:1003600080938000DFCF84B58F7784BDDBCF84B5E9
:100370008F7DFBCF8091B0008F778093B000D2CF7C
:100380008091B0008F7DF9CF3E2BDACF3FB7F89444
:100390008091580290915902A0915A02B0915B024B
:1003A00026B5A89B05C02F3F19F00196A11DB11DD0
:1003B0003FBFBA2FA92F982F8827BC01CD01620F0C
:1003C000711D811D911D42E0660F771F881F991FC7
:1003D0004A95D1F708958F929F92AF92BF92CF9294
:1003E000DF92EF92FF924B015C010E94C6016B010C
:1003F0007C010E94C6016C197D098E099F09683E27
:10040000734081059105A8F321E0821A9108A108A3
:10041000B10888EEC80E83E0D81EE11CF11C8114DF
:100420009104A104B10429F7FF90EF90DF90CF90E1
:10043000BF90AF909F908F900895DC01ED91FC915B
:100440000190F081E02D0994AF92BF92CF92DF929C
:10045000EF92FF920F931F93CF93DF936C017B0179
:100460008B01040F151FEB015E01AE18BF08C0170A
:10047000D10759F06991D601ED91FC910190F0817D
:10048000E02DC6010995892B79F7C501DF91CF9140
:100490001F910F91FF90EF90DF90CF90BF90AF90A2
:1004A0000895FC01538D448D252F30E0842F90E07A
:1004B000821B930B541710F0CF960895019708955F
:1004C000FC01918D828D981761F0A28DAE0FBF2F28
:1004D000B11D5D968C91928D9F5F9F73928F90E07E
:1004E00008958FEF9FEF0895FC01918D828D9817ED
:1004F00031F0828DE80FF11D858D90E008958FEF2A
:100500009FEF08952FB7F89480915C0290915D025F
:10051000A0915E02B0915F022FBF8093DE029093A4
:10052000DF02A093E002B093E10286ED92E00E9428
:10053000740297FF26C02FB7F89480915C029091C7
:100540005D02A0915E02B0915F022FBF4091DE027A
:100550005091DF026091E0027091E102841B950BE3
:10056000A60BB70B4091DA025091DB026091DC02DE
:100570007091DD0284179507A607B707B0F28FEFD9
:100580009FEF0895CF92DF92EF92FF92CF930E9458
:100590008202FC0197FD4EC08D32910521F0C0977B
:1005A0000A9708F040C0C12CD12C7601C0E0E130A0
:1005B000F105D1F0ED32F105D9F1CF01C0970A97DD
:1005C00098F4AAE0B0E0A70196010E9403166F011B
:1005D000FF0FEE08FF08C60ED71EE81EF91E80E3C7
:1005E000C81AD108E108F10886ED92E00E94600285
:1005F0000E948202FC01C0970A97C8F2E130F1051F
:10060000B1F2CC2341F0F094E094D094C094C11C9A
:10061000D11CE11CF11CC701B601CF91FF90EF90F6
:10062000DF90CF90089586ED92E00E946002AFCFF8
:10063000C1E0DACFC12CD12C7601EDCFFC01918D38
:10064000228D892F90E0805C9F4F821B91098F73D0
:100650009927089586ED92E00E941E0321E0892BE0
:1006600009F420E0822F089580E090E0892B29F0A2
:100670000E942A0381110C9400000895FC01A48DAE
:10068000A80FB92FB11DA35ABF4F2C91848D90E0B4
:1006900001968F739927848FA689B7892C93A08997
:1006A000B1898C91837080648C93938D848D981321
:1006B00006C00288F389E02D80818F7D80830895B4
:1006C000EF92FF920F931F93CF93DF93EC0181E0A2
:1006D000888F9B8D8C8D98131AC0E889F989808149
:1006E00085FF15C09FB7F894EE89FF896083E8897C
:1006F000F98980818370806480839FBF81E090E06E
:10070000DF91CF911F910F91FF90EF900895F62EFA
:100710000B8D10E00F5F1F4F0F731127E02E8C8D94
:100720008E110CC00FB607FCFACFE889F9898081D9
:1007300085FFF5CFCE010E943E03F1CFEB8DEC0F8C
:10074000FD2FF11DE35AFF4FF0829FB7F8940B8FF6
:10075000EA89FB8980818062CFCF0F931F93CF936B
:10076000DF938C01D0E0C0E0F801EC0FFD1F649135
:10077000662341F086ED92E00E946003892B11F020
:100780002196F2CFCE01DF91CF911F910F91089565
:10079000CF93DF93EC01888D8823B9F0AA89BB89B8
:1007A000E889F9898C9185FD03C0808186FD0DC0A3
:1007B0000FB607FCF7CF8C9185FFF2CF808185FFC4
:1007C000EDCFCE010E943E03E9CFDF91CF91089596
:1007D000089520912102260F3327331F213231053E
:1007E000ECF42091D002FC0190E080E0243069F02C
:1007F00082E00895A09121022191AC014F5F5D4FED
:10080000A40FB52FB11D2C930196861798F38091F4
:100810002102680F6093210280E0089581E008952D
:100820001092D00281E08093AF021092AA0261E0A0
:1008300082E10E947A0161E083E10E947A01E9EBA2
:10084000F0E080818E7F808380818D7F808388E44B
:100850008093B80085E48093BC00089510926502EF
:100860001092640210926702109289020E94100492
:1008700088E791E0909363028093620289E791E0B8
:1008800090936102809360020895CF93DF9391E08B
:10089000909300028823B9F0C091B800D091BA00BB
:1008A0008091BC008A7B8093BC0060E082E10E9462
:1008B0007A0160E083E10E947A010E941004D093E3
:1008C000BA00C093B800DF91CF910895CF92DF9224
:1008D000EF92FF920F931F93CF93C82F813208F0AE
:1008E00096C00E94C6016B017C018091D0028111EB
:1008F00069C081E08093D0028093AF029FEF909314
:10090000AE021092AD029C0F9093AC028093AB02AA
:100910008091AB02806D8093AB028091AA028130FE
:1009200009F077C01092AA020E94C6016B017C01F7
:100930008091AB028093BB008091D2029091D30250
:10094000A091D402B091D502892B8A2B8B2BA1F0D8
:100950000E94C6010091D2021091D3022091D402CC
:100960003091D5026C197D098E099F09061717076A
:100970002807390708F447C08091BC0083FDD8CF11
:1009800085EC8093BC000E94C6016B017C018091C4
:10099000D002813009F43FC08091AD028C1710F471
:1009A000C091AD02AAE8B2E0E0EBF2E080E08C1387
:1009B00054C08C2FCF911F910F91FF90EF90DF903B
:1009C000CF9008958091D2029091D302A091D40249
:1009D000B091D502892B8A2B8B2B09F486CF0E94EC
:1009E000C6010091D2021091D3022091D40230911D
:1009F000D5026C197D098E099F090617170728076C
:100A0000390708F072CF8091D1020E944504C0E0FE
:100A1000D0CF85EEB6CF8091D2029091D302A09133
:100A2000D402B091D502892B8A2B8B2B09F4AFCF3E
:100A30000E94C6010091D2021091D3022091D402EB
:100A40003091D5026C197D098E099F090617170789
:100A50002807390708F09BCFD6CF9D9191938F5FE0
:100A6000A6CF8F929F92AF92BF92CF92DF92EF92DA
:100A7000FF920F931F93CF93DF93D0918902D132CE
:100A800008F0D7C0182FC09188020E94C6016B01E0
:100A90007C018091D00281116BC082E08093D002F2
:100AA0001093AF028FEF8093AE021092AD02D093FD
:100AB000AC02A8E6B2E0EAE8F2E080E0D81391C028
:100AC0001092AB028091AB02CC0FC82BC093AB024B
:100AD0008091AA02813009F088C01092AA020E9477
:100AE000C6016B017C018091AB028093BB008091B9
:100AF000D2029091D302A091D402B091D502892B59
:100B00008A2B8B2BA1F00E94C6010091D20210917A
:100B1000D3022091D4023091D5026C197D098E093F
:100B20009F09061717072807390708F442C0809164
:100B3000BC0083FDD8CF85EC8093BC000E94C60129
:100B40006B017C018091D002823009F450C0809109
:100B5000AE028F3F09F46FC08091AE02803209F47B
:100B60006CC08091AE02803309F469C084E026C075
:100B70008091D2029091D302A091D402B091D5027B
:100B8000892B8A2B8B2B09F484CF0E94C60180907D
:100B9000D2029090D302A090D402B090D5026C19EA
:100BA0007D098E099F0986169706A806B90608F0E2
:100BB00070CF8091D1020E94450485E010926702B7
:100BC0001092890210926602DF91CF911F910F91CE
:100BD000FF90EF90DF90CF90BF90AF909F908F905D
:100BE00008959D9191938F5F69CF85EEA5CF8091F8
:100BF000D2029091D302A091D402B091D502892B58
:100C00008A2B8B2B09F49ECF0E94C6010091D20241
:100C10001091D3022091D4023091D5026C197D0934
:100C20008E099F09061717072807390708F08ACF8A
:100C3000C0CF81E0C3CF80E0C1CF82E0BFCF83E0EF
:100C4000BDCF0895E091650280916402E81730F409
:100C5000F0E0E055FD4F808190E008958FEF9FEF29
:100C6000089590916502809164022FEF3FEF9817ED
:100C700048F4E92FF0E0E055FD4F208130E09F5F20
:100C800090936502C9010895809164029091650274
:100C9000891B990B0895CF92DF92EF92FF920F93E9
:100CA0001F93CF93DF937C01CB018A0120916602D1
:100CB000222389F0EB016B01C40ED51ECC15DD0596
:100CC00069F06991D701ED91FC910190F081E02DDF
:100CD000C7010995F3CF642F0E94E903C801DF9192
:100CE000CF911F910F91FF90EF90DF90CF900895DB
:100CF000CF93DF931F92CDB7DEB769832091660251
:100D00002223F9F020918902203258F021E030E0CE
:100D1000FC013383228390E080E00F90DF91CF913C
:100D2000089580916702E82FF0E0E859FD4F99811E
:100D300090838F5F809367028093890281E090E0C7
:100D4000ECCF61E0CE0101960E94E903F7CFFC01F0
:100D5000248131E03093660220938802109267026A
:100D6000109289028485682B80E893E00E947806BF
:100D700081E00C94310590E080E008956093480292
:100D80007093490280934A0290934B02645D7E4FB8
:100D90008F4F9F4F609344027093450280934602A9
:100DA0009093470282E090E090934F0280934E022E
:100DB0002FB7F89480915C0290915D02A0915E0241
:100DC000B0915F022FBF8093FC019093FD01A0932F
:100DD000FE01B093FF0108950F931F938FB7F8940E
:100DE00000915C0210915D0220915E0230915F02E1
:100DF0008FBF4091FC015091FD016091FE01709107
:100E0000FF01041B150B260B370B809148029091B4
:100E10004902A0914A02B0914B02083E13402105BD
:100E20003105C0F00196A11DB11D80934802909339
:100E30004902A0934A02B0934B0248515C4F6F4F56
:100E40007F4F4093FC015093FD016093FE0170932E
:100E5000FF01C4CF40914402509145026091460287
:100E60007091470284179507A607B70770F0E091C5
:100E70004C02F0914D02309741F0099561157105D2
:100E80008105910569F00E94BE066091480270914B
:100E9000490280914A0290914B021F910F9108954F
:100EA0008091480290914902A0914A02B0914B0270
:100EB000845D9E4FAF4FBF4F809344029093450295
:100EC000A0934602B093470281E090E020914E0249
:100ED00030914F02232B11F490E080E090934F0269
:100EE00080934E02D2CF4F925F926F927F928F92F9
:100EF0009F92AF92BF92CF92DF92EF92FF920F93A9
:100F00001F93CF93DF93FC011681A12FB0E020E85F
:100F100033E341EE51E00E9403164B015C01C2EB4A
:100F2000D7E09D0104E610E080E9E82EFF24F39469
:100F3000CE01825B9740821793079CF14580512C2C
:100F40002E54384FC90164E670E00E947F177C017F
:100F5000C90160E971E00E947F176C0100E311E0B4
:100F6000C1E0D0E0390183E068227724C415D505BB
:100F70000CF040C0C230D10571F56114710459F50F
:100F8000E114F10419F4C114D10429F5B0E88B0E71
:100F9000BBE39B1EB6E2AB1EB11C21960F5F1F4F39
:100FA000E5CFCE0183709927892B99F4CE01B80142
:100FB0000E947F17892B31F4CE01B7010E947F1761
:100FC000892B39F4A0E88A0EA1E59A1EA1E0AA1E99
:100FD000B11C2196ADCFD8018C91A82FB0E020E8AC
:100FE00031E541E050E00E940316860E971EA81ED0
:100FF000B91ED3CF228130E0A0E1BEE00E944516A9
:101000006B017C01218130E0ACE3B0E00E94451629
:10101000C60ED71EE81EF91E8081C80ED11CE11C29
:10102000F11CA481A150BB0B20E831E541E050E068
:101030000E94B5176C0D7D1D8E1D9F1D680D791DBD
:101040008A1D9B1DDF91CF911F910F91FF90EF9013
:10105000DF90CF90BF90AF909F908F907F906F90D8
:101060005F904F9008956F927F928F929F92AF9270
:10107000BF92CF92DF92EF92FF920F931F93CF9385
:10108000DF936B017C01EA018CE3882E912CA12C6B
:10109000B12CC701A50194010E9493176883CA016E
:1010A000B901A50194010E9493176983C701B60194
:1010B00020E13EE040E050E00E949317CA01B901F0
:1010C00028E130E040E050E00E9493176A83C701B6
:1010D000B60120E831E541E050E00E949317690134
:1010E0007A01CA01B9016C5F7F4F8F4F9F4F27E094
:1010F00030E040E050E00E9493176F5F6B83812CDB
:10110000912C540140E094E6692E712C00E911E025
:10111000242F30E02E54384FF901E370FF27309729
:10112000F9F4C901B3010E947F17892B31F4C90179
:10113000B8010E947F17892B99F48EE691E0A0E018
:10114000B0E0880E991EAA1EBB1ED501C401AA27B5
:10115000BB27C816D906EA06FB0638F04F5FD8CF82
:101160008DE691E0A0E0B0E0ECCF4E83C90164E6EB
:1011700070E00E947F178C01C90160E971E00E9454
:101180007F17309729F401151105E1F40097D1F08C
:101190004DE651E060E070E0841A950AA60AB70AAD
:1011A000C818D908EA08FB08A0E3B1E020E0213024
:1011B00071F4309791F50115110511F4009769F557
:1011C0004DE106C04EE651E060E070E0E5CF4C91A5
:1011D00050E070E060E031E0320FC416D506E6065C
:1011E000F70640F0C41AD50AE60AF70A1196232F2B
:1011F0003C30E9F62F5F2D83C394CC82DF91CF91F1
:101200001F910F91FF90EF90DF90CF90BF90AF9024
:101210009F908F907F906F9008954CE1D9CFCF929F
:10122000DF92EF92FF92C090F801D090F901E09028
:10123000FA01F090FB01C616D706E806F90671F030
:101240006B017C0140E552E00E943308C092F80136
:10125000D092F901E092FA01F092FB01FF90EF9039
:10126000DF90CF9008950E94EC060E940F098091B4
:10127000560290E08E54984F08950E94EC060E940A
:101280000F098091550290E008950E94EC060E949B
:101290000F098091540290E008950E94EC060E948C
:1012A0000F098091500290E008950E94EC060E9480
:1012B0000F098091510290E008950E94EC060E946F
:1012C0000F098091520290E008951F93CF93DF930E
:1012D000EC01E881F9810484F585E02D62E109954E
:1012E000182FE881F9810484F585E02D61E1CE01B4
:1012F0000995212F382F37FF02C0215C3F4FC901CC
:1013000026E0959587952A95E1F7DF91CF911F917A
:101310000895CF93DF931F92CDB7DEB7DC01ED9137
:10132000FC910284F385E02D21E0AE014F5F5F4F19
:10133000099589810F90DF91CF910895CF93DF9325
:101340001F92CDB7DEB74983DC01ED91FC91068099
:10135000F781E02D21E0AE014F5F5F4F09950F90BF
:10136000DF91CF910895DF92EF92FF920F931F9339
:10137000CF93DF937C01D42E152F022FDC01129620
:101380008D919C9121E02093660228E620938802AB
:101390001092670210928902DC01ED91FC9101909C
:1013A000F081E02D0995CD2DD12F0C0F1D2F111D92
:1013B000C017D10761F0F701828193816991DC0147
:1013C000ED91FC910190F081E02D0995F1CF81E044
:1013D000DF91CF911F910F91FF90EF90DF900C94D0
:1013E0003105FF920F931F93CF93DF93EC018B0195
:1013F0008A819B8121E02093660228E6209388025F
:101400001092670210928902DC01ED91FC9101902B
:10141000F081E02D60E00995AA81BB81F80120816F
:101420008AE0F82E822F6F2D0E947317682F660FA7
:10143000680F660F620FED91FC9111970190F0819A
:10144000E02DCD010995AA81BB81F8012181822F70
:101450006F2D0E947317682F660F680F660F620F5B
:10146000ED91FC9111970190F081E02DCD0109954E
:10147000AA81BB81F8012281822F6F2D0E947317F0
:10148000682F660F680F660F620FED91FC91119740
:101490000190F081E02DCD0109958A819B81DC01CD
:1014A000ED91FC910190F081E02DD80113966C91A3
:1014B0000995AA81BB81F8012481822F6F2D0E949A
:1014C0007317682F660F680F660F620FED91FC911E
:1014D00011970190F081E02DCD010995AA81BB8182
:1014E000F8012581822F6F2D0E947317682F660FD8
:1014F000680F660F620FED91FC9111970190F081DA
:10150000E02DCD010995AA81BB81F80126812E51DC
:10151000822F6F2D0E947317682F660F680F660F5A
:10152000620FED91FC9111970190F081E02DCD01BA
:10153000099581E00E943105182FE881F981048422
:10154000F585E02D6FE0CE010995482F4F77E881B2
:10155000F9810084F185E02D6FE0CE010995812F9E
:10156000DF91CF911F910F91FF9008950F931F93DB
:10157000CF93DF9300D000D000D01F92CDB7DEB75D
:101580008C01CB01BA01AE014F5F5F4F0E9433085F
:10159000BE016F5F7F4FC8010E94F10927960FB609
:1015A000F894DEBF0FBECDBFDF91CF911F910F9199
:1015B00008950C942E04CF92DF92EF92FF920F9336
:1015C0001F93CF93DF937B016A018C01D0E0C0E0D1
:1015D000F80180810E5F1F4FB6010C2E02C0759579
:1015E00067950A94E2F761700E947A012196EC16E1
:1015F000FD0671F7DF91CF911F910F91FF90EF9052
:10160000DF90CF9008950F931F93CF938C01C62F37
:101610000E94A7066C2F6460C8010E94A7066C2F69
:101620006B7FC8010E94A70683EC90E00197F1F759
:10163000CF911F910F9108950F931F93CF93DF9335
:101640008C01D62FC42F607F642B0E94030B80E196
:10165000D89FB00111246C2BC801DF91CF911F914D
:101660000F910C94030BCF93DF93CDB7DEB7289780
:101670000FB6F894DEBF0FBECDBF98E0E8E2F1E010
:10168000DE01119601900D929A95E1F790917B03FE
:10169000981708F48FEF90E0880F991F21E030E051
:1016A0002C0F3D1F820F931FFC016081606840E09A
:1016B00083E793E028960FB6F894DEBF0FBECDBF48
:1016C000DF91CF910C941C0B40E061E083E793E045
:1016D0000E941C0B8BE39FE10197F1F780917C0343
:1016E000882319F080E00C94330B089541E00E94A8
:1016F0001C0B81E090E008950F931F93CF93DF932D
:1017000000D000D000D01F92CDB7DEB78C01DC0135
:1017100012968D919C9121E02093660228E62093F9
:1017200088021092670210928902DC01ED91FC910F
:101730000190F081E02D60E0099581E00E94310583
:10174000882381F0F801848360E070E0CB01279664
:101750000FB6F894DEBF0FBECDBFDF91CF911F91C2
:101760000F91089587E00E946604109265028093AD
:101770006402D80112968D919C91DC01ED91FC914F
:101780000284F385E02D09958F770E944B018983B0
:10179000F80182819381DC01ED91FC910284F38553
:1017A000E02D09950E944B018A83F8018281938183
:1017B000DC01ED91FC910284F385E02D09958F7B8E
:1017C0000E944B018B83F80182819381DC01ED91B2
:1017D000FC910284F385E02D09958C83F8018281C8
:1017E0009381DC01ED91FC910284F385E02D099554
:1017F0000E944B018D83F80182819381DC01ED9180
:10180000FC910284F385E02D09958F770E944B01AE
:101810008E83F80182819381DC01ED91FC91028439
:10182000F385E02D09950E944B01825E8F83CE01E6
:1018300001960E9473078BCF8CE893E00C947C0B8D
:10184000CF92DF92EF92FF920F931F93CF93DF938C
:101850006C01E42E152F022FDC0112968D919C91C4
:1018600021E02093660228E6209388021092670206
:1018700010928902DC01ED91FC910190F081E02D44
:10188000099581E00E943105F82E81111EC0802F3C
:10189000013208F080E20E94660410926502809393
:1018A0006402CE2DD12F0C0F1D2F111DC017D10793
:1018B00061F0F60182819381DC01ED91FC9102845B
:1018C000F385E02D09958993F1CF8F2DDF91CF918D
:1018D0001F910F91FF90EF90DF90CF900895FB0143
:1018E00001900020E9F73197AF01461B570BDC014F
:1018F000ED91FC910280F381E02D0994CF93DF9369
:101900000E94AD03EC0160EA71E086ED92E00E9476
:101910006F0C8C0F9D1FDF91CF9108958F929F9236
:10192000AF92BF92EF92FF920F931F93CF93DF93EB
:10193000CDB7DEB7A1970FB6F894DEBF0FBECDBF0F
:101940007C01FA01CB0119A2223008F42AE08E01B1
:101950000F5D1F4F822E912CB12CA12CBF01A50130
:1019600094010E949317F901CA016A300CF5605D79
:10197000D8016E938D01232B242B252B79F790E032
:1019800080E0109721F0BD01C7010E946F0CA19665
:101990000FB6F894DEBF0FBECDBFDF91CF911F9180
:1019A0000F91FF90EF90BF90AF909F908F90089510
:1019B000695CDECFCF92DF92EF92FF920F931F937D
:1019C000CF93DF936B01770FEE08FF08F7FE1BC084
:1019D000EC016DE20E941D028C0144275527BA01DB
:1019E0004C195D096E097F092AE0CE010E948E0C18
:1019F000800F911FDF91CF911F910F91FF90EF907A
:101A0000DF90CF9008952AE0B701A601DF91CF9132
:101A10001F910F91FF90EF90DF90CF900C948E0C60
:101A2000EF92FF920F931F93CF93DF93EC017B0113
:101A3000198218821B821A821D821C82FB0101906E
:101A40000020E9F731978F01061B170BB8016F5F74
:101A50007F4F90E080E00E94FC180097B9F09983D6
:101A600088831B830A832C813D81232B11F4FC0185
:101A700010821D830C83B70188819981DF91CF91FA
:101A80001F910F91FF90EF900C94C219888199815A
:101A9000009711F00E947318198218821D821C820F
:101AA0001B821A82DF91CF911F910F91FF90EF90CF
:101AB000089585ED8093BC008091D2029091D3026D
:101AC000A091D402B091D5020796A11DB11D23E0CB
:101AD000B695A795979587952A95D1F72091BC0043
:101AE00024FD03C01092D00208954091D20250917B
:101AF000D3026091D4027091D502452B462B472B1F
:101B000069F30097A105B10541F02AE22A95F1F7A2
:101B100000C00197A109B109E1CF8091D1020C94D5
:101B200045041F920F920FB60F9211242F933F93EB
:101B30008F939F93AF93BF9380915C0290915D02CE
:101B4000A0915E02B0915F023091570223E0230F13
:101B50002D3758F50196A11DB11D20935702809392
:101B60005C0290935D02A0935E02B0935F0280914D
:101B7000580290915902A0915A02B0915B020196CD
:101B8000A11DB11D8093580290935902A0935A024F
:101B9000B0935B02BF91AF919F918F913F912F9135
:101BA0000F900FBE0F901F90189526E8230F0296F6
:101BB000A11DB11DD2CF1F920F920FB60F9211240B
:101BC0002F933F934F935F936F937F938F939F9345
:101BD000AF93BF93EF93FF9386ED92E00E943E0395
:101BE000FF91EF91BF91AF919F918F917F916F91F5
:101BF0005F914F913F912F910F900FBE0F901F90CB
:101C000018951F920F920FB60F9211242F938F9356
:101C10009F93EF93FF93E091E602F091E7028081BA
:101C2000E091EC02F091ED0282FD1BC09081809169
:101C3000EF028F5F8F732091F002821741F0E091E5
:101C4000EF02F0E0EA52FD4F958F8093EF02FF9193
:101C5000EF919F918F912F910F900FBE0F901F903A
:101C600018958081F4CF1F920F920FB60F92112416
:101C70002F933F934F935F936F937F938F939F9394
:101C8000AF93BF93EF93FF938091B900887F803625
:101C900009F44AC0F0F5883209F4A7C018F580317C
:101CA00009F49BC0B8F4882309F4F9C0883009F41A
:101CB00094C0FF91EF91BF91AF919F918F917F91D0
:101CC0006F915F914F913F912F910F900FBE0F90A9
:101CD0001F901895883109F488C0803251F780939D
:101CE000AE0214C0803409F49DC040F48033B9F3CF
:101CF0008833F9F68093AE0285ECB0C0803509F4E4
:101D000085C0883509F496C0883499F60E94590D2B
:101D1000D0CF883909F48CC038F5883729F050F4D1
:101D2000883611F0803729F683E08093D002109234
:101D3000430257C0883809F47BC0803919F08038D5
:101D400009F0B7CF80914302803208F071C0E09172
:101D5000430281E08E0F809343028091BB00F0E04C
:101D6000ED5DFD4F80833DC0803B39F0E0F4803A6B
:101D700009F479C0883A09F09CCF84E08093D002BE
:101D80001092220210922102E0916202F09163020D
:101D900009958091210281110FC081E08093210279
:101DA0001092010209C0803C09F4A6CF883C09F4D6
:101DB000A3CF883B09F07DCFE091220281E08E0F16
:101DC00080932202F0E0EF5FFD4F80818093BB00A3
:101DD000909122028091210229C08091AB028093D0
:101DE000BB0085EC8093BC0064CF9091AD028091E4
:101DF000AC02981758F5E091AD0281E08E0F809308
:101E0000AD02F0E0E657FD4F8081E9CFE091AD02F1
:101E100081E08E0F8093AD028091BB00F0E0E65729
:101E2000FD4F80839091AD028091AC029817C8F26B
:101E300085E8D8CFE091AD0281E08E0F8093AD02AE
:101E40008091BB00F0E0E657FD4F80838091AF02A8
:101E500081115CCF81E08093AA0284EA8093BC0068
:101E60001092D00226CF85EC8093BC001092D00255
:101E700080914302803230F4E0914302F0E0ED5D66
:101E8000FD4F10826091430270E0E0916002F0919A
:101E9000610283E292E00995109243020ACF109208
:101EA000AE0234CFE6EDF2E01382128288EE93E0C8
:101EB000A0E0B0E084839583A683B78320E631E079
:101EC0003183208325EC30E03587248724EC30E013
:101ED0003787268720EC30E0318B208B21EC30E0F7
:101EE000338B228B22EC30E0358B248B26EC30E0D8
:101EF000378B268B118E128E138E148EE0E8F3E052
:101F00001382128284839583A683B78382E791E04C
:101F100091838083ACE8B3E01396FC93EE93129721
:101F200080E991E08D939C93E3E7F3E013821282C2
:101F300084E891E09183808311868FE3848380E13C
:101F4000828782E0838714860895CF93DF93CDB78D
:101F5000DEB72D970FB6F894DEBF0FBECDBF7894D5
:101F600084B5826084BD84B5816084BD85B582609E
:101F700085BD85B5816085BD80916E00816080934F
:101F80006E001092810080918100826080938100B8
:101F900080918100816080938100809180008160C8
:101FA000809380008091B10084608093B100809123
:101FB000B00081608093B00080917A00846080934B
:101FC0007A0080917A00826080937A0080917A0012
:101FD000816080937A0080917A00806880937A0093
:101FE0001092C1000E942E04E091E602F091E702F7
:101FF00082E08083E091E202F091E3021082E091BE
:10200000E402F091E5028FEC80831092EE02E09101
:10201000EA02F091EB0286E08083E091E802F09121
:10202000E902808180618083E091E802F091E90219
:10203000808188608083E091E802F091E9028081EC
:1020400080688083E091E802F091E90280818F7DD1
:1020500080830E942E041092780380917E03823048
:1020600018F098E09093780380937B0362E370E02C
:1020700080E090E00E94EB0160917F0383E793E0B2
:102080000E94A70668EE73E080E090E00E94EB01FA
:1020900060E383E793E00E94030B0BE416E4C801BE
:1020A0000197F1F760E383E793E00E94030BC80117
:1020B0000197F1F760E383E793E00E94030B83E568
:1020C00092E00197F1F760E283E793E00E94030B4F
:1020D00060917803606240E083E793E00E941C0B0C
:1020E00084E08093790340E06CE083E793E00E9412
:1020F0001C0B0E94640B82E080937A0340E066E050
:1021000083E793E00E941C0B40E062E083E793E0EA
:102110000E941C0B8BE39FE10197F1F788E080930D
:102120007F0360E083E793E00E94A70680E00E94BF
:10213000330B6BEA71E083E793E00E946F0C81E060
:102140000E94330B6AEB71E083E793E00E946F0C0F
:1021500060ED77E080E090E00E94EB010E94640B6C
:1021600080E891E00E947E0C8CE591E00E947E0C5C
:1021700086E491E00E947E0C8BE291E00E947E0C4E
:1021800082E091E00E947E0C8CEE90E00E947E0C3A
:1021900080EC90E00E947E0C83E990E00E947E0C2F
:1021A0008CE19CE090934D0280934C028091480218
:1021B00090914902A0914A02B0914B02809344024F
:1021C00090934502A0934602B09347020E94EC060A
:1021D0000E94EC0680914E0290914F02029709F402
:1021E000BDC083E890E00E947E0C80E00E94330B2B
:1021F0006AEC71E083E793E00E946F0C08E111E064
:1022000030E2E32E31E0F32EF80180810E5F1F4FA4
:102210000E945901E016F106B9F70CE011E028E13F
:10222000E22E21E0F22EF80180810E5F1F4F0E9406
:102230005901E016F106B9F700E011E09CE0E92E43
:1022400091E0F92EF80180810E5F1F4F0E94590125
:10225000E016F106B9F786ED92E00E941E0318160B
:1022600019060CF02BC10E94C2022B011B010E9417
:10227000C2026C870E94C2026D870E94C2028B015B
:102280000E94C2026B010E94C202688779878A8716
:102290009B870E94C2024B010130110509F0FEC06C
:1022A000FCE04F1651041CF48CE0280E311CE8E1D0
:1022B0002E16310408F045C02B82FC85FA838D85EB
:1022C00089838C2D1C141D0414F00E943D098E83FB
:1022D000E885F98588851E161F0614F00E944509B9
:1022E00094018D83181419040CF0E3C024363105D1
:1022F00014F42053384F225B2F83BE016F5F7F4F52
:102300008CE893E00E94F109CE0101960E947307C8
:102310000E94BE068EEB91E00E947E0C0E94640B30
:1023200080E00E94330B6AED71E083E793E00E9446
:102330006F0C68EE73E080E090E00E94EB010E9479
:10234000640B86ED92E00E941E03181619060CF02D
:10235000B5C086ED92E00E946002F3CF8CE690E07B
:102360000E94AD030E943D090A972CF460E386EDBC
:1023700092E00E941D020E943D09BC0186ED92E0A0
:102380000E94DA0C6FE286ED92E00E941D020E942C
:1023900045090A972CF460E386ED92E00E941D0245
:1023A0000E944509BC0186ED92E00E94DA0C6FE2C2
:1023B00086ED92E00E941D020E943309BC0186ED69
:1023C00092E00E94DA0C88E690E00E94AD030E9441
:1023D0005D098C0167EA71E00C9714F063EA71E023
:1023E000CE0101960E94100D0D3011050CF44FC066
:1023F0000C5011090A3011052CF460E386ED92E0CF
:102400000E941D02B80186ED92E00E94DA0C6AE398
:1024100086ED92E00E941D020E9455090A972CF455
:1024200060E386ED92E00E941D020E945509BC0106
:1024300086ED92E00E94DA0C6AE386ED92E00E945B
:102440001D020E944D090A972CF460E386ED92E08C
:102450000E941D020E944D09BC0186ED92E00E947F
:10246000DA0C4D815E8169817A8186ED92E00E946D
:10247000240260EA71E086ED92E00E946F0C89818F
:102480009A81009709F4BACE0E947318B7CE01154D
:10249000110509F0AFCF0CE010E0B4CF012B09F02B
:1024A00006CF9CE04916510409F001CF312C212CB4
:1024B000FECE0E943309825B8F831FCF0E94550995
:1024C000892BA1F50E944D097C01892B79F50E9489
:1024D0005D098C01009739F10D9714F00C5011092A
:1024E000E016F1061CF58CE3C82E81E0D82EF6012B
:1024F000B080F2E0CF0ED11C61E08B2D0E947A01FA
:1025000062E370E080E090E00E94EB0160E08B2DE0
:102510000E947A018CE591E08C159D0541F79FEFB3
:10252000E91AF90ADDCF0CE010E0DACF0E94EC06E0
:102530006B017C010E940F094091520250E04D3026
:1025400051050CF4B0C14C50510964E070E088E1D1
:1025500091E00E94DB0AC701B6010E940F09409179
:10256000510250E066E070E08CE091E00E94DB0AEE
:10257000C701B6010E940F094091500250E066E089
:1025800070E080E091E00E94DB0A0E944D092091FA
:102590002001309121018217930709F477C10E942D
:1025A0003D090A972CF460E386ED92E00E941D023B
:1025B0000E943D09BC0186ED92E00E94DA0C6FE2B8
:1025C00086ED92E00E941D020E9445090A972CF4B4
:1025D00060E386ED92E00E941D020E944509BC0165
:1025E00086ED92E00E94DA0C6FE286ED92E00E94A6
:1025F0001D020E943309BC0186ED92E00E94DA0CB4
:102600008AEB91E00E94AD030E945D098C0167EAAC
:1026100071E00C9714F063EA71E0CE0101960E941C
:10262000100D0D3011050CF445C10C5011090A3084
:1026300011052CF460E386ED92E00E941D02B801C2
:1026400086ED92E00E94DA0C6AE386ED92E00E9449
:102650001D020E9455090A972CF460E386ED92E072
:102660000E941D020E945509BC0186ED92E00E9465
:10267000DA0C6AE386ED92E00E941D020E944D0989
:102680000A972CF460E386ED92E00E941D020E94FE
:102690004D09BC0186ED92E00E94DA0C4D815E810D
:1026A00069817A8186ED92E00E9424028CE893E0B1
:1026B0000E946509BC01990F880B990B0E94E614D2
:1026C00020E030E040E85EE30E94451520E030E085
:1026D00040E151E40E94451520E030E040EA50E43A
:1026E0000E94C11620E030E040E052E40E945516FE
:1026F0006B017C0180EB91E00E94AD03A701960184
:10270000C701B6010E946E1768EE71E081111BC00F
:1027100046015701E894B7F82FEF3FEF4FE75FE727
:10272000C501B4010E946E178111CBC02FEF3FEF9E
:102730004FE75FE7C501B4010E94DF1418160CF0E3
:10274000C0C06CEE71E086ED92E00E946F0C8DEAE5
:1027500091E00E947E0C80E00E94330B0A3011054C
:102760002CF460E383E793E00E941D02B80183E745
:1027700093E00E94DA0C6AE383E793E00E941D0273
:102780000E9455090A972CF460E383E793E00E94C6
:102790001D020E945509BC0183E793E00E94DA0CF8
:1027A0006AE383E793E00E941D020E944D090A97A5
:1027B0002CF460E383E793E00E941D020E944D0920
:1027C000BC0183E793E00E94DA0C4D815E81698150
:1027D0007A8183E793E00E94240281E00E94330B18
:1027E0000E943D090A972CF460E383E793E00E947E
:1027F0001D020E943D09BC0183E793E00E94DA0CB0
:102800006FE283E793E00E941D020E9445090A9748
:102810002CF460E383E793E00E941D020E944509C7
:10282000BC0183E793E00E94DA0C6FE283E793E058
:102830000E941D020E943309BC0183E793E00E94BD
:10284000DA0C64EF71E083E793E00E946F0CC7013C
:10285000B6010E94331783E793E00E94DA0C6FED14
:1028600083E793E00E941D0266EF71E083E793E047
:102870000E946F0C0E944D099093210180932001CA
:1028800089819A81009711F00E947318E0E0F0E0CE
:10289000EF2B09F4E0CC0E942A03882309F4DBCC57
:1028A0000E940000D8CC4115510509F04ECE4CE0F5
:1028B00050E04BCE0115110509F0B9CE0CE010E047
:1028C000BECE2FEF3FEF4FE75FE4C701B6010E9496
:1028D000691718161CF460EF71E035CF2FEF3FEF4A
:1028E0004FE75FECC701B6010E94DF1487FDF3CF0D
:1028F00020E030E0A901C701B6010E94DF1487FF84
:102900005BC06DE286ED92E00E941D02C701B60138
:1029100090582AE037ED43EA5BE30E9455162B01FD
:102920003C010E943A174B015C010E94E4149B0198
:10293000AC01C301B2010E9454162B013C012AE0F4
:10294000B501A40186ED92E00E948E0C6EE286ED48
:1029500092E00E941D0220E030E040E251E4C30119
:10296000B2010E9445152B013C010E943A174B0110
:10297000B12CA12C2AE0B501A40186ED92E00E94C1
:102980008E0CC501B4010E94E4149B01AC01C3018B
:10299000B2010E94541620E030E040E251E40E946F
:1029A00045150E943A17AB0170E060E02AE086ED21
:1029B00092E00E948E0CCBCEC701B601AACF0E9436
:1029C000211508F481E00895E89409C097FB3EF4CE
:1029D00090958095709561957F4F8F4F9F4F99236C
:1029E000A9F0F92F96E9BB279395F69587957795EA
:1029F0006795B795F111F8CFFAF4BB0F11F460FFAA
:102A00001BC06F5F7F4F8F4F9F4F16C0882311F001
:102A100096E911C0772321F09EE8872F762F05C015
:102A2000662371F096E8862F70E060E02AF09A95B0
:102A3000660F771F881FDAF7880F9695879597F9A5
:102A40000895990F0008550FAA0BE0E8FEEF16163F
:102A50001706E807F907C0F012161306E407F50792
:102A600098F0621B730B840B950B39F40A2661F006
:102A7000232B242B252B21F408950A2609F4A140A9
:102A8000A6958FEF811D811D08950E9458150C9405
:102A9000C9150E94BB1538F00E94C21520F095237D
:102AA00011F00C94B2150C94B81511240C94FD156A
:102AB0000E94DA1570F3959FC1F3950F50E0551FF2
:102AC000629FF001729FBB27F00DB11D639FAA2783
:102AD000F00DB11DAA1F649F6627B00DA11D661FD2
:102AE000829F2227B00DA11D621F739FB00DA11DF3
:102AF000621F839FA00D611D221F749F3327A00DAD
:102B0000611D231F849F600D211D822F762F6A2F48
:102B100011249F5750409AF0F1F088234AF0EE0FAD
:102B2000FF1FBB1F661F771F881F91505040A9F7DA
:102B30009E3F510580F00C94B2150C94FD155F3F3B
:102B4000E4F3983ED4F3869577956795B795F79516
:102B5000E7959F5FC1F7FE2B880F911D969587958E
:102B600097F9089597F99F6780E870E060E008950D
:102B70009FEF80EC089500240A9416161706180695
:102B80000906089500240A94121613061406050671
:102B90000895092E0394000C11F4882352F0BB0F02
:102BA00040F4BF2B11F460FF04C06F5F7F4F8F4F65
:102BB0009F4F089557FD9058440F551F59F05F3FA0
:102BC00071F04795880F97FB991F61F09F3F79F04F
:102BD00087950895121613061406551FF2CF4695D1
:102BE000F1DF08C0161617061806991FF1CF869553
:102BF0007105610508940895E894BB276627772737
:102C0000CB0197F908950E944516A59F900DB49F9A
:102C1000900DA49F800D911D112408952F923F9235
:102C20004F925F926F927F928F929F92AF92BF92DC
:102C3000CF92DF92EF92FF920F931F93CF93DF9388
:102C4000CDB7DEB7CA1BDB0B0FB6F894DEBF0FBEE5
:102C5000CDBF09942A88398848885F846E847D8432
:102C60008C849B84AA84B984C884DF80EE80FD8034
:102C70000C811B81AA81B981CE0FD11D0FB6F894AA
:102C8000DEBF0FBECDBFED010895A29FB001B39F7F
:102C9000C001A39F700D811D1124911DB29F700D65
:102CA000811D1124911D08955058BB27AA270E9409
:102CB0006C160C94C9150E94BB1538F00E94C21501
:102CC00020F039F49F3F19F426F40C94B8150EF453
:102CD000E095E7FB0C94B215E92F0E94DA1558F342
:102CE000BA17620773078407950720F079F4A6F5F1
:102CF0000C94FC150EF4E0950B2EBA2FA02D0B01B1
:102D0000B90190010C01CA01A0011124FF27591B30
:102D100099F0593F50F4503E68F11A16F040A22F36
:102D2000232F342F4427585FF3CF469537952795A7
:102D3000A795F0405395C9F77EF41F16BA0B620BA6
:102D4000730B840BBAF09150A1F0FF0FBB1F661FED
:102D5000771F881FC2F70EC0BA0F621F731F841F30
:102D600048F4879577956795B795F7959E3F08F056
:102D7000B0CF9395880F08F09927EE0F9795879518
:102D800008950E94D5160C94C9150E94C21558F0DA
:102D90000E94BB1540F029F45F3F29F00C94B21556
:102DA00051110C94FD150C94B8150E94DA1568F3B6
:102DB0009923B1F3552391F3951B550BBB27AA27F4
:102DC00062177307840738F09F5F5F4F220F331F2E
:102DD000441FAA1FA9F335D00E2E3AF0E0E832D0F6
:102DE00091505040E695001CCAF72BD0FE2F29D0F9
:102DF000660F771F881FBB1F261737074807AB07CB
:102E0000B0E809F0BB0B802DBF01FF2793585F4F3F
:102E10003AF09E3F510578F00C94B2150C94FD15D4
:102E20005F3FE4F3983ED4F3869577956795B79521
:102E3000F7959F5FC9F7880F911D9695879597F92C
:102E40000895E1E0660F771F881FBB1F62177307A5
:102E50008407BA0720F0621B730B840BBA0BEE1FBA
:102E600088F7E09508950E943A176894B1110C9480
:102E7000FD1508950E94E21588F09F5798F0B92F2C
:102E80009927B751B0F0E1F0660F771F881F991F9F
:102E90001AF0BA95C9F714C0B13091F00E94FC1530
:102EA000B1E008950C94FC15672F782F8827B85F40
:102EB00039F0B93FCCF3869577956795B395D9F7F7
:102EC0003EF490958095709561957F4F8F4F9F4F01
:102ED00008950E94211508F48FEF08950E9421158E
:102EE000880B990B0895991B79E004C0991F9617D8
:102EF00008F0961B881F7A95C9F78095089597FB6F
:102F0000072E16F4009407D077FD09D00E94BD1754
:102F100007FC05D03EF4909581959F4F08957095DC
:102F200061957F4F0895A1E21A2EAA1BBB1BFD01DC
:102F30000DC0AA1FBB1FEE1FFF1FA217B307E40798
:102F4000F50720F0A21BB30BE40BF50B661F771FF0
:102F5000881F991F1A9469F76095709580959095D0
:102F60009B01AC01BD01CF010895B7FF0C9403167E
:102F70000E940316821B930B0895AA1BBB1B51E1F1
:102F800007C0AA1FBB1FA617B70710F0A61BB70BD9
:102F9000881F991F5A95A9F780959095BC01CD017E
:102FA0000895EE0FFF1F0590F491E02D09940F9303
:102FB0001F93CF93DF938230910510F482E090E06D
:102FC000E0919303F091940330E020E0B0E0A0E0C2
:102FD000309799F42115310509F44AC0281B390BA3
:102FE00024303105D8F58A819B816115710589F1FD
:102FF000FB0193838283FE0111C0408151810281D4
:10300000138148175907E0F04817590799F41097AA
:1030100061F012960C93129713961C933296CF017F
:10302000DF91CF911F910F91089500939303109317
:103030009403F4CF2115310551F04217530738F0AE
:10304000A901DB019A01BD01DF01F801C1CFEF0148
:10305000F9CF9093940380939303CDCFFE01E20FB9
:10306000F31F819391932250310939832883D7CF5D
:103070002091910330919203232B41F4209124015C
:1030800030912501309392032093910320912201E6
:10309000309123012115310541F42DB73EB7409100
:1030A000260150912701241B350BE0919103F091EB
:1030B0009203E217F307A0F42E1B3F0B28173907E2
:1030C00078F0AC014E5F5F4F2417350748F04E0F84
:1030D0005F1F5093920340939103819391939FCFED
:1030E000F0E0E0E09CCFCF93DF930097E9F0FC01A4
:1030F000329713821282A0919303B0919403ED0151
:1031000030E020E01097A1F420813181820F931FDD
:1031100020919103309192032817390709F061C07B
:10312000F0939203E0939103DF91CF910895EA0128
:10313000CE17DF07E8F54A815B819E0141155105F5
:10314000B1F7E901FB83EA8349915991C40FD51F77
:10315000EC17FD0761F4808191810296840F951F21
:10316000E90199838883828193819B838A83F0E03C
:10317000E0E012968D919C9113970097B9F52D91EF
:103180003C911197CD010296820F931F20919103DC
:10319000309192032817390739F6309751F510927C
:1031A000940310929303B0939203A0939103BCCF26
:1031B000D383C28340815181840F951FC817D907DB
:1031C00061F44E5F5F4F88819981480F591F518389
:1031D00040838A819B81938382832115310509F085
:1031E000B0CFF0939403E09393039ECFFD01DC01F5
:1031F000C0CF13821282D7CFB0E0A0E0E2E0F9E1C5
:103200000C9410168C01009751F4CB010E94D71733
:103210008C01C801CDB7DEB7E0E10C942C16FC019F
:10322000E60FF71F9C0122503109E217F30708F45B
:103230009DC0D901CD91DC911197C617D70798F0A1
:10324000C530D10530F3CE0104978617970708F3F0
:10325000C61BD70B2297C193D1936D937C93CF015B
:103260000E947318D6CF5B01AC1ABD0A4C018C0EBC
:103270009D1EA0919303B0919403512C412CF12CED
:10328000E12C109731F5809191039091920388156C
:10329000990509F05CC04616570608F058C08091A1
:1032A000220190912301009741F48DB79EB7409180
:1032B000260150912701841B950BE817F90708F0A8
:1032C00055C0F0939203E0939103F90171836083F9
:1032D000A0CF8D919C91119712966C901297139696
:1032E0007C901397A815B90559F56C0142E0C40EFE
:1032F000D11CCA14DB0420F1AC014A195B09DA01C4
:103300001296159780F06282738251834083D901AF
:103310006D937C93E114F10471F0D7011396FC9343
:10332000EE93129776CF22968C0F9D1FF901918311
:103330008083F301EFCFF0939403E093930369CF7D
:103340004816590608F42C017D01D3019ACFCB0110
:103350000E94D7177C01009749F0AE01B8010E9486
:10336000B919C8010E947318870153CF10E000E01B
:1033700050CFFB01DC0102C001900D924150504042
:10338000D8F70895FB01DC0101900D920020E1F7D0
:063390000895F894FFCF40
:1033960010000F000E000D000C000B000A000900C3
:1033A60008000700060005000400030002001100E3
:1033B600FFFF000095038000000040001400540049
:1033C6001F1C1F1E1F1E1F1F1E1F1E1F10000F006B
:1033D6000E000D000C000B000A0009000800070093
:1033E60006000500040003000200110000000000B2
:1033F600600324025102C8031E0360027402000027
:10340600000078064B06BB06210644063106220656
:1034160000000000760B2402BB06E8030000000053
:10342600D90A7C0BB60AB3099E09200C89096509DD
:103436000D0A0020504D0020414D005247422043C6
:103446006C6F636B2076312E3100286329204D6125
:1034560072656B2042756A6B6F0052544320537934
:103466006E63204572726F72210054696D65207516
:1034760070646174656421006E616E00696E660039
:083486006F766600200046008D
:00000001FF
