:100000000C9421010C9449010C9449010C94490170
:100010000C9449010C9449010C9449010C94490138
:100020000C9449010C9449010C9449010C94490128
:100030000C9449010C9449010C9449010C94490118
:100040000C94B90C0C9449010C94290D0C94030DDB
:100050000C9449010C9449010C9449010C944901F8
:100060000C945B0D0C944901207C200052544320D9
:1000700053796E63204F4B212043757272656E7405
:100080003A20005254432053796E63204572726FB8
:100090007221003D3D3D3D3D3D3D3D3D3D3D3D3DB4
:1000A0003D3D3D3D3D3D3D3D3D3D3D3D3D3D3D3D80
:1000B0003D3D3D3D3D3D3D3D3D3D3D3D3D3D3D00AD
:1000C0004578616D706C653A2030322033302030D5
:1000D0003020312031322032352032303236202863
:1000E000323A33303A303020504D2900414D5F5084
:1000F0004D3A2030203D20414D2C2031203D2050D4
:100100004D00466F726D617420746F207365743A90
:10011000204848204D4D20535320414D5F504D20E5
:100120004D4D2044442059595959004C6963656E1E
:1001300073656420756E646572204D4954204C6966
:1001400063656E736500436F7079726967687420C8
:100150004D6172656B2042756A6B6F0050726F6AF9
:100160006563743A205247422042696E6172792079
:10017000436C6F636B2076312E3120285553290054
:100180003D3D3D3D3D3D3D3D3D3D3D3D3D3D3D3D9F
:100190003D3D3D3D3D3D3D3D3D3D3D3D3D3D3D3D8F
:1001A0003D3D3D3D3D3D3D3D3D3D3D3D002046000D
:1001B000207C2054656D703A2000207C20002A208D
:1001C0004461746520616E642074696D652075708A
:1001D0006461746564207669612053657269616C3D
:1001E0002028555320466F726D617429202A000023
:1001F00000000800020100000304070000000000E6
:1002000000000000000000250028002B0000000076
:1002100000240027002A0004040404040404040247
:100220000202020202030303030303010204081093
:100230002040800102040810200102040810200060
:100240007A0E11241FBECFEFD8E0DEBFCDBF23E072
:10025000A4EAB1E001C01D92A433B207E1F711E0B6
:10026000A0E0B1E0E0E1FFE202C005900D92A43A07
:10027000B107D9F711E0C1E2D1E004C02197FE0136
:100280000E948E15C032D107C9F70E94BD0E0C9492
:1002900086170C940000282F30E094E035952795C0
:1002A0009A95E1F7922F990F990F291B220F820F30
:1002B000089590E0FC01E55DFD4F2491895E9D4F1E
:1002C000FC018491882399F090E0880F991FFC012C
:1002D000E35FFD4FA591B491FC01ED5FFD4F85916A
:1002E00094918FB7F894EC91E22BEC938FBF089523
:1002F00090E0FC01E151FE4F2491FC01E55DFD4FD2
:100300003491FC01E95EFD4FE491EE23C9F0222314
:1003100039F0233001F1A8F4213019F1223029F10C
:10032000F0E0EE0FFF1FED5FFD4FA591B4918FB789
:10033000F894EC91611126C030953E233C938FBF19
:1003400008952730A9F02830C9F0243049F780916A
:1003500080008F7D03C0809180008F778093800024
:10036000DFCF84B58F7784BDDBCF84B58F7DFBCFA6
:100370008091B0008F778093B000D2CF8091B00091
:100380008F7DF9CF3E2BDACF3FB7F89480910A02E8
:1003900090910B02A0910C02B0910D0226B5A89B82
:1003A00005C02F3F19F00196A11DB11D3FBFBA2F07
:1003B000A92F982F8827BC01CD01620F711D811DC7
:1003C000911D42E0660F771F881F991F4A95D1F74C
:1003D000089508950895AF92BF92CF92DF92EF9261
:1003E000FF920F931F93CF93DF936C017B018B01DF
:1003F000040F151FEB015E01AE18BF08C017D1072F
:1004000059F06991D601ED91FC910190F081E02DB8
:10041000C6010995892B79F7C501DF91CF911F910D
:100420000F91FF90EF90DF90CF90BF90AF90089525
:10043000FC01538D448D252F30E0842F90E0821BEA
:10044000930B541710F0CF96089501970895FC016F
:10045000918D828D981761F0A28DAE0FBF2FB11DC7
:100460005D968C91928D9F5F9F73928F90E008951F
:100470008FEF9FEF0895FC01918D828D981731F0D9
:10048000828DE80FF11D858D90E008958FEF9FEF2D
:1004900008952FB7F89480910E0290910F02A091C9
:1004A0001002B09111022FBF80938A0290938B02A9
:1004B000A0938C02B0938D0282E892E00E943B02EE
:1004C00097FF26C02FB7F89480910E0290910F02EB
:1004D000A0911002B09111022FBF40918A02509159
:1004E0008B0260918C0270918D02841B950BA60B80
:1004F000B70B4091860250918702609188027091FB
:10050000890284179507A607B707B0F28FEF9FEF10
:100510000895CF92DF92EF92FF92CF930E9449020B
:10052000FC0197FD4EC08D32910521F0C0970A97CE
:1005300008F040C0C12CD12C7601C0E0E130F105BB
:10054000D1F0ED32F105D9F1CF01C0970A9798F4B7
:10055000AAE0B0E0A70196010E94C7136F01FF0F48
:10056000EE08FF08C60ED71EE81EF91E80E3C81A63
:10057000D108E108F10882E892E00E9427020E9477
:100580004902FC01C0970A97C8F2E130F105B1F2C7
:10059000CC2341F0F094E094D094C094C11CD11CC1
:1005A000E11CF11CC701B601CF91FF90EF90DF90E5
:1005B000CF90089582E892E00E942702AFCFC1E079
:1005C000DACFC12CD12C7601EDCFFC01918D228D9B
:1005D000892F90E0805C9F4F821B91098F73992730
:1005E000089582E892E00E94E50221E0892B09F457
:1005F00020E0822F089580E090E0892B29F00E946E
:10060000F10281110C9400000895FC01A48DA80F43
:10061000B92FB11DA35ABF4F2C91848D90E0019644
:100620008F739927848FA689B7892C93A089B18964
:100630008C91837080648C93938D848D981306C005
:100640000288F389E02D80818F7D80830895EF9269
:10065000FF920F931F93CF93DF93EC0181E0888F7C
:100660009B8D8C8D98131AC0E889F989808185FF4C
:1006700015C09FB7F894EE89FF896083E889F989EE
:1006800080818370806480839FBF81E090E0DF91F0
:10069000CF911F910F91FF90EF900895F62E0B8D43
:1006A00010E00F5F1F4F0F731127E02E8C8D8E11FE
:1006B0000CC00FB607FCFACFE889F989808185FF65
:1006C000F5CFCE010E940503F1CFEB8DEC0FFD2F8E
:1006D000F11DE35AFF4FF0829FB7F8940B8FEA8920
:1006E000FB8980818062CFCF682F82E892E00C94F2
:1006F00027030F931F93CF93DF938C01D0E0C0E0CB
:10070000F801EC0FFD1F6491662341F082E892E04E
:100710000E942703892B11F02196F2CFCE01DF91A1
:10072000CF911F910F910895CF93DF93EC01888DA6
:100730008823B9F0AA89BB89E889F9898C9185FD5C
:1007400003C0808186FD0DC00FB607FCF7CF8C91EA
:1007500085FFF2CF808185FFEDCFCE010E9405039A
:10076000E9CFDF91CF9108952091CD01260F332756
:10077000331F21323105ECF420917C02FC0190E022
:1007800080E0243069F082E00895A091CD012191AC
:10079000AC0143555E4FA40FB52FB11D2C930196AC
:1007A000861798F38091CD01680F6093CD0180E0AA
:1007B000089581E0089510927C0281E080935B02AD
:1007C0001092560261E082E10E94780161E083E1CB
:1007D0000E947801E9EBF0E080818E7F8083808148
:1007E0008D7F808388E48093B80085E48093BC008B
:1007F0000895CF93DF9391E09093AC018823B9F0F3
:10080000C091B800D091BA008091BC008A7B8093DF
:10081000BC0060E082E10E94780160E083E10E9418
:1008200078010E94DB03D093BA00C093B800DF9137
:10083000CF910895CF92DF92EF92FF920F931F9383
:10084000CF93C82F813208F096C00E94C4016B017B
:100850007C0180917C02811169C081E080937C02DF
:1008600080935B029FEF90935A02109259029C0F63
:10087000909358028093570280915702806D809325
:10088000570280915602813009F077C010925602CB
:100890000E94C4016B017C01809157028093BB00D0
:1008A00080917E0290917F02A0918002B09181029E
:1008B000892B8A2B8B2BA1F00E94C40100917E0210
:1008C00010917F0220918002309181026C197D0984
:1008D0008E099F09061717072807390708F447C02C
:1008E0008091BC0083FDD8CF85EC8093BC000E9432
:1008F000C4016B017C0180917C02813009F43FC00E
:10090000809159028C1710F4C0915902A6E3B2E00D
:10091000ECE5F2E080E08C1354C08C2FCF911F9156
:100920000F91FF90EF90DF90CF90089580917E021D
:1009300090917F02A0918002B0918102892B8A2B35
:100940008B2B09F486CF0E94C40100917E02109186
:100950007F0220918002309181026C197D098E09FD
:100960009F09061717072807390708F072CF8091EB
:100970007D020E94F903C0E0D0CF85EEB6CF809112
:100980007E0290917F02A0918002B0918102892B1A
:100990008A2B8B2B09F4AFCF0E94C40100917E02F9
:1009A00010917F0220918002309181026C197D09A3
:1009B0008E099F09061717072807390708F09BCFEC
:1009C000D6CF9D9191938F5FA6CF8F929F92AF923A
:1009D000BF92CF92DF92EF92FF920F931F93CF932C
:1009E000DF93D0913502D13208F0D7C0182FC091D3
:1009F00034020E94C4016B017C0180917C02811150
:100A00006BC082E080937C0210935B028FEF809337
:100A10005A0210925902D0935802A4E1B2E0E6E3E0
:100A2000F2E080E0D81391C01092570280915702F3
:100A3000CC0FC82BC093570280915602813009F029
:100A400088C0109256020E94C4016B017C01809103
:100A500057028093BB0080917E0290917F02A0910B
:100A60008002B0918102892B8A2B8B2BA1F00E94EE
:100A7000C40100917E0210917F022091800230918A
:100A800081026C197D098E099F090617170728072F
:100A9000390708F442C08091BC0083FDD8CF85ECB3
:100AA0008093BC000E94C4016B017C0180917C0298
:100AB000823009F450C080915A028F3F09F46FC010
:100AC00080915A02803209F46CC080915A028033BE
:100AD00009F469C084E026C080917E0290917F0273
:100AE000A0918002B0918102892B8A2B8B2B09F473
:100AF00084CF0E94C40180907E0290907F02A090DB
:100B00008002B09081026C197D098E099F098616BA
:100B10009706A806B90608F070CF80917D020E9462
:100B2000F90385E01092130210923502109212021E
:100B3000DF91CF911F910F91FF90EF90DF90CF90B9
:100B4000BF90AF909F908F9008959D9191938F5FEC
:100B500069CF85EEA5CF80917E0290917F02A09112
:100B60008002B0918102892B8A2B8B2B09F49ECFB6
:100B70000E94C40100917E0210917F0220918002A8
:100B8000309181026C197D098E099F09061717079C
:100B90002807390708F08ACFC0CF81E0C3CF80E0B3
:100BA000C1CF82E0BFCF83E0BDCF0895E091F501D2
:100BB0008091F401E81730F4F0E0E45AFD4F8081B1
:100BC00090E008958FEF9FEF08959091F501809147
:100BD000F4012FEF3FEF981748F4E92FF0E0E45AC3
:100BE000FD4F208130E09F5F9093F501C90108958A
:100BF0008091F4019091F501891B990B0895CF9292
:100C0000DF92EF92FF920F931F93CF93DF937C01BC
:100C1000CB018A0120911202222389F0EB016B01A2
:100C2000C40ED51ECC15DD0569F06991D701ED9193
:100C3000FC910190F081E02DC7010995F3CF642F5D
:100C40000E94B403C801DF91CF911F910F91FF90D3
:100C5000EF90DF90CF900895CF93DF931F92CDB7A1
:100C6000DEB76983209112022223F9F02091350228
:100C7000203258F021E030E0FC013383228390E001
:100C800080E00F90DF91CF91089580911302E82FBB
:100C9000F0E0EC5EFD4F998190838F5F80931302AB
:100CA0008093350281E090E0ECCF61E0CE010196C7
:100CB0000E94B403F7CF90E080E008956093FA01BA
:100CC0007093FB018093FC019093FD01645D7E4F66
:100CD0008F4F9F4F6093F6017093F7018093F80157
:100CE0009093F90182E090E09093010280930002DA
:100CF0002FB7F89480910E0290910F02A0911002EC
:100D0000B09111022FBF8093A8019093A901A093E5
:100D1000AA01B093AB0108950F931F938FB7F89476
:100D200000910E0210910F022091100230911102D9
:100D30008FBF4091A8015091A9016091AA017091C3
:100D4000AB01041B150B260B370B8091FA01909118
:100D5000FB01A091FC01B091FD01083E134021056B
:100D60003105C0F00196A11DB11D8093FA01909349
:100D7000FB01A093FC01B093FD0148515C4F6F4F04
:100D80007F4F4093A8015093A9016093AA017093EB
:100D9000AB01C4CF4091F6015091F7016091F80189
:100DA0007091F90184179507A607B70770F0E091D5
:100DB000FE01F091FF01309741F009956115710531
:100DC0008105910569F00E945E066091FA017091BB
:100DD000FB018091FC019091FD011F910F910895FD
:100DE0008091FA019091FB01A091FC01B091FD016D
:100DF000845D9E4FAF4FBF4F8093F6019093F701F4
:100E0000A093F801B093F90181E090E020910002F5
:100E100030910102232B11F490E080E090930102C5
:100E200080930002D2CF4F925F926F927F928F9207
:100E30009F92AF92BF92CF92DF92EF92FF920F9369
:100E40001F93CF93DF93FC011681A12FB0E020E820
:100E500033E341EE51E00E94C7134B015C01C2EB4A
:100E6000D7E09D0104E610E080E9E82EFF24F3942A
:100E7000CE01825B9740821793079CF14580512CED
:100E80002E54384FC90164E670E00E943C157C0185
:100E9000C90160E971E00E943C156C0108E211E0B3
:100EA000C1E0D0E0390183E068227724C415D5057C
:100EB0000CF040C0C230D10571F56114710459F5D0
:100EC000E114F10419F4C114D10429F5B0E88B0E32
:100ED000BBE39B1EB6E2AB1EB11C21960F5F1F4FFA
:100EE000E5CFCE0183709927892B99F4CE01B80103
:100EF0000E943C15892B31F4CE01B7010E943C15AC
:100F0000892B39F4A0E88A0EA1E59A1EA1E0AA1E59
:100F1000B11C2196ADCFD8018C91A82FB0E020E86C
:100F200031E541E050E00E94C713860E971EA81ECF
:100F3000B91ED3CF228130E0A0E1BEE00E940914A7
:100F40006B017C01218130E0ACE3B0E00E94091428
:100F5000C60ED71EE81EF91E8081C80ED11CE11CEA
:100F6000F11CA481A150BB0B20E831E541E050E029
:100F70000E9472156C0D7D1D8E1D9F1D680D791DC3
:100F80008A1D9B1DDF91CF911F910F91FF90EF90D4
:100F9000DF90CF90BF90AF909F908F907F906F9099
:100FA0005F904F9008956F927F928F929F92AF9231
:100FB000BF92CF92DF92EF92FF920F931F93CF9346
:100FC000DF936B017C01EA018CE3882E912CA12C2C
:100FD000B12CC701A50194010E9450156883CA0174
:100FE000B901A50194010E9450156983C701B6019A
:100FF00020E13EE040E050E00E945015CA01B901F6
:1010000028E130E040E050E00E9450156A83C701BB
:10101000B60120E831E541E050E00E945015690139
:101020007A01CA01B9016C5F7F4F8F4F9F4F27E054
:1010300030E040E050E00E9450156F5F6B83812CE0
:10104000912C540140E094E6692E712C00E911E0E6
:10105000242F30E02E54384FF901E370FF273097EA
:10106000F9F4C901B3010E943C15892B31F4C9017F
:10107000B8010E943C15892B99F48EE691E0A0E01E
:10108000B0E0880E991EAA1EBB1ED501C401AA2776
:10109000BB27C816D906EA06FB0638F04F5FD8CF43
:1010A0008DE691E0A0E0B0E0ECCF4E83C90164E6AC
:1010B00070E00E943C158C01C90160E971E00E945A
:1010C0003C15309729F401151105E1F40097D1F092
:1010D0004DE651E060E070E0841A950AA60AB70A6E
:1010E000C818D908EA08FB08A8E2B1E020E02130DE
:1010F00071F4309791F50115110511F4009769F518
:101100004DE106C04EE651E060E070E0E5CF4C9165
:1011100050E070E060E031E0320FC416D506E6061C
:10112000F70640F0C41AD50AE60AF70A1196232FEB
:101130003C30E9F62F5F2D83C394CC82DF91CF91B1
:101140001F910F91FF90EF90DF90CF90BF90AF90E5
:101150009F908F907F906F9008954CE1D9CFCF9260
:10116000DF92EF92FF92C090A401D090A501E09091
:10117000A601F090A701C616D706E806F90671F099
:101180006B017C0142E052E00E94D307C092A401AF
:10119000D092A501E092A601F092A701FF90EF90F6
:1011A000DF90CF9008950E948C060E94AF08809136
:1011B000080290E08E54984F08950E948C060E9479
:1011C000AF088091070290E008950E948C060E946B
:1011D000AF088091060290E008950E948C060E945C
:1011E000AF088091020290E008950E948C060E9450
:1011F000AF088091030290E008950E948C060E943F
:10120000AF088091040290E008951F93CF93DF937D
:10121000EC01E881F9810484F585E02D62E109950E
:10122000182FE881F9810484F585E02D61E1CE0174
:101230000995212F382F37FF02C0215C3F4FC9018C
:1012400026E0959587952A95E1F7DF91CF911F913B
:101250000895CF93DF931F92CDB7DEB7DC01ED91F8
:10126000FC910284F385E02D21E0AE014F5F5F4FDA
:10127000099589810F90DF91CF910895CF93DF93E6
:101280001F92CDB7DEB74983DC01ED91FC9106805A
:10129000F781E02D21E0AE014F5F5F4F09950F9080
:1012A000DF91CF910895DF92EF92FF920F931F93FA
:1012B000CF93DF937C01D42E152F022FDC011296E1
:1012C0008D919C9121E02093120228E62093340214
:1012D0001092130210923502DC01ED91FC91019005
:1012E000F081E02D0995CD2DD12F0C0F1D2F111D53
:1012F000C017D10761F0F701828193816991DC0108
:10130000ED91FC910190F081E02D0995F1CF81E004
:10131000DF91CF911F910F91FF90EF90DF900C9490
:10132000E504FF920F931F93CF93DF93EC018B01A2
:101330008A819B8121E02093120228E620933402C7
:101340001092130210923502DC01ED91FC91019094
:10135000F081E02D60E00995AA81BB81F801208130
:101360008AE0F82E822F6F2D0E943015682F660FAD
:10137000680F660F620FED91FC9111970190F0815B
:10138000E02DCD010995AA81BB81F8012181822F31
:101390006F2D0E943015682F660F680F660F620F61
:1013A000ED91FC9111970190F081E02DCD0109950F
:1013B000AA81BB81F8012281822F6F2D0E943015F6
:1013C000682F660F680F660F620FED91FC91119701
:1013D0000190F081E02DCD0109958A819B81DC018E
:1013E000ED91FC910190F081E02DD80113966C9164
:1013F0000995AA81BB81F8012481822F6F2D0E945B
:101400003015682F660F680F660F620FED91FC9123
:1014100011970190F081E02DCD010995AA81BB8142
:10142000F8012581822F6F2D0E943015682F660FDD
:10143000680F660F620FED91FC9111970190F0819A
:10144000E02DCD010995AA81BB81F80126812E519D
:10145000822F6F2D0E943015682F660F680F660F60
:10146000620FED91FC9111970190F081E02DCD017B
:10147000099581E00E94E504182FE881F981048430
:10148000F585E02D6FE0CE010995482F4F77E88173
:10149000F9810084F185E02D6FE0CE010995812F5F
:1014A000DF91CF911F910F91FF9008950F931F939C
:1014B000CF93DF9300D000D000D01F92CDB7DEB71E
:1014C0008C01CB01BA01AE014F5F5F4F0E94D30781
:1014D000BE016F5F7F4FC8010E94910927960FB62A
:1014E000F894DEBF0FBECDBFDF91CF911F910F915A
:1014F00008951092F5011092F401109213021092C7
:1015000035020E94DB0389EE91E09093F301809312
:10151000F2018AEE91E09093F1018093F001089539
:10152000CF92DF92EF92FF920F931F93CF93DF93AF
:101530007B016A018C01D0E0C0E0F80180810E5F80
:101540001F4FB6010C2E02C0759567950A94E2F7FD
:1015500061700E9478012196EC16FD0671F7DF910B
:10156000CF911F910F91FF90EF90DF90CF90089552
:10157000FC0101900020E9F73197AF01481B590B9E
:10158000BC0182E892E00C94EB018F929F92AF92A3
:10159000BF920F931F93CF93DF93CDB7DEB7A19781
:1015A0000FB6F894DEBF0FBECDBF19A2423008F4CB
:1015B0004AE08E010F5D1F4F842E912CB12CA12C7F
:1015C000A50194010E945015E62FB901CA01EA3025
:1015D000F4F4E05DD801EE938D01232B242B252B11
:1015E00079F790E080E0109719F0CD010E94B80AD9
:1015F000A1960FB6F894DEBF0FBECDBFDF91CF919D
:101600001F910F91BF90AF909F908F900895E95CCC
:10161000E1CFCF93DF930E947903EC018CE891E056
:101620000E94B80A8C0F9D1FDF91CF910895CF9231
:10163000DF92EF92FF92CF93DF936C01990FEE0848
:10164000FF08F7FE17C08DE20E947403EC016627C5
:101650007727CB016C197D098E099F094AE00E940A
:10166000C50A8C0F9D1FDF91CF91FF90EF90DF9007
:10167000CF9008954AE0C701B601DF91CF91FF9066
:10168000EF90DF90CF900C94C50A0F931F93CF93E8
:10169000DF9300D000D000D01F92CDB7DEB78C0111
:1016A000DC0112968D919C9121E02093120228E694
:1016B000209334021092130210923502DC01ED9156
:1016C000FC910190F081E02D60E0099581E00E949D
:1016D000E504882381F0F801848360E070E0CB01A9
:1016E00027960FB6F894DEBF0FBECDBFDF91CF9126
:1016F0001F910F91089587E00E941A041092F5013E
:101700008093F401D80112968D919C91DC01ED91AA
:10171000FC910284F385E02D09958F770E944B019F
:101720008983F80182819381DC01ED91FC9102842F
:10173000F385E02D09950E944B018A83F80182818F
:101740009381DC01ED91FC910284F385E02D0995F4
:101750008F7B0E944B018B83F80182819381DC0196
:10176000ED91FC910284F385E02D09958C83F801BD
:1017700082819381DC01ED91FC910284F385E02D5F
:1017800009950E944B018D83F80182819381DC01D0
:10179000ED91FC910284F385E02D09958F770E94ED
:1017A0004B018E83F80182819381DC01ED91FC91E4
:1017B0000284F385E02D09950E944B01825E8F83A0
:1017C000CE0101960E9413078BCF8BE293E00C941D
:1017D000450BCF92DF92EF92FF920F931F93CF931F
:1017E000DF936C01E42E152F022FDC0112968D91F0
:1017F0009C9121E02093120228E62093340210925B
:10180000130210923502DC01ED91FC910190F08100
:10181000E02D099581E00E94E504F82E81111EC09B
:10182000802F013208F080E20E941A041092F50124
:101830008093F401CE2DD12F0C0F1D2F111DC01739
:10184000D10761F0F60182819381DC01ED91FC9179
:101850000284F385E02D09958993F1CF8F2DDF91D7
:10186000CF911F910F91FF90EF90DF90CF9008954F
:10187000EF92FF920F931F93CF93DF93EC017B01C5
:10188000198218821B821A821D821C82FB01019020
:101890000020E9F731978F01061B170BB8016F5F26
:1018A0007F4F90E080E00E94B9160097B9F09983CD
:1018B00088831B830A832C813D81232B11F4FC0137
:1018C00010821D830C83B70188819981DF91CF91AC
:1018D0001F910F91FF90EF900C947F178881998151
:1018E000009711F00E943016198218821D821C8206
:1018F0001B821A82DF91CF911F910F91FF90EF9081
:10190000089585ED8093BC0080917E0290917F02C6
:10191000A0918002B09181020796A11DB11D23E024
:10192000B695A795979587952A95D1F72091BC00F4
:1019300024FD03C010927C02089540917E025091D4
:101940007F026091800270918102452B462B472BCC
:1019500069F30097A105B10541F02AE22A95F1F754
:1019600000C00197A109B109E1CF80917D020C94DB
:10197000F9031F920F920FB60F9211242F933F93EA
:101980008F939F93AF93BF9380910E0290910F021C
:10199000A0911002B09111023091090223E0230FAF
:1019A0002D3758F50196A11DB11D20930902809392
:1019B0000E0290930F02A0931002B0931102809137
:1019C0000A0290910B02A0910C02B0910D020196B7
:1019D000A11DB11D80930A0290930B02A0930C02EB
:1019E000B0930D02BF91AF919F918F913F912F9135
:1019F0000F900FBE0F901F90189526E8230F0296A8
:101A0000A11DB11DD2CF1F920F920FB60F921124BC
:101A10002F933F934F935F936F937F938F939F93F6
:101A2000AF93BF93EF93FF9382E892E00E94050388
:101A3000FF91EF91BF91AF919F918F917F916F91A6
:101A40005F914F913F912F910F900FBE0F901F907C
:101A500018951F920F920FB60F9211242F938F9308
:101A60009F93EF93FF93E0919202F0919302808114
:101A7000E0919802F091990282FD1BC090818091C3
:101A80009B028F5F8F7320919C02821741F0E0913F
:101A90009B02F0E0EE57FD4F958F80939B02FF91E4
:101AA000EF919F918F912F910F900FBE0F901F90EC
:101AB00018958081F4CF1F920F920FB60F921124C8
:101AC0002F933F934F935F936F937F938F939F9346
:101AD000AF93BF93EF93FF938091B900887F8036D7
:101AE00009F44AC0F0F5883209F4A7C018F580312E
:101AF00009F49BC0B8F4882309F4F9C0883009F4CC
:101B000094C0FF91EF91BF91AF919F918F917F9181
:101B10006F915F914F913F912F910F900FBE0F905A
:101B20001F901895883109F488C0803251F780934E
:101B30005A0214C0803409F49DC040F48033B9F3D4
:101B40008833F9F680935A0285ECB0C0803509F4E9
:101B500085C0883509F496C0883499F60E94810CB6
:101B6000D0CF883909F48CC038F5883729F050F483
:101B7000883611F0803729F683E080937C0210923A
:101B8000EF0157C0883809F47BC0803919F08038DC
:101B900009F0B7CF8091EF01803208F071C0E09179
:101BA000EF0181E08E0F8093EF018091BB00F0E0A8
:101BB000E153FE4F80833DC0803B39F0E0F4803A32
:101BC00009F479C0883A09F09CCF84E080937C02C4
:101BD0001092CE011092CD01E091F201F091F3014B
:101BE00009958091CD0181110FC081E08093CD01D5
:101BF0001092AD0109C0803C09F4A6CF883C09F4DD
:101C0000A3CF883B09F07DCFE091CE0181E08E0F1C
:101C10008093CE01F0E0E355FE4F80818093BB00BE
:101C20009091CE018091CD0129C08091570280937F
:101C3000BB0085EC8093BC0064CF909159028091E9
:101C40005802981758F5E091590281E08E0F809361
:101C50005902F0E0EA5CFD4F8081E9CFE091590242
:101C600081E08E0F809359028091BB00F0E0EA5C26
:101C7000FD4F808390915902809158029817C8F2C5
:101C800085E8D8CFE091590281E08E0F8093590208
:101C90008091BB00F0E0EA5CFD4F808380915B02A5
:101CA00081115CCF81E08093560284EA8093BC006E
:101CB00010927C0226CF85EC8093BC0010927C02AF
:101CC0008091EF01803230F4E091EF01F0E0E153D8
:101CD000FE4F10826091EF0170E0E091F001F09111
:101CE000F1018FEC91E009951092EF010ACF10926B
:101CF0005A0234CFE2E8F2E01382128288EE93E0D7
:101D0000A0E0B0E084839583A683B78328E531E023
:101D10003183208325EC30E03587248724EC30E0C4
:101D20003787268720EC30E0318B208B21EC30E0A8
:101D3000338B228B22EC30E0358B248B26EC30E089
:101D4000378B268B118E128E138E148EEFE1F3E0FB
:101D50001382128284839583A683B7838AE691E0F7
:101D600091838083ABE2B3E01396FC93EE931297DA
:101D70008CE791E08D939C930895CF93DF93CDB73B
:101D8000DEB72D970FB6F894DEBF0FBECDBF7894A7
:101D900084B5826084BD84B5816084BD85B5826070
:101DA00085BD85B5816085BD80916E008160809321
:101DB0006E0010928100809181008260809381008A
:101DC000809181008160809381008091800081609A
:101DD000809380008091B10084608093B1008091F5
:101DE000B00081608093B00080917A00846080931D
:101DF0007A0080917A00826080937A0080917A00E4
:101E0000816080937A0080917A00806880937A0064
:101E10001092C1001092F5011092F4011092130279
:101E2000109235020E94DB0389EE91E09093F3015A
:101E30008093F2018AEE91E09093F1018093F0019A
:101E4000E0919202F091930282E08083E0918E0211
:101E5000F0918F021082E0919002F09191028FEC4C
:101E6000808310929A02E0919602F091970286E0A8
:101E70008083E0919402F09195028081806180835B
:101E8000E0919402F0919502808188608083E091D6
:101E90009402F0919502808180688083E0919402A1
:101EA000F091950280818F7D808380E891E00E948F
:101EB000090B8CE591E00E94090B86E491E00E94F9
:101EC000090B8BE291E00E94090B82E091E00E94F5
:101ED000090B8CEE90E00E94090B80EC90E00E94D0
:101EE000090B83E990E00E94090B85EE9BE090933B
:101EF000FF018093FE018091FA019091FB01A09176
:101F0000FC01B091FD018093F6019093F701A0933D
:101F1000F801B093F9010E948C060E948C06809112
:101F2000000290910102029709F49AC083E890E0C0
:101F30000E94090B08E111E0F80180810E5F1F4F3C
:101F40000E945901F1E000321F07B1F70CE011E0E7
:101F500028E1E22E21E0F22EF80180810E5F1F4F72
:101F60000E945901E016F106B9F700E011E0F8010E
:101F700080810E5F1F4F0E945901F1E00C301F0756
:101F8000B1F782E892E00E94E502181619060CF0FB
:101F9000F2C00E9489022B011B010E9489026C87FA
:101FA0000E9489026D870E9489028B010E9489022A
:101FB0006B010E948902688779878A879B870E94C4
:101FC00089024B010130110509F0C3C02CE0421613
:101FD00051041CF48CE0280E311CE8E12E1631046B
:101FE00090F52B82FC85FA832D8529838C2D1C147A
:101FF0001D0414F00E94DD088E83888599851816CB
:1020000019060CF4B1C00E94E50894018D831814E0
:1020100019040CF0ABC02436310514F42053384FAA
:10202000225B2F83BE016F5F7F4F8BE293E00E94A4
:102030009109CE0101960E9413070E945E068EEB65
:1020400091E00E94090B82E892E00E94E5021816D6
:1020500019060CF090C082E892E00E942702F3CFAC
:102060008CE690E00E9479030E94DD080A971CF438
:1020700080E30E9474030E94DD080E94170B8FE228
:102080000E9474030E94E5080A971CF480E30E94F2
:1020900074030E94E5080E94170B8FE20E947403EC
:1020A0000E94D3080E94170B88E690E00E947903F3
:1020B0000E94FD088C0163E971E00C9714F06FE851
:1020C00071E0CE0101960E94380C0D301105DCF153
:1020D0000C5011090A3011051CF480E30E947403AE
:1020E000C8010E94170B8AE30E9474030E94F5083E
:1020F0000A971CF480E30E9474030E94F5080E9472
:10210000170B8AE30E9474030E94ED080A971CF4DF
:1021100080E30E9474030E94ED080E94170B4D811A
:102120005E8169817A8182E892E00E94EB018CE80D
:1021300091E00E94B80A89819A81009709F4FACE49
:102140000E943016F7CE0115110521F60CE010E0C3
:10215000C7CF012B09F041CF9CE04916510409F08B
:102160003CCF312C212C39CF88854FCF0E94D3080A
:10217000825B8F8357CF0E94F508892B09F055C0E9
:102180000E94ED087C01892B09F04FC00E94FD08D8
:102190008C01009709F446C00D9714F00C501109FA
:1021A000E016F1060CF041C094E3C92E91E0D92E5F
:1021B000F6013080F2E0CF0ED11C61E0832D0E9449
:1021C00078010E94C4014B015C0182E3482E512C2E
:1021D000612C712C0E94C401681979098A099B0934
:1021E000683E734081059105A8F321E0421A510829
:1021F0006108710888EE880E83E0981EA11CB11C4E
:10220000411451046104710429F760E0832D0E9498
:10221000780184E591E08C159D0551F69FEFE91A50
:10222000F90ABECF0CE010E0BBCF0E948C066B0118
:102230007C010E94AF084091040250E04D305105EE
:102240000CF4E3C04C50510964E070E088E191E087
:102250000E94900AC701B6010E94AF084091030294
:1022600050E066E070E08CE091E00E94900AC701C7
:10227000B6010E94AF084091020250E066E070E0B3
:1022800080E091E00E94900A0E94ED0820912001D8
:10229000309121018217930709F4AAC00E94DD083A
:1022A0000A971CF480E30E9474030E94DD080E94D8
:1022B000170B8FE20E9474030E94E5080A971CF432
:1022C00080E30E9474030E94E5080E94170B8FE2CE
:1022D0000E9474030E94D3080E94170B8AEB91E0BE
:1022E0000E9479030E94FD088C0163E971E00C975C
:1022F00014F06FE871E0CE0101960E94380C0D30A9
:1023000011050CF489C00C5011090A3011051CF498
:1023100080E30E947403C8010E94170B8AE30E94A5
:1023200074030E94F5080A971CF480E30E9474036A
:102330000E94F5080E94170B8AE30E9474030E9412
:10234000ED080A971CF480E30E9474030E94ED08D4
:102350000E94170B4D815E8169817A8182E892E04B
:102360000E94EB018BE293E00E940509BC01990FEA
:10237000880B990B0E94AA1220E030E040E85EE34F
:102380000E94091320E030E040E151E40E9409136B
:1023900020E030E040EA50E40E94851420E030E084
:1023A00040E052E40E9419146B017C014B015C0176
:1023B00080EB91E00E947903A7019601C701B60165
:1023C0000E942B15882379F187E991E00E94B80AD1
:1023D0008DEA91E00E94090B0E94ED089093210183
:1023E0008093200189819A81009711F00E94301614
:1023F000E0E0F0E0EF2B09F4C4CD0E94F102882365
:1024000009F4BFCD0E940000BCCD4115510509F073
:102410001BCF4CE050E018CF0115110509F075CF26
:102420000CE010E078CF26013701E89477F82FEF21
:102430003FEF4FE75FE7C301B2010E942B15811107
:102440000DC02FEF3FEF4FE75FE7C301B2010E94DE
:10245000A31218161CF48BE991E0B8CF2FEF3FEFD1
:102460004FE75FE4C701B6010E94261518161CF459
:102470008FE991E0ABCF2FEF3FEF4FE75FECC70164
:10248000B6010E94A31287FDF3CF20E030E0A9013E
:10249000C701B6010E94A31287FF09C08DE20E9406
:1024A000740346015701B7FAB094B7F8B0942AE024
:1024B00037ED43EA5BE3C501B4010E9419144B01F7
:1024C0005C010E94F7146B017C010E94A8129B0121
:1024D000AC01C501B4010E9418144B015C014AE033
:1024E000C701B6010E94C50A8EE20E94740320E073
:1024F00030E040E251E4C501B4010E9409134B01F0
:102500005C010E94F7146B01F12CE12C4AE0C70139
:10251000B6010E94C50AC701B6010E94A8129B011C
:10252000AC01C501B4010E94181420E030E040E283
:1025300051E40E9409130E94F71490E080E04AE001
:102540000E94C50A45CF0E94E51208F481E0089573
:10255000E89409C097FB3EF490958095709561953D
:102560007F4F8F4F9F4F9923A9F0F92F96E9BB27F3
:102570009395F695879577956795B795F111F8CF6F
:10258000FAF4BB0F11F460FF1BC06F5F7F4F8F4FDA
:102590009F4F16C0882311F096E911C0772321F0D0
:1025A0009EE8872F762F05C0662371F096E8862F68
:1025B00070E060E02AF09A95660F771F881FDAF7BF
:1025C000880F9695879597F90895990F0008550FEC
:1025D000AA0BE0E8FEEF16161706E807F907C0F0A9
:1025E00012161306E407F50798F0621B730B840BB1
:1025F000950B39F40A2661F0232B242B252B21F48B
:1026000008950A2609F4A140A6958FEF811D811D2A
:1026100008950E941C130C948D130E947F1338F0B0
:102620000E94861320F0952311F00C9476130C94DD
:102630007C1311240C94C1130E949E1370F3959F78
:10264000C1F3950F50E0551F629FF001729FBB27A9
:10265000F00DB11D639FAA27F00DB11DAA1F649F45
:102660006627B00DA11D661F829F2227B00DA11DF8
:10267000621F739FB00DA11D621F839FA00D611D7E
:10268000221F749F3327A00D611D231F849F600D9F
:10269000211D822F762F6A2F11249F5750409AF0C8
:1026A000F1F088234AF0EE0FFF1FBB1F661F771F54
:1026B000881F91505040A9F79E3F510580F00C941F
:1026C00076130C94C1135F3FE4F3983ED4F38695E0
:1026D00077956795B795F795E7959F5FC1F7FE2BBF
:1026E000880F911D9695879597F9089597F99F679B
:1026F00080E870E060E008959FEF80EC089500248A
:102700000A941616170618060906089500240A9456
:1027100012161306140605060895092E0394000CDC
:1027200011F4882352F0BB0F40F4BF2B11F460FF6B
:1027300004C06F5F7F4F8F4F9F4F089557FD905894
:10274000440F551F59F05F3F71F04795880F97FB75
:10275000991F61F09F3F79F087950895121613062F
:102760001406551FF2CF4695F1DF08C0161617065E
:102770001806991FF1CF8695710561050894089593
:10278000E894BB2766277727CB0197F908950E9425
:102790000914A59F900DB49F900DA49F800D911DCD
:1027A000112408952F923F924F925F926F927F92E1
:1027B0008F929F92AF92BF92CF92DF92EF92FF9251
:1027C0000F931F93CF93DF93CDB7DEB7CA1BDB0BFD
:1027D0000FB6F894DEBF0FBECDBF09942A883988A2
:1027E00048885F846E847D848C849B84AA84B984A9
:1027F000C884DF80EE80FD800C811B81AA81B981B5
:10280000CE0FD11D0FB6F894DEBF0FBECDBFED01C8
:102810000895A29FB001B39FC001A39F700D811DB9
:102820001124911DB29F700D811D1124911D0895D9
:102830005058BB27AA270E9430140C948D130E9475
:102840007F1338F00E94861320F039F49F3F19F46B
:1028500026F40C947C130EF4E095E7FB0C947613AD
:10286000E92F0E949E1358F3BA1762077307840773
:10287000950720F079F4A6F50C94C0130EF4E095BA
:102880000B2EBA2FA02D0B01B90190010C01CA012A
:10289000A0011124FF27591B99F0593F50F4503ED5
:1028A00068F11A16F040A22F232F342F4427585FC7
:1028B000F3CF469537952795A795F0405395C9F7DF
:1028C0007EF41F16BA0B620B730B840BBAF0915097
:1028D000A1F0FF0FBB1F661F771F881FC2F70EC036
:1028E000BA0F621F731F841F48F487957795679509
:1028F000B795F7959E3F08F0B0CF9395880F08F0F5
:102900009927EE0F9795879508950E9499140C9436
:102910008D130E94861358F00E947F1340F029F413
:102920005F3F29F00C94761351110C94C1130C9451
:102930007C130E949E1368F39923B1F3552391F3FE
:10294000951B550BBB27AA2762177307840738F01E
:102950009F5F5F4F220F331F441FAA1FA9F335D07B
:102960000E2E3AF0E0E832D091505040E695001C2F
:10297000CAF72BD0FE2F29D0660F771F881FBB1FE9
:10298000261737074807AB07B0E809F0BB0B802DC7
:10299000BF01FF2793585F4F3AF09E3F510578F0F3
:1029A0000C9476130C94C1135F3FE4F3983ED4F378
:1029B000869577956795B795F7959F5FC9F7880FC7
:1029C000911D9695879597F90895E1E0660F771F19
:1029D000881FBB1F621773078407BA0720F0621BAA
:1029E000730B840BBA0BEE1F88F7E09508950E94D5
:1029F000A61388F09F5798F0B92F9927B751B0F0D8
:102A0000E1F0660F771F881F991F1AF0BA95C9F772
:102A100014C0B13091F00E94C013B1E008950C943D
:102A2000C013672F782F8827B85F39F0B93FCCF3F0
:102A3000869577956795B395D9F73EF490958095EF
:102A4000709561957F4F8F4F9F4F08950E94E512BB
:102A500008F48FEF08950E94E512880B990B0895F2
:102A6000991B79E004C0991F961708F0961B881FE0
:102A70007A95C9F78095089597FB072E16F4009470
:102A800007D077FD09D00E947A1507FC05D03EF4E7
:102A9000909581959F4F0895709561957F4F08950A
:102AA000A1E21A2EAA1BBB1BFD010DC0AA1FBB1F52
:102AB000EE1FFF1FA217B307E407F50720F0A21BC4
:102AC000B30BE40BF50B661F771F881F991F1A9431
:102AD00069F760957095809590959B01AC01BD015B
:102AE000CF010895B7FF0C94C7130E94C713821B30
:102AF000930B0895AA1BBB1B51E107C0AA1FBB1F64
:102B0000A617B70710F0A61BB70B881F991F5A9579
:102B1000A9F780959095BC01CD010895EE0FFF1F98
:102B20000590F491E02D09940F931F93CF93DF93B9
:102B30008230910510F482E090E0E0913203F09150
:102B4000330330E020E0B0E0A0E0309799F42115A5
:102B5000310509F44AC0281B390B24303105D8F55A
:102B60008A819B816115710589F1FB0193838283C1
:102B7000FE0111C04081518102811381481759071C
:102B8000E0F04817590799F4109761F012960C93EA
:102B9000129713961C933296CF01DF91CF911F911C
:102BA0000F9108950093320310933303F4CF21154E
:102BB000310551F04217530738F0A901DB019A01A2
:102BC000BD01DF01F801C1CFEF01F9CF90933303CD
:102BD00080933203CDCFFE01E20FF31F81939193D7
:102BE0002250310939832883D7CF20913003309187
:102BF0003103232B41F4209124013091250130939E
:102C000031032093300320912201309123012115BB
:102C1000310541F42DB73EB740912601509127016F
:102C2000241B350BE0913003F0913103E217F307D9
:102C3000A0F42E1B3F0B2817390778F0AC014E5F2C
:102C40005F4F2417350748F04E0F5F1F5093310335
:102C500040933003819391939FCFF0E0E0E09CCFCD
:102C6000CF93DF930097E9F0FC0132971382128231
:102C7000A0913203B0913303ED0130E020E01097D2
:102C8000A1F420813181820F931F20913003309174
:102C900031032817390709F061C0F0933103E0933D
:102CA0003003DF91CF910895EA01CE17DF07E8F5F1
:102CB0004A815B819E0141155105B1F7E901FB8312
:102CC000EA8349915991C40FD51FEC17FD0761F4B0
:102CD000808191810296840F951FE90199838883F1
:102CE000828193819B838A83F0E0E0E012968D914C
:102CF0009C9113970097B9F52D913C911197CD01B7
:102D00000296820F931F20913003309131032817D0
:102D1000390739F6309751F5109233031092320388
:102D2000B0933103A0933003BCCFD383C2834081DF
:102D30005181840F951FC817D90761F44E5F5F4F0B
:102D400088819981480F591F518340838A819B81D3
:102D5000938382832115310509F0B0CFF0933303BB
:102D6000E09332039ECFFD01DC01C0CF13821282BB
:102D7000D7CFB0E0A0E0EFEBF6E10C94D4138C01D8
:102D8000009751F4CB010E9494158C01C801CDB776
:102D9000DEB7E0E10C94F013FC01E60FF71F9C0195
:102DA00022503109E217F30708F49DC0D901CD91F3
:102DB000DC911197C617D70798F0C530D10530F3CD
:102DC000CE0104978617970708F3C61BD70B2297E7
:102DD000C193D1936D937C93CF010E943016D6CFCF
:102DE0005B01AC1ABD0A4C018C0E9D1EA0913203F2
:102DF000B0913303512C412CF12CE12C109731F57B
:102E000080913003909131038815990509F05CC0D9
:102E10004616570608F058C0809122019091230170
:102E2000009741F48DB79EB740912601509127013C
:102E3000841B950BE817F90708F055C0F093310390
:102E4000E0933003F90171836083A0CF8D919C9151
:102E5000119712966C90129713967C901397A81561
:102E6000B90559F56C0142E0C40ED11CCA14DB044B
:102E700020F1AC014A195B09DA011296159780F02E
:102E80006282738251834083D9016D937C93E114F4
:102E9000F10471F0D7011396FC93EE93129776CF5D
:102EA00022968C0F9D1FF90191838083F301EFCF50
:102EB000F0933303E093320369CF4816590608F4C0
:102EC0002C017D01D3019ACFCB010E9494157C0186
:102ED000009749F0AE01B8010E947617C8010E9420
:102EE0003016870153CF10E000E050CFFB01DC012A
:102EF00002C001900D9241505040D8F70895FB0157
:102F0000DC0101900D920020E1F70895F894FFCFC5
:102F100010000F000E000D000C000B000A0009004D
:102F2000080007000600050004000300020011006D
:102F3000FFFF0000340380001F1C1F1E1F1E1F1FE9
:102F40001E1F1E1F10000F000E000D000C000B00B6
:102F50000A0009000800070006000500040003003D
:102F600002001100000000002703EB011802940387
:102F7000E50227023B02000000002C06FF055B066D
:102F8000D505F805E505D60500000000790A450BD2
:102F9000560A53093E09E90B290905090D0A0020C3
:102FA000504D0020414D006E616E00696E66006FED
:042FB0007666000041
:00000001FF
