:100000000C94F0000C9418010C9418010C94180135
:100010000C9418010C9418010C9418010C941801FC
:100020000C9418010C9418010C9418010C941801EC
:100030000C9418010C9418010C9418010C941801DC
:100040000C94F80D0C9418010C94680E0C94420E4C
:100050000C9418010C9418010C9418010C941801BC
:100060000C949A0E0C941801207C200052544320CA
:1000700053796E63204F4B212043757272656E7405
:100080003A20005254432053796E63204572726FB8
:100090007221003D3D3D3D3D3D3D3D3D3D3D3D3DB4
:1000A0003D3D3D3D3D3D3D3D3D3D3D3D3D3D3D3D80
:1000B0003D3D3D3D3D3D3D3D3D3D3D00466F726D0D
:1000C000617420746F207365743A204848204D4D48
:1000D000205353204444204D4D2059595959004C28
:1000E0006963656E73656420756E646572204D4941
:1000F00054204C6963656E736500436F7079726953
:10010000676874204D6172656B2042756A6B6F0081
:1001100050726F6A6563743A205247422042696E9A
:1001200061727920436C6F636B2076312E31003D14
:100130003D3D3D3D3D3D3D3D3D3D3D3D3D3D3D3DEF
:100140003D3D3D3D3D3D3D3D3D3D3D3D3D3D3D3DDF
:100150003D3D3D3D3D3D3D00204300207C2054651C
:100160006D703A2000207C20002A204461746520B4
:10017000616E642074696D65207570646174656476
:10018000207669612053657269616C202A00000045
:100190000008000201000003040700000000000046
:1001A000000000000000250028002B0000000000D7
:1001B000240027002A0004040404040404040202A6
:1001C00002020202030303030303010204081020D6
:1001D0004080010204081020010204081020B90F19
:1001E00011241FBECFEFD8E0DEBFCDBF23E0ACEEC1
:1001F000B1E001C01D92A538B207E1F711E0A0E01F
:10020000B1E0E6ECFDE202C005900D92AC3EB10714
:10021000D9F710E0C0EFD0E004C02197FE010E94A2
:10022000DB16CF3ED107C9F70E940C100C94E116E3
:100230000C940000282F30E094E0359527959A958E
:10024000E1F7922F990F990F291B220F820F089522
:1002500090E0FC01E653FE4F24918A549E4FFC012E
:100260008491882399F090E0880F991FFC01E45550
:10027000FE4FA591B491FC01EE55FE4F85919491EE
:100280008FB7F894EC91E22BEC938FBF089508950B
:10029000089590E0FC01E257FE4F2491FC01E653E3
:1002A000FE4F3491FC01EA54FE4FE491EE23C9F075
:1002B000222339F0233001F1A8F4213019F1223042
:1002C00029F1F0E0EE0FFF1FEE55FE4FA591B4911E
:1002D0008FB7F894EC91611126C030953E233C9382
:1002E0008FBF08952730A9F02830C9F0243049F78E
:1002F000809180008F7D03C0809180008F778093F4
:100300008000DFCF84B58F7784BDDBCF84B58F7D50
:10031000FBCF8091B0008F778093B000D2CF8091D7
:10032000B0008F7DF9CF3E2BDACF3FB7F8948091A4
:100330004C0290914D02A0914E02B0914F0226B511
:10034000A89B05C02F3F19F00196A11DB11D3FBF0D
:10035000BA2FA92F982F8827BC01CD01620F711DDC
:10036000811D911D42E0660F771F881F991F4A95D6
:10037000D1F708958F929F92AF92BF92CF92DF9262
:10038000EF92FF924B015C010E9495016B017C0191
:100390000E9495016C197D098E099F09683E734082
:1003A00081059105A8F321E0821A9108A108B108FE
:1003B00088EEC80E83E0D81EE11CF11C8114910464
:1003C000A104B10429F7FF90EF90DF90CF90BF9088
:1003D000AF909F908F900895DC01ED91FC9101907A
:1003E000F081E02D0994AF92BF92CF92DF92EF920D
:1003F000FF920F931F93CF93DF936C017B018B01CF
:10040000040F151FEB015E01AE18BF08C017D1071E
:1004100059F06991D601ED91FC910190F081E02DA8
:10042000C6010995892B79F7C501DF91CF911F91FD
:100430000F91FF90EF90DF90CF90BF90AF90089515
:10044000FC01538D448D252F30E0842F90E0821BDA
:10045000930B541710F0CF96089501970895FC015F
:10046000918D828D981761F0A28DAE0FBF2FB11DB7
:100470005D968C91928D9F5F9F73928F90E008950F
:100480008FEF9FEF0895FC01918D828D981731F0C9
:10049000828DE80FF11D858D90E008958FEF9FEF1D
:1004A00008952FB7F8948091500290915102A09135
:1004B0005202B09153022FBF8093D2029093D30285
:1004C000A093D402B093D5028AEC92E00E9443023A
:1004D00097FF26C02FB7F894809150029091510257
:1004E000A0915202B09153022FBF4091D20250917D
:1004F000D3026091D4027091D502841B950BA60B98
:10050000B70B4091CE025091CF026091D002709112
:10051000D10284179507A607B707B0F28FEF9FEFB8
:100520000895CF92DF92EF92FF92CF930E945102F3
:10053000FC0197FD4EC08D32910521F0C0970A97BE
:1005400008F040C0C12CD12C7601C0E0E130F105AB
:10055000D1F0ED32F105D9F1CF01C0970A9798F4A7
:10056000AAE0B0E0A70196010E944B156F01FF0FB2
:10057000EE08FF08C60ED71EE81EF91E80E3C81A53
:10058000D108E108F1088AEC92E00E942F020E9453
:100590005102FC01C0970A97C8F2E130F105B1F2AF
:1005A000CC2341F0F094E094D094C094C11CD11CB1
:1005B000E11CF11CC701B601CF91FF90EF90DF90D5
:1005C000CF9008958AEC92E00E942F02AFCFC1E055
:1005D000DACFC12CD12C7601EDCFFC01918D228D8B
:1005E000892F90E0805C9F4F821B91098F73992720
:1005F00008958AEC92E00E94ED0221E0892B09F433
:1006000020E0822F089580E090E0892B29F00E945D
:10061000F90281110C9400000895FC01A48DA80F2B
:10062000B92FB11DA35ABF4F2C91848D90E0019634
:100630008F739927848FA689B7892C93A089B18954
:100640008C91837080648C93938D848D981306C0F5
:100650000288F389E02D80818F7D80830895EF9259
:10066000FF920F931F93CF93DF93EC0181E0888F6C
:100670009B8D8C8D98131AC0E889F989808185FF3C
:1006800015C09FB7F894EE89FF896083E889F989DE
:1006900080818370806480839FBF81E090E0DF91E0
:1006A000CF911F910F91FF90EF900895F62E0B8D33
:1006B00010E00F5F1F4F0F731127E02E8C8D8E11EE
:1006C0000CC00FB607FCFACFE889F989808185FF55
:1006D000F5CFCE010E940D03F1CFEB8DEC0FFD2F76
:1006E000F11DE35AFF4FF0829FB7F8940B8FEA8910
:1006F000FB8980818062CFCF0F931F93CF93DF93CD
:100700008C01D0E0C0E0F801EC0FFD1F649166237E
:1007100041F08AEC92E00E942F03892B11F0219680
:10072000F2CFCE01DF91CF911F910F910895CF931A
:10073000DF93EC01888D8823B9F0AA89BB89E88909
:10074000F9898C9185FD03C0808186FD0DC00FB6AF
:1007500007FCF7CF8C9185FFF2CF808185FFEDCF2D
:10076000CE010E940D03E9CFDF91CF910895089546
:1007700020911502260F3327331F21323105ECF467
:100780002091C402FC0190E080E0243069F082E016
:100790000895A09115022191AC014B505E4FA40F1A
:1007A000B52FB11D2C930196861798F380911502F1
:1007B000680F6093150280E0089581E0089510921B
:1007C000C40281E08093A30210929E0261E082E164
:1007D0000E94490161E083E10E944901E9EBF0E0F8
:1007E00080818E7F808380818D7F808388E4809369
:1007F000B80085E48093BC000895109259021092CD
:10080000580210925B0210927D020E94DF0387E47F
:1008100091E0909357028093560288E491E0909380
:100820005502809354020895CF93DF9391E0909303
:10083000F4018823B9F0C091B800D091BA0080913A
:10084000BC008A7B8093BC0060E082E10E94490189
:1008500060E083E10E9449010E94DF03D093BA0067
:10086000C093B800DF91CF910895CF92DF92EF92BD
:10087000FF920F931F93CF93C82F813208F096C039
:100880000E9495016B017C018091C402811169C0B5
:1008900081E08093C4028093A3029FEF9093A20211
:1008A0001092A1029C0F9093A00280939F028091CE
:1008B0009F02806D80939F0280919E02813009F09B
:1008C00077C010929E020E9495016B017C0180917D
:1008D0009F028093BB008091C6029091C702A091B5
:1008E000C802B091C902892B8A2B8B2BA1F00E94E0
:1008F00095010091C6021091C7022091C802309163
:10090000C9026C197D098E099F0906171707280768
:10091000390708F447C08091BC0083FDD8CF85EC2F
:100920008093BC000E9495016B017C018091C40200
:10093000813009F43FC08091A1028C1710F4C0915E
:10094000A102AEE7B2E0E4EAF2E080E08C1354C02A
:100950008C2FCF911F910F91FF90EF90DF90CF9050
:1009600008958091C6029091C702A091C802B091EB
:10097000C902892B8A2B8B2B09F486CF0E94950103
:100980000091C6021091C7022091C8023091C9029D
:100990006C197D098E099F09061717072807390763
:1009A00008F072CF8091C5020E941404C0E0D0CF3D
:1009B00085EEB6CF8091C6029091C702A091C80281
:1009C000B091C902892B8A2B8B2B09F4AFCF0E94DF
:1009D00095010091C6021091C7022091C802309182
:1009E000C9026C197D098E099F0906171707280788
:1009F000390708F09BCFD6CF9D9191938F5FA6CFFB
:100A00008F929F92AF92BF92CF92DF92EF92FF921E
:100A10000F931F93CF93DF93D0917D02D13208F0D3
:100A2000D7C0182FC0917C020E9495016B017C01F8
:100A30008091C40281116BC082E08093C402109344
:100A4000A3028FEF8093A2021092A102D093A00282
:100A5000ACE5B2E0EEE7F2E080E0D81391C010928E
:100A60009F0280919F02CC0FC82BC0939F02809160
:100A70009E02813009F088C010929E020E9495016A
:100A80006B017C0180919F028093BB008091C60224
:100A90009091C702A091C802B091C902892B8A2BFC
:100AA0008B2BA1F00E9495010091C6021091C70204
:100AB0002091C8023091C9026C197D098E099F09E5
:100AC000061717072807390708F442C08091BC00B1
:100AD00083FDD8CF85EC8093BC000E9495016B010B
:100AE0007C018091C402823009F450C08091A2023E
:100AF0008F3F09F46FC08091A202803209F46CC06C
:100B00008091A202803309F469C084E026C08091FC
:100B1000C6029091C702A091C802B091C902892B68
:100B20008A2B8B2B09F484CF0E9495018090C602FA
:100B30009090C702A090C802B090C9026C197D09BC
:100B40008E099F0986169706A806B90608F070CF89
:100B50008091C5020E94140485E010925B021092FD
:100B60007D0210925A02DF91CF911F910F91FF9059
:100B7000EF90DF90CF90BF90AF909F908F900895AF
:100B80009D9191938F5F69CF85EEA5CF8091C6022D
:100B90009091C702A091C802B091C902892B8A2BFB
:100BA0008B2B09F49ECF0E9495010091C6021091F3
:100BB000C7022091C8023091C9026C197D098E09C3
:100BC0009F09061717072807390708F08ACFC0CFF3
:100BD00081E0C3CF80E0C1CF82E0BFCF83E0BDCF53
:100BE0000895E091590280915802E81730F4F0E03E
:100BF000EC55FD4F808190E008958FEF9FEF0895B1
:100C000090915902809158022FEF3FEF981748F4C6
:100C1000E92FF0E0EC55FD4F208130E09F5F90938D
:100C20005902C90108958091580290915902891B77
:100C3000990B0895CF92DF92EF92FF920F931F933B
:100C4000CF93DF937C01CB018A0120915A022223AA
:100C500089F0EB016B01C40ED51ECC15DD0569F0E2
:100C60006991D701ED91FC910190F081E02DC701D0
:100C70000995F3CF642F0E94B803C801DF91CF918B
:100C80001F910F91FF90EF90DF90CF900895CF9339
:100C9000DF931F92CDB7DEB7698320915A022223DA
:100CA000F9F020917D02203258F021E030E0FC0183
:100CB0003383228390E080E00F90DF91CF910895FD
:100CC00080915B02E82FF0E0E45AFD4F9981908318
:100CD0008F5F80935B0280937D0281E090E0ECCF98
:100CE00061E0CE0101960E94B803F7CFFC01248198
:100CF00031E030935A0220937C0210925B021092F2
:100D00007D028485682B84E793E00E94470681E09A
:100D10000C94000590E080E0089560933C0270938D
:100D20003D0280933E0290933F02645D7E4F8F4F61
:100D30009F4F609338027093390280933A029093E8
:100D40003B0282E090E090934302809342022FB7EF
:100D5000F8948091500290915102A0915202B0916A
:100D600053022FBF8093F0019093F101A093F20101
:100D7000B093F30108950F931F938FB7F8940091E8
:100D800050021091510220915202309153028FBFB4
:100D90004091F0015091F1016091F2017091F301E5
:100DA000041B150B260B370B80913C0290913D02E2
:100DB000A0913E02B0913F02083E1340210531054B
:100DC000C0F00196A11DB11D80933C0290933D029D
:100DD000A0933E02B0933F0248515C4F6F4F7F4F4C
:100DE0004093F0015093F1016093F2017093F3018D
:100DF000C4CF409138025091390260913A0270910B
:100E00003B0284179507A607B70770F0E0914002F0
:100E1000F0914102309741F0099561157105810506
:100E2000910569F00E948D0660913C0270913D022F
:100E300080913E0290913F021F910F910895809101
:100E40003C0290913D02A0913E02B0913F02845D30
:100E50009E4FAF4FBF4F8093380290933902A093BB
:100E60003A02B0933B0281E090E02091420230913F
:100E70004302232B11F490E080E09093430280938F
:100E80004202D2CF4F925F926F927F928F929F9247
:100E9000AF92BF92CF92DF92EF92FF920F931F9388
:100EA000CF93DF93FC011681A12FB0E020E833E35C
:100EB00041EE51E00E944B154B015C01C2EBD7E0C3
:100EC0009D0104E610E080E9E82EFF24F394CE01B2
:100ED000825B9740821793079CF14580512C2E54DA
:100EE000384FC90164E670E00E9489167C01C9018F
:100EF00060E971E00E9489166C010AE211E0C1E02C
:100F0000D0E0390183E068227724C415D5050CF0C0
:100F100040C0C230D10571F56114710459F5E11476
:100F2000F10419F4C114D10429F5B0E88B0EBBE328
:100F30009B1EB6E2AB1EB11C21960F5F1F4FE5CF83
:100F4000CE0183709927892B99F4CE01B8010E94B4
:100F50008916892B31F4CE01B7010E948916892B9D
:100F600039F4A0E88A0EA1E59A1EA1E0AA1EB11CE0
:100F70002196ADCFD8018C91A82FB0E020E831E5C3
:100F800041E050E00E944B15860E971EA81EB91E28
:100F9000D3CF228130E0A0E1BEE00E9456156B0164
:100FA0007C01218130E0ACE3B0E00E945615C60E12
:100FB000D71EE81EF91E8081C80ED11CE11CF11C51
:100FC000A481A150BB0B20E831E541E050E00E9434
:100FD000BF166C0D7D1D8E1D9F1D680D791D8A1D10
:100FE0009B1DDF91CF911F910F91FF90EF90DF90AC
:100FF000CF90BF90AF909F908F907F906F905F90B9
:101000004F9008956F927F928F929F92AF92BF926E
:10101000CF92DF92EF92FF920F931F93CF93DF93C4
:101020006B017C01EA018CE3882E912CA12CB12C60
:10103000C701A50194010E949D166883CA01B901E8
:10104000A50194010E949D166983C701B60120E1A4
:101050003EE040E050E00E949D16CA01B90128E13F
:1010600030E040E050E00E949D166A83C701B6015F
:1010700020E831E541E050E00E949D1669017A01C7
:10108000CA01B9016C5F7F4F8F4F9F4F27E030E05F
:1010900040E050E00E949D166F5F6B83812C912C85
:1010A000540140E094E6692E712C00E911E0242FF0
:1010B00030E02E54384FF901E370FF273097F9F4F0
:1010C000C901B3010E948916892B31F4C901B80105
:1010D0000E948916892B99F48EE691E0A0E0B0E099
:1010E000880E991EAA1EBB1ED501C401AA27BB27C4
:1010F000C816D906EA06FB0638F04F5FD8CF8DE652
:1011000091E0A0E0B0E0ECCF4E83C90164E670E06E
:101110000E9489168C01C90160E971E00E9489165C
:10112000309729F401151105E1F40097D1F04DE64F
:1011300051E060E070E0841A950AA60AB70AC81860
:10114000D908EA08FB08AAE2B1E020E0213071F4F6
:10115000309791F50115110511F4009769F54DE1EE
:1011600006C04EE651E060E070E0E5CF4C9150E003
:1011700070E060E031E0320FC416D506E606F706EF
:1011800040F0C41AD50AE60AF70A1196232F3C301C
:10119000E9F62F5F2D83C394CC82DF91CF911F910D
:1011A0000F91FF90EF90DF90CF90BF90AF909F9006
:1011B0008F907F906F9008954CE1D9CFCF92DF92BE
:1011C000EF92FF92C090EC01D090ED01E090EE0123
:1011D000F090EF01C616D706E806F90671F06B012C
:1011E0007C0144E452E00E940208C092EC01D092DB
:1011F000ED01E092EE01F092EF01FF90EF90DF90B1
:10120000CF9008950E94BB060E94DE0880914A029A
:1012100090E08E54984F08950E94BB060E94DE080D
:101220008091490290E008950E94BB060E94DE086A
:101230008091480290E008950E94BB060E94DE085B
:101240008091440290E008950E94BB060E94DE084F
:101250008091450290E008950E94BB060E94DE083E
:101260008091460290E008951F93CF93DF93EC01A5
:10127000E881F9810484F585E02D62E10995182F54
:10128000E881F9810484F585E02D61E1CE010995BD
:10129000212F382F37FF02C0215C3F4FC90126E0C4
:1012A000959587952A95E1F7DF91CF911F91089544
:1012B000CF93DF931F92CDB7DEB7DC01ED91FC91A8
:1012C0000284F385E02D21E0AE014F5F5F4F099569
:1012D00089810F90DF91CF910895CF93DF931F9273
:1012E000CDB7DEB74983DC01ED91FC910680F78133
:1012F000E02D21E0AE014F5F5F4F09950F90DF9128
:10130000CF910895DF92EF92FF920F931F93CF93A7
:10131000DF937C01D42E152F022FDC0112968D91C4
:101320009C9121E020935A0228E620937C0210929F
:101330005B0210927D02DC01ED91FC910190F08145
:10134000E02D0995CD2DD12F0C0F1D2F111DC0178C
:10135000D10761F0F701828193816991DC01ED9100
:10136000FC910190F081E02D0995F1CF81E0DF91B2
:10137000CF911F910F91FF90EF90DF900C9400059B
:10138000FF920F931F93CF93DF93EC018B018A8120
:101390009B8121E020935A0228E620937C02109240
:1013A0005B0210927D02DC01ED91FC910190F081D5
:1013B000E02D60E00995AA81BB81F80120818AE0D7
:1013C000F82E822F6F2D0E947D16682F660F680FF2
:1013D000660F620FED91FC9111970190F081E02D65
:1013E000CD010995AA81BB81F8012181822F6F2D42
:1013F0000E947D16682F660F680F660F620FED91D1
:10140000FC9111970190F081E02DCD010995AA8101
:10141000BB81F8012281822F6F2D0E947D16682FDB
:10142000660F680F660F620FED91FC9111970190A6
:10143000F081E02DCD0109958A819B81DC01ED9140
:10144000FC910190F081E02DD80113966C910995E3
:10145000AA81BB81F8012481822F6F2D0E947D1605
:10146000682F660F680F660F620FED91FC91119760
:101470000190F081E02DCD010995AA81BB81F80191
:101480002581822F6F2D0E947D16682F660F680FB1
:10149000660F620FED91FC9111970190F081E02DA4
:1014A000CD010995AA81BB81F80126812E51822F99
:1014B0006F2D0E947D16682F660F680F660F620FF2
:1014C000ED91FC9111970190F081E02DCD010995EE
:1014D00081E00E940005182FE881F9810484F585D8
:1014E000E02D6FE0CE010995482F4F77E881F98113
:1014F0000084F185E02D6FE0CE010995812FDF9109
:10150000CF911F910F91FF9008950F931F93CF9349
:10151000DF9300D000D000D01F92CDB7DEB78C0192
:10152000CB01BA01AE014F5F5F4F0E940208BE01BE
:101530006F5F7F4FC8010E94C00927960FB6F894CD
:10154000DEBF0FBECDBFDF91CF911F910F910895E8
:101550000C94FD03CF92DF92EF92FF920F931F93B3
:10156000CF93DF937B016A018C01D0E0C0E0F801EA
:1015700080810E5F1F4FB6010C2E02C075956795D6
:101580000A94E2F761700E9449012196EC16FD066B
:1015900071F7DF91CF911F910F91FF90EF90DF9046
:1015A000CF9008950F931F93CF938C01C62F0E9465
:1015B00076066C2F6460C8010E9476066C2F6B7FE4
:1015C000C8010E94760683EC90E00197F1F7CF9175
:1015D0001F910F9108950F931F93CF93DF938C0169
:1015E000D62FC42F607F642B0E94D20A80E1D89F3F
:1015F000B00111246C2BC801DF91CF911F910F9185
:101600000C94D20ACF93DF93CDB7DEB728970FB6ED
:10161000F894DEBF0FBECDBF98E0E2E2F1E0DE015C
:10162000119601900D929A95E1F790916F0398179A
:1016300008F48FEF90E0880F991F21E030E02C0F25
:101640003D1F820F931FFC016081606840E087E6C8
:1016500093E028960FB6F894DEBF0FBECDBFDF91A2
:10166000CF910C94EB0A40E061E087E693E00E94A2
:10167000EB0A8BE39FE10197F1F7809170038823D8
:1016800019F080E00C94020B089541E00E94EB0AEF
:1016900081E090E008950F931F93CF93DF9300D0E4
:1016A00000D000D01F92CDB7DEB78C01DC011296BE
:1016B0008D919C9121E020935A0228E620937C0290
:1016C00010925B0210927D02DC01ED91FC91019081
:1016D000F081E02D60E0099581E00E9400058823FB
:1016E00081F0F801848360E070E0CB0127960FB6AB
:1016F000F894DEBF0FBECDBFDF91CF911F910F9148
:10170000089587E00E943504109259028093580290
:10171000D80112968D919C91DC01ED91FC9102848F
:10172000F385E02D09958F770E941A018983F801CE
:1017300082819381DC01ED91FC910284F385E02D9F
:1017400009950E941A018A83F80182819381DC0144
:10175000ED91FC910284F385E02D09958F7B0E9429
:101760001A018B83F80182819381DC01ED91FC9158
:101770000284F385E02D09958C83F80182819381A1
:10178000DC01ED91FC910284F385E02D09950E9426
:101790001A018D83F80182819381DC01ED91FC9126
:1017A0000284F385E02D09958F770E941A018E83BC
:1017B000F80182819381DC01ED91FC910284F38533
:1017C000E02D09950E941A01825E8F83CE01019659
:1017D0000E9442078BCF80E893E00C944B0BCF9292
:1017E000DF92EF92FF920F931F93CF93DF936C01E1
:1017F000E42E152F022FDC0112968D919C9121E091
:1018000020935A0228E620937C0210925B021092E9
:101810007D02DC01ED91FC910190F081E02D0995B4
:1018200081E00E940005F82E81111EC0802F013238
:1018300008F080E20E943504109259028093580209
:10184000CE2DD12F0C0F1D2F111DC017D10761F008
:10185000F60182819381DC01ED91FC910284F38594
:10186000E02D09958993F1CF8F2DDF91CF911F91B5
:101870000F91FF90EF90DF90CF900895FB010190C2
:101880000020E9F73197AF01461B570BDC01ED91C2
:10189000FC910280F381E02D0994CF93DF930E94A5
:1018A0007C03EC016AE971E08AEC92E00E943E0C54
:1018B0008C0F9D1FDF91CF9108958F929F92AF92D1
:1018C000BF92EF92FF920F931F93CF93DF93CDB709
:1018D000DEB7A1970FB6F894DEBF0FBECDBF7C0177
:1018E000FA01CB0119A2223008F42AE08E010F5D23
:1018F0001F4F822E912CB12CA12CBF01A501940168
:101900000E949D16F901CA016A300CF5605DD8018C
:101910006E938D01232B242B252B79F790E080E00B
:10192000109721F0BD01C7010E943E0CA1960FB691
:10193000F894DEBF0FBECDBFDF91CF911F910F9105
:10194000FF90EF90BF90AF909F908F900895695C4B
:10195000DECFCF92DF92EF92FF920F931F93CF9340
:10196000DF936B01770FEE08FF08F7FE1BC0EC0159
:101970006DE20E94EC018C0144275527BA014C19F5
:101980005D096E097F092AE0CE010E945D0C800F7F
:10199000911FDF91CF911F910F91FF90EF90DF90FA
:1019A000CF9008952AE0B701A601DF91CF911F9152
:1019B0000F91FF90EF90DF90CF900C945D0C4F92C1
:1019C0005F926F927F928F929F92AF92BF92CF92CF
:1019D000DF92EF92FF920F931F93CF93DF93EC016F
:1019E0006A017B01922EAB019601CB01B6010E94E8
:1019F00078166DE971E0811126C026013701E8945F
:101A000077F82FEF3FEF4FE75FE7C301B2010E9486
:101A1000781681110CC02FEF3FEF4FE75FE7C3014E
:101A2000B2010E94271461EA71E0181664F02FEFEA
:101A30003FEF4FE75FE4C701B6010E947316181627
:101A4000ACF465EA71E0CE01DF91CF911F910F9167
:101A5000FF90EF90DF90CF90BF90AF909F908F90CE
:101A60007F906F905F904F900C943E0C2FEF3FEF64
:101A70004FE75FECC701B6010E94271487FDE1CF55
:101A800020E030E0A901C701B6010E942714B12C63
:101A9000A12C87FF09C06DE2CE010E94EC015C0120
:101AA000F7FAF094F7F8F094192D60E070E080E018
:101AB0009FE300E020E030E040E251E40E94D215D4
:101AC00021E0200F01E02915A8F3A70196010E944B
:101AD00066152B013C010E9444166B017C010E949B
:101AE0002C149B01AC01C301B2010E9465152B01AE
:101AF0003C012AE0B701A601CE010E945D0C7C01E9
:101B00006EE2CE010E94EC01E80EF91EEA0CFB1C0D
:101B1000115020F120E030E040E251E4C301B20175
:101B20000E948D142B013C010E9444164B01B12CE4
:101B3000A12C2AE0B501A401CE010E945D0CE80EA3
:101B4000F91EC501B4010E942C149B01AC01C30114
:101B5000B2010E9465152B013C01DACFC701DF916C
:101B6000CF911F910F91FF90EF90DF90CF90BF909A
:101B7000AF909F908F907F906F905F904F9008955F
:101B800085ED8093BC008091C6029091C702A09120
:101B9000C802B091C9020796A11DB11D23E0B695F8
:101BA000A795979587952A95D1F72091BC0024FD9C
:101BB00003C01092C40208954091C6025091C7021A
:101BC0006091C8027091C902452B462B472B69F3DF
:101BD0000097A105B10541F02AE22A95F1F700C06E
:101BE0000197A109B109E1CF8091C5020C941404B9
:101BF0001F920F920FB60F9211242F933F938F9342
:101C00009F93AF93BF938091500290915102A09106
:101C10005202B091530230914B0223E0230F2D3733
:101C200058F50196A11DB11D20934B0280935002DF
:101C300090935102A0935202B093530280914C02B0
:101C400090914D02A0914E02B0914F020196A11DBC
:101C5000B11D80934C0290934D02A0934E02B0931D
:101C60004F02BF91AF919F918F913F912F910F9014
:101C70000FBE0F901F90189526E8230F0296A11D06
:101C8000B11DD2CF1F920F920FB60F9211242F9336
:101C90003F934F935F936F937F938F939F93AF93F4
:101CA000BF93EF93FF938AEC92E00E940D03FF91A4
:101CB000EF91BF91AF919F918F917F916F915F91C4
:101CC0004F913F912F910F900FBE0F901F9018953D
:101CD0001F920F920FB60F9211242F938F939F9301
:101CE000EF93FF93E091DA02F091DB028081E091C3
:101CF000E002F091E10282FD1BC090818091E3023D
:101D00008F5F8F732091E402821741F0E091E3022C
:101D1000F0E0E653FD4F958F8093E302FF91EF9142
:101D20009F918F912F910F900FBE0F901F9018953C
:101D30008081F4CF1F920F920FB60F9211242F9330
:101D40003F934F935F936F937F938F939F93AF9343
:101D5000BF93EF93FF938091B900887F803609F499
:101D60004AC0F0F5883209F4A7C018F5803109F4AB
:101D70009BC0B8F4882309F4F9C0883009F494C0F2
:101D8000FF91EF91BF91AF919F918F917F916F9153
:101D90005F914F913F912F910F900FBE0F901F9029
:101DA0001895883109F488C0803251F78093A202D7
:101DB00014C0803409F49DC040F48033B9F38833F3
:101DC000F9F68093A20285ECB0C0803509F485C095
:101DD000883509F496C0883499F60E94C00DD0CF9A
:101DE000883909F48CC038F5883729F050F48836E2
:101DF00011F0803729F683E08093C40210923702F5
:101E000057C0883809F47BC0803919F0803809F050
:101E1000B7CF80913702803208F071C0E09137026D
:101E200081E08E0F809337028091BB00F0E0E95E85
:101E3000FD4F80833DC0803B39F0E0F4803A09F4E7
:101E400079C0883A09F09CCF84E08093C402109254
:101E5000160210921502E0915602F0915702099570
:101E60008091150281110FC081E0809315021092BC
:101E7000F50109C0803C09F4A6CF883C09F4A3CF42
:101E8000883B09F07DCFE091160281E08E0F8093B0
:101E90001602F0E0EB50FE4F80818093BB009091E2
:101EA00016028091150229C080919F028093BB0089
:101EB00085EC8093BC0064CF9091A1028091A00238
:101EC000981758F5E091A10281E08E0F8093A1024E
:101ED000F0E0E258FD4F8081E9CFE091A10281E07E
:101EE0008E0F8093A1028091BB00F0E0E258FD4F7D
:101EF00080839091A1028091A0029817C8F285E892
:101F0000D8CFE091A10281E08E0F8093A102809151
:101F1000BB00F0E0E258FD4F80838091A302811165
:101F20005CCF81E080939E0284EA8093BC00109293
:101F3000C40226CF85EC8093BC001092C40280912D
:101F40003702803230F4E0913702F0E0E95EFD4F75
:101F500010826091370270E0E0915402F0915502D6
:101F600087E192E00995109237020ACF1092A202FF
:101F700034CFEAECF2E01382128288EE93E0A0E024
:101F8000B0E084839583A683B7832AE531E031836B
:101F9000208325EC30E03587248724EC30E0378738
:101FA000268720EC30E0318B208B21EC30E0338B26
:101FB000228B22EC30E0358B248B26EC30E0378B03
:101FC000268B118E128E138E148EE4E7F3E01382AB
:101FD000128284839583A683B7838CE691E09183F4
:101FE0008083A0E8B3E01396FC93EE9312978AE8FF
:101FF00091E08D939C93E7E6F3E0138212828EE7E3
:1020000091E09183808311868FE3848380E18287CE
:1020100082E0838714860895CF93DF93CDB7DEB730
:102020002B970FB6F894DEBF0FBECDBF789484B562
:10203000826084BD84B5816084BD85B5826085BDC4
:1020400085B5816085BD80916E00816080936E0052
:102050001092810080918100826080938100809144
:1020600081008160809381008091800081608093F5
:1020700080008091B10084608093B1008091B000B5
:1020800081608093B00080917A00846080937A00B0
:1020900080917A00826080937A0080917A008160DA
:1020A00080937A0080917A00806880937A00109201
:1020B000C1000E94FD03E091DA02F091DB0282E0B0
:1020C0008083E091D602F091D7021082E091D8028D
:1020D000F091D9028FEC80831092E202E091DE024F
:1020E000F091DF0286E08083E091DC02F091DD0276
:1020F000808180618083E091DC02F091DD0280814B
:1021000088608083E091DC02F091DD02808180684C
:102110008083E091DC02F091DD0280818F7D8083FD
:102120000E94FD0310926C0380917203823018F0BC
:1021300098E090936C0380936F0362E370E080E01B
:1021400090E00E94BA016091730387E693E00E94D9
:10215000760668EE73E080E090E00E94BA0160E3EA
:1021600087E693E00E94D20A0BE416E4C8010197C7
:10217000F1F760E387E693E00E94D20AC801019775
:10218000F1F760E387E693E00E94D20A83E592E0EC
:102190000197F1F760E287E693E00E94D20A60912E
:1021A0006C03606240E087E693E00E94EB0A84E003
:1021B00080936D0340E06CE087E693E00E94EB0AB9
:1021C0000E94330B82E080936E0340E066E087E676
:1021D00093E00E94EB0A40E062E087E693E00E9411
:1021E000EB0A8BE39FE10197F1F788E0809373039B
:1021F00060E087E693E00E94760680E00E94020B92
:1022000069EA71E087E693E00E943E0C81E00E945B
:10221000020B68EB71E087E693E00E943E0C60EDF4
:1022200077E080E090E00E94BA010E94330B8FE2D9
:1022300091E00E944D0C80E191E00E944D0C8AEFEC
:1022400090E00E944D0C8FED90E00E944D0C8CEBC5
:1022500090E00E944D0C83E990E00E944D0C8BEEC3
:102260009BE0909341028093400280913C029091C8
:102270003D02A0913E02B0913F02809338029093BC
:102280003902A0933A02B0933B020E94BB060E941F
:10229000BB068091420290914302029709F4ADC0BF
:1022A00083E890E00E944D0C80E00E94020B68ECF5
:1022B00071E087E693E00E943E0C08E111E030E215
:1022C000E32E31E0F32EF80180810E5F1F4F0E9454
:1022D0002801E016F106B9F70CE011E0F801808161
:1022E0000E5F1F4F0E942801F1E008311F07B1F770
:1022F00000E011E02CE0E22E21E0F22EF8018081D6
:102300000E5F1F4F0E942801E016F106B9F790E01A
:10231000292E90E0392E8AEC92E00E94ED021816E8
:1023200019060CF0E9C00E9491022B010E94910253
:10233000062F0E949102162F0E9491026B010E94AB
:102340009102688779878A879B870E9491024B0157
:10235000F8E14F16510408F043C04B820A831983F9
:102360008C2D1C141D0414F00E9414098D83888583
:102370009985181619060CF4B8C00E940C0994012E
:102380008E83181419040CF0B2C02436310514F4ED
:102390002053384F225B2F83BE016F5F7F4F80E851
:1023A00093E00E94C009CE0101960E9442070E945C
:1023B0008D0689E691E00E944D0C0E94330B80E06F
:1023C0000E94020B68ED71E087E693E00E943E0CEC
:1023D00068EE73E080E090E00E94BA010E94330B47
:1023E0008AEC92E00E94ED02181619060CF084C0E7
:1023F0008AEC92E00E942F02F3CF8CE690E00E94DC
:102400007C030E9414090A972CF460E38AEC92E0A2
:102410000E94EC010E941409BC018AEC92E00E9427
:10242000A90C6EE28AEC92E00E94EC010E940C0979
:102430000A972CF460E38AEC92E00E94EC010E947F
:102440000C09BC018AEC92E00E94A90C6EE28AECB5
:1024500092E00E94EC010E940209BC018AEC92E029
:102460000E94A90C88E690E00E947C030E942C093F
:102470000A972CF460E38AEC92E00E94EC010E943F
:102480002C09BC018AEC92E00E94A90C6AE38AEC58
:1024900092E00E94EC010E9424090A972CF460E368
:1024A0008AEC92E00E94EC010E942409BC018AECB3
:1024B00092E00E94A90C6AE38AEC92E00E94EC018F
:1024C0000E941C090A972CF460E38AEC92E00E94B7
:1024D000EC010E941C09BC018AEC92E00E94A90C4C
:1024E0006AE971E08AEC92E0E6CE888548CF0E94E6
:1024F0000209825B8F8350CF0E942409892BA1F5AA
:102500000E941C097C01892B79F50E942C098C0101
:10251000009739F10D9714F00C501109E016F106EF
:102520001CF586E3C82E81E0D82EF601B080F2E0DB
:10253000CF0ED11C61E08B2D0E94490162E370E057
:1025400080E090E00E94BA0160E08B2D0E9449017A
:1025500086E5C81681E0D80641F79FEFE91AF90A27
:10256000DDCF0CE010E0DACF0E94BB066B017C01EE
:102570000E94DE084091460250E04D3051050CF4B7
:102580005FC14C50510964E070E088E191E00E9425
:10259000AA0AC701B6010E94DE084091450250E038
:1025A00066E070E08CE091E00E94AA0AC701B601E3
:1025B0000E94DE084091440250E066E070E080E056
:1025C00091E00E94AA0A0E941C09209120013091EA
:1025D00021018217930709F427C10E9414090A9761
:1025E0002CF460E38AEC92E00E94EC010E94140952
:1025F000BC018AEC92E00E94A90C6EE28AEC92E0A7
:102600000E94EC010E940C090A972CF460E38AEC0A
:1026100092E00E94EC010E940C09BC018AEC92E05D
:102620000E94A90C6EE28AEC92E00E94EC010E94EA
:102630000209BC018AEC92E00E94A90C85E691E0B7
:102640000E947C030E942C090A972CF460E38AEC18
:1026500092E00E94EC010E942C09BC018AEC92E0FD
:102660000E94A90C6AE38AEC92E00E94EC010E94AD
:1026700024090A972CF460E38AEC92E00E94EC01B2
:102680000E942409BC018AEC92E00E94A90C6AE332
:102690008AEC92E00E94EC010E941C090A972CF43B
:1026A00060E38AEC92E00E94EC010E941C09BC01EC
:1026B0008AEC92E00E94A90C80E893E00E94340921
:1026C000BC01990F880B990B0E942E1420E030E07A
:1026D00040E85EE30E948D146B017C018BE591E084
:1026E0000E947C0322E030E0B701A6018AEC92E070
:1026F0000E94DF0C88E591E00E944D0C80E00E9472
:10270000020B0E942C090A972CF460E387E693E001
:102710000E94EC010E942C09BC0187E693E00E9414
:10272000A90C6AE387E693E00E94EC010E94240969
:102730000A972CF460E387E693E00E94EC010E9484
:102740002409BC0187E693E00E94A90C6AE387E6AE
:1027500093E00E94EC010E941C090A972CF460E3AC
:1027600087E693E00E94EC010E941C09BC0187E609
:1027700093E00E94A90C6AEE71E087E693E00E9464
:102780003E0C21E030E0B701A60187E693E00E940D
:10279000DF0C6FED87E693E00E94EC0166EE71E0DE
:1027A00087E693E00E943E0C81E00E94020B0E94AB
:1027B00014090A972CF460E387E693E00E94EC0189
:1027C0000E941409BC0187E693E00E94A90C6EE206
:1027D00087E693E00E94EC010E940C090A972CF412
:1027E00060E387E693E00E94EC010E940C09BC01C3
:1027F00087E693E00E94A90C6EE287E693E00E94D0
:10280000EC010E940209BC0187E693E00E94A90C3A
:1028100068EE71E087E693E00E943E0C0E941C097E
:1028200090932101809320012114310409F473CD88
:102830000E94F902882309F46ECD0E9400006BCD3E
:102840004115510509F09FCE4CE050E09CCE0E940E
:10285000691408F481E00895E89409C097FB3EF4F8
:1028600090958095709561957F4F8F4F9F4F9923DD
:10287000A9F0F92F96E9BB279395F695879577955B
:102880006795B795F111F8CFFAF4BB0F11F460FF1B
:102890001BC06F5F7F4F8F4F9F4F16C0882311F073
:1028A00096E911C0772321F09EE8872F762F05C087
:1028B000662371F096E8862F70E060E02AF09A9522
:1028C000660F771F881FDAF7880F9695879597F917
:1028D0000895990F0008550FAA0BE0E8FEEF1616B1
:1028E0001706E807F907C0F012161306E407F50704
:1028F00098F0621B730B840B950B39F40A2661F078
:10290000232B242B252B21F408950A2609F4A1401A
:10291000A6958FEF811D811D08950E94A0140C942F
:1029200011150E94031538F00E940A1520F0952316
:1029300011F00C94FA140C94001511240C94451504
:102940000E94221570F3959FC1F3950F50E0551F1B
:10295000629FF001729FBB27F00DB11D639FAA27F4
:10296000F00DB11DAA1F649F6627B00DA11D661F43
:10297000829F2227B00DA11D621F739FB00DA11D64
:10298000621F839FA00D611D221F749F3327A00D1E
:10299000611D231F849F600D211D822F762F6A2FBA
:1029A00011249F5750409AF0F1F088234AF0EE0F1F
:1029B000FF1FBB1F661F771F881F91505040A9F74C
:1029C0009E3F510580F00C94FA140C9445155F3F1E
:1029D000E4F3983ED4F3869577956795B795F79588
:1029E000E7959F5FC1F7FE2B880F911D9695879500
:1029F00097F9089597F99F6780E870E060E008957F
:102A00009FEF80EC089500240A9416161706180606
:102A10000906089500240A941216130614060506E2
:102A20000895092E0394000C11F4882352F0BB0F73
:102A300040F4BF2B11F460FF04C06F5F7F4F8F4FD6
:102A40009F4F089557FD9058440F551F59F05F3F11
:102A500071F04795880F97FB991F61F09F3F79F0C0
:102A600087950895121613061406551FF2CF469542
:102A7000F1DF08C0161617061806991FF1CF8695C4
:102A80007105610508940895E894BB2766277727A8
:102A9000CB0197F908950E945615A59F900DB49FFC
:102AA000900DA49F800D911D11240895A29FB00147
:102AB000B39FC001A39F700D811D1124911DB29F72
:102AC000700D811D1124911D08955058BB27AA2710
:102AD0000E947D150C9411150E94031538F00E9478
:102AE0000A1520F039F49F3F19F426F40C940015D0
:102AF0000EF4E095E7FB0C94FA14E92F0E942215DE
:102B000058F3BA17620773078407950720F079F422
:102B1000A6F50C9444150EF4E0950B2EBA2FA02DBB
:102B20000B01B90190010C01CA01A0011124FF277A
:102B3000591B99F0593F50F4503E68F11A16F04075
:102B4000A22F232F342F4427585FF3CF4695379574
:102B50002795A795F0405395C9F77EF41F16BA0B39
:102B6000620B730B840BBAF09150A1F0FF0FBB1FE7
:102B7000661F771F881FC2F70EC0BA0F621F731F30
:102B8000841F48F4879577956795B795F7959E3F8D
:102B900008F0B0CF9395880F08F09927EE0F97951E
:102BA000879508950E94E6150C9411150E940A1548
:102BB00058F00E94031540F029F45F3F29F00C946F
:102BC000FA1451110C9445150C9400150E9422150D
:102BD00068F39923B1F3552391F3951B550BBB274C
:102BE000AA2762177307840738F09F5F5F4F220F91
:102BF000331F441FAA1FA9F335D00E2E3AF0E0E888
:102C000032D091505040E695001CCAF72BD0FE2FD1
:102C100029D0660F771F881FBB1F26173707480765
:102C2000AB07B0E809F0BB0B802DBF01FF2793581D
:102C30005F4F3AF09E3F510578F00C94FA140C94D3
:102C400045155F3FE4F3983ED4F3869577956795F5
:102C5000B795F7959F5FC9F7880F911D9695879552
:102C600097F90895E1E0660F771F881FBB1F621771
:102C700073078407BA0720F0621B730B840BBA0B2F
:102C8000EE1F88F7E09508950E942A1588F09F5757
:102C900098F0B92F9927B751B0F0E1F0660F771F80
:102CA000881F991F1AF0BA95C9F714C0B13091F076
:102CB0000E944415B1E008950C944415672F782FB5
:102CC0008827B85F39F0B93FCCF38695779567953B
:102CD000B395D9F73EF490958095709561957F4FA7
:102CE0008F4F9F4F08950E94691408F48FEF089545
:102CF0000E946914880B990B0895991B79E004C010
:102D0000991F961708F0961B881F7A95C9F780952A
:102D1000089597FB072E16F4009407D077FD09D08D
:102D20000E94C71607FC05D03EF4909581959F4FF1
:102D30000895709561957F4F0895A1E21A2EAA1B00
:102D4000BB1BFD010DC0AA1FBB1FEE1FFF1FA2175B
:102D5000B307E407F50720F0A21BB30BE40BF50B58
:102D6000661F771F881F991F1A9469F760957095E1
:102D7000809590959B01AC01BD01CF010895B7FFEF
:102D80000C944B150E944B15821B930B0895AA1BA4
:102D9000BB1B51E107C0AA1FBB1FA617B70710F046
:102DA000A61BB70B881F991F5A95A9F78095909578
:102DB000BC01CD010895EE0FFF1F0590F491E02DA9
:062DC0000994F894FFCF16
:102DC60010000F000E000D000C000B000A00090099
:102DD60008000700060005000400030002001100B9
:102DE600FFFF00004000140054001F1C1F1E1F1E82
:102DF6001F1F1E1F1E1F10000F000E000D000C00CF
:102E06000B000A0009000800070006000500040080
:102E1600030002001100000000002F03F30120024E
:102E26009703ED022F0243020000000047061A0630
:102E36008A06F00513060006F10500000000450BA2
:102E4600F3018A06B70300000000A80A4B0B850AA7
:102E560082096D09EF0B580934090D0A006E616E7F
:102E660000696E66006F76660052474220436C6FBB
:102E7600636B2076312E3100286329204D617265FF
:102E86006B2042756A6B6F005254432053796E6310
:102E9600204572726F72210054696D6520757064E9
:0C2EA600617465642100430020202000BE
:00000001FF
