:100000000C9413010C943B010C943B010C943B01A8
:100010000C943B010C943B010C943B010C943B0170
:100020000C943B010C943B010C943B010C943B0160
:100030000C943B010C943B010C943B010C943B0150
:100040000C94110E0C943B010C94810E0C945B0EDD
:100050000C943B010C943B010C943B010C943B0130
:100060000C94B30E0C943B01207C2000525443208E
:1000700053796E63204F4B212043757272656E7405
:100080003A20005254432053796E63204572726FB8
:100090007221005254432053796E63204572726F6F
:1000A0007221003D3D3D3D3D3D3D3D3D3D3D3D3DA4
:1000B0003D3D3D3D3D3D3D3D3D3D3D3D3D3D3D3D70
:1000C0003D3D3D3D3D3D3D3D3D3D3D00466F726DFD
:1000D000617420746F207365743A204848204D4D38
:1000E000205353204444204D4D2059595959004C18
:1000F0006963656E73656420756E646572204D4931
:1001000054204C6963656E736500436F7079726942
:10011000676874204D6172656B2042756A6B6F0071
:1001200050726F6A6563743A205247422042696E8A
:1001300061727920436C6F636B2076312E31003D04
:100140003D3D3D3D3D3D3D3D3D3D3D3D3D3D3D3DDF
:100150003D3D3D3D3D3D3D3D3D3D3D3D3D3D3D3DCF
:100160003D3D3D3D3D3D3D00286329204D6172658B
:100170006B2042756A6B6F0052474220436C6F637D
:100180006B2076312E3100202020004300200020FB
:100190004300207C2054656D703A2000207C2000B4
:1001A00054696D65207570646174656421002A204E
:1001B0004461746520616E642074696D652075709A
:1001C0006461746564207669612053657269616C4D
:1001D000202A0000000008000201000003040700BC
:1001E0000000000000000000000000250028002B97
:1001F0000000000000240027002A00040404040476
:1002000004040402020202020203030303030301C3
:10021000020408102040800102040810200102049A
:1002200008102000D20F11241FBECFEFD8E0DEBF90
:10023000CDBF23E0AAE8B1E001C01D92AD32B20704
:10024000E1F711E0A0E0B1E0EAE9FEE202C00590CA
:100250000D92AA38B107D9F711E0C3E1D1E004C08B
:100260002197FE010E944517C231D107C9F70E94AC
:1002700025100C944B170C940000282F30E094E0CC
:10028000359527959A95E1F7922F990F990F291B8C
:10029000220F820F089590E0FC01E15FFD4F249151
:1002A00085509E4FFC018491882399F090E0880F3F
:1002B000991FFC01EF50FE4FA591B491FC01E9514B
:1002C000FE4F859194918FB7F894EC91E22BEC93CB
:1002D0008FBF08950895089590E0FC01ED52FE4F00
:1002E0002491FC01E15FFD4F3491FC01E550FE4F8C
:1002F000E491EE23C9F0222339F0233001F1A8F470
:10030000213019F1223029F1F0E0EE0FFF1FE95101
:10031000FE4FA591B4918FB7F894EC91611126C06E
:1003200030953E233C938FBF08952730A9F02830A5
:10033000C9F0243049F7809180008F7D03C08091FF
:1003400080008F7780938000DFCF84B58F7784BD66
:10035000DBCF84B58F7DFBCF8091B0008F7780930A
:10036000B000D2CF8091B0008F7DF9CF3E2BDACF95
:100370003FB7F8948091F8019091F901A091FA01AA
:10038000B091FB0126B5A89B05C02F3F19F001963F
:10039000A11DB11D3FBFBA2FA92F982F8827BC01DF
:1003A000CD01620F711D811D911D42E0660F771F07
:1003B000881F991F4A95D1F708958F929F92AF9207
:1003C000BF92CF92DF92EF92FF924B015C010E94AD
:1003D000B8016B017C010E94B8016C197D098E097E
:1003E0009F09683E734081059105A8F321E0821AB8
:1003F0009108A108B10888EEC80E83E0D81EE11C60
:10040000F11C81149104A104B10429F7FF90EF902D
:10041000DF90CF90BF90AF909F908F9008952FB7AF
:10042000F8946091F4017091F5018091F60190913A
:10043000F7012FBF0895DC01ED91FC910190F0814F
:10044000E02D0994EF92FF920F931F93CF93DF93C8
:100450008C017B01D0E0C0E0F701EC0FFD1F64913F
:10046000662361F0D801ED91FC910190F081E02DBF
:10047000C8010995892B11F02196EECFCE01DF91AD
:10048000CF911F910F91FF90EF900895AF92BF927F
:10049000CF92DF92EF92FF920F931F93CF93DF9350
:1004A0006C017B018B01040F151FEB015E01AE187F
:1004B000BF08C017D10759F06991D601ED91FC91A1
:1004C0000190F081E02DC6010995892B79F7C501CE
:1004D000DF91CF911F910F91FF90EF90DF90CF9020
:1004E000BF90AF900895FC01538D448D252F30E0CF
:1004F000842F90E0821B930B541710F0CF96089531
:1005000001970895FC01918D828D981761F0A28D5D
:10051000AE0FBF2FB11D5D968C91928D9F5F9F7323
:10052000928F90E008958FEF9FEF0895FC01918DD9
:10053000828D981731F0828DE80FF11D858D90E046
:1005400008958FEF9FEF08950F931F930E940F025E
:1005500060937A0270937B0280937C0290937D0279
:1005600082E792E00E94960297FF1DC00E940F0250
:1005700000917A0210917B0220917C0230917D02E1
:10058000601B710B820B930B009176021091770226
:1005900020917802309179026017710782079307E2
:1005A000F8F28FEF9FEF1F910F910895CF92DF9296
:1005B000EF92FF92CF930E94A402FC0197FD4EC0E0
:1005C0008D32910521F0C0970A9708F040C0C12CE8
:1005D000D12C7601C0E0E130F105D1F0ED32F1052A
:1005E000D9F1CF01C0970A9798F4AAE0B0E0A7012B
:1005F00096010E94B5156F01FF0FEE08FF08C60EA9
:10060000D71EE81EF91E80E3C81AD108E108F108D8
:1006100082E792E00E9482020E94A402FC01C0973D
:100620000A97C8F2E130F105B1F2CC2341F0F09421
:10063000E094D094C094C11CD11CE11CF11CC701F2
:10064000B601CF91FF90EF90DF90CF90089582E7B1
:1006500092E00E948202AFCFC1E0DACFC12CD12C50
:100660007601EDCFFC01918D228D892F90E0805C89
:100670009F4F821B91098F739927089582E792E01B
:100680000E94320321E0892B09F420E0822F089593
:1006900080E090E0892B29F00E943E0381110C94A8
:1006A00000000895FC01A48DA80FB92FB11DA35A15
:1006B000BF4F2C91848D90E001968F739927848F82
:1006C000A689B7892C93A089B1898C9183708064A5
:1006D0008C93938D848D981306C00288F389E02D46
:1006E00080818F7D80830895EF92FF920F931F93F7
:1006F000CF93DF93EC0181E0888F9B8D8C8D9813D5
:100700001AC0E889F989808185FF15C09FB7F894E0
:10071000EE89FF896083E889F9898081837080642C
:1007200080839FBF81E090E0DF91CF911F910F9177
:10073000FF90EF900895F62E0B8D10E00F5F1F4F86
:100740000F731127E02E8C8D8E110CC00FB607FC95
:10075000FACFE889F989808185FFF5CFCE010E9423
:100760005203F1CFEB8DEC0FFD2FF11DE35AFF4F3C
:10077000F0829FB7F8940B8FEA89FB8980818062B1
:10078000CFCFCF93DF93EC01888D8823B9F0AA896E
:10079000BB89E889F9898C9185FD03C0808186FD3C
:1007A0000DC00FB607FCF7CF8C9185FFF2CF80818B
:1007B00085FFEDCFCE010E945203E9CFDF91CF91AB
:1007C000089508952091B301260F3327331F213256
:1007D0003105ECF420916C02FC0190E080E02430C3
:1007E00069F082E00895A091B3012191AC014D56CA
:1007F0005E4FA40FB52FB11D2C930196861798F369
:100800008091B301680F6093B30180E0089581E0A7
:10081000089510926C0281E080934B021092460280
:1008200061E082E10E946C0161E083E10E946C0161
:10083000E9EBF0E080818E7F808380818D7F8083F3
:1008400088E48093B80085E48093BC0008951092FA
:1008500001021092000210920302109225020E94DF
:1008600009048AE691E09093FF018093FE018BE6F4
:1008700091E09093FD018093FC010895CF93DF9365
:1008800091E0909392018823B9F0C091B800D09183
:10089000BA008091BC008A7B8093BC0060E082E15A
:1008A0000E946C0160E083E10E946C010E940904D7
:1008B000D093BA00C093B800DF91CF910895CF9242
:1008C000DF92EF92FF920F931F93CF93C82F813245
:1008D00008F096C00E94B8016B017C0180916C0207
:1008E000811169C081E080936C0280934B029FEF7D
:1008F00090934A02109249029C0F90934802809371
:10090000470280914702806D8093470280914602A2
:10091000813009F077C0109246020E94B8016B0145
:100920007C01809147028093BB0080916E02909180
:100930006F02A0917002B0917102892B8A2B8B2BD0
:10094000A1F00E94B80100916E0210916F022091F7
:100950007002309171026C197D098E099F0906178A
:1009600017072807390708F447C08091BC0083FDAA
:10097000D8CF85EC8093BC000E94B8016B017C014C
:1009800080916C02813009F43FC0809149028C173C
:1009900010F4C0914902A6E2B2E0ECE4F2E080E09B
:1009A0008C1354C08C2FCF911F910F91FF90EF901B
:1009B000DF90CF90089580916E0290916F02A09188
:1009C0007002B0917102892B8A2B8B2B09F486CF90
:1009D0000E94B80100916E0210916F022091700286
:1009E000309171026C197D098E099F09061717074E
:1009F0002807390708F072CF80916D020E943E04EB
:100A0000C0E0D0CF85EEB6CF80916E0290916F029C
:100A1000A0917002B0917102892B8A2B8B2B09F463
:100A2000AFCF0E94B80100916E0210916F02209129
:100A30007002309171026C197D098E099F090617A9
:100A400017072807390708F09BCFD6CF9D919193C0
:100A50008F5FA6CF8F929F92AF92BF92CF92DF927D
:100A6000EF92FF920F931F93CF93DF93D0912502C4
:100A7000D13208F0D7C0182FC09124020E94B801CB
:100A80006B017C0180916C0281116BC082E08093CC
:100A90006C0210934B028FEF80934A02109249022E
:100AA000D0934802A4E0B2E0E6E2F2E080E0D8139E
:100AB00091C01092470280914702CC0FC82BC0937F
:100AC000470280914602813009F088C010924602A8
:100AD0000E94B8016B017C01809147028093BB00AA
:100AE00080916E0290916F02A0917002B09171029C
:100AF000892B8A2B8B2BA1F00E94B80100916E02EA
:100B000010916F0220917002309171026C197D0971
:100B10008E099F09061717072807390708F442C0EE
:100B20008091BC0083FDD8CF85EC8093BC000E94EF
:100B3000B8016B017C0180916C02823009F450C0D5
:100B400080914A028F3F09F46FC080914A0280323F
:100B500009F46CC080914A02803309F469C084E0D2
:100B600026C080916E0290916F02A0917002B091A8
:100B70007102892B8A2B8B2B09F484CF0E94B80138
:100B800080906E0290906F02A0907002B0907102FF
:100B90006C197D098E099F0986169706A806B90665
:100BA00008F070CF80916D020E943E0485E01092A3
:100BB00003021092250210920202DF91CF911F9141
:100BC0000F91FF90EF90DF90CF90BF90AF909F90EC
:100BD0008F9008959D9191938F5F69CF85EEA5CFFA
:100BE00080916E0290916F02A0917002B09171029B
:100BF000892B8A2B8B2B09F49ECF0E94B801009180
:100C00006E0210916F0220917002309171026C1986
:100C10007D098E099F09061717072807390708F06D
:100C20008ACFC0CF81E0C3CF80E0C1CF82E0BFCF09
:100C300083E0BDCF0895E091010280910002E817A2
:100C400030F4F0E0E45BFD4F808190E008958FEF99
:100C50009FEF089590910102809100022FEF3FEFE6
:100C6000981748F4E92FF0E0E45BFD4F208130E075
:100C70009F5F90930102C9010895809100029091B5
:100C80000102891B990B0895CF92DF92EF92FF9298
:100C90000F931F93CF93DF937C01CB018A012091A7
:100CA0000202222389F0EB016B01C40ED51ECC1584
:100CB000DD0569F06991D701ED91FC910190F0811A
:100CC000E02DC7010995F3CF642F0E94E203C8010C
:100CD000DF91CF911F910F91FF90EF90DF90CF9018
:100CE0000895CF93DF931F92CDB7DEB7698320912C
:100CF00002022223F9F020912502203258F021E04F
:100D000030E0FC013383228390E080E00F90DF919C
:100D1000CF91089580910302E82FF0E0EC5FFD4F42
:100D2000998190838F5F809303028093250281E0F5
:100D300090E0ECCF61E0CE0101960E94E203F7CF94
:100D4000FC01248131E030930202209324021092AE
:100D50000302109225028485682B8CE193E00E94A7
:100D6000710681E00C942A0590E080E0089560937C
:100D7000DA017093DB018093DC019093DD01645D07
:100D80007E4F8F4F9F4F6093D6017093D701809312
:100D9000D8019093D90182E090E09093E101809393
:100DA000E0010E940F0260938E0170938F01809387
:100DB00090019093910108950F931F930E940F0249
:100DC0008B019C0140918E0150918F0160919001A7
:100DD000709191018091DA019091DB01A091DC0189
:100DE000B091DD01041B150B260B370B083E134099
:100DF00021053105C0F00196A11DB11D8093DA01D6
:100E00009093DB01A093DC01B093DD0148515C4F6E
:100E10006F4F7F4F40938E0150938F0160939001ED
:100E200070939101CBCF4091D6015091D701609141
:100E3000D8017091D90184179507A607B70770F0FC
:100E4000E091DE01F091DF01309741F009956115E5
:100E500071058105910569F00E94B7066091DA017C
:100E60007091DB018091DC019091DD011F910F9168
:100E700008958091DA019091DB01A091DC01B0919D
:100E8000DD01845D9E4FAF4FBF4F8093D60190939D
:100E9000D701A093D801B093D90181E090E02091CF
:100EA000E0013091E101232B11F490E080E0909378
:100EB000E1018093E001D2CF4F925F926F927F92D7
:100EC0008F929F92AF92BF92CF92DF92EF92FF925A
:100ED0000F931F93CF93DF93FC011681A12FB0E0F6
:100EE00020E833E341EE51E00E94B5154B015C016F
:100EF000C2EBD7E09D0104E610E080E9E82EFF2474
:100F0000F394CE01825B9740821793079CF1458052
:100F1000512C2E54384FC90164E670E00E94F3163C
:100F20007C01C90160E971E00E94F3166C010AE0DE
:100F300011E0C1E0D0E0390183E068227724C415D4
:100F4000D5050CF040C0C230D10571F561147104B3
:100F500059F5E114F10419F4C114D10429F5B0E8EC
:100F60008B0EBBE39B1EB6E2AB1EB11C21960F5F3E
:100F70001F4FE5CFCE0183709927892B99F4CE01BD
:100F8000B8010E94F316892B31F4CE01B7010E94FB
:100F9000F316892B39F4A0E88A0EA1E59A1EA1E088
:100FA000AA1EB11C2196ADCFD8018C91A82FB0E01C
:100FB00020E831E541E050E00E94B515860E971E0D
:100FC000A81EB91ED3CF228130E0A0E1BEE00E946E
:100FD000C0156B017C01218130E0ACE3B0E00E94E0
:100FE000C015C60ED71EE81EF91E8081C80ED11C82
:100FF000E11CF11CA481A150BB0B20E831E541E0CC
:1010000050E00E9429176C0D7D1D8E1D9F1D680DDF
:10101000791D8A1D9B1DDF91CF911F910F91FF902C
:10102000EF90DF90CF90BF90AF909F908F907F9088
:101030006F905F904F9008956F927F928F929F92E2
:10104000AF92BF92CF92DF92EF92FF920F931F93D6
:10105000CF93DF936B017C01EA018CE3882E912C06
:10106000A12CB12CC701A50194010E940717688328
:10107000CA01B901A50194010E9407176983C7013C
:10108000B60120E13EE040E050E00E940717CA01AF
:10109000B90128E130E040E050E00E9407176A8380
:1010A000C701B60120E831E541E050E00E94071792
:1010B00069017A01CA01B9016C5F7F4F8F4F9F4F61
:1010C00027E030E040E050E00E9407176F5F6B833D
:1010D000812C912C540140E094E6692E712C00E99A
:1010E00011E0242F30E02E54384FF901E370FF2730
:1010F0003097F9F4C901B3010E94F316892B31F43A
:10110000C901B8010E94F316892B99F48EE691E08B
:10111000A0E0B0E0880E991EAA1EBB1ED501C40136
:10112000AA27BB27C816D906EA06FB0638F04F5F88
:10113000D8CF8DE691E0A0E0B0E0ECCF4E83C901BE
:1011400064E670E00E94F3168C01C90160E971E069
:101150000E94F316309729F401151105E1F4009768
:10116000D1F04DE651E060E070E0841A950AA60ADD
:10117000B70AC818D908EA08FB08AAE0B1E020E0DD
:10118000213071F4309791F50115110511F4009794
:1011900069F54DE106C04EE651E060E070E0E5CF54
:1011A0004C9150E070E060E031E0320FC416D5069B
:1011B000E606F70640F0C41AD50AE60AF70A1196C1
:1011C000232F3C30E9F62F5F2D83C394CC82DF912F
:1011D000CF911F910F91FF90EF90DF90CF90BF9034
:1011E000AF909F908F907F906F9008954CE1D9CFF2
:1011F000CF92DF92EF92FF92C0908A01D0908B0144
:10120000E0908C01F0908D01C616D706E806F9062D
:1012100071F06B017C014BEE51E00E941C08C09202
:101220008A01D0928B01E0928C01F0928D01FF90A7
:10123000EF90DF90CF9008950E94DC060E94F8089E
:101240008091F10190E08E54984F08950E94DC0641
:101250000E94F8088091F00190E008950E94DC0659
:101260000E94F8088091EF0190E008950E94DC064A
:101270000E94F8088091EB0190E008950E94DC063E
:101280000E94F8088091EC0190E008950E94DC062D
:101290000E94F8088091ED0190E008951F93CF938C
:1012A000DF93EC01E881F9810484F585E02D62E1AA
:1012B0000995182FE881F9810484F585E02D61E115
:1012C000CE010995212F382F37FF02C0215C3F4FF7
:1012D000C90126E0959587952A95E1F7DF91CF9191
:1012E0001F910895CF93DF931F92CDB7DEB7DC0136
:1012F000ED91FC910284F385E02D21E0AE014F5F7A
:101300005F4F099589810F90DF91CF910895CF9319
:10131000DF931F92CDB7DEB74983DC01ED91FC91DD
:101320000680F781E02D21E0AE014F5F5F4F099508
:101330000F90DF91CF910895DF92EF92FF920F937C
:101340001F93CF93DF937C01D42E152F022FDC0146
:1013500012968D919C9121E02093020228E6209321
:1013600024021092030210922502DC01ED91FC91FF
:101370000190F081E02D0995CD2DD12F0C0F1D2F5F
:10138000111DC017D10761F0F70182819381699126
:10139000DC01ED91FC910190F081E02D0995F1CFF8
:1013A00081E0DF91CF911F910F91FF90EF90DF903F
:1013B0000C942A05FF920F931F93CF93DF93EC01B8
:1013C0008B018A819B8121E02093020228E62093F1
:1013D00024021092030210922502DC01ED91FC918F
:1013E0000190F081E02D60E00995AA81BB81F801B0
:1013F00020818AE0F82E822F6F2D0E94E716682F39
:10140000660F680F660F620FED91FC9111970190C6
:10141000F081E02DCD010995AA81BB81F8012181E0
:10142000822F6F2D0E94E716682F660F680F660FD8
:10143000620FED91FC9111970190F081E02DCD01AB
:101440000995AA81BB81F8012281822F6F2D0E940C
:10145000E716682F660F680F660F620FED91FC911B
:1014600011970190F081E02DCD0109958A819B8132
:10147000DC01ED91FC910190F081E02DD8011396F3
:101480006C910995AA81BB81F8012481822F6F2D6F
:101490000E94E716682F660F680F660F620FED91C6
:1014A000FC9111970190F081E02DCD010995AA8161
:1014B000BB81F8012581822F6F2D0E94E716682FCE
:1014C000660F680F660F620FED91FC911197019006
:1014D000F081E02DCD010995AA81BB81F80126811B
:1014E0002E51822F6F2D0E94E716682F660F680F0E
:1014F000660F620FED91FC9111970190F081E02D44
:10150000CD01099581E00E942A05182FE881F98113
:101510000484F585E02D6FE0CE010995482F4F77C3
:10152000E881F9810084F185E02D6FE0CE01099515
:10153000812FDF91CF911F910F91FF9008950F930D
:101540001F93CF93DF9300D000D000D01F92CDB770
:10155000DEB78C01CB01BA01AE014F5F5F4F0E9435
:101560001C08BE016F5F7F4FC8010E94DA092796F1
:101570000FB6F894DEBF0FBECDBFDF91CF911F91A4
:101580000F9108950C942704CF92DF92FF920F934E
:101590001F93CF93DF93F62E6A018C01D0E0C0E059
:1015A000B6010C2E02C0759567950A94E2F761703A
:1015B000F80181918F010E946C012196CF1580F373
:1015C000DF91CF911F910F91FF90DF90CF90089501
:1015D0000F931F93CF938C01C62F0E94A0066C2FF0
:1015E0006460C8010E94A0066C2F6B7FC8010E9436
:1015F000A00683EC90E00197F1F7CF911F910F9136
:1016000008950F931F93CF93DF938C01D62FC42F90
:10161000607F642B0E94E80A80E1D89FB00111240A
:101620006C2BC801DF91CF911F910F910C94E80AA8
:10163000CF93DF93CDB7DEB728970FB6F894DEBF10
:101640000FBECDBF98E0E2E0F1E0DE01119601901F
:101650000D929A95E1F790911703981708F48FEF80
:1016600090E0880F991F21E030E02C0F3D1F820F82
:10167000931FFC016081606840E08FE093E0289652
:101680000FB6F894DEBF0FBECDBFDF91CF910C94A3
:10169000010B40E061E08FE093E00E94010B8BE3DF
:1016A0009FE10197F1F780911803882319F080E0FA
:1016B0000C94180B089541E00E94010B81E090E02A
:1016C00008950F931F93CF93DF9300D000D000D0E5
:1016D0001F92CDB7DEB78C01DC0112968D919C91E3
:1016E00021E02093020228E62093240210920302B4
:1016F00010922502DC01ED91FC910190F081E02D2A
:1017000060E0099581E00E942A05882381F0F801B4
:10171000848360E070E0CB0127960FB6F894DEBFBB
:101720000FBECDBFDF91CF911F910F91089587E03C
:101730000E945F041092010280930002D801129669
:101740008D919C91DC01ED91FC910284F385E02D5B
:1017500009958F770E943D018983F80182819381E9
:10176000DC01ED91FC910284F385E02D09950E9446
:101770003D018A83F80182819381DC01ED91FC9126
:101780000284F385E02D09958F7B0E943D018B83B8
:10179000F80182819381DC01ED91FC910284F38553
:1017A000E02D09958C83F80182819381DC01ED9114
:1017B000FC910284F385E02D09950E943D018D8303
:1017C000F80182819381DC01ED91FC910284F38523
:1017D000E02D09958F770E943D018E83F80182816B
:1017E0009381DC01ED91FC910284F385E02D099554
:1017F0000E943D01825E8F83CE0101960E945C07AC
:101800008BCF88E293E00C94610BCF92DF92EF9242
:10181000FF920F931F93CF93DF936C01E42E152F4C
:10182000022FDC0112968D919C9121E020930202FF
:1018300028E6209324021092030210922502DC0174
:10184000ED91FC910190F081E02D099581E00E94DD
:101850002A05F82E81111EC0802F013208F080E287
:101860000E945F041092010280930002CE2DD12FBE
:101870000C0F1D2F111DC017D10761F0F6018281D9
:101880009381DC01ED91FC910284F385E02D0995B3
:101890008993F1CF8F2DDF91CF911F910F91FF9001
:1018A000EF90DF90CF900895FB0101900020E9F7C1
:1018B0003197AF01461B570BDC01ED91FC91028083
:1018C000F381E02D0994CF93DF93BC0182E792E08E
:1018D0000E942202EC016AE771E082E792E00E9436
:1018E000540C8C0F9D1FDF91CF9108958F929F9282
:1018F000AF92BF92EF92FF920F931F93CF93DF931C
:10190000CDB7DEB7A1970FB6F894DEBF0FBECDBF3F
:101910007C01FA01CB0119A2223008F42AE08E01E1
:101920000F5D1F4F822E912CB12CA12CBF01A50160
:1019300094010E940717F901CA016A300CF5605D35
:10194000D8016E938D01232B242B252B79F790E062
:1019500080E0109721F0BD01C7010E94540CA196B0
:101960000FB6F894DEBF0FBECDBFDF91CF911F91B0
:101970000F91FF90EF90BF90AF909F908F90089540
:10198000695CDECFCF92DF92EF92FF920F931F93AD
:10199000CF93DF936B01770FEE08FF08F7FE1BC0B4
:1019A000EC016DE20E941B028C0144275527BA010D
:1019B0004C195D096E097F092AE0CE010E94760C60
:1019C000800F911FDF91CF911F910F91FF90EF90AA
:1019D000DF90CF9008952AE0B701A601DF91CF9163
:1019E0001F910F91FF90EF90DF90CF900C94760CA9
:1019F0004F925F926F927F928F929F92AF92BF921F
:101A0000CF92DF92EF92FF920F931F93CF93DF93CA
:101A1000EC016A017B01922EAB019601CB01B6016C
:101A20000E94E2166DE771E0811126C026013701A0
:101A3000E89477F82FEF3FEF4FE75FE7C301B2017C
:101A40000E94E21681110CC02FEF3FEF4FE75FE7D6
:101A5000C301B2010E94911461E871E0181664F0AC
:101A60002FEF3FEF4FE75FE4C701B6010E94DD169D
:101A70001816ACF465E871E0CE01DF91CF911F91AB
:101A80000F91FF90EF90DF90CF90BF90AF909F901D
:101A90008F907F906F905F904F900C94540C2FEF2D
:101AA0003FEF4FE75FECC701B6010E94911487FD3D
:101AB000E1CF20E030E0A901C701B6010E949114F6
:101AC000B12CA12C87FF09C06DE2CE010E941B0240
:101AD0005C01F7FAF094F7F8F094192D60E070E0EB
:101AE00080E09FE300E020E030E040E251E40E942B
:101AF0003C1621E0200F01E02915A8F3A70196016B
:101B00000E94D0152B013C010E94AE166B017C0196
:101B10000E9496149B01AC01C301B2010E94CF1533
:101B20002B013C012AE0B701A601CE010E94760CF0
:101B30007C016EE2CE010E941B02E80EF91EEA0C47
:101B4000FB1C115020F120E030E040E251E4C301E1
:101B5000B2010E94F7142B013C010E94AE164B010A
:101B6000B12CA12C2AE0B501A401CE010E94760C73
:101B7000E80EF91EC501B4010E9496149B01AC0148
:101B8000C301B2010E94CF152B013C01DACFC7017E
:101B9000DF91CF911F910F91FF90EF90DF90CF9049
:101BA000BF90AF909F908F907F906F905F904F907D
:101BB000089585ED8093BC0080916E0290916F0234
:101BC000A0917002B09171020796A11DB11D23E092
:101BD000B695A795979587952A95D1F72091BC0042
:101BE00024FD03C010926C02089540916E02509142
:101BF0006F026091700270917102452B462B472B4A
:101C000069F30097A105B10541F02AE22A95F1F7A1
:101C100000C00197A109B109E1CF80916D020C9438
:101C20003E041F920F920FB60F9211242F933F93F1
:101C30008F939F93AF93BF938091F4019091F5019F
:101C4000A091F601B091F7013091F30123E0230F49
:101C50002D3758F50196A11DB11D2093F3018093F6
:101C6000F4019093F501A093F601B093F7018091F0
:101C7000F8019091F901A091FA01B091FB01019650
:101C8000A11DB11D8093F8019093F901A093FA0171
:101C9000B093FB01BF91AF919F918F913F912F9195
:101CA0000F900FBE0F901F90189526E8230F0296F5
:101CB000A11DB11DD2CF1F920F920FB60F9211240A
:101CC0002F933F934F935F936F937F938F939F9344
:101CD000AF93BF93EF93FF9382E792E00E9452038A
:101CE000FF91EF91BF91AF919F918F917F916F91F4
:101CF0005F914F913F912F910F900FBE0F901F90CA
:101D000018951F920F920FB60F9211242F938F9355
:101D10009F93EF93FF93E0918202F0918302808181
:101D2000E0918802F091890282FD1BC09081809130
:101D30008B028F5F8F7320918C02821741F0E091AC
:101D40008B02F0E0EE58FD4F958F80938B02FF9150
:101D5000EF919F918F912F910F900FBE0F901F9039
:101D600018958081F4CF1F920F920FB60F92112415
:101D70002F933F934F935F936F937F938F939F9393
:101D8000AF93BF93EF93FF938091B900887F803624
:101D900009F44AC0F0F5883209F4A7C018F580317B
:101DA00009F49BC0B8F4882309F4F9C0883009F419
:101DB00094C0FF91EF91BF91AF919F918F917F91CF
:101DC0006F915F914F913F912F910F900FBE0F90A8
:101DD0001F901895883109F488C0803251F780939C
:101DE0004A0214C0803409F49DC040F48033B9F332
:101DF0008833F9F680934A0285ECB0C0803509F447
:101E000085C0883509F496C0883499F60E94D90DAA
:101E1000D0CF883909F48CC038F5883729F050F4D0
:101E2000883611F0803729F683E080936C02109297
:101E3000D50157C0883809F47BC0803919F0803843
:101E400009F0B7CF8091D501803208F071C0E091E0
:101E5000D50181E08E0F8093D5018091BB00F0E029
:101E6000EB54FE4F80833DC0803B39F0E0F4803A74
:101E700009F479C0883A09F09CCF84E080936C0221
:101E80001092B4011092B301E091FE01F091FF01B4
:101E900009958091B30181110FC081E08093B30156
:101EA0001092930109C0803C09F4A6CF883C09F444
:101EB000A3CF883B09F07DCFE091B40181E08E0F84
:101EC0008093B401F0E0ED56FE4F80818093BB001B
:101ED0009091B4018091B30129C080914702809311
:101EE000BB0085EC8093BC0064CF90914902809147
:101EF0004802981758F5E091490281E08E0F8093CF
:101F00004902F0E0EA5DFD4F8081E9CFE0914902AE
:101F100081E08E0F809349028091BB00F0E0EA5D82
:101F2000FD4F808390914902809148029817C8F232
:101F300085E8D8CFE091490281E08E0F8093490275
:101F40008091BB00F0E0EA5DFD4F808380914B0201
:101F500081115CCF81E08093460284EA8093BC00CB
:101F600010926C0226CF85EC8093BC0010926C021C
:101F70008091D501803230F4E091D501F0E0EB544E
:101F8000FE4F10826091D50170E0E091FC01F0916C
:101F9000FD0185EB91E009951092D5010ACF1092D1
:101FA0004A0234CFE2E7F2E01382128288EE93E035
:101FB000A0E0B0E084839583A683B7832AE331E071
:101FC0003183208325EC30E03587248724EC30E012
:101FD0003787268720EC30E0318B208B21EC30E0F6
:101FE000338B228B22EC30E0358B248B26EC30E0D7
:101FF000378B268B118E128E138E148EECE1F3E04C
:102000001382128284839583A683B7838CE491E044
:1020100091838083A8E2B3E01396FC93EE9312972A
:102020008AE691E08D939C93EFE0F3E013821282B5
:102030008EE591E09183808311868FE3848380E134
:10204000828782E0838714860895CF93DF93CDB78C
:10205000DEB72B970FB6F894DEBF0FBECDBF7894D6
:1020600084B5826084BD84B5816084BD85B582609D
:1020700085BD85B5816085BD80916E00816080934E
:102080006E001092810080918100826080938100B7
:1020900080918100816080938100809180008160C7
:1020A000809380008091B10084608093B100809122
:1020B000B00081608093B00080917A00846080934A
:1020C0007A0080917A00826080937A0080917A0011
:1020D000816080937A0080917A00806880937A0092
:1020E0001092C1000E942704E0918202F0918302C5
:1020F00082E08083E0917E02F0917F021082E09185
:102100008002F091810280E1808310928A02E09146
:102110008602F091870286E08083E0918402F0914C
:102120008502808180618083E0918402F091850244
:10213000808188608083E0918402F09185028081B3
:1021400080688083E0918402F091850280818F7D98
:1021500080830E9427041092140380911A03823016
:1021600018F098E0909314038093170362E370E0F3
:1021700080E090E00E94DD0160911B038FE093E01E
:102180000E94A00668EE73E080E090E00E94DD010E
:1021900060E38FE093E00E94E80A0BE416E4C801D4
:1021A0000197F1F760E38FE093E00E94E80AC8012D
:1021B0000197F1F760E38FE093E00E94E80A83E57E
:1021C00092E00197F1F760E28FE093E00E94E80A65
:1021D00060911403606240E08FE093E00E94010B85
:1021E00084E08093150340E06CE08FE093E00E9470
:1021F000010B0E94490B82E08093160340E066E0E9
:102200008FE093E00E94010B40E062E08FE093E0FA
:102210000E94010B8BE39FE10197F1F788E0809327
:102220001B0360E08FE093E00E94A00680E00E9424
:10223000180B68E771E08FE093E00E94220281E0D2
:102240000E94180B68E671E08FE093E00E94220282
:1022500060ED77E080E090E00E94DD010E94490B94
:102260008FE391E00E94630C80E291E00E94630C96
:102270008AE091E00E94630C8FEE90E00E94630C74
:102280008CEC90E00E94630C83EA90E00E94630C67
:1022900081E09CE09093DF018093DE018091DA0180
:1022A0009091DB01A091DC01B091DD018093D6011A
:1022B0009093D701A093D801B093D9010E94DC0676
:1022C0000E94DC068091E0019091E101029709F4FF
:1022D000B3C083E990E00E94630C80E00E94180B79
:1022E00063E870E08FE093E00E94220284E00E94A5
:1022F0004B0183E00E944B0182E00E944B0181E18F
:102300000E944B018AE00E944B0189E00E944B0130
:1023100088E00E944B0187E00E944B0186E00E940A
:102320004B0185E00E944B0180E10E944B018FE050
:102330000E944B018EE00E944B018DE00E944B01F8
:102340008CE00E944B018BE00E944B0130E0232E79
:1023500030E0332E82E792E00E943203181619060D
:102360000CF0EDC00E94D6022B010E94D602062F6F
:102370000E94D602162F0E94D6026B010E94D6023E
:10238000688779878A879B870E94D6024B0188E1FC
:102390004816510408F043C04B820A8319838C2DE0
:1023A0001C141D0414F00E942E098D83E885F98504
:1023B00088851E161F0614F00E94260994018E833C
:1023C000181419040CF0B6C02436310514F4205347
:1023D000384F225B2F83BE016F5F7F4F88E293E00F
:1023E0000E94DA09CE0101960E945C070E94B7069E
:1023F0008EEA91E00E94630C0E94490B80E00E94EB
:10240000180B60EA71E08FE093E00E94220268EE10
:1024100073E080E090E00E94DD010E94490B82E7BA
:1024200092E00E943203181619060CF088C082E769
:1024300092E00E948202F3CF6CE670E082E792E0C5
:102440000E9422020E942E090A972CF460E382E780
:1024500092E00E941B020E942E09BC0182E792E0DA
:102460000E94C20C6EE282E792E00E941B020E9470
:1024700026090A972CF460E382E792E00E941B028F
:102480000E942609BC0182E792E00E94C20C6EE223
:1024900082E792E00E941B020E941C09BC0182E7B5
:1024A00092E00E94C20C68E670E082E792E00E942F
:1024B00022020E9446090A972CF460E382E792E028
:1024C0000E941B020E944609BC0182E792E00E9422
:1024D000C20C6AE382E792E00E941B020E943E095E
:1024E0000A972CF460E382E792E00E941B020E94AC
:1024F0003E09BC0182E792E00E94C20C6AE382E7D7
:1025000092E00E941B020E9436090A972CF460E3B5
:1025100082E792E00E941B020E943609BC0182E71A
:1025200092E00E94C20C6AE771E082E792E00E94AA
:10253000540CDCCE0E941C09825B8F834CCF8091AF
:10254000F201882309F453C00E940F020091E201B6
:102550001091E3012091E4013091E501601B710BC2
:10256000820B930B6E3171058105910508F43FC014
:102570000E940F026093E2017093E3018093E401F3
:102580009093E50106E111E060E0F80181918F018F
:102590000E946C01F1E006321F07B1F70091E601DD
:1025A00010E0F801EA5EFE4F61E080810E946C015C
:1025B0000F5F1F4F0F7011270093E6018091E70115
:1025C0009091E80101969093E8018093E7012091B2
:1025D000E9013091EA018217930748F00A5E1E4F25
:1025E00060E0F80180810E946C011092F2010E946B
:1025F00036098C018091000190910101081719079B
:1026000009F479C10E943E09892B11F501151105C4
:10261000F9F48091F20181111BC00E9446090097D4
:1026200009F475C18D3091050CF00C9724E0880FEA
:10263000991F2A95E1F79093EA018093E90110929E
:10264000E8011092E7011092E60181E08093F20127
:102650008091F20181112CC00E94DC066B017C018B
:102660000E94F8084091ED0150E04D3051050CF406
:1026700051C14C50510964E082E391E00E94C40AC8
:10268000C701B6010E94F8084091EC0150E066E0F5
:102690008CE291E00E94C40AC701B6010E94F808CA
:1026A0004091EB0150E066E086E291E00E94C40AAE
:1026B0000E942E090A972CF460E382E792E00E94C0
:1026C0001B020E942E09BC0182E792E00E94C20C0C
:1026D0006EE282E792E00E941B020E9426090A979E
:1026E0002CF460E382E792E00E941B020E9426091C
:1026F000BC0182E792E00E94C20C6EE282E792E0A7
:102700000E941B020E941C09BC0182E792E00E9409
:10271000C20C6CE971E082E792E00E9422020E9402
:1027200046090A972CF460E382E792E00E941B02BC
:102730000E944609BC0182E792E00E94C20C6AE353
:1027400082E792E00E941B020E943E090A972CF445
:1027500060E382E792E00E941B020E943E09BC01F6
:1027600082E792E00E94C20C6AE382E792E00E9454
:102770001B020A3011052CF460E382E792E00E940C
:102780001B02B80182E792E00E94C20C88E293E04B
:102790000E944E09BC01990F880B990B0E94981456
:1027A00020E030E040E85EE30E94F7146B017C011A
:1027B00062E971E082E792E00E94220222E030E0CA
:1027C000B701A60182E792E00E94F80C8FE891E041
:1027D0000E94630C80E00E94180B0E9446090A9731
:1027E0002CF460E38FE093E00E941B020E944609F4
:1027F000BC018FE093E00E94C20C6AE38FE093E09B
:102800000E941B020E943E090A972CF460E38FE0AD
:1028100093E00E941B020E943E09BC018FE093E0FE
:102820000E94C20C6AE38FE093E00E941B020A3010
:1028300011052CF460E38FE093E00E941B02B801C5
:102840008FE093E00E94C20C6DE871E08FE093E0AE
:102850000E94220221E030E0B701A6018FE093E060
:102860000E94F80C6FED8FE093E00E941B026BE872
:1028700071E08FE093E00E94220281E00E94180B39
:102880000E942E090A972CF460E38FE093E00E94E7
:102890001B020E942E09BC018FE093E00E94C20C33
:1028A0006EE28FE093E00E941B020E9426090A97C5
:1028B0002CF460E38FE093E00E941B020E94260943
:1028C000BC018FE093E00E94C20C6EE28FE093E0C7
:1028D0000E941B020E941C09BC018FE093E00E9431
:1028E000C20C67E871E08FE093E00E94220210932F
:1028F0000101009300012114310409F42BCD0E9441
:102900003E03882309F426CD0E94000023CD8CE0ED
:1029100090E08CCE4115510509F0ADCE4CE050E071
:10292000AACE0E94D31408F481E00895E89409C067
:1029300097FB3EF490958095709561957F4F8F4FF2
:102940009F4F9923A9F0F92F96E9BB279395F69508
:10295000879577956795B795F111F8CFFAF4BB0F86
:1029600011F460FF1BC06F5F7F4F8F4F9F4F16C0EA
:10297000882311F096E911C0772321F09EE8872F74
:10298000762F05C0662371F096E8862F70E060E030
:102990002AF09A95660F771F881FDAF7880F9695A9
:1029A000879597F90895990F0008550FAA0BE0E84D
:1029B000FEEF16161706E807F907C0F01216130601
:1029C000E407F50798F0621B730B840B950B39F441
:1029D0000A2661F0232B242B252B21F408950A26A7
:1029E00009F4A140A6958FEF811D811D08950E94D5
:1029F0000A150C947B150E946D1538F00E94741511
:102A000020F0952311F00C9464150C946A15112490
:102A10000C94AF150E948C1570F3959FC1F3950F20
:102A200050E0551F629FF001729FBB27F00DB11D52
:102A3000639FAA27F00DB11DAA1F649F6627B00DE2
:102A4000A11D661F829F2227B00DA11D621F739FCB
:102A5000B00DA11D621F839FA00D611D221F749FD9
:102A60003327A00D611D231F849F600D211D822F20
:102A7000762F6A2F11249F5750409AF0F1F0882347
:102A80004AF0EE0FFF1FBB1F661F771F881F915074
:102A90005040A9F79E3F510580F00C9464150C94AA
:102AA000AF155F3FE4F3983ED4F38695779567952D
:102AB000B795F795E7959F5FC1F7FE2B880F911D9E
:102AC0009695879597F9089597F99F6780E870E044
:102AD00060E008959FEF80EC089500240A94161694
:102AE000170618060906089500240A9412161306FC
:102AF000140605060895092E0394000C11F488238A
:102B000052F0BB0F40F4BF2B11F460FF04C06F5FA5
:102B10007F4F8F4F9F4F089557FD9058440F551F7B
:102B200059F05F3F71F04795880F97FB991F61F04F
:102B30009F3F79F087950895121613061406551FC6
:102B4000F2CF4695F1DF08C0161617061806991F32
:102B5000F1CF86957105610508940895E894BB2727
:102B600066277727CB0197F908950E94C015A59F86
:102B7000900DB49F900DA49F800D911D1124089578
:102B8000A29FB001B39FC001A39F700D811D1124AE
:102B9000911DB29F700D811D1124911D08955058F3
:102BA000BB27AA270E94E7150C947B150E946D1580
:102BB00038F00E94741520F039F49F3F19F426F480
:102BC0000C946A150EF4E095E7FB0C946415E92F5C
:102BD0000E948C1558F3BA1762077307840795078C
:102BE00020F079F4A6F50C94AE150EF4E0950B2EBA
:102BF000BA2FA02D0B01B90190010C01CA01A0014F
:102C00001124FF27591B99F0593F50F4503E68F1A9
:102C10001A16F040A22F232F342F4427585FF3CFEA
:102C2000469537952795A795F0405395C9F77EF4BB
:102C30001F16BA0B620B730B840BBAF09150A1F004
:102C4000FF0FBB1F661F771F881FC2F70EC0BA0F8A
:102C5000621F731F841F48F4879577956795B79512
:102C6000F7959E3F08F0B0CF9395880F08F099270D
:102C7000EE0F9795879508950E9450160C947B153A
:102C80000E94741558F00E946D1540F029F45F3FC2
:102C900029F00C94641551110C94AF150C946A151D
:102CA0000E948C1568F39923B1F3552391F3951B7A
:102CB000550BBB27AA2762177307840738F09F5F5D
:102CC0005F4F220F331F441FAA1FA9F335D00E2ECA
:102CD0003AF0E0E832D091505040E695001CCAF737
:102CE0002BD0FE2F29D0660F771F881FBB1F2617FA
:102CF00037074807AB07B0E809F0BB0B802DBF01D1
:102D0000FF2793585F4F3AF09E3F510578F00C949F
:102D100064150C94AF155F3FE4F3983ED4F38695A9
:102D200077956795B795F7959F5FC9F7880F911DC0
:102D30009695879597F90895E1E0660F771F881FAC
:102D4000BB1F621773078407BA0720F0621B730B5F
:102D5000840BBA0BEE1F88F7E09508950E94941536
:102D600088F09F5798F0B92F9927B751B0F0E1F04C
:102D7000660F771F881F991F1AF0BA95C9F714C0FC
:102D8000B13091F00E94AE15B1E008950C94AE15EB
:102D9000672F782F8827B85F39F0B93FCCF3869535
:102DA00077956795B395D9F73EF490958095709592
:102DB00061957F4F8F4F9F4F08950E94D31408F461
:102DC0008FEF08950E94D314880B990B0895991BD7
:102DD00079E004C0991F961708F0961B881F7A9512
:102DE000C9F78095089597FB072E16F4009407D035
:102DF00077FD09D00E94311707FC05D03EF490956D
:102E000081959F4F0895709561957F4F0895A1E238
:102E10001A2EAA1BBB1BFD010DC0AA1FBB1FEE1F54
:102E2000FF1FA217B307E407F50720F0A21BB30B9F
:102E3000E40BF50B661F771F881F991F1A9469F71B
:102E400060957095809590959B01AC01BD01CF0177
:102E50000895B7FF0C94B5150E94B515821B930B0E
:102E60000895AA1BBB1B51E107C0AA1FBB1FA617D1
:102E7000B70710F0A61BB70B881F991F5A95A9F723
:102E800080959095BC01CD010895EE0FFF1F059030
:0A2E9000F491E02D0994F894FFCFAF
:102E9A00FFFF00004000140054001F1C1F1E1F1ECD
:102EAA001F1F1E1F1E1F100F0E0D0C0B0A090807ED
:102EBA00060504030211100F0E0D0C0B0A09080770
:102ECA00060504030211000000007403460273029F
:102EDA00C103320382029602000000007106440612
:102EEA00B4061A063D062A061B06000000005B0B04
:102EFA004602B406E10300000000C20A610B9F0A01
:102F0A009C098709050C72094E090D0A006E616E4B
:0A2F1A0000696E66006F7666000025
:00000001FF
