:100000000C94DA030C9402040C9402040C94020481
:100010000C9402040C9402040C9402040C94392CE9
:100020000C9402040C9402040C9402040C94020438
:100030000C9402040C9402040C9402040C94020428
:100040000C94782A0C9402040C94E82A0C94C22A8A
:100050000C9402040C9402040C9402040C94020408
:100060000C941A2B0C9402044E414E494E4954599B
:10007000494E46CDCCCC3D0AD7233C17B7D1387773
:10008000CC2B329595E6241FB14F0A000020410089
:1000900000C84200401C4620BCBE4CCA1B0E5AAED3
:1000A000C59D746364696E6F70737578585B00509A
:1000B000726573737572653A204E2F4120202000BF
:1000C000206850612020202000503A00424D5032DC
:1000D0003830204E2F412020202020200043004295
:1000E0004D503A0000000100010001000001010034
:1000F0000100010001013A00424D503A0020430046
:10010000207C2054656D703A2000204600207C2021
:1001100054656D703A2000414C41524D3A46495267
:1001200045443A0054696D65207570646174656476
:1001300021002A204461746520616E642074696D19
:10014000652075706461746564207669612053650B
:100150007269616C202A0054696D65207570646154
:1001600074656421002A204461746520616E6420F6
:1001700074696D6520757064617465642076696169
:100180002053657269616C202A006C6364726F771A
:10019000313A20006C6364726F77323A20006C63EE
:1001A00064726F77323A20006C6364726F77313A11
:1001B00020002A204D42206D6F646520656E6465C5
:1001C00064202D20436C6F636B20726573746F72B3
:1001D0006564202A002062002062207C204D696E28
:1001E00052414D3A2000204D487A207C2052414D0A
:1001F0003A20002073207C204350553A200055704F
:1002000074696D653A2000414C41524D3A4449535E
:1002100041424C454400414C41524D3A454E4142C9
:100220004C45443A00414C41524D3A4649524544AE
:100230003A00414C41524D3A44495341424C4544A5
:1002400000100F0E0D0C0B0A090807060504030227
:1002500011202020202020202000416C61726D2080
:100260007365743A20202020202000414C41524DDB
:100270003A454E41424C45443A0054756E656420FF
:10028000746F3A2000464D20526164696F20556EAC
:100290006D7574656400464D20526164696F204D30
:1002A0007574656400454D505459003A003A005346
:1002B000544154494F4E3A005745425F5343414ED3
:1002C0005F444F4E4500204D487A205363616E6E67
:1002D000696E672000534541524348494E472E2ED0
:1002E0002E20202020002500204D487A207C2053FD
:1002F00069676E616C3A2000464D20667265713AFE
:1003000020005745425F5343414E5F53544152547E
:10031000002A20464D20526164696F204F464620D6
:100320002A002A20464D20526164696F204F4E20DA
:100330002A002A20464D20626C6F636B65643A2068
:1003400057656220436F6E74726F6C2061637469CD
:100350007665202A00323468202044442E4D4D2EEC
:10036000595959592000494E54204D4F4445202099
:10037000202020202020002A20494E54204D4F4488
:1003800045202A0031326820414D2F504D204D4DDF
:100390002F444420005553204D4F44452020202019
:1003A0002020202020002A205553204D4F44452056
:1003B0002A00204D487A202020202020005345414B
:1003C000524348494E472E2E2E20202020004A4FCF
:1003D000593A595F444F574E004A4F593A595F5561
:1003E00050004A4F593A585F4C454654004A4F59BD
:1003F0003A585F5249474854004C43443A4D454EA1
:10040000555F455849547C004C43443A5745422077
:10041000434F4E54524F4C204F4E20207C4A6F7910
:10042000737469636B2D3E48544D4C202000574532
:100430004243544C3A4F4E004A6F79737469636B70
:100440002D3E48544D4C20200057454220434F4EEE
:1004500054524F4C204F4E2020002A2053656E737B
:100460006F7273202A002A20464D20526164696F02
:10047000204F4E20286D656E7529202A004A4F595D
:100480003A5357004C43443A57454220434F4E5449
:10049000524F4C204F4646207C20202020202020F8
:1004A0002020202020202020200057454243544C6B
:1004B0003A4F46460057454220434F4E54524F4C08
:1004C000204F464620004C43443A4D454E555F452B
:1004D0005849547C002A20464D20526164696F209F
:1004E0004F46462028535729202A004261636B203B
:1004F000746F20436C6F636B200057656220436FFD
:100500006E74726F6C2020200053656E736F72736F
:100510002020202020202000464D20526164696F59
:10052000202020202020004C43443A3D3D205345CC
:100530004C454354204D4F4445203D3D7C3E2000DA
:100540004261636B20746F20436C6F636B200057B4
:10055000656220436F6E74726F6C202020005365BB
:100560006E736F72732020202020202000464D20C3
:10057000526164696F202020202020003E20003D31
:100580003D2053454C454354204D4F4445203D3D6F
:100590000025004D487A207C205369676E616C3AD3
:1005A0002000464D20667265713A2000252020000B
:1005B00020004D487A205369673A002000464D20BC
:1005C000524144494F00464D204D5554452000208E
:1005D0000020202020202000462000200043202052
:1005E000202000200020414D20202020202000201D
:1005F000504D2020202020200041524455494E4F8C
:100600005F49535F524541445900414C41524D3A74
:1006100044495341424C454400414C41524D3A45B6
:100620004E41424C45443A0041524455494E4F5F79
:100630004D4F44453A494E540041524455494E4F5E
:100640005F4D4F44453A555300100F0E0D0C0B0AE9
:100650000908070605040302115254432053796E1A
:1006600063204F4B212043757272656E743A2000EF
:100670005254432053796E63204572726F72210089
:100680005254432053796E63204572726F72210079
:10069000436F6D6D616E64733A20494E544D4F4403
:1006A00045202F2055534D4F4445004D6F64653A0A
:1006B00020494E5420283234682C2044442E4D4D7D
:1006C0002E595959592C204329004D6F64653A2001
:1006D0005553202831326820414D2F504D2C204D4C
:1006E0004D2F44442F595959592C20462900436F06
:1006F00070797269676874204D6172656B2042750C
:100700006A6B6F202D204C6963656E73656420757C
:100710006E646572204D4954204C6963656E736543
:100720000050726F6A6563743A20524742204269F2
:100730006E61727920436C6F636B2076312E322E9E
:100740003800286329204D6172656B2042756A6B01
:100750006F0052474220436C6F636B2076312E321C
:100760000000000008000201000003040700000070
:10077000000000000000000000250028002B000001
:10078000000000240027002A0004040404040404D8
:100790000402020202020203030303030301020430
:1007A00008102040800102040810200102040810F3
:1007B00020005E2C11241FBECFEFD8E0DEBFCDBFDE
:1007C00012E0A0E0B1E0E4EFF5E702C005900D9281
:1007D000AC3EB107D9F725E0ACEEB2E001C01D9206
:1007E000AA35B207E1F713E0CAEDD3E004C02197C0
:1007F000FE010E94CF34C93DD107C9F70E94BE2C2B
:100800000C94F83A0C94000091E090933A04809391
:10081000390410923804109237040895282F30E0DC
:1008200094E0359527959A95E1F7922F990F990FB6
:10083000291B220F820F08950895089590E0FC016E
:10084000E356F84F24918757984FFC0184918823F1
:1008500099F090E0880F991FFC01E158F84FA5919D
:10086000B491FC01EB58F84F859194918FB7F894AF
:10087000EC91E22BEC938FBF089580913504909119
:100880003604891B990B0895CF93609324057093C8
:1008900025058093260590932705C0912D0520E01E
:1008A00034E244E759E40E94FB31209128052223D9
:1008B00011F1C061C0932D0520E03AEB4BE558E4FF
:1008C0000E946D3320E030E040E850E40E94FB31AC
:1008D00020E030E040E058E30E94FB310E945234B7
:1008E00080912B05807C7F73782B70932B05609310
:1008F0002C05CF910895CF7EC0932D0520E03AEBD3
:100900004BE558E40E946C33DDCF90E0FC01EF59D9
:10091000F84F2491FC01E356F84F3491FC01E7575E
:10092000F84FE491EE23C9F0222339F0233001F18E
:10093000A8F4213019F1223029F1F0E0EE0FFF1F69
:10094000EB58F84FA591B4918FB7F894EC916111E1
:1009500026C030953E233C938FBF08952730A9F0E1
:100960002830C9F0243049F7809180008F7D03C082
:10097000809180008F7780938000DFCF84B58F7760
:1009800084BDDBCF84B58F7DFBCF8091B0008F77A6
:100990008093B000D2CF8091B0008F7DF9CF3E2BF5
:1009A000DACF8E50806480937C0080917A008064DE
:1009B00080937A0080917A0086FDFCCF8091780048
:1009C0009091790008953FB7F89480912D0490910B
:1009D0002E04A0912F04B091300426B5A89B05C029
:1009E0002F3F19F00196A11DB11D3FBFBA2FA92FAE
:1009F000982F8827BC01CD01620F711D811D911DAB
:100A000042E0660F771F881F991F4A95D1F7089516
:100A10008F929F92AF92BF92CF92DF92EF92FF920E
:100A20006B017C010E94E3044B015C01C114D10401
:100A3000E104F104B9F00E94E304681979098A0914
:100A40009B09683E73408105910580F321E0C21A3D
:100A5000D108E108F10888EE880E83E0981EA11CF9
:100A6000B11CE4CFFF90EF90DF90CF90BF90AF909C
:100A70009F908F900895DC01ED91FC910190F081A1
:100A8000E02D0994EF92FF920F931F93CF93DF9382
:100A90008C017B01D0E0C0E0F701EC0FFD1F6491F9
:100AA000662361F0D801ED91FC910190F081E02D79
:100AB000C8010995892B11F02196EECFCE01DF9167
:100AC000CF911F910F91FF90EF900895AF92BF9239
:100AD000CF92DF92EF92FF920F931F93CF93DF930A
:100AE0006C017B018B01040F151FEB015E01AE1839
:100AF000BF08C017D10759F06991D601ED91FC915B
:100B00000190F081E02DC6010995892B79F7C50187
:100B1000DF91CF911F910F91FF90EF90DF90CF90D9
:100B2000BF90AF900895FC01538D448D252F30E088
:100B3000842F90E0821B930B541710F0CF960895EA
:100B400001970895FC01918D828D981761F0A28D17
:100B5000AE0FBF2FB11D5D968C91928D9F5F9F73DD
:100B6000928F90E008958FEF9FEF0895FC01918D93
:100B7000828D981731F0828DE80FF11D858D90E000
:100B800008958FEF9FEF0895FC01918D228D892F9D
:100B900090E0805C9F4F821B91098F739927089585
:100BA00087E894E00E94C40521E0892B09F420E045
:100BB000822F089580E090E0892B29F00E94D005D3
:100BC00081110C9400000895FC01A48DA80FB92F89
:100BD000B11DA35ABF4F2C91848D90E001968F7365
:100BE0009927848FA689B7892C93A089B1898C9184
:100BF000837080648C93938D848D981306C00288D3
:100C0000F389E02D80818F7D80830895EF92FF929C
:100C10000F931F93CF93DF93EC0181E0888F9B8D1F
:100C20008C8D98131AC0E889F989808185FF15C0D9
:100C30009FB7F894EE89FF896083E889F9898081FC
:100C40008370806480839FBF81E090E0DF91CF91CB
:100C50001F910F91FF90EF900895F62E0B8D10E0ED
:100C60000F5F1F4F0F731127E02E8C8D8E110CC05C
:100C70000FB607FCFACFE889F989808185FFF5CFA7
:100C8000CE010E94E405F1CFEB8DEC0FFD2FF11D9D
:100C9000E35AFF4FF0829FB7F8940B8FEA89FB89E4
:100CA00080818062CFCFCF93DF93EC01888D882342
:100CB000B9F0AA89BB89E889F9898C9185FD03C0BF
:100CC000808186FD0DC00FB607FCF7CF8C9185FFA4
:100CD000F2CF808185FFEDCFCE010E94E405E9CF00
:100CE000DF91CF91089508952091EC03260F3327CB
:100CF000331F21323105ECF420918104FC0190E096
:100D000080E0243069F082E00895A091EC03219105
:100D1000AC0144535C4FA40FB52FB11D2C93019629
:100D2000861798F38091EC03680F6093EC0380E0E2
:100D3000089581E008951092810481E08093600419
:100D400010925B0461E082E10E94850461E083E12E
:100D50000E948504E9EBF0E080818E7F80838081B2
:100D60008D7F808388E48093B80085E48093BC0005
:100D7000089510923604109235041092380410929F
:100D800037040E949B068CE194E090933404809396
:100D900033048DE194E090933204809331040895FC
:100DA000CF93DF9391E09093CB038823B9F0C09168
:100DB000B800D091BA008091BC008A7B8093BC00BF
:100DC00060E082E10E94850460E083E10E94850486
:100DD0000E949B06D093BA00C093B800DF91CF91D8
:100DE0000895CF92DF92EF92FF920F931F93CF93CC
:100DF000DF93D82FC62F613208F098C00E94E30419
:100E00006B017C018091810481116BC081E0809332
:100E10008104809360049FEF90935F0410925E04BE
:100E20009C0F90935D0480935C0480915C04DD0FC3
:100E3000D82BD0935C0480915B04813009F078C09A
:100E400010925B040E94E3046B017C0180915C04BE
:100E50008093BB008091830490918404A0918504C9
:100E6000B0918604892B8A2B8B2BA1F00E94E3047E
:100E700000918304109184042091850430918604AC
:100E80006C197D098E099F0906171707280739076E
:100E900008F448C08091BC0083FDD8CF85EC8093D6
:100EA000BC000E94E3046B017C01809181048130CD
:100EB00009F440C080915E048C1710F4C0915E0468
:100EC000EBE3F4E0A1E6B4E080E08C1355C08C2F96
:100ED000DF91CF911F910F91FF90EF90DF90CF9016
:100EE00008958091830490918404A0918504B09129
:100EF0008604892B8A2B8B2B09F484CF0E94E30470
:100F0000009183041091840420918504309186041B
:100F10006C197D098E099F090617170728073907DD
:100F200008F070CF809182040E94D006C0E0CFCF3D
:100F300085EEB5CF8091830490918404A0918504BF
:100F4000B0918604892B8A2B8B2B09F4AECF0E949B
:100F5000E30400918304109184042091850430916E
:100F600086046C197D098E099F0906171707280743
:100F7000390708F09ACFD6CF91919D938F5FA5CF77
:100F80000895E091360480913504E81730F4F0E0DC
:100F9000EF59FB4F808190E008958FEF9FEF089508
:100FA00090913604809135042FEF3FEF981748F465
:100FB000E92FF0E0EF59FB4F208130E09F5F9093E5
:100FC0003604C9010895CF92DF92EF92FF920F93FA
:100FD0001F93CF93DF937C01CB018A0120913A04C8
:100FE000222389F0EB016B01C40ED51ECC15DD0563
:100FF00069F06991D701ED91FC910190F081E02DAC
:10100000C7010995F3CF642F0E947406C801DF91D0
:10101000CF911F910F91FF90EF90DF90CF900895A7
:10102000CF93DF931F92CDB7DEB7698320913A0447
:101030002223F9F020913704203258F021E030E0EB
:10104000FC013383228390E080E00F90DF91CF9109
:10105000089580913804E82FF0E0E555FC4F998120
:1010600090838F5F809338048093370481E090E011
:10107000ECCF61E0CE0101960E947406F7CF682F95
:1010800083E495E00C941008CF92DF92EF92FF92E8
:101090000F931F93CF93DF93D091370481E0D13228
:1010A00008F09CC0C09139040E94E3046B017C01EC
:1010B0008091810481116CC082E08093810481E081
:1010C000809360048FEF80935F0410925E04D0934E
:1010D0005D04ABEAB3E0EBE3F4E080E0D8138DC04D
:1010E00010925C0480915C04CC0FC82BC0935C040C
:1010F00080915B04813009F084C010925B040E94EF
:10110000E3046B017C0180915C048093BB008091BF
:10111000830490918404A0918504B0918604892B66
:101120008A2B8B2BA1F00E94E30400918304109181
:10113000840420918504309186046C197D098E0900
:101140009F09061717072807390708F442C080913E
:10115000BC0083FDD8CF85EC8093BC000E94E304E3
:101160006B017C0180918104823009F44CC0809134
:101170005F048F3F09F469C080915F04803209F4F5
:1011800066C080915F04803309F463C084E026C0A8
:101190008091830490918404A0918504B091860489
:1011A000892B8A2B8B2B09F483CF0E94E3040091B7
:1011B00083041091840420918504309186046C1975
:1011C0007D098E099F09061717072807390708F0B8
:1011D0006FCF809182040E94D00685E0109238047F
:1011E0001092370410923A04DF91CF911F910F9122
:1011F000FF90EF90DF90CF9008959D9191938F5F36
:101200006DCF85EEA9CF8091830490918404A09145
:101210008504B0918604892B8A2B8B2B09F4A2CFED
:101220000E94E304009183041091840420918504BA
:10123000309186046C197D098E099F0906171707DE
:101240002807390708F08ECFC4CF80E0C7CF82E0EF
:10125000C5CF83E0C3CFCF93DF9380E60E94040421
:10126000CBE2D5E0699183E495E00E94100885E027
:10127000C133D807B9F783E495E00E94440864E6D7
:1012800070E080E090E0DF91CF910C9408050F931F
:101290001F93CF938C01C62FFC0184810E9404040C
:1012A000F80184858C2B90E00E943F0883E495E050
:1012B000CF911F910F910C94440890E080E0089525
:1012C0006093130470931404809315049093160490
:1012D000645D7E4F8F4F9F4F60930F047093100497
:1012E000809311049093120482E090E090931A048A
:1012F000809319042FB7F8948091290490912A04BF
:10130000A0912B04B0912C042FBF8093A70390933E
:10131000A803A093A903B093AA0308950F931F9362
:101320008FB7F8940091290410912A0420912B047E
:1013300030912C048FBF4091A7035091A803609176
:10134000A9037091AA03041B150B260B370B809180
:10135000130490911404A0911504B0911604083E52
:10136000134021053105C0F00196A11DB11D8093E8
:10137000130490931404A0931504B09316044851D9
:101380005C4F6F4F7F4F4093A7035093A803609328
:10139000A9037093AA03C4CF40910F045091100485
:1013A000609111047091120484179507A607B7077E
:1013B00070F0E0911704F0911804309741F009950E
:1013C000611571058105910569F00E9460096091C0
:1013D00013047091140480911504909116041F91C8
:1013E0000F9108958091130490911404A091150415
:1013F000B0911604845D9E4FAF4FBF4F80930F0492
:1014000090931004A0931104B093120481E090E033
:101410002091190430911A04232B11F490E080E0FC
:1014200090931A0480931904D2CF4F925F926F92D7
:101430007F928F929F92AF92BF92CF92DF92EF9264
:10144000FF920F931F93CF93DF93FC011681A12F7F
:10145000B0E020E833E341EE51E00E94F1324B016D
:101460005C01C2EBD7E09D0104E610E080E9E82EC4
:10147000FF24F394CE01825B9740821793079CF17F
:101480004580512C2E54384FC90164E670E00E940B
:10149000A7347C01C90160E971E00E94A7346C01A6
:1014A0000AE311E0C1E0D0E0390183E0682277244B
:1014B000C415D5050CF040C0C230D10571F56114DA
:1014C000710459F5E114F10419F4C114D10429F59A
:1014D000B0E88B0EBBE39B1EB6E2AB1EB11C21969F
:1014E0000F5F1F4FE5CFCE0183709927892B99F4A9
:1014F000CE01B8010E94A734892B31F4CE01B70187
:101500000E94A734892B39F4A0E88A0EA1E59A1E1F
:10151000A1E0AA1EB11C2196ADCFD8018C91A82FB5
:10152000B0E020E831E541E050E00E94F132860E63
:10153000971EA81EB91ED3CF228130E0A0E1BEE0E5
:101540000E945D336B017C01218130E0ACE3B0E0AF
:101550000E945D33C60ED71EE81EF91E8081C80E9C
:10156000D11CE11CF11CA481A150BB0B20E831E58A
:1015700041E050E00E94FC326C0D7D1D8E1D9F1DD0
:10158000680D791D8A1D9B1DDF91CF911F910F91D1
:10159000FF90EF90DF90CF90BF90AF909F908F9093
:1015A0007F906F905F904F9008956F927F928F928F
:1015B0009F92AF92BF92CF92DF92EF92FF920F93E2
:1015C0001F93CF93DF936B017C01EA018CE3882E9C
:1015D000912CA12CB12CC701A50194010E943B3391
:1015E0006883CA01B901A50194010E943B33698354
:1015F000C701B60120E13EE040E050E00E943B33ED
:10160000CA01B90128E130E040E050E00E943B33DC
:101610006A83C701B60120E831E541E050E00E944D
:101620003B3369017A01CA01B9016C5F7F4F8F4F6B
:101630009F4F27E030E040E050E00E943B336F5F77
:101640006B83812C912C540140E094E6692E712C1F
:1016500000E911E0242F30E02E54384FF901E370F7
:10166000FF273097F9F4C901B3010E94A734892BF1
:1016700031F4C901B8010E94A734892B99F48EE690
:1016800091E0A0E0B0E0880E991EAA1EBB1ED50115
:10169000C401AA27BB27C816D906EA06FB0638F0FC
:1016A0004F5FD8CF8DE691E0A0E0B0E0ECCF4E8365
:1016B000C90164E670E00E94A7348C01C90160E9A9
:1016C00071E00E94A734309729F401151105E1F467
:1016D0000097D1F04DE651E060E070E0841A950A81
:1016E000A60AB70AC818D908EA08FB08AAE3B1E0B5
:1016F00020E0213071F4309791F50115110511F4B6
:10170000009769F54DE106C04EE651E060E070E0FB
:10171000E5CF4C9150E070E060E031E0320FC4164C
:10172000D506E606F70640F0C41AD50AE60AF70A17
:101730001196232F3C30E9F62F5F2D83C394CC8282
:10174000DF91CF911F910F91FF90EF90DF90CF909D
:10175000BF90AF909F908F907F906F9008954CE1D5
:10176000D9CFCF92DF92EF92FF92C0909C03D0909E
:101770009D03E0909E03F0909F03C616D706E806EF
:10178000F90671F06B017C0140EA53E00E94D50A32
:10179000C0929C03D0929D03E0929E03F0929F031F
:1017A000FF90EF90DF90CF9008950E948E090E94E5
:1017B000B10B8091A60390E08E54984F08950E943B
:1017C0008E090E94B10B8091A50390E008950E94BC
:1017D0008E090E94B10B8091A40390E008950E94AD
:1017E0008E090E94B10B8091A00390E008950E94A1
:1017F0008E090E94B10B8091A10390E008950E9490
:101800008E090E94B10B8091A20390E008951F936E
:10181000CF93DF93EC01E881F9810484F585E02D15
:1018200062E10995182FE881F9810484F585E02D9E
:1018300061E1CE010995212F382F37FF02C0215CCD
:101840003F4FC90126E0959587952A95E1F7DF91ED
:10185000CF911F910895CF93DF931F92CDB7DEB73D
:10186000DC01ED91FC910284F385E02D21E0AE01D5
:101870004F5F5F4F099589810F90DF91CF91089558
:10188000CF93DF931F92CDB7DEB74983DC01ED9193
:10189000FC910680F781E02D21E0AE014F5F5F4FA4
:1018A00009950F90DF91CF9108956EE08FE495E058
:1018B0000E942B0C482F4E7F6EE08FE495E00C9435
:1018C000400C6FE08FE495E00E942B0C80FF09C074
:1018D000482F4E7F6FE08FE495E00E94400C81E03E
:1018E000089580E00895CF93DF93382F562F2AE094
:1018F000862F622F0E949B34D82FDD0FD80FDD0F6B
:10190000D50F842F0E949B34C82FCC0FC80FCC0F4B
:10191000C40F832F0E949B34482F440F480F440F5D
:10192000430F67E08FE495E00E94400C4D2F68E084
:101930008FE495E00E94400C4C2F69E08FE495E025
:101940000E94400C40E86AE08FE495E0DF91CF917F
:101950000C94400CDF92EF92FF920F931F93CF9362
:10196000DF937C01C62FD42E152F022F88E60E940C
:101970000404D70112968D919C91DC01ED91FC91AC
:101980000190F081E02D6C2F0995CD2DD12F0C0FFA
:101990001D2F111DF70182819381C017D10749F0D6
:1019A0006991DC01ED91FC910190F081E02D0995A8
:1019B000F1CFDF91CF911F910F91FF90EF90DF90CA
:1019C0000C944408FF920F931F93CF93DF93EC0185
:1019D0008B0188E60E9404048A819B81DC01ED91E1
:1019E000FC910190F081E02D60E00995AA81BB8116
:1019F000F80120818AE0F82E822F6F2D0E949B34FF
:101A0000682F660F680F660F620FED91FC911197BA
:101A10000190F081E02DCD010995AA81BB81F801EB
:101A20002181822F6F2D0E949B34682F660F680FD3
:101A3000660F620FED91FC9111970190F081E02DFE
:101A4000CD010995AA81BB81F8012281822F6F2DDA
:101A50000E949B34682F660F680F660F620FED912E
:101A6000FC9111970190F081E02DCD0109958A81BB
:101A70009B81DC01ED91FC910190F081E02DD8017A
:101A800013966C910995AA81BB81F8012481822F5C
:101A90006F2D0E949B34682F660F680F660F620FD0
:101AA000ED91FC9111970190F081E02DCD01099508
:101AB000AA81BB81F8012581822F6F2D0E949B3462
:101AC000682F660F680F660F620FED91FC911197FA
:101AD0000190F081E02DCD010995AA81BB81F8012B
:101AE00026812E51822F6F2D0E949B34682F660F06
:101AF000680F660F620FED91FC9111970190F081D4
:101B0000E02DCD0109958A819B810E944408182F00
:101B1000E881F9810484F585E02D6FE0CE01099517
:101B2000482F4F77E881F9810084F185E02D6FE03F
:101B3000CE010995812FDF91CF911F910F91FF90D9
:101B400008950F931F93CF93DF9300D000D000D060
:101B50001F92CDB7DEB78C01CB01BA01AE014F5F4A
:101B60005F4F0E94D50ABE016F5F7F4FC8010E9480
:101B7000E20C27960FB6F894DEBF0FBECDBFDF9103
:101B8000CF911F910F9108950C94B906FF920F9376
:101B90001F93CF93DF93182F062FF42EC82FD0E07A
:101BA000FE01E75BF94F8491622F0E948504FE01DC
:101BB000E15BF94F84916F2D0E948504123060F033
:101BC000FE01ED5AF94F8491602FDF91CF911F9163
:101BD0000F91FF900C948504DF91CF911F910F918D
:101BE000FF900895CF93C0E020E040E060E08C2FAC
:101BF0000E94C60DCF5FC630B9F7CF910895DF922E
:101C0000EF92FF920F931F93CF93DF937C01D62E19
:101C10008A01D0E0C0E0F701EC0FFD1F8491B8010C
:101C20000C2E02C0759567950A94E2F761700E94C8
:101C300085042196CD1578F3DF91CF911F910F91F7
:101C4000FF90EF90DF9008950E94FF0B6CE070E032
:101C50000E94A734009711F48CE090E0AC0164E09E
:101C600085E596E00E94FF0D0E94F70BAC0166E04F
:101C70008FE496E00E94FF0D0E94EF0BAC0166E03E
:101C800089E496E00C94FF0D2FB7F8946091EC0274
:101C90007091ED028091EE029091EF022FBF0895B6
:101CA000CF93C82F8093310188E30E9404046C2FE6
:101CB00083E495E00E94100883E495E0CF910C94B2
:101CC0004408CF93DF93EC018091310181600E9441
:101CD000500EBE0190E080E00E9408058091310125
:101CE0008E7FDF91CF910C94500E8CE291E00C949A
:101CF000610E8CE390E00E94610E60E570E080E090
:101D000090E00E9408058CE390E00C94610E88EC52
:101D100090E00E94610E6CE370E080E090E00E9431
:101D200008058CE390E00E94610E6CE370E080E0B7
:101D300090E00E9408058CE390E00C94610E8CE327
:101D400090E00E94610E6CE370E080E090E00E9401
:101D500008058CE390E00E94610E6CE370E080E087
:101D600090E00E94080588EC90E00C94610E862FAC
:101D7000413208F040E2642F0E94F10610923604CE
:101D8000809335040895CF92DF92EF92FF920F93E4
:101D90001F93CF93DF938C01C62FC42EF52EE22E16
:101DA00088E60E940404D80112968D919C91DC0172
:101DB000ED91FC910190F081E02D6C2F0995F801D7
:101DC000828193810E944408D82E81111CC04E2D1F
:101DD00068E6D80112968D919C910E94B70ECC2D89
:101DE000DF2DEC0EFD2EF11CCE15DF0561F0F801A4
:101DF00082819381DC01ED91FC910284F385E02DD9
:101E000009958993F1CF8D2DDF91CF911F910F917E
:101E1000FF90EF90DF90CF9008950F931F93CF9393
:101E2000DF9300D000D000D01F92CDB7DEB78C0179
:101E300088E60E940404D80112968D919C91DC01E1
:101E4000ED91FC910190F081E02D60E00995F801A1
:101E5000828193810E944408882389F0D8011496D6
:101E60008C9360E070E0CB0127960FB6F894DEBF4C
:101E70000FBECDBFDF91CF911F910F91089547E025
:101E800068E6F801828193810E94B70ED80112960C
:101E90008D919C91DC01ED91FC910284F385E02D04
:101EA00009958F770E940E048983F80182819381BE
:101EB000DC01ED91FC910284F385E02D09950E94EF
:101EC0000E048A83F80182819381DC01ED91FC91FB
:101ED0000284F385E02D09958F7B0E940E048B838D
:101EE000F80182819381DC01ED91FC910284F385FC
:101EF000E02D09958C83F80182819381DC01ED91BD
:101F0000FC910284F385E02D09950E940E048D83D7
:101F1000F80182819381DC01ED91FC910284F385CB
:101F2000E02D09958F770E940E048E83F80182813F
:101F30009381DC01ED91FC910284F385E02D0995FC
:101F40000E940E04825E8F83CE0101960E94150AC4
:101F50008BCF8FE495E00C940D0FCF93DF9365E06A
:101F600080E60E94F106109236048093350488239F
:101F700059F0C0E3D5E083E495E00E94D00789934F
:101F800085E0C533D807B9F764E670E080E090E0FB
:101F9000DF91CF910C9408050E942B090E94AD0F90
:101FA0008091330582958F700895CF92DF92EF92E2
:101FB000FF92CF936B017C0180912D05806180930E
:101FC0002D0526E636E646EE5EE3C7010E946D3338
:101FD0000E9444040E942B090E94CC0FC82F8091BC
:101FE0002D058F7E80932D0526E636E646EE5EE3D0
:101FF000C701B6010E946C330E9444040E942B0961
:102000000E94CC0F91E0C81708F090E0909328054B
:10201000C701B6010E944404CF91FF90EF90DF907A
:10202000CF900C942B090E94AD0F609130056F7317
:1020300090912B05907C962B90932B0590913105D8
:1020400090932C0570E0762F6627690F711D209103
:10205000280590E080E02223D9F00E949A3120E008
:1020600030E040E85EE30E94FB3120E030E040E0F9
:1020700057E40E94FB3120E03AEB4BE558E40E9424
:102080006C3320E034E244E759E40E94D9330895E8
:102090000E949A3120E030E040E85EE30E94FB318C
:1020A00020E030E040E057E40E94FB3120E03AEBD2
:1020B0004BE558E40E946D33E4CFCF9380912D051A
:1020C00087FF32C00E9413102DEC3CEC4CEC5DE31A
:1020D0000E946D330E94D50F80912B058064809300
:1020E0002B050E942B090E94AD0F8091300587FFC0
:1020F000FACF0E94AD0FC0913005C6FBCC27C0F9C6
:102100000E94AD0F80912B05909130059F738078D0
:102110002091310520932C05892B80932B050E945B
:102120002B098C2FCF9108950E9413102DEC3CECBD
:102130004CEC5DE30E946C33CDCF0F931F93CF9394
:102140008C01C62F0E9447096C2F6460C8010E9451
:1021500047096C2F6B7FC8010E94470983EC90E010
:102160000197F1F7CF911F910F9108950F931F934E
:10217000CF93DF938C01D62FC42F607F642B0E94F6
:102180009D1080E1D89FB00111246C2BC801DF9114
:10219000CF911F910F910C949D10CF93DF93CDB7EA
:1021A000DEB728970FB6F894DEBF0FBECDBF98E01C
:1021B000E2E3F1E0DE01119601900D929A95E1F7CC
:1021C00090913E05981708F48FEF90E0880F991FC3
:1021D00021E030E02C0F3D1F820F931FFC01608136
:1021E000606840E086E395E028960FB6F894DEBF7D
:1021F0000FBECDBFDF91CF910C94B61040E061E0EF
:1022000086E395E00E94B6108BE39FE10197F1F71A
:1022100080913F05882319F080E00C94CD1008953B
:1022200041E00E94B61081E090E008950F931F9363
:10223000CF93DF938B0198E0899FB00111246064F4
:1022400040E086E395E00E94B610E801085F1F4F6A
:10225000699186E395E00E941011C017D107C1F77C
:10226000DF91CF911F910F910895FB010190002004
:10227000E9F73197AF01461B570BDC01ED91FC915B
:102280000280F381E02D09946AE871E087E894E028
:102290000C943511CF93DF93BC0187E894E00E9442
:1022A0004205EC010E9444118C0F9D1FDF91CF91DC
:1022B000089580E00E94CD106FE775E086E395E019
:1022C0000E94420581E00E94CD106CE775E086E334
:1022D00095E00E944205809154036DE675E08823E5
:1022E00051F06EE575E0813031F06FE475E08230D9
:1022F00011F060E475E086E395E00E94420567E234
:1023000075E087E894E00E944205809154038111B2
:1023100004C088E195E00C944A11813019F489E0F9
:1023200095E0F9CF823019F48AEF94E0F4CF8BEE88
:1023300094E0F1CF8F929F92AF92BF92EF92FF9273
:102340000F931F93CF93DF93CDB7DEB7A1970FB64F
:10235000F894DEBF0FBECDBF7C01FA01CB0119A2FC
:10236000223008F42AE08E010F5D1F4F822E912C3F
:10237000B12CA12CBF01A50194010E943B33F901AE
:10238000CA016A300CF5605DD8016E938D01232B74
:10239000242B252B79F790E080E0109721F0BD01E8
:1023A000C7010E943511A1960FB6F894DEBF0FBE8B
:1023B000CDBFDF91CF911F910F91FF90EF90BF9014
:1023C000AF909F908F900895695CDECFCF92DF929F
:1023D000EF92FF920F931F93CF93DF936B01770FD1
:1023E000EE08FF08F7FE1BC0EC016DE20E943B0502
:1023F0008C0144275527BA014C195D096E097F09E4
:102400002AE0CE010E949A11800F911FDF91CF9197
:102410001F910F91FF90EF90DF90CF9008952AE0E9
:10242000B701A601DF91CF911F910F91FF90EF901F
:10243000DF90CF900C949A11CF93DF93BC0187E883
:1024400094E00E943511EC010E9444118C0F9D1FF5
:10245000DF91CF9108952F923F924F925F926F92AA
:102460007F928F929F92AF92BF92CF92DF92EF9224
:10247000FF921F93CF93DF93EC016A017B01722ED1
:10248000AB019601CB01B6010E9486346DE871E084
:10249000811126C046015701E894B7F82FEF3FEFAE
:1024A0004FE75FE7C501B4010E94863481110CC07B
:1024B0002FEF3FEF4FE75FE7C501B4010E94953171
:1024C00061E971E0181664F02FEF3FEF4FE75FE42A
:1024D000C701B6010E9481341816B4F465E971E0B1
:1024E000CE01DF91CF911F91FF90EF90DF90CF90C1
:1024F000BF90AF909F908F907F906F905F904F9024
:102500003F902F900C9435112FEF3FEF4FE75FEC8A
:10251000C701B6010E94953187FDE0CF20E030E091
:10252000A901C701B6010E949531312C212C87FFEA
:1025300009C06DE2CE010E943B051C01F7FAF09440
:10254000F7F8F09410E060E070E080E09FE371162F
:1025500041F020E030E040E251E40E94D9331F5FB7
:10256000F6CFA70196010E946D332B013C010E941A
:1025700052344B015C012AE0BC01A401CE010E944F
:102580009A117C01E20CF31C1123C1F1C501B401C5
:102590000E949A319B01AC01C301B2010E946C33CD
:1025A0004B015C016EE2CE010E943B05E80EF91E74
:1025B000115020F120E030E040E251E4C501B401C7
:1025C0000E94FB312B013C010E9452344B01B12C83
:1025D000A12C2AE0B501A401CE010E949A11E80EB7
:1025E000F91EC501B4010E949A319B01AC01C301DF
:1025F000B2010E946C334B015C01DACFC701DF915D
:10260000CF911F91FF90EF90DF90CF90BF90AF9050
:102610009F908F907F906F905F904F903F902F9002
:1026200008950C942B122F923F924F925F926F92CB
:102630007F928F929F92AF92BF92CF92DF92EF9252
:10264000FF920F931F93CF93DF930E94CC0FC82F5D
:10265000D0E09E01A4E6B0E00E945D332FE030E0C0
:1026600040E050E00E94D2324901190180E00E940E
:10267000CD10809155036DEB75E0882311F066EC69
:1026800075E086E395E00E9442056FEC75E086E315
:1026900095E00E9442059E01A6E0B0E00E945D33F5
:1026A0002FE030E040E050E00E94D2328901C12C9E
:1026B000D12C7601D0E0C0E085E0482E512C612C71
:1026C000712CC017D1070CF07DC0C701B601A30162
:1026D00092010E94D232CA01B9016F5F7F4F8F4FC2
:1026E0009F4F86E395E00E941011219684E0C80E6A
:1026F000D11CE11CF11C88E1C816D104E104F104ED
:1027000001F781E00E94CD10409105015091060132
:10271000609107017091080121E030E086E395E0C7
:102720000E94111362EB75E086E395E00E9442057A
:1027300084E62816310434F460EB75E086E395E016
:102740000E944205B40186E395E00E94E6116CEA1E
:1027500075E086E395E00E94420562EA75E087E84D
:1027600094E00E944205409105015091060160915C
:1027700007017091080121E030E087E894E00E94B1
:10278000111363E975E087E894E00E944205B40103
:1027900087E894E00E94E61181E995E0DF91CF910E
:1027A0001F910F91FF90EF90DF90CF90BF90AF906F
:1027B0009F908F907F906F905F904F903F902F9061
:1027C0000C944A116BEB75E086E395E00E9442059C
:1027D0008CCF4F925F926F927F928F929F92AF9227
:1027E000BF92CF92DF92EF92FF920F931F93CF93FE
:1027F000DF93CDB7DEB76A970FB6F894DEBF0FBE92
:10280000CDBF0E94FF0B8C016CE070E00E94A734EA
:102810007C01892B19F48CE0E82EF12C809127049F
:102820009E012F5F3F4F6901882309F455C00C308A
:1028300011050CF04EC00CE911E00E94EF0B582E70
:10284000492E0E94F70B782E692E0E94D50B982EE8
:10285000892E0E94E70BB82EA92E0E94DF0B1F9332
:102860000F934F925F926F927F92FF92EF928F92AF
:102870009F92AF92BF929F938F938FE991E09F9326
:102880008F931F928AE18F93DF92CF920E944235FD
:102890000FB6F894DEBF0FBECDBFB60187E894E057
:1028A0000E9435116A960FB6F894DEBF0FBECDBFF9
:1028B000DF91CF911F910F91FF90EF90DF90CF901C
:1028C000BF90AF909F908F907F906F905F904F9050
:1028D000089509E911E0B1CF0E94EF0B782E692E1F
:1028E0000E94F70B982E892E0E94D50BB82EA92E88
:1028F0000E94DF0BF82EE92E0E94E70B6F927F9269
:102900008F929F921F930F93AF92BF92EF92FF927D
:102910009F938F9382EC91E09F938F931F928AE114
:102920008F93DF92CF920E944235B2CF85ED809394
:10293000BC008091830490918404A0918504B0919F
:1029400086040796A11DB11D23E0B695A79597951E
:1029500087952A95D1F72091BC0024FD03C01092E1
:10296000810408954091830450918404609185040A
:1029700070918604452B462B472B69F30097A105E0
:10298000B10541F02AE22A95F1F700C00197A109AB
:10299000B109E1CF809182040C94D006CF92DF92EE
:1029A000EF92FF920F931F93CF93DF93EB017B0185
:1029B0002FE0E20EF11C8B016C01C61AD70AC6018A
:1029C000800F911F0E94BC32F80181938F01EE1598
:1029D000FF05A9F7CE01DF91CF911F910F91FF90D5
:1029E000EF90DF90CF9008950C94BC321F93CF935B
:1029F000DF93EC01162F0E94BC32181739F0612FBB
:102A0000CE01DF91CF911F910C94C432DF91CF9111
:102A10001F9108958F929F92AF92BF92CF92DF92B3
:102A2000EF92FF920F931F93CF93DF93CDB7DEB753
:102A300061970FB6F894DEBF0FBECDBF80919B03A8
:102A4000811186C180919A038D7F813009F480C104
:102A50000E94FF0B8C016CE070E00E94A7345C01C7
:102A6000892B19F49CE0A92EB12CC0901F04D090A2
:102A70002004E0902104F090220480E00E94CD1018
:102A800089E7882E83E0982E80917903882309F4C2
:102A9000B4C043E050E062EE71E0C4010E940B3527
:102AA000892BF9F40E94440E1F9220E12F9328EE07
:102AB00033E040E050E00E943B335F934F933F93FD
:102AC0002F9386EE91E09F938F931F9281E28F93D5
:102AD0009F928F920E9442350FB6F894DEBF0FBED0
:102AE000CDBF09E713E0F80101900020E9F78F015D
:102AF0000A571340013198F469E773E086E395E0E3
:102B00000E943511112700311105F4F463E972E0D8
:102B100086E395E00E9435110F5F1F4FF4CF60915F
:102B20007803062E000C770B67587C4F40E150E08D
:102B3000CE0101960E941935198ABE016F5F7F4F41
:102B400086E395E00E94351181E00E94CD108091CE
:102B50005703882309F40FC144E050E066EF71E0A9
:102B600087E593E00E940B35892B39F5209103010D
:102B7000309104018091540590915505009711F40E
:102B80008AE595E03F932F939E012F5F3F4F281BCF
:102B9000390B3F932F938BEF91E09F938F931F926D
:102BA00081E28F9387E593E09F938F930E94423554
:102BB0000FB6F894DEBF0FBECDBF07E513E0F801F6
:102BC00001900020E9F78F0108551340013108F00A
:102BD000AAC067E573E086E395E00E9435111127EE
:102BE000003111050CF0B4C063E972E086E395E0B2
:102BF0000E9435110F5F1F4FF3CF80912704882368
:102C000009F444C0FAE0AF16B1042CF460E386E3A3
:102C100095E00E943B05B50186E395E00E94E61130
:102C20006AE386E395E00E943B050E94F70B0A9752
:102C30002CF460E386E395E00E943B050E94F70BCD
:102C4000BC0186E395E00E94E6116AE386E395E025
:102C50000E943B050E94EF0B0A972CF460E386E389
:102C600095E00E943B050E94EF0BBC0186E395E0D6
:102C70000E94E61165EE75E00C30110514F06FEE60
:102C800075E086E395E00E9442055ECF0A301105AB
:102C90002CF460E386E395E00E943B05B80186E3EF
:102CA00095E00E94E6116AE386E395E00E943B0509
:102CB0000E94F70B0A972CF460E386E395E00E94EC
:102CC0003B050E94F70BBC0186E395E00E94E611EC
:102CD0006AE386E395E00E943B050E94EF0B0A97AA
:102CE0002CF460E386E395E00E943B050E94EF0B25
:102CF000BC0186E395E00E94E61163EE75E086E391
:102D000095E00E94420521E030E0B701A60186E38C
:102D100095E00E9411136FED86E395E00E943B055C
:102D20006DED75E0AECF60915603062E000C770B6B
:102D3000695A7C4F40E150E0CE0101960E9419355E
:102D4000198ABE016F5F7F4F86E395E00E943511BF
:102D500061960FB6F894DEBF0FBECDBFDF91CF9165
:102D60001F910F91FF90EF90DF90CF90BF90AF90A9
:102D70009F908F90089580912704882309F45DC067
:102D80000E94DF0B0A972CF460E386E395E00E9433
:102D90003B050E94DF0BBC0186E395E00E94E61133
:102DA0006FE286E395E00E943B050E94E70B0A97DD
:102DB0002CF460E386E395E00E943B050E94E70B5C
:102DC000BC0186E395E00E94E6116FE286E395E0A0
:102DD0000E943B050E94D50BBC0186E395E00E9452
:102DE000E6116BED75E086E395E00E94420520E078
:102DF00030E040E151E4C701B6010E94FB3120E020
:102E000030E040EA50E40E94D93320E030E040E076
:102E100052E40E946D330E944B3486E395E00E9499
:102E2000E6116FED86E395E00E943B0568ED75E0E5
:102E300086E395E00E9442058BCF0E94E70B0A973C
:102E40002CF460E386E395E00E943B050E94E70BCB
:102E5000BC0186E395E00E94E6116EE286E395E010
:102E60000E943B050E94DF0B0A972CF460E386E387
:102E700095E00E943B050E94DF0BBC0186E395E0D4
:102E80000E94E6116EE286E395E00E943B050E94F7
:102E9000D50BBC0186E395E00E94E61161ED75E07B
:102EA000C7CF2F923F924F925F926F927F928F92F5
:102EB0009F92AF92BF92CF92DF92EF92FF920F93C9
:102EC0001F93CF93DF93CDB7DEB7C45AD1090FB6A6
:102ED000F894DEBF0FBECDBF80919B0300ED17E0DD
:102EE000811102C002E310E00E94440EC090500322
:102EF000D0905103E0905203F0905303AB01BC011A
:102F00004C195D096E097F0930E020E004171507B0
:102F10002607370748F50E94440E609350037093CC
:102F20005103809352039093530341E068E383E499
:102F300095E00E94B70E813009F4BBC08091310149
:102F4000827090914F03992309F4BFC0882361F0E8
:102F500010924F0310924E0310924A0310924B03AB
:102F600010924C0310924D030E94440E00914103B5
:102F7000109142032091430330914403601B710B75
:102F8000820B930B673971058105910580F184E10E
:102F90000E94D1048C0185E10E94D1047C018091C2
:102FA0009A03813009F02CC2C701885C91098935E8
:102FB0009240E8F08091540331E2E31633E0F306E7
:102FC0000CF419C2833018F48F5F8093540384E1AA
:102FD00090E00E94610E0E9459110E94440E60937D
:102FE000410370934203809343039093440387E823
:102FF00094E00E94C405181619060CF010C48E0146
:103000000F5F1F4F6801F12CE12C2FB7F8948091CE
:10301000290490912A04A0912B04B0912C042FBF75
:1030200080938F0490939004A0939104B0939204A2
:1030300087E894E00E94A20597FD02C00C94572AED
:103040002FB7F8948091290490912A04A0912B0421
:10305000B0912C042FBF40918F0450919004609147
:10306000910470919204841B950BA60BB70B4091B1
:103070008B0450918C0460918D0470918E048417A0
:103080009507A607B707A0F2DE2CF801EE0DFF1D8D
:103090001082DD2011F40C946F2A82918D3019F08A
:1030A000803209F074C3DA94D801AD0DB11D1C92C1
:1030B000F0CF9091350480913604981709F43ECFF3
:1030C00083E495E00E94D0073BCFC0904A03D090A4
:1030D0004B03E0904C03F0904D03811174C0CD2858
:1030E000CE28CF2851F40E94440E60934A03709377
:1030F0004B0380934C0390934D030E94440E209108
:103100004E03211131CF00914A0310914B032091BE
:103110004C0330914D03601B710B820B930B693E86
:1031200073408105910508F41FCF81E080934E0321
:1031300080934F0380919A038230B1F410929A03E6
:1031400010929B0380912E05806480932E050E942F
:103150002B090E94870E0E94FE100E940A1585ED21
:1031600094E00E944A1100CF843059F410929A03DF
:103170000E94870E0E94FE100E940A1586EC94E0C1
:10318000F0CF833009F0F0CE10929A030E94FE1027
:1031900065EB74E086E395E00E9442050E94870E8D
:1031A0008AEA94E00E944A1184E894E00E944A115D
:1031B00060E273E080E090E00E9408050E94FE104B
:1031C0000E940A15D1CEC114D104E104F10409F41E
:1031D000CBCE0E94440E10924A0310924B031092E1
:1031E0004C0310924D0320914E03211137C06C19EE
:1031F0007D098E099F09683E73408105910570F530
:103200000E94440E00914603109147032091480309
:1032100030914903601B710B820B930B693C710564
:1032200081059105D8F00E94440E60934603709387
:10323000470380934803909349038EE190E00E94F6
:10324000610E80919A0381110CC081E080939A03F2
:10325000109254030E94FE100E94591110924E03C6
:1032600083CE833029F48DE794E00E944A11F6CF93
:103270008130A1F78091540381113BC082E080939B
:103280009A0381E080939B0380912E058F7B80932E
:103290002E050E942B0964E670E080E090E00E9419
:1032A00008051092350580912B058F7780932B05AB
:1032B0000E942B09C0900501D0900601E090070103
:1032C000F0900801C701B6010E94D50F66E970E0D1
:1032D00080E090E00E940805C701B6010E94D50F6A
:1032E0000E949F0E0E94FE100E94131386E694E037
:1032F000BCCF813009F052C084E080939A031092D1
:1033000045030E94790E0E94FE1080E00E94CD10BD
:10331000809111036CEC70E08823B1F06FED70E0E8
:1033200086E395E00E9442054091170350911803EF
:103330006091190370911A0321E030E086E395E073
:103340000E9411136DED70E086E395E00E94420546
:1033500081E00E94CD10809111036FEA70E0882314
:10336000B1F069EC70E086E395E00E94420540917F
:10337000130350911403609115037091160321E01B
:1033800030E086E395E00E94111360EC70E086E384
:1033900095E00E9442058AE594E067CF823001F50E
:1033A00083E080939A030E94FE1080E00E94CD107B
:1033B00069E474E086E395E00E94420581E00E94A2
:1033C000CD1068E374E086E395E00E9442050E9418
:1033D0009F0E8EE294E00E944A1188E094E045CF6F
:1033E00010929A030E94870E0E94FE100E940A15F6
:1033F00089EF93E03ACF882309F4E9CD8150E5CDF8
:10340000843009F4F4CD9701285C3109A801485CA7
:1034100051096A01833089F529353240C8F084E1C9
:1034200090E00E94610E8DEE93E061E2E61663E0AB
:10343000F60614F482EE93E00E944A110E94440EB4
:10344000609341037093420380934303909344033A
:1034500079E5C71672E0D70608F4C9CD84E190E09B
:103460000E94610E013213402CF089ED93E00E941E
:103470004A11B3CD8EEC93E0FACF2935324008F4EF
:103480005CC080914003A1E2EA16A3E0FA060CF4C6
:10349000F7C08F5F80934003809140038A3014F01F
:1034A000109240038091400387FF03C089E080931E
:1034B000400384E190E00E94610E80919B03882389
:1034C00091F180914003BFE08B02C0011124BE0145
:1034D0006F5F7F4F44960E94CE1489809A80AB80A4
:1034E000BC8020E030E04FEA52E4C501B4010E9404
:1034F000813487FD18C020E030E048ED52E4C5017A
:10350000B4010E949531181674F0809205019092D2
:103510000601A0920701B0920801C501B4010E9402
:10352000D50F0E9413130E94440E609341037093C1
:1035300042038093430390934403E9E5CE16E2E00F
:10354000DE0608F454CD84E190E00E94610E0E94F2
:10355000440ECF55DF4F688379838A839B83C15A9A
:10356000D0405DEC452E5CEC552E652C5DE3752E50
:10357000013213403CF44DEC442E4CEC542E652C9F
:103580004DEB742E84E10E94D104885C9109893549
:10359000924008F422CD0E94440E6B017C01CF556D
:1035A000DF4F88809980AA80BB80C15AD040C8185C
:1035B000D908EA08FB0810919B0300EDC01607E04C
:1035C000D006E104F10408F06AC0209105013091B1
:1035D00006014091070150910801C301B2010E9408
:1035E0006D334B015C0120E030E048ED52E40E9475
:1035F000813418160CF446C08092050190920601A1
:10360000A0920701B092080120E030E04FEA52E4B6
:103610006091050170910601809107019091080168
:103620000E94953187FF0CC080E090E0A8EDB2E4E5
:103630008093050190930601A0930701B0930801C0
:10364000112361F0609105017091060180910701DD
:10365000909108010E94D50F0E9413136AEF70E049
:1036600080E090E034EFC31631E0D306E104F104CA
:1036700020F064E670E080E090E00E94080582CFD0
:10368000815008CF20E030E04FEA52E4209305015A
:10369000309306014093070150930801B5CF1123E1
:1036A00009F466C080912D058F79806280932D0585
:1036B00084E10E94D104813243E094070CF44CC0B1
:1036C00080912D05806880932D0539E1F32E80E0EF
:1036D0000E94CD106DEB73E086E395E00E944205F9
:1036E0000E945D106CE370E080E090E00E940805AD
:1036F0000E9413104B015C0180920501909206011B
:10370000A0920701B09208010E94CC0F082F81E01F
:103710000E94CD1021E030E0B501A40186E395E0E0
:103720000E94111362EB73E086E395E00E9442056C
:10373000063058F50E94AD0F0091320507FB0027B7
:1037400000F984E10E94D10481599140873C9105A0
:1037500058F40023B9F00AC0883C91050CF0B5CFAD
:1037600080912D058F77AFCF002349F00E949F0EE7
:103770000E94FE100E9413130E94440E2ECCFA9455
:10378000F110A5CF0E94750EF3CF012FDACF5E01A5
:10379000F1E4AF0EB11C7801D7018D917D0190E06D
:1037A0000E94D534F50181935F018E2D801BD816C0
:1037B00098F769E072E0CE018F5B9F4F0E94FB3467
:1037C000892B09F0CAC581E08093270461E090E06D
:1037D00080E00E94F61486EA93E00E944A110E945B
:1037E000FE1080E00E94CD1065E973E086E395E06D
:1037F0000E94420581E00E94CD1064E873E086E3F8
:1038000095E00E9442050E94790E68EE73E080E028
:1038100090E00E9408050E940A150E940A15C090B7
:103820002F03D0903003E0903103F0903203C114A5
:10383000D104E104F104A9F00E94440EC616D70693
:10384000E806F90670F4109279031092570310926B
:103850002F031092300310923103109232030E9412
:103860000A1580911203882309F455C00E94440E62
:103870000091F0021091F1022091F2023091F302D6
:10388000601B710B820B930B6E31710581059105E5
:1038900008F441C00E94440E6093F0027093F1025C
:1038A0008093F2029093F30201E412E0F801849114
:1038B00060E00E9485040F5F1F4FF2E001351F0793
:1038C000A9F700910C0310E0F801EF5BFD4F849124
:1038D00061E00E948504F8013196EF70FF27E093C4
:1038E0000C0380910D0390910E03019690930E03AB
:1038F00080930D0320910F033091100382179307DB
:1039000050F0EF5BFD4F849160E00E9485041092BF
:1039100012030E94240E0E94440E0091290310916C
:103920002A0320912B0330912C03601B710B820B17
:10393000930B683C710581059105B8F10E94440E16
:103940006093290370932A0380932B0390932C0395
:1039500029E733E0D9010D900020E9F79D012A57AE
:10396000334087E593E0FC0101900020E9F7CF01A7
:1039700088559340682F213148F040912E0314164A
:1039800014F00C940029415040932E03613168F0EB
:1039900030E020912D03121614F00C941E292150B2
:1039A00020932D0331110C94372980913B038823F8
:1039B00009F44AC00E94440E2091390338E72111CE
:1039C00001C036E4C0903303D0903403E090350357
:1039D000F09036034B015C018C189D08AE08BF08BF
:1039E00075016401832E912CB12CA12CC814D9042B
:1039F000EA04FB0448F1609333037093340380932B
:103A000035039093360321110C944B290E94F20D3B
:103A100010913A0303E0109F90011124F901EC5139
:103A2000FF4F6491F901EB51FF4F44912A513F4FF1
:103A3000F9012491812F0E94C60D1F5F163010F0EE
:103A40000C94402910933A0380903C0390903D03DE
:103A5000A0903E03B0903F0381149104A104B104EF
:103A600009F47EC00E94440E6B017C018091240306
:103A700090912503A0912603B0912703209128035C
:103A8000B701A601481B590B6A0B7B0BDB01CA016E
:103A900021110C94772980329340A105B10580F063
:103AA0008091310181600E94500E81E08093280353
:103AB000C0922403D0922503E0922603F0922703BC
:103AC0000E94440E6B017C0180911F0390912003A2
:103AD000A0912103B091220320912303B701A601F5
:103AE000481B590B6A0B7B0BDB01CA0121110C949B
:103AF000872980329340A105B10580F08091310182
:103B000081600E94500E81E080932303C0921F03C6
:103B1000D0922003E0922103F09222030E94440EEF
:103B200086169706A806B906D8F410923C031092A0
:103B30003D0310923E0310923F0310923B031092FC
:103B40007903109257030E94F20D809131018E7F0C
:103B50000E94500E0E94870E0E94240E0E940A1599
:103B60000E94440E00911B0310911C0320911D0321
:103B700030911E03601B710B820B930B61317742F6
:103B80008105910508F4EBC20E94440E60931B036B
:103B900070931C0380931D0390931E038091110367
:103BA00081119EC086E70E94040460ED83E495E0E5
:103BB0000E94100883E495E00E94440841E066E713
:103BC00083E495E00E94B70E90913504809136040D
:103BD000981709F485C083E495E00E94D0078835E2
:103BE00019F0803609F07CC086E70E94040488E85A
:103BF00090E00E943F0883E495E00E94440848E179
:103C000066E783E495E00E94B70E8E010F5F1F4FB9
:103C10007E01B9E1EB0EF11C83E495E00E94D00730
:103C2000F80181938F01EE15FF05B1F789819A8123
:103C30009093F5028093F4028B819C819093F7021C
:103C40008093F6028D819E819093F9028093F80211
:103C50008F8198859093FB028093FA0289859A85DB
:103C60009093FD028093FC028B859C859093FF02CC
:103C70008093FE028D859E859093010380930003BF
:103C80008F859889909303038093020389899A8989
:103C900090930503809304038B899C899093070379
:103CA000809306038D899E8990930903809308036E
:103CB0008F89988D90930B0380930A0386E70E9467
:103CC000040484EF90E00E943F0887E290E00E94A5
:103CD0003F0883E495E00E94440881E0809311034B
:103CE00080911103882309F43AC286E70E940404F4
:103CF00087EF90E00E943F0883E495E00E9444082B
:103D000046E066E783E495E00E94B70E8E010F5F00
:103D10001F4F7E01F7E0EF0EF11C83E495E00E9457
:103D2000D007D8018D938D01AE15BF05B1F78C81F9
:103D300090E0B0E0A0E06CE0880F991FAA1FBB1FC5
:103D40006A95D1F74D8150E070E060E0E4E0440F07
:103D5000551F661F771FEA95D1F7842B952BA62B4D
:103D6000B72B2E8130E0F4E035952795FA95E1F7F1
:103D7000032E000C440B550B822B932BA42BB52B3D
:103D80004091F4025091F50270E060E04C015D0159
:103D900014E0B594A794979487941A95D1F7841A50
:103DA000950AA60AB70A03E0B595A7959795879552
:103DB0000A95D1F7440F551F661F771F7C018D01AF
:103DC000E41AF50A060B170BA8019701A091F60259
:103DD000B091F7020E94FC326B017C013BE0F5944C
:103DE000E794D794C7943A95D1F7A5019401C501FA
:103DF000B4010E948B349B01AC016CE05595479552
:103E0000379527956A95D1F7A091F802B091F902FC
:103E10000E94FC32EEE09595879577956795EA9537
:103E2000D1F7C60ED71EE81EF91EA5E0B0E0A70127
:103E300096010E94F13260587F4F8F4F9F4F672F3E
:103E4000782F892F992787FD9A950E949C3120E031
:103E500030E048EC52E40E94D933CF55DF4F6883FD
:103E600079838A839B83C15AD040C701B601959557
:103E70008795779567950E949C3120E030E04AE76E
:103E800057E40E946C336B017C016091FE027091DB
:103E9000FF02072E000C880B990B0E949C31A70192
:103EA00096010E94FB31A70196010E94FB3120E0A0
:103EB00030E040E056E30E94FB314B015C01609131
:103EC000FC027091FD02072E000C880B990B0E94DA
:103ED0009C31A70196010E94FB319B01AC01C501F9
:103EE000B4010E946D3320E030E040E056E30E94D0
:103EF000FB3120E030E040E058E30E94FB3120E05D
:103F000030E040E85FE30E946D334B015C0160915B
:103F1000FA027091FB0290E080E00E949A31A501C4
:103F200094010E94FB314B015C0120E030E0A901CB
:103F30000E949531882311F40C946A2A609104033D
:103F400070910503072E000C880B990B0E949C3181
:103F50002B013C01A7019601C701B6010E94FB316C
:103F60009B01AC01C301B2010E94FB3120E030E0B3
:103F700040E058E30E94FB312B013C0160910203B9
:103F800070910303072E000C880B990B0E949C3143
:103F9000A70196010E94FB319B01AC010E946D3389
:103FA000A30192010E946D3320E030E040E85EE31F
:103FB0000E94FB312B013C01698170E090E080E0C0
:103FC0003CE0660F771F881F991F3A95D1F70A8149
:103FD00010E030E020E044E0000F111F221F331FEB
:103FE0004A95D1F7602B712B822B932B0B8110E01C
:103FF00054E0159507955A95E1F7012E000C220B18
:10400000330B602B712B822B932B0E949C319B01D5
:10401000AC0160E070E080E899E40E946C336B01D1
:104020007C016091000370910103072E000C880B46
:10403000990B0E949C3120E030E040E857E40E9458
:10404000FB31A30192010E946D3320E030E040E893
:1040500059E30E94FB319B01AC01C701B6010E94EC
:104060006C3320E030E543EC55E40E94FB31A501C0
:1040700094010E94D9336B017C0160910A03709115
:104080000B03072E000C880B990B0E949C31A70193
:1040900096010E94FB31A70196010E94FB3120E0AE
:1040A00030E040E050E30E94FB314B015C01609145
:1040B000080370910903072E000C880B990B0E94CE
:1040C0009C31A70196010E94FB319B01AC01C50107
:1040D000B4010E946D3320E030E040E050E30E94E4
:1040E000FB312B013C016091060370910703072E01
:1040F000000C880B990B0E949C3120E030E040E8D6
:104100005DE30E94FB314B015C01A3019201C701F9
:10411000B6010E946D339B01AC01C501B4010E9440
:104120006D3320E030E048EC52E40E94D933CF55A3
:10413000DF4F88809980AA80BB80C15AD04080928E
:10414000170390921803A0921903B0921A03609378
:1041500013037093140380931503909316030E9426
:10416000440E00911B0410911C0420911D043091F9
:104170001E04601B710B820B930B61307A4F81051B
:10418000910510F18FE495E00E94070CBC01990F96
:10419000880B990B0E949C3120E030E040E85EE300
:1041A0000E94FB3160931F047093200480932104CC
:1041B000909322040E94440E60931B0470931C048D
:1041C00080931D0490931E040E94EF0B7C0180914C
:1041D0000001082E000C990B8E159F0511F40C940C
:1041E000232A0E94FF0B6CE070E00E94A7348C0130
:1041F000892B11F40CE010E080912304882309F44A
:1042000063C00E94610C882309F45EC010922304ED
:104210000E94440E605D7A488F4F9F4F60933C032D
:1042200070933D0380933E0390933F0381E080931E
:104230003B0310923A031092390310923803109204
:104240003703109233031092340310923503109207
:104250003603809124041F928F93809125041F922E
:104260008F93809126041F928F9383ED91E09F930B
:104270008F931F9282E18F939E012F5F3F4F6901C1
:104280003F932F930E94423567E171E087E894E005
:104290000E944205C6010E941C126BE672E089E78B
:1042A00093E00E94043564E872E087E593E00E94A1
:1042B000043510927803109256030E940A150FB627
:1042C000F894DEBF0FBECDBF0E94F70B892B11F013
:1042D0000C949729E114F10411F00C949729809122
:1042E000120381110C949729C8010115110511F4CD
:1042F0008CE090E024E0880F991F2A95E1F79093D5
:10430000100380930F0310920E0310920D0310926E
:104310000C0381E0809312036CE271E080E090E096
:104320000E940805D12C480151E0851A9108AD2C56
:10433000B12CA016B10614F00C94972988E790E0F0
:104340000E94610EA814B90434F464EB70E080E0BC
:1043500090E00E940805D394EACF60E172E0CE01BC
:104360008F5B9F4F0E94FB34892BE1F4109227044E
:1043700060E090E080E00E94F61487E793E00E94FE
:104380004A110E94FE1080E00E94CD1066E673E0A4
:1043900086E395E00E94420581E00E94CD1065E52C
:1043A00073E02DCA68E172E0CE018F5B9F4F0E94DF
:1043B000FB34892B09F043C080919A03833039F490
:1043C0000E94750E82E393E00E944A1126CA81E0A2
:1043D00080939B0380912E058F7B80932E050E94F6
:1043E0002B0964E670E080E090E00E9408051092DE
:1043F000350580912B058F7780932B050E942B0923
:10440000C0900501D0900601E0900701F0900801EE
:10441000C701B6010E94D50F66E970E080E090E028
:104420000E940805C701B6010E94D50F0E949F0E89
:104430000E94FE100E94131382E293E0C5CF6DE14B
:1044400072E0CE018F5B9F4F0E94FB34892BD9F421
:1044500080919A03833009F4E0C910929B03809104
:104460002E05806480932E050E942B0910927903FB
:10447000109257030E94870E0E94FE100E940A1598
:1044800081E193E0A1CF63E272E0CE018F5B9F4FA9
:104490000E94FB34892B51F06CE272E0CE018F5BFD
:1044A0009F4F0E94FB34892B09F0C5C080919B036C
:1044B000882309F4B2C982E093E00E944A11109166
:1044C0002D05012F0F79802F806280932D0563E2E7
:1044D00072E0CE018F5B9F4F0E94FB34892B09F065
:1044E0009FC0006A00932D0560910501709106013F
:1044F00080910701909108010E94D50F6CE370E054
:1045000080E090E00E9408051EE12FE0822E912CB1
:10451000A12CB12C0E945D106CE370E080E090E073
:104520000E9408050E9413106B017C01C0920501D6
:10453000D0920601E0920701F092080120E030E0FD
:104540004FEA52E40E94953187FD72C020E030E0CE
:1045500048ED52E4C701B6010E94813418160CF4EC
:1045600067C00E94CC0F082F68EF72E087E894E0E4
:104570000E9442054091050150910601609107019A
:104580007091080121E030E087E894E00E94111367
:1045900068EE72E087E894E00E944205202F30E048
:1045A000A4E6B0E00E945D33A50194010E94D232DE
:1045B000B90187E894E00E94E61186EE92E00E943D
:1045C0004A1180E00E94CD1065ED72E086E395E02F
:1045D0000E94420581E00E94CD104091050150915A
:1045E0000601609107017091080121E030E086E347
:1045F00095E00E94111366EC72E086E395E00E945C
:104600004205063030F40E94AD0F8091320587FFDD
:104610000CC00E949F0E0E94131388EB92E0D4CE30
:104620001F71106210932D055FCF115009F072CFEA
:104630000E94750EF0CF47E050E067E372E0CE01D4
:104640008F5B9F4F0E940B35892B09F064C06AE392
:1046500070E0C8010E94F034009709F4DEC87C01C4
:10466000FFEFEF1AFF0A6AE370E0C7010E94F0341F
:10467000009709F4D2C88C010F5F1F4F6AE370E006
:10468000C8010E94F0346C01892B09F4C6C8C70127
:104690000E94FE2F7C01C8010E94FA2F0AE0E0165A
:1046A000F10408F0BAC8FE01EF57FF4F6193719310
:1046B000819391938BE0DF011D928A95E9F7B60112
:1046C0006F5F7F4F4AE050E0CF010E9419352FE025
:1046D0002E9D60012F9DD00C112486010C5E1F4F72
:1046E000FE01EF57FF4F7F01F3E2CF0ED11CD70140
:1046F000BD907D01C8010E94BC32B81621F06B2D1F
:10470000C8010E94C4320F5F1F4F0C151D0579F7B9
:104710000E94790E82C86FE372E0CE018F5B9F4FDB
:104720000E94FB34892B09F060C00E94790EC12CD5
:10473000D12C760104E110E091E8A92EB12CAC0E49
:10474000BD1EB4E0AB0EB11CBE016F577F4FC80158
:104750000E94CE146FEA72E087E894E00E9442055E
:104760002AE0B701A60187E894E00E949A116DEA59
:1047700072E087E894E00E944205CF57DF4F4881FE
:1047800059816A817B81C158D04021E030E087E8BF
:1047900094E00E9411136BEA72E087E894E00E94B3
:1047A000420520E030E04FEA52E4CF57DF4F688106
:1047B00079818A819B81C158D0400E94953187FFC1
:1047C00010C085EA92E00E944A11015F1F4FEFEF8F
:1047D000CE1ADE0AEE0AFE0A0A3A110509F0B4CF33
:1047E0001CC8C5010E941C12F0CF42E050E066E4F4
:1047F00072E0CE018F5B9F4F0E940B35892B09F031
:1048000090C069E472E0CE0103960E94DD34892BEA
:1048100049F59091550321E092279093550380919B
:104820002B05992391F020933505806880932B0503
:104830000E942B090E94750E0E941313809155034C
:10484000882369F086E992E0BFCD109235058F7715
:1048500080932B050E942B090E94790EEDCF85E8ED
:1048600092E0B2CD6EE472E0CE0103960E94FB347A
:10487000892B61F480919B03882311F40C940D1C07
:104880000E94790E0E9413130C940D1CCE01039606
:104890000E94FA2F6B017C0120E030E04FEA52E4E5
:1048A0000E94813487FF02C00C940D1C20E030E090
:1048B00048ED52E4C701B6010E949531181614F470
:1048C0000C940D1CC0920501D0920601E0920701E4
:1048D000F092080180919B03882361F0C701B60123
:1048E0000E94D50F66E970E080E090E00E94080524
:1048F0000E9413136AE772E087E894E00E94420581
:1049000040910501509106016091070170910801E5
:1049100022E087E894E00E942B120E9444110C943C
:104920000D1C46E050E062E572E0CE018F5B9F4FC8
:104930000E940B35892B09F0A9C06E01F3E9CF0E57
:10494000D11CDF92CF927E0105E9E00EF11CFF92AF
:10495000EF928E0109561F4F1F930F9389E592E046
:104960009F938F93CE0107969F938F930E947235EA
:104970000FB6F894DEBF0FBECDBF039711F00C94B5
:104980000D1CD8014C9140932604F701608160937F
:104990002504D6018C91809324040E94730C0E94FC
:1049A000610C0E94550C81E08093230410923C031B
:1049B00010923D0310923E0310923F0361E084E0A9
:1049C00090E00E94F6146091260485E090E00E9439
:1049D000F6146091250486E090E00E94F614609140
:1049E000240487E090E00E94F614F60181818F9301
:1049F00080818F93D70111968C9111978F938C9111
:104A00008F93F80181818F9380818F9383ED91E063
:104A10009F938F931F9282E18F93065111091F93E9
:104A20000F930E9442356BE672E087E894E00E94A3
:104A30004205C8010E941C120E94790E0E94FE10BD
:104A400080E00E94CD106AE572E086E395E00E9466
:104A5000420581E00E94CD10B80186E395E00E94F6
:104A6000351161E572E086E395E00E9442056CED48
:104A700075E080E090E00E9408050E940A150FB6DC
:104A8000F894DEBF0FBECDBF0C940D1C62E672E041
:104A9000CE018F5B9F4F0E94FB34892BC1F5109292
:104AA000230410923C0310923D0310923E03109297
:104AB0003F0310923B0301E412E0F801849160E0AF
:104AC0000E9485040F5F1F4FF2E001351F07A9F711
:104AD0000E94240E0E94550C0E94610C60E084E04C
:104AE00090E00E94F6146BE672E089E793E00E9482
:104AF000FB34892B21F4109279031092570382E33F
:104B000092E00E944A110E94870E0C940B1C6AE7E7
:104B100072E0CE018F5B9F4F0E94FB34892B09F01E
:104B200067C00E94440E605D7A488F4F9F4F60932C
:104B30003C0370933D0380933E0390933F0381E0D9
:104B400080933B0310923A0310923903109238037A
:104B500010923703109233031092340310923503EE
:104B600010923603809124041F928F938091250424
:104B70001F928F93809126041F928F9383ED91E073
:104B80009F938F931F9282E18F938E010F571F4F38
:104B90001F930F930E94423565E272E087E894E02C
:104BA0000E944205C8010E941C126BE672E089E770
:104BB00093E00E94043564E872E087E593E00E9488
:104BC000043510927803109256030E94750E66E920
:104BD00070E080E090E00E9408050E94750E66E992
:104BE00070E080E090E00E9408050E94750E45CFBD
:104BF00065E972E0CE018F5B9F4F0E94FB34892BE9
:104C000059F580912304882321F1809124041F9277
:104C10008F93809125041F928F93809126041F9279
:104C20008F9383ED91E09F938F931F9282E18F93F7
:104C30008E010F571F4F1F930F930E94423566E15D
:104C400072E087E894E00E944205C8010E941C12AD
:104C500016CF87E092E0B8CB6FE972E0C8010E94FE
:104C6000FB34892B09F0A1C00E94790E8E010F57E9
:104C70001F4F8091540590915505009711F48AE5D6
:104C800095E0081B190B809103019091040108170E
:104C9000190724F410930401009303016EEF71E0EF
:104CA00087E894E00E9442050E94440EB8EECB2EA5
:104CB000B3E0DB2EE12CF12CA70196010E943B33DF
:104CC000BA01A9012AE087E894E00E949A1163EFF3
:104CD00071E087E894E00E9442052AE040E150E05C
:104CE00060E070E087E894E00E949A1166EE71E05F
:104CF00087E894E00E944205B80187E894E00E94AA
:104D0000E61168ED71E087E894E00E944205609149
:104D100003017091040187E894E00E94E61185ED9B
:104D200091E00E944A110E94440E1F9220E12F93AD
:104D3000A70196010E943B335F934F933F932F93BC
:104D400086EE91E09F938F931F9281E2F82EFF925F
:104D500089E793E09F938F930E94423580910401ED
:104D60008F93809103018F931F930F938BEF91E0AB
:104D70009F938F931F92FF9287E593E09F938F936A
:104D80000E9442350E94440E605F784D8F4F9F4FC6
:104D900060932F0370933003809331039093320319
:104DA00010927803109256036ACE6AEA72E0C80144
:104DB0000E94FB34892B99F41092790310925703C7
:104DC00010922F031092300310923103109232038D
:104DD0008CE390E00E94610E82EB91E0F5CA45E021
:104DE00050E060EB72E0C8010E940B35892B09F09E
:104DF0006EC07E0156E0E50EF11C4AE050E066EB25
:104E000072E0C7010E940B35892B09F049C00E944E
:104E10009F0E6CE770E0C7010E94F0346C010097B0
:104E200009F449C0082F0E19013208F000E210E021
:104E3000A801B70189E793E00E941935F801E75806
:104E4000FC4F1082B6016F5F7F4F40E250E087E574
:104E500093E00E941935109277031092780381E055
:104E60008093020110922E03109256038093010149
:104E700010922D0368EA71E087E894E00E944205F1
:104E800089E793E00E941C126EE971E087E894E0E4
:104E90000E94420587E593E00E941C120C940D1CB1
:104EA00061EC72E0C7010E942835892B09F4B1CF6B
:104EB0000E94870EAECF40E250E0B70189E793E051
:104EC0000E9419351092990310925703C6CF44E0FF
:104ED00050E069EC72E0C8010E940B3543E050E0FD
:104EE000892B09F56EEC72E0CE0105960E940B3518
:104EF000892B21F488E290E00E94610E40E250E0AC
:104F0000BE016B5F7F4F87E593E00E9419351092D9
:104F100077031092560381E08093010110922D03D4
:104F200064E971E0B3CF62ED72E0C8010E940B3515
:104F3000892B39F588E290E00E94610E40E250E052
:104F4000BE016C5F7F4F89E793E00E941935109294
:104F50009903109257031092780381E08093020125
:104F600010922E03109256038093010110922D038C
:104F70006AE871E087E894E00E94420589E793E0DF
:104F80008BCF80912704BE016D567F4F7B01DE01E0
:104F9000AB56BF4F1D01FE01E956FF4F2F019E0189
:104FA00027563F4F3901AE0145565F4F6A01665F94
:104FB0007F4F5B01882309F4A6C0FF92EF923F92D6
:104FC000AF935F92EF937F922F93DF924F93BF92B5
:104FD0006F934E017FE9870E911C9F928F9286ED11
:104FE00092E09F938F931F930F930E9472350FB699
:104FF000F894DEBF0FBECDBF049714F40C940D1CC3
:10500000F30120813181D4018D919C911197213040
:10501000310509F06AC08C3091051CF40C968D9313
:105020009C93D4018C91CD57DF4F8883C358D040D7
:10503000F5018081CE57DF4F8883C258D040D6011A
:105040008C91CF57DF4F8883C158D040F2018081C7
:1050500091811816190614F00E94DF0BCA57DF4F12
:105060008883C658D040D1018D919C91181619069D
:1050700014F00E94E70BCB57DF4F8883C558D04010
:10508000F7018081918118161906CCF584369105B7
:10509000C4F5825EC957DF4F8883C758D040BE0130
:1050A0006F577F4F8FE495E00E94E20CCE018F573F
:1050B0009F4F0E94150A0E94600985E691E00E94B8
:1050C0004A110E94790E0E94FE1067E571E086E3A6
:1050D00095E00E94420568EE73E080E090E00E9457
:1050E00008050E94FE100C940D1C232B09F099CF8B
:1050F0000C9709F096CFF4011182108292CF0E9492
:10510000D50B825BC7CFFF92EF923F92AF935F9236
:10511000EF937F922F93DF924F93BF926F9389ED1E
:1051200092E09F938F931F930F930E9472350FB657
:10513000F894DEBF0FBECDBF039714F40C940D1C82
:10514000D5018C91CD57DF4F8883C358D040F601ED
:105150008081CE57DF4F8883C258D040D3018C91D5
:10516000CF57DF4F8883C158D040F20180819181B1
:105170001816190614F00E94E70BCB57DF4F8883EF
:10518000C558D040D1018D919C911816190614F084
:105190000E94DF0BCA57DF4F8883C658D040F70103
:1051A000808191811816190644F58436910524F4FE
:1051B0008053984F91838083D7018C91825BC9572C
:1051C000DF4F8883C758D040BE016F577F4F8FE4B1
:1051D00095E00E94E20CCE018F579F4F0E94150A66
:1051E0000E94600982E391E00E944A110E94790EB8
:1051F0000E94FE1064E271E06ACF0E94D50BDECF00
:105200005091020140917803450F40937803E42FB9
:10521000042E000CFF0B2051330BE217F30714F49C
:10522000141634F05195509302012FE020932E0371
:1052300031E0613110F00C94C91C19C020910101BA
:1052400090915603920F90935603692F092E000CEC
:10525000770B082F0051110B6017710714F4191602
:1052600034F02195209301018FE080932D038091EC
:105270009B0381110C94D51C0E940A150C94D51C1B
:1052800010923A0381E08093390310923803109210
:1052900037030C94241D8091370391E08927809374
:1052A0003703882309F104EE10E0F12CF801649132
:1052B00031964491319624918F2D0E94C60DF3941E
:1052C0000D5F1F4FF6E0FF12F1CF809138038F5F23
:1052D00080933803883010F40C94241D1092390305
:1052E00010923A030C94241D0E94F20DEECF8436E6
:1052F0009105A105B10510F40C94601D8091310158
:105300008E7F0E94500E109228030C94581D8436F4
:105310009105A105B10510F40C948E1D8091310109
:105320008E7F0E94500E109223030C94861D809154
:10533000120381110EC080913C0390913D03A09116
:105340003E03B0913F03892B8A2B8B2B11F40E94D3
:10535000240E80919A03982F9D7F19F0843009F0D4
:1053600070C00E94E91380919B0381119DC08091C0
:105370002704882309F481C020E030E040E151E4B3
:1053800060911F0470912004809121049091220467
:105390000E94FB3120E030E040EA50E40E94D93323
:1053A00020E030E040E052E40E946D334B015C01AC
:1053B0006DE071E087E894E00E94420522E030E071
:1053C000B501A40187E894E00E9411136AE071E03E
:1053D00087E894E00E9442050E94441180911103E5
:1053E000882349F168EF70E087E894E00E94420565
:1053F00040911703509118036091190370911A039B
:1054000021E030E087E894E00E94111366EF70E03D
:1054100087E894E00E9442054091130350911403E1
:10542000609115037091160321E087E894E00E94D3
:105430002B120E94441180919A03843011F00E9433
:105440000A15E0920001CC55DF4F0FB6F894DEBF8D
:105450000FBECDBFDF91CF911F910F91FF90EF90C5
:10546000DF90CF90BF90AF909F908F907F906F9084
:105470005F904F903F902F90089560E071E087E833
:1054800094E00E94420540911F04509120046091D5
:1054900021047091220422E030E087E894E00E9429
:1054A00011136DEF70E094CF0E944411CACF8A307F
:1054B000910511F40C944418D6018D936D01BFEF42
:1054C000EB1AFB0AEFE3EE16F10411F00C94051849
:1054D0000C94441860E070E0CB010C949720898113
:1054E00090E00E94D53422968FAF22970C94D91B5E
:1054F0001F920F920FB60F9211242F933F938F9309
:105500009F93AF93BF938091290490912A04A09117
:105510002B04B0912C043091280423E0230F2D3765
:1055200058F50196A11DB11D2093280480932904EC
:1055300090932A04A0932B04B0932C0480912D0403
:1055400090912E04A0912F04B09130040196A11DDA
:10555000B11D80932D0490932E04A0932F04B0933B
:105560003004BF91AF919F918F913F912F910F90F8
:105570000FBE0F901F90189526E8230F0296A11DCD
:10558000B11DD2CF1F920F920FB60F9211242F93FD
:105590003F934F935F936F937F938F939F93AF93BB
:1055A000BF93EF93FF9387E894E00E94E405FF9197
:1055B000EF91BF91AF919F918F917F916F915F918B
:1055C0004F913F912F910F900FBE0F901F90189504
:1055D0001F920F920FB60F9211242F938F939F93C8
:1055E000EF93FF93E0919704F09198048081E0910C
:1055F0009D04F0919E0482FD1BC090818091A004C7
:105600008F5F8F732091A104821741F0E091A00475
:10561000F0E0E957FB4F958F8093A004FF91EF9145
:105620009F918F912F910F900FBE0F901F90189503
:105630008081F4CF1F920F920FB60F9211242F93F7
:105640003F934F935F936F937F938F939F93AF930A
:10565000BF93EF93FF938091B900887F803609F460
:105660004AC0F0F5883209F4A7C018F5803109F472
:105670009BC0B8F4882309F4F9C0883009F494C0B9
:10568000FF91EF91BF91AF919F918F917F916F911A
:105690005F914F913F912F910F900FBE0F901F90F0
:1056A0001895883109F488C0803251F780935F04DF
:1056B00014C0803409F49DC040F48033B9F38833BA
:1056C000F9F680935F0485ECB0C0803509F485C09D
:1056D000883509F496C0883499F60E949614D0CF84
:1056E000883909F48CC038F5883729F050F48836A9
:1056F00011F0803729F683E08093810410920E0424
:1057000057C0883809F47BC0803919F0803809F017
:10571000B7CF80910E04803208F071C0E0910E0482
:1057200081E08E0F80930E048091BB00F0E0E25187
:10573000FC4F80833DC0803B39F0E0F4803A09F4AF
:1057400079C0883A09F09CCF84E08093810410925C
:10575000ED031092EC03E0913304F09134040995C9
:105760008091EC0381110FC081E08093EC031092D3
:10577000CC0309C0803C09F4A6CF883C09F4A3CF30
:10578000883B09F07DCFE091ED0381E08E0F80939F
:10579000ED03F0E0E453FC4F80818093BB009091D7
:1057A000ED038091EC0329C080915C048093BB00E1
:1057B00085EC8093BC0064CF90915E0480915D0481
:1057C000981758F5E0915E0481E08E0F80935E0497
:1057D000F0E0E55CFB4F8081E9CFE0915E0481E081
:1057E0008E0F80935E048091BB00F0E0E55CFB4F80
:1057F000808390915E0480915D049817C8F285E8DB
:10580000D8CFE0915E0481E08E0F80935E0480919A
:10581000BB00F0E0E55CFB4F808380916004811168
:105820005CCF81E080935B0484EA8093BC0010929B
:10583000810426CF85EC8093BC0010928104809176
:105840000E04803230F4E0910E04F0E0E251FC4F9F
:10585000108260910E0470E0E0913104F091320406
:105860008EEE93E0099510920E040ACF10925F0419
:1058700034CF1F920F920FB60F9211248F939F93E4
:10588000AF93BF938091EC029091ED02A091EE0254
:10589000B091EF020196A11DB11D8093EC0290938F
:1058A000ED02A093EE02B093EF02BF91AF919F91F2
:1058B0008F910F900FBE0F901F901895CF93E7E830
:1058C000F4E01382128288EE93E0A0E0B0E08483DB
:1058D0009583A683B7832AE431E03183208325ECC6
:1058E00030E03587248724EC30E03787268720ECAA
:1058F00030E0318B208B21EC30E0338B228B22EC9B
:1059000030E0358B248B26EC30E0378B268B118EE4
:10591000128E138E148EE3E4F5E0138212828483D8
:105920009583A683B7838CE591E091838083AFE470
:10593000B5E01396FC93EE9312978AE791E08D936E
:105940009C93E6E3F5E0138212828EE691E0918368
:10595000808311868FE38483C0E1C28782E08387DE
:1059600014860E94B906E4E2F5E01782108680EB07
:105970008187C2871386118ACF910895CF93DF93D1
:10598000CDB7DEB7A1970FB6F894DEBF0FBECDBF7F
:10599000789484B5826084BD84B5816084BD85B50A
:1059A000826085BD85B5816085BD80916E00816016
:1059B00080936E00109281008091810082608093BC
:1059C00081008091810081608093810080918000BE
:1059D0008160809380008091B10084608093B100E9
:1059E0008091B00081608093B00080917A008460E3
:1059F00080937A0080917A00826080937A0080910F
:105A00007A00816080937A0080917A008068809328
:105A10007A001092C10084B714BE12E01093B00057
:105A200084E08093B10089EF8093B300809170008F
:105A30008260809370000E94B906809131010E94BB
:105A4000500EE0919704F09198041083E091930434
:105A5000F09194041082E0919504F091960480E115
:105A6000808310929F04E0919B04F0919C0486E057
:105A70008083E0919904F0919A0480818061808311
:105A8000E0919904F0919A04808188608083E0918C
:105A90009904F0919A04808180688083E091990450
:105AA000F0919A0480818F7D80838FE495E00E943D
:105AB000C40D0E94B90610923B05809141058230C9
:105AC00018F098E090933B0580933E0562E370E008
:105AD00080E090E00E9408056091420586E395E031
