:100000000C94E4030C940C040C940C040C940C0459
:100010000C940C040C940C040C940C040C94752A91
:100020000C940C040C940C040C940C040C940C0410
:100030000C940C040C940C040C940C040C940C0400
:100040000C94B4280C940C040C9424290C94FE28D1
:100050000C940C040C940C040C940C040C940C04E0
:100060000C9456290C940C044E414E494E49545957
:10007000494E46CDCCCC3D0AD7233C17B7D1387773
:10008000CC2B329595E6241FB14F0A000020410089
:1000900000C84200401C4620BCBE4CCA1B0E5AAED3
:1000A000C59D746364696E6F70737578585B005397
:1000B00048543330204E2F4120202020312F320051
:1000C00025202020312F32200052483A004300439F
:1000D00020533A00443A00000001000100010000F2
:1000E0000101000100010001013A005348543A00A7
:1000F0002500207C2052483A2000204300207C200C
:1001000054656D703A2000204600207C2054656DB7
:10011000703A2000414C41524D3A46495245443ACA
:100120000054696D65207570646174656421002AEE
:10013000204461746520616E642074696D6520756A
:1001400070646174656420766961205365726961C9
:100150006C202A0054696D65207570646174656453
:1001600021002A204461746520616E642074696DE9
:1001700065207570646174656420766961205365DB
:100180007269616C202A006C6364726F77313A2067
:10019000006C6364726F77323A20006C6364726F34
:1001A00077323A20006C6364726F77313A20002A0C
:1001B000204D42206D6F646520656E646564202D5E
:1001C00020436C6F636B20726573746F726564207B
:1001D0002A002062002062207C204D696E52414D31
:1001E0003A2000204D487A207C2052414D3A200090
:1001F0002073207C204350553A2000557074696D5F
:10020000653A2000414C41524D3A44495341424CD9
:10021000454400414C41524D3A454E41424C4544C3
:100220003A00414C41524D3A46495245443A004108
:100230004C41524D3A44495341424C454400100F01
:100240000E0D0C0B0A0908070605040302112020F5
:1002500020202020202000416C61726D2073657485
:100260003A20202020202000414C41524D3A454E5A
:1002700041424C45443A0054756E656420746F3AAF
:100280002000464D20526164696F20556E6D757473
:10029000656400464D20526164696F204D75746538
:1002A0006400454D505459003A003A0053544154AB
:1002B000494F4E3A005745425F5343414E5F444FCA
:1002C0004E4500204D487A205363616E6E696E671B
:1002D0002000534541524348494E472E2E2E2020A0
:1002E0002020002500204D487A207C205369676E2D
:1002F000616C3A2000464D20667265713A200057C5
:1003000045425F5343414E5F5354415254002A20AB
:10031000464D20526164696F204F4646202A002ACC
:1003200020464D20526164696F204F4E202A002ADA
:1003300020464D20626C6F636B65643A205765629E
:1003400020436F6E74726F6C2061637469766520F0
:100350002A00323468202044442E4D4D2E595959DC
:10036000592000494E54204D4F4445202020202044
:10037000202020002A20494E54204D4F4445202A59
:100380000031326820414D2F504D204D4D2F4444B7
:1003900020005553204D4F44452020202020202070
:1003A0002020002A205553204D4F4445202A00206C
:1003B0004D487A20202020202000534541524348B8
:1003C000494E472E2E2E20202020004A4F593A59C0
:1003D0005F444F574E004A4F593A595F5550004AB3
:1003E0004F593A585F4C454654004A4F593A585F66
:1003F0005249474854004C43443A4D454E555F4599
:100400005849547C004C43443A57454220434F4E90
:1004100054524F4C204F4E20207C4A6F79737469A0
:10042000636B2D3E48544D4C2020005745424354A9
:100430004C3A4F4E004A6F79737469636B2D3E4896
:10044000544D4C20200057454220434F4E54524FAC
:100450004C204F4E2020002A2053656E736F72731C
:10046000202A002A20464D20526164696F204F4E99
:1004700020286D656E7529202A004A4F593A535736
:10048000004C43443A57454220434F4E54524F4C40
:10049000204F4646207C2020202020202020202085
:1004A0002020202020200057454243544C3A4F46FC
:1004B000460057454220434F4E54524F4C204F4622
:1004C0004620004C43443A4D454E555F45584954EB
:1004D0007C002A20464D20526164696F204F4646B9
:1004E0002028535729202A004261636B20746F2013
:1004F000436C6F636B200057656220436F6E7472AC
:100500006F6C2020200053656E736F727320202063
:100510002020202000464D20526164696F20202059
:10052000202020004C43443A3D3D2053454C454358
:1005300054204D4F4445203D3D7C3E2000426163A8
:100540006B20746F20436C6F636B200057656220D3
:10055000436F6E74726F6C2020200053656E736F52
:1005600072732020202020202000464D20526164FC
:10057000696F202020202020003E20003D3D205398
:10058000454C454354204D4F4445203D3D002500FA
:100590004D487A207C205369676E616C3A20004692
:1005A0004D20667265713A20002520200020004D04
:1005B000487A205369673A002000464D2052414452
:1005C000494F00464D204D55544520002000202025
:1005D000202020200046200020005248002000203B
:1005E0002000202020004320202020002000255231
:1005F00048202000200020200020414D20202020E5
:1006000020200020504D2020202020200041524456
:1006100055494E4F5F49535F524541445900414C43
:1006200041524D3A44495341424C454400414C41AA
:10063000524D3A454E41424C45443A004152445590
:10064000494E4F5F4D4F44453A494E540041524444
:1006500055494E4F5F4D4F44453A555300100F0ECC
:100660000D0C0B0A09080706050403021152544336
:100670002053796E63204F4B212043757272656E53
:10068000743A20005254432053796E6320457272AD
:100690006F7221005254432053796E632045727269
:1006A0006F722100436F6D6D616E64733A20494E25
:1006B000544D4F4445202F2055534D4F4445004D38
:1006C0006F64653A20494E5420283234682C204407
:1006D000442E4D4D2E595959592C204329004D6F08
:1006E00064653A205553202831326820414D2F50FF
:1006F0004D2C204D4D2F44442F595959592C2046EB
:100700002900436F70797269676874204D61726562
:100710006B2042756A6B6F202D204C6963656E7388
:10072000656420756E646572204D4954204C696380
:10073000656E73650050726F6A6563743A20524744
:10074000422042696E61727920436C6F636B207640
:10075000312E322E3800286329204D6172656B20BE
:1007600042756A6B6F0052474220436C6F636B2087
:1007700076312E3200000000080002010000030460
:100780000700000000000000000000000025002815
:10079000002B0000000000240027002A00040404AD
:1007A000040404040402020202020203030303031A
:1007B00003010204081020408001020408102001F7
:1007C0000204081020009A2A11241FBECFEFD8E09F
:1007D000DEBFCDBF12E0A0E0B1E0ECE4F2E702C082
:1007E00005900D92AC3EB107D9F725E0ACEEB2E032
:1007F00001C01D92A734B207E1F713E0C4EED3E0C5
:1008000004C02197FE010E94FB32C33ED107C9F705
:100810000E94FA2A0C9424390C94000091E09093E1
:10082000270480932604109225041092240408952E
:10083000282F30E094E0359527959A95E1F7922F8F
:10084000990F990F291B220F820F0895089508957B
:1008500090E0FC01EF54F84F24918356984FFC012F
:100860008491882399F090E0880F991FFC01ED5640
:10087000F84FA591B491FC01E757F84F85919491F9
:100880008FB7F894EC91E22BEC938FBF0895809191
:10089000220490912304891B990B0895CF936093B0
:1008A0001105709312058093130590931405C09160
:1008B0001A0520E034E244E759E40E9437302091E1
:1008C0001505222311F1C061C0931A0520E03AEB0F
:1008D0004BE558E40E94A93120E030E040E850E4C4
:1008E0000E94373020E030E040E058E30E9437308B
:1008F0000E948E3280911805807C7F73782B7093D4
:10090000180560931905CF910895CF7EC0931A05FD
:1009100020E03AEB4BE558E40E94A831DDCF90E0AF
:10092000FC01EB58F84F2491FC01EF54F84F34913F
:10093000FC01E356F84FE491EE23C9F0222339F08D
:10094000233001F1A8F4213019F1223029F1F0E02F
:10095000EE0FFF1FE757F84FA591B4918FB7F894AA
:10096000EC91611126C030953E233C938FBF0895D2
:100970002730A9F02830C9F0243049F78091800051
:100980008F7D03C0809180008F7780938000DFCFC0
:1009900084B58F7784BDDBCF84B58F7DFBCF80910D
:1009A000B0008F778093B000D2CF8091B0008F7D60
:1009B000F9CF3E2BDACF8E50806480937C008091FB
:1009C0007A00806480937A0080917A0086FDFCCF63
:1009D000809178009091790008953FB7F8948091C4
:1009E0001A0490911B04A0911C04B0911D0426B51B
:1009F000A89B05C02F3F19F00196A11DB11D3FBF57
:100A0000BA2FA92F982F8827BC01CD01620F711D25
:100A1000811D911D42E0660F771F881F991F4A951F
:100A2000D1F708958F929F92AF92BF92CF92DF92AB
:100A3000EF92FF926B017C010E94ED044B015C017F
:100A4000C114D104E104F104B9F00E94ED04681965
:100A500079098A099B09683E73408105910580F3F5
:100A600021E0C21AD108E108F10888EE880E83E07F
:100A7000981EA11CB11CE4CFFF90EF90DF90CF90A7
:100A8000BF90AF909F908F900895DC01ED91FC9105
:100A90000190F081E02D0994EF92FF920F931F9344
:100AA000CF93DF938C017B01D0E0C0E0F701EC0F26
:100AB000FD1F6491662361F0D801ED91FC910190D6
:100AC000F081E02DC8010995892B11F02196EECF18
:100AD000CE01DF91CF911F910F91FF90EF9008957C
:100AE000AF92BF92CF92DF92EF92FF920F931F933C
:100AF000CF93DF936C017B018B01040F151FEB017A
:100B00005E01AE18BF08C017D10759F06991D60130
:100B1000ED91FC910190F081E02DC6010995892BA2
:100B200079F7C501DF91CF911F910F91FF90EF9061
:100B3000DF90CF90BF90AF900895FC01538D448D0E
:100B4000252F30E0842F90E0821B930B541710F078
:100B5000CF96089501970895FC01918D828D981785
:100B600061F0A28DAE0FBF2FB11D5D968C91928D5D
:100B70009F5F9F73928F90E008958FEF9FEF08958E
:100B8000FC01918D828D981731F0828DE80FF11D57
:100B9000858D90E008958FEF9FEF0895FC01918D72
:100BA000228D892F90E0805C9F4F821B91098F736B
:100BB0009927089584E794E00E94CE0521E0892BCF
:100BC00009F420E0822F089580E090E0892B29F03D
:100BD0000E94DA0581110C9400000895FC01A48D97
:100BE000A80FB92FB11DA35ABF4F2C91848D90E04F
:100BF00001968F739927848FA689B7892C93A08932
:100C0000B1898C91837080648C93938D848D9813BB
:100C100006C00288F389E02D80818F7D808308954E
:100C2000EF92FF920F931F93CF93DF93EC0181E03C
:100C3000888F9B8D8C8D98131AC0E889F9898081E3
:100C400085FF15C09FB7F894EE89FF896083E88916
:100C5000F98980818370806480839FBF81E090E008
:100C6000DF91CF911F910F91FF90EF900895F62E95
:100C70000B8D10E00F5F1F4F0F731127E02E8C8D2F
:100C80008E110CC00FB607FCFACFE889F989808174
:100C900085FFF5CFCE010E94EE05F1CFEB8DEC0F75
:100CA000FD2FF11DE35AFF4FF0829FB7F8940B8F91
:100CB000EA89FB8980818062CFCFCF93DF93EC01FB
:100CC000888D8823B9F0AA89BB89E889F9898C9134
:100CD00085FD03C0808186FD0DC00FB607FCF7CFF0
:100CE0008C9185FFF2CF808185FFEDCFCE010E94F0
:100CF000EE05E9CFDF91CF91089508952091D903B2
:100D0000260F3327331F21323105ECF420916E0476
:100D1000FC0190E080E0243069F082E00895A09129
:100D2000D9032191AC0147545C4FA40FB52FB11DDD
:100D30002C930196861798F38091D903680F6093DE
:100D4000D90380E0089581E0089510926E0481E057
:100D500080934D041092480461E082E10E948F0468
:100D600061E083E10E948F04E9EBF0E080818E7FF7
:100D7000808380818D7F808388E48093B80085E4C0
:100D80008093BC00089510922304109222041092C4
:100D90002504109224040E94A50686E294E0909314
:100DA00021048093200487E294E090931F048093B1
:100DB0001E040895CF93DF9391E09093B8038823A6
:100DC000B9F0C091B800D091BA008091BC008A7B84
:100DD0008093BC0060E082E10E948F0460E083E1C8
:100DE0000E948F040E94A506D093BA00C093B80059
:100DF000DF91CF910895CF92DF92EF92FF920F9300
:100E00001F93CF93DF93D82FC62F613208F098C07D
:100E10000E94ED046B017C0180916E0481116BC016
:100E200081E080936E0480934D049FEF90934C0477
:100E300010924B049C0F90934A0480934904809134
:100E40004904DD0FD82BD0934904809148048130A8
:100E500009F078C0109248040E94ED046B017C01F7
:100E6000809149048093BB0080917004909171043B
:100E7000A0917204B0917304892B8A2B8B2BA1F063
:100E80000E94ED040091700410917104209172048D
:100E9000309173046C197D098E099F090617170795
:100EA0002807390708F448C08091BC0083FDD8CFDB
:100EB00085EC8093BC000E94ED046B017C01809165
:100EC0006E04813009F440C080914B048C1710F4FB
:100ED000C0914B04E8E2F4E0AEE4B4E080E08C13AF
:100EE00055C08C2FDF91CF911F910F91FF90EF9004
:100EF000DF90CF9008958091700490917104A0913B
:100F00007204B0917304892B8A2B8B2B09F484CF44
:100F10000E94ED04009170041091710420917204FC
:100F2000309173046C197D098E099F090617170704
:100F30002807390708F070CF80916F040E94DA0605
:100F4000C0E0CFCF85EEB5CF809170049091710451
:100F5000A0917204B0917304892B8A2B8B2B09F416
:100F6000AECF0E94ED0400917004109171042091A5
:100F70007204309173046C197D098E099F0906175C
:100F800017072807390708F09ACFD6CF91919D937C
:100F90008F5FA5CF0895E091230480912204E81784
:100FA00030F4F0E0E25BFB4F808190E008958FEF3A
:100FB0009FEF089590912304809122042FEF3FEF3B
:100FC000981748F4E92FF0E0E25BFB4F208130E016
:100FD0009F5F90932304C9010895CF92DF92EF920F
:100FE000FF920F931F93CF93DF937C01CB018A0174
:100FF00020912704222389F0EB016B01C40ED51E3A
:10100000CC15DD0569F06991D701ED91FC91019056
:10101000F081E02DC7010995F3CF642F0E947E0671
:10102000C801DF91CF911F910F91FF90EF90DF905A
:10103000CF900895CF93DF931F92CDB7DEB769832A
:10104000209127042223F9F020912404203258F023
:1010500021E030E0FC013383228390E080E00F90B8
:10106000DF91CF91089580912504E82FF0E0E856B4
:10107000FC4F998190838F5F809325048093240493
:1010800081E090E0ECCF61E0CE0101960E947E0607
:10109000F7CFCF92DF92EF92FF920F931F93CF93F0
:1010A000DF93D091240481E0D13208F09CC0C0913C
:1010B00026040E94ED046B017C0180916E04811175
:1010C0006CC082E080936E0481E080934D048FEFCA
:1010D00080934C0410924B04D0934A04A8E9B3E0E7
:1010E000E8E2F4E080E0D8138DC0109249048091CA
:1010F0004904CC0FC82BC093490480914804813027
:1011000009F084C0109248040E94ED046B017C0138
:10111000809149048093BB00809170049091710488
:10112000A0917204B0917304892B8A2B8B2BA1F0B0
:101130000E94ED04009170041091710420917204DA
:10114000309173046C197D098E099F0906171707E2
:101150002807390708F442C08091BC0083FDD8CF2E
:1011600085EC8093BC000E94ED046B017C018091B2
:101170006E04823009F44CC080914C048F3F09F416
:1011800069C080914C04803209F466C080914C049F
:10119000803309F463C084E026C08091700490918C
:1011A0007104A0917204B0917304892B8A2B8B2B4C
:1011B00009F483CF0E94ED04009170041091710432
:1011C00020917204309173046C197D098E099F0976
:1011D000061717072807390708F06FCF80916F04AB
:1011E0000E94DA0685E010922504109224041092E1
:1011F0002704DF91CF911F910F91FF90EF90DF9027
:10120000CF9008959D9191938F5F6DCF85EEA9CF7B
:101210008091700490917104A0917204B091730454
:10122000892B8A2B8B2B09F4A2CF0E94ED0400910D
:1012300070041091710420917204309173046C1940
:101240007D098E099F09061717072807390708F037
:101250008ECFC4CF80E0C7CF82E0C5CF83E0C3CFBD
:10126000CF93DF9380E60E940E04C8E1D5E0699138
:1012700080E395E00E941A0885E0CE31D807B9F7DF
:1012800080E395E00E94490864E670E080E090E029
:10129000DF91CF910C9412050F931F93CF938C0184
:1012A000C62FFC0184810E940E04F80164856C2B1A
:1012B00080E395E00E941A0880E395E0CF911F91AA
:1012C0000F910C94490890E080E008956093000429
:1012D000709301048093020490930304645D7E4F35
:1012E0008F4F9F4F6093FC037093FD038093FE0329
:1012F0009093FF0382E090E09093070480930604AC
:101300002FB7F8948091160490911704A0911804B7
:10131000B09119042FBF8093940390939503A093E9
:101320009603B093970308950F931F938FB7F89484
:10133000009116041091170420911804309119049B
:101340008FBF4091940350919503609196037091E3
:101350009703041B150B260B370B8091000490910B
:101360000104A0910204B0910304083E134021053A
:101370003105C0F00196A11DB11D8093000490932A
:101380000104A0930204B093030448515C4F6F4FD3
:101390007F4F40939403509395036093960370930B
:1013A0009703C4CF4091FC035091FD036091FE036D
:1013B0007091FF0384179507A607B70770F0E091B7
:1013C0000404F0910504309741F009956115710509
:1013D0008105910569F00E94660960910004709191
:1013E000010480910204909103041F910F910895CC
:1013F0008091000490910104A0910204B091030433
:10140000845D9E4FAF4FBF4F8093FC039093FD03CD
:10141000A093FE03B093FF0381E090E020910604C7
:1014200030910704232B11F490E080E0909307049F
:1014300080930604D2CF4F925F926F927F928F92E9
:101440009F92AF92BF92CF92DF92EF92FF920F9353
:101450001F93CF93DF93FC011681A12FB0E020E80A
:1014600033E341EE51E00E942D314B015C01C2EBB0
:10147000D7E09D0104E610E080E9E82EFF24F39414
:10148000CE01825B9740821793079CF14580512CD7
:101490002E54384FC90164E670E00E94D3327C01BB
:1014A000C90160E971E00E94D3326C010AE311E0E6
:1014B000C1E0D0E0390183E068227724C415D50566
:1014C0000CF040C0C230D10571F56114710459F5BA
:1014D000E114F10419F4C114D10429F5B0E88B0E1C
:1014E000BBE39B1EB6E2AB1EB11C21960F5F1F4FE4
:1014F000E5CFCE0183709927892B99F4CE01B801ED
:101500000E94D332892B31F4CE01B7010E94D3322D
:10151000892B39F4A0E88A0EA1E59A1EA1E0AA1E43
:10152000B11C2196ADCFD8018C91A82FB0E020E856
:1015300031E541E050E00E942D31860E971EA81E35
:10154000B91ED3CF228130E0A0E1BEE00E949931E4
:101550006B017C01218130E0ACE3B0E00E94993165
:10156000C60ED71EE81EF91E8081C80ED11CE11CD4
:10157000F11CA481A150BB0B20E831E541E050E013
:101580000E9438316C0D7D1D8E1D9F1D680D791DCB
:101590008A1D9B1DDF91CF911F910F91FF90EF90BE
:1015A000DF90CF90BF90AF909F908F907F906F9083
:1015B0005F904F9008956F927F928F929F92AF921B
:1015C000BF92CF92DF92EF92FF920F931F93CF9330
:1015D000DF936B017C01EA018CE3882E912CA12C16
:1015E000B12CC701A50194010E9477316883CA011B
:1015F000B901A50194010E9477316983C701B60141
:1016000020E13EE040E050E00E947731CA01B9019C
:1016100028E130E040E050E00E9477316A83C70162
:10162000B60120E831E541E050E00E9477316901E0
:101630007A01CA01B9016C5F7F4F8F4F9F4F27E03E
:1016400030E040E050E00E9477316F5F6B83812C87
:10165000912C540140E094E6692E712C00E911E0D0
:10166000242F30E02E54384FF901E370FF273097D4
:10167000F9F4C901B3010E94D332892B31F4C901B5
:10168000B8010E94D332892B99F48EE691E0A0E054
:10169000B0E0880E991EAA1EBB1ED501C401AA2760
:1016A000BB27C816D906EA06FB0638F04F5FD8CF2D
:1016B0008DE691E0A0E0B0E0ECCF4E83C90164E696
:1016C00070E00E94D3328C01C90160E971E00E9490
:1016D000D332309729F401151105E1F40097D1F0C8
:1016E0004DE651E060E070E0841A950AA60AB70A58
:1016F000C818D908EA08FB08AAE3B1E020E02130C5
:1017000071F4309791F50115110511F4009769F501
:101710004DE106C04EE651E060E070E0E5CF4C914F
:1017200050E070E060E031E0320FC416D506E60606
:10173000F70640F0C41AD50AE60AF70A1196232FD5
:101740003C30E9F62F5F2D83C394CC82DF91CF919B
:101750001F910F91FF90EF90DF90CF90BF90AF90CF
:101760009F908F907F906F9008954CE1D9CFCF924A
:10177000DF92EF92FF92C0908903D0908A03E090AD
:101780008B03F0908C03C616D706E806F90671F0B5
:101790006B017C014DE853E00E94DB0AC092890393
:1017A000D0928A03E0928B03F0928C03FF90EF902B
:1017B000DF90CF9008950E9494090E94B70B80910A
:1017C000930390E08E54984F08950E9494090E94CC
:1017D000B70B8091920390E008950E9494090E94B3
:1017E000B70B8091910390E008950E9494090E94A4
:1017F000B70B80918D0390E008950E9494090E9498
:10180000B70B80918E0390E008950E9494090E9486
:10181000B70B80918F0390E008951F93CF93DF93D0
:10182000EC01E881F9810484F585E02D62E10995F8
:10183000182FE881F9810484F585E02D61E1CE015E
:101840000995212F382F37FF02C0215C3F4FC90176
:1018500026E0959587952A95E1F7DF91CF911F9125
:101860000895CF93DF931F92CDB7DEB7DC01ED91E2
:10187000FC910284F385E02D21E0AE014F5F5F4FC4
:10188000099589810F90DF91CF910895CF93DF93D0
:101890001F92CDB7DEB74983DC01ED91FC91068044
:1018A000F781E02D21E0AE014F5F5F4F09950F906A
:1018B000DF91CF9108956EE08CE395E00E94310CAA
:1018C000482F4E7F6EE08CE395E00C94460C6FE061
:1018D0008CE395E00E94310C80FF09C0482F4E7FB9
:1018E0006FE08CE395E00E94460C81E0089580E073
:1018F0000895CF93DF93382F562F2AE0862F622F3B
:101900000E94C732D82FDD0FD80FDD0FD50F842FDF
:101910000E94C732C82FCC0FC80FCC0FC40F832F23
:101920000E94C732482F440F480F440F430F67E00F
:101930008CE395E00E94460C4D2F68E08CE395E027
:101940000E94460C4C2F69E08CE395E00E94460C07
:1019500040E86AE08CE395E0DF91CF910C94460C6F
:10196000DF92EF92FF920F931F93CF93DF937C014F
:10197000C62FD42E152F022F88E60E940E04D70101
:1019800012968D919C91DC01ED91FC910190F0817A
:10199000E02D6C2F0995CD2DD12F0C0F1D2F111D72
:1019A000F70182819381C017D10749F06991DC0169
:1019B000ED91FC910190F081E02D0995F1CFDF913F
:1019C000CF911F910F91FF90EF90DF900C944908F9
:1019D000FF920F931F93CF93DF93EC018B0188E667
:1019E0000E940E048A819B81DC01ED91FC910190A3
:1019F000F081E02D60E00995AA81BB81F80120818A
:101A00008AE0F82E822F6F2D0E94C732682F660F52
:101A1000680F660F620FED91FC9111970190F081B4
:101A2000E02DCD010995AA81BB81F8012181822F8A
:101A30006F2D0E94C732682F660F680F660F620F06
:101A4000ED91FC9111970190F081E02DCD01099568
:101A5000AA81BB81F8012281822F6F2D0E94C7329B
:101A6000682F660F680F660F620FED91FC9111975A
:101A70000190F081E02DCD0109958A819B81DC01E7
:101A8000ED91FC910190F081E02DD80113966C91BD
:101A90000995AA81BB81F8012481822F6F2D0E94B4
:101AA000C732682F660F680F660F620FED91FC91C9
:101AB00011970190F081E02DCD010995AA81BB819C
:101AC000F8012581822F6F2D0E94C732682F660F83
:101AD000680F660F620FED91FC9111970190F081F4
:101AE000E02DCD010995AA81BB81F80126812E51F7
:101AF000822F6F2D0E94C732682F660F680F660F06
:101B0000620FED91FC9111970190F081E02DCD01D4
:101B100009958A819B810E944908182FE881F981E3
:101B20000484F585E02D6FE0CE010995482F4F77AD
:101B3000E881F9810084F185E02D6FE0CE010995FF
:101B4000812FDF91CF911F910F91FF9008950F93F7
:101B50001F93CF93DF9300D000D000D01F92CDB75A
:101B6000DEB78C01CB01BA01AE014F5F5F4F0E941F
:101B7000DB0ABE016F5F7F4FC8010E94E80C279609
:101B80000FB6F894DEBF0FBECDBFDF91CF911F918E
:101B90000F9108950C94C306FF920F931F93CF9358
:101BA000DF93182F062FF42EC82FD0E0FE01E35A42
:101BB000F94F8491622F0E948F04FE01ED59F94F75
:101BC00084916F2D0E948F04123060F0FE01E9595C
:101BD000F94F8491602FDF91CF911F910F91FF906A
:101BE0000C948F04DF91CF911F910F91FF90089576
:101BF000CF93C0E020E040E060E08C2F0E94CC0D4D
:101C0000CF5FC630B9F7CF910895DF92EF92FF9280
:101C10000F931F93CF93DF937C01D62E8A01D0E0E0
:101C2000C0E0F701EC0FFD1F8491B8010C2E02C03B
:101C3000759567950A94E2F761700E948F0421966A
:101C4000CD1578F3DF91CF911F910F91FF90EF9019
:101C5000DF9008950E94050C6CE070E00E94D33282
:101C6000009711F48CE090E0AC0164E089E696E026
:101C70000E94050E0E94FD0BAC0166E083E696E033
:101C80000E94050E0E94F50BAC0166E08DE596E022
:101C90000C94050E2FB7F8946091EC027091ED0250
:101CA0008091EE029091EF022FBF0895CF93C82F3D
:101CB0008093310188E30E940E046C2F80E395E04D
:101CC0000E941A0880E395E0CF910C944908CF93C5
:101CD000DF93EC018091310181600E94560EBE01BC
:101CE00090E080E00E941205809131018E7FDF91AB
:101CF000CF910C94560E8CE291E00C94670E8CE31D
:101D000090E00E94670E60E570E080E090E00E9445
:101D100012058CE390E00C94670E88EC90E00E9432
:101D2000670E6CE370E080E090E00E9412058CE3A7
:101D300090E00E94670E6CE370E080E090E00E940B
:101D400012058CE390E00C94670E8CE390E00E9407
:101D5000670E6CE370E080E090E00E9412058CE377
:101D600090E00E94670E6CE370E080E090E00E94DB
:101D7000120588EC90E00C94670E0F931F93CF939D
:101D8000DF9300D000D000D01F92CDB7DEB78C011A
:101D900088E60E940E04D80112968D919C91DC0178
:101DA000ED91FC910190F081E02D60E00995F80142
:101DB000828193810E944908882389F0D801149672
:101DC0008C9360E070E0CB0127960FB6F894DEBFED
:101DD0000FBECDBFDF91CF911F910F91089567E0A6
:101DE00088E60E94FB061092230480932204F801E7
:101DF00082819381DC01ED91FC910284F385E02DD9
:101E000009958F770E9418048983F8018281938154
:101E1000DC01ED91FC910284F385E02D09950E948F
:101E200018048A83F80182819381DC01ED91FC9191
:101E30000284F385E02D09958F7B0E9418048B8323
:101E4000F80182819381DC01ED91FC910284F3859C
:101E5000E02D09958C83F80182819381DC01ED915D
:101E6000FC910284F385E02D09950E9418048D836E
:101E7000F80182819381DC01ED91FC910284F3856C
:101E8000E02D09958F770E9418048E83F8018281D6
:101E90009381DC01ED91FC910284F385E02D09959D
:101EA0000E941804825E8F83CE0101960E941B0A55
:101EB0008BCF8CE395E00C94BD0ECF93DF9365E060
:101EC00080E60E94FB06109223048093220488235C
:101ED00059F0CDE1D5E080E395E00E94DA078993DF
:101EE00085E0C232D807B9F764E670E080E090E0A0
:101EF000DF91CF910C9412050E9430090E945D0F72
:101F00008091200582958F700895CF92DF92EF9295
:101F1000FF92CF936B017C0180911A0580618093C1
:101F20001A0526E636E646EE5EE3C7010E94A931B1
:101F30000E944E040E9430090E947C0FC82F80919D
:101F40001A058F7E80931A0526E636E646EE5EE396
:101F5000C701B6010E94A8310E944E040E943009B8
:101F60000E947C0F91E0C81708F090E0909315054F
:101F7000C701B6010E944E04CF91FF90EF90DF9011
:101F8000CF900C9430090E945D0F60911D056F7316
:101F900090911805907C962B9093180590911E05B2
:101FA0009093190570E0762F6627690F711D2091B7
:101FB000150590E080E02223D9F00E94D62F20E082
:101FC00030E040E85EE30E94373020E030E040E05F
:101FD00057E40E94373020E03AEB4BE558E40E948A
:101FE000A83120E034E244E759E40E941532089514
:101FF0000E94D62F20E030E040E85EE30E943730B8
:1020000020E030E040E057E40E94373020E03AEB37
:102010004BE558E40E94A931E4CFCF9380911A0593
:1020200087FF32C00E94C30F2DEC3CEC4CEC5DE30B
:102030000E94A9310E94850F8091180580648093C9
:1020400018050E9430090E945D0F80911D0587FFD1
:10205000FACF0E945D0FC0911D05C6FBCC27C0F9C9
:102060000E945D0F8091180590911D059F738078E7
:1020700020911E0520931905892B809318050E9435
:1020800030098C2FCF9108950E94C30F2DEC3CECAA
:102090004CEC5DE30E94A831CDCF0F931F93CF93FB
:1020A0008C01C62F0E944C096C2F6460C8010E94ED
:1020B0004C096C2F6B7FC8010E944C0983EC90E0A7
:1020C0000197F1F7CF911F910F9108950F931F93EF
:1020D000CF93DF938C01D62FC42F607F642B0E9497
:1020E0004D1080E1D89FB00111246C2BC801DF9105
:1020F000CF911F910F910C944D10CF93DF93CDB7DB
:10210000DEB728970FB6F894DEBF0FBECDBF98E0BC
:10211000E2E3F1E0DE01119601900D929A95E1F76C
:1021200090912B05981708F48FEF90E0880F991F76
:1021300021E030E02C0F3D1F820F931FFC016081D6
:10214000606840E083E295E028960FB6F894DEBF21
:102150000FBECDBFDF91CF910C94661040E061E0DF
:1021600083E295E00E9466108BE39FE10197F1F70F
:1021700080912C05882319F080E00C947D1008953F
:1021800041E00E94661081E090E008950F931F9354
:10219000CF93DF938B0198E0899FB0011124606495
:1021A00040E083E295E00E946610E801085F1F4F5F
:1021B000699183E295E00E94C010C017D107C1F772
:1021C000DF91CF911F910F910895CF92DF92EF92FF
:1021D000FF920F931F93CF93DF937C01C62FC42EE2
:1021E000152F022F88E60E940E04D70112968D91BA
:1021F0009C91DC01ED91FC910190F081E02D6C2F20
:102200000995F701828193810E944908D82E811196
:1022100020C0602F013208F060E288E60E94FB06D1
:102220001092230480932204CC2DD12F0C0F1D2F4C
:10223000111D0C171D0769F0D70112968D919C9105
:10224000DC01ED91FC910284F385E02D09958993E1
:10225000F0CF8D2DDF91CF911F910F91FF90EF90D7
:10226000DF90CF900895FB0101900020E9F73197AE
:10227000AF01461B570BDC01ED91FC910280F3810D
:10228000E02D09946AE871E084E794E00C9433113E
:10229000CF93DF93BC0184E794E00E944C05EC01EE
:1022A0000E9442118C0F9D1FDF91CF91089580E015
:1022B0000E947D106CE775E083E295E00E944C057A
:1022C00081E00E947D1069E775E083E295E00E945D
:1022D0004C0580913B036AE675E0882351F06BE57D
:1022E00075E0813031F06CE475E0823011F06DE31F
:1022F00075E083E295E00E944C0564E275E084E7B6
:1023000094E00E944C0580913B03811104C085E15B
:1023100095E00C944811813019F486E095E0F9CFEE
:10232000823019F487EF94E0F4CF88EE94E0F1CF97
:102330008F929F92AF92BF92EF92FF920F931F9353
:10234000CF93DF93CDB7DEB7A1970FB6F894DEBF7A
:102350000FBECDBF7C01FA01CB0119A2223008F4D7
:102360002AE08E010F5D1F4F822E912CB12CA12CE3
:10237000BF01A50194010E947731F901CA016A30B9
:102380000CF5605DD8016E938D01232B242B252B3A
:1023900079F790E080E0109721F0BD01C7010E941D
:1023A0003311A1960FB6F894DEBF0FBECDBFDF91FB
:1023B000CF911F910F91FF90EF90BF90AF909F90A2
:1023C0008F900895695CDECFCF92DF92EF92FF92FB
:1023D0000F931F93CF93DF936B01770FEE08FF08E6
:1023E000F7FE1BC0EC016DE20E9445058C014427FD
:1023F0005527BA014C195D096E097F092AE0CE0103
:102400000E949811800F911FDF91CF911F910F9122
:10241000FF90EF90DF90CF9008952AE0B701A601DA
:10242000DF91CF911F910F91FF90EF90DF90CF90B0
:102430000C949811CF93DF93BC0184E794E00E9441
:102440003311EC010E9442118C0F9D1FDF91CF913F
:1024500008952F923F924F925F926F927F928F9248
:102460009F92AF92BF92CF92DF92EF92FF921F9313
:10247000CF93DF93EC016A017B01722EAB019601D1
:10248000CB01B6010E94C2326DE871E0811126C015
:1024900046015701E894B7F82FEF3FEF4FE75FE7AA
:1024A000C501B4010E94C23281110CC02FEF3FEF71
:1024B0004FE75FE7C501B4010E94D12F61E971E0E8
:1024C000181664F02FEF3FEF4FE75FE4C701B60146
:1024D0000E94BD321816B4F465E971E0CE01DF91B7
:1024E000CF911F91FF90EF90DF90CF90BF90AF9072
:1024F0009F908F907F906F905F904F903F902F9024
:102500000C9433112FEF3FEF4FE75FECC701B6019B
:102510000E94D12F87FDE0CF20E030E0A901C70164
:10252000B6010E94D12F312C212C87FF09C06DE20A
:10253000CE010E9445051C01F7FAF094F7F8F094DB
:1025400010E060E070E080E09FE3711641F020E071
:1025500030E040E251E40E9415321F5FF6CFA70140
:1025600096010E94A9312B013C010E948E324B0141
:102570005C012AE0BC01A401CE010E9498117C01FB
:10258000E20CF31C1123C1F1C501B4010E94D62F46
:102590009B01AC01C301B2010E94A8314B015C0157
:1025A0006EE2CE010E944505E80EF91E115020F1A1
:1025B00020E030E040E251E4C501B4010E94373030
:1025C0002B013C010E948E324B01B12CA12C2AE040
:1025D000B501A401CE010E949811E80EF91EC501B3
:1025E000B4010E94D62F9B01AC01C301B2010E942D
:1025F000A8314B015C01DACFC701DF91CF911F9168
:10260000FF90EF90DF90CF90BF90AF909F908F9012
:102610007F906F905F904F903F902F9008950C9413
:1026200029122F923F924F925F926F927F928F92D8
:102630009F92AF92BF92CF92DF92EF92FF920F9351
:102640001F93CF93DF930E947C0FC82FD0E09E0191
:10265000A4E6B0E00E9499312FE030E040E050E085
:102660000E940E314901190180E00E947D10809185
:102670003C036AEB75E0882311F063EC75E083E2BC
:1026800095E00E944C056CEC75E083E295E00E94B9
:102690004C059E01A6E0B0E00E9499312FE030E0A9
:1026A00040E050E00E940E318901C12CD12C76010E
:1026B000D0E0C0E085E0482E512C612C712CC01771
:1026C000D1070CF07DC0C701B601A30192010E94A1
:1026D0000E31CA01B9016F5F7F4F8F4F9F4F83E269
:1026E00095E00E94C010219684E0C80ED11CE11C28
:1026F000F11C88E1C816D104E104F10401F781E07E
:102700000E947D10409105015091060160910701E2
:102710007091080121E030E083E295E00E940F1300
:102720006FEA75E083E295E00E944C0584E6281686
:10273000310434F46DEA75E083E295E00E944C05C3
:10274000B40183E295E00E94E41169EA75E083E256
:1027500095E00E944C056FE975E084E794E00E94E3
:102760004C0540910501509106016091070170915F
:10277000080121E030E084E794E00E940F1360E953
:1027800075E084E794E00E944C05B40184E794E08E
:102790000E94E4118EE895E0DF91CF911F910F9197
:1027A000FF90EF90DF90CF90BF90AF909F908F9071
:1027B0007F906F905F904F903F902F900C944811B6
:1027C00068EB75E083E295E00E944C058CCF4F9258
:1027D0005F926F927F928F929F92AF92BF92CF92B1
:1027E000DF92EF92FF920F931F93CF93DF93CDB7BA
:1027F000DEB76A970FB6F894DEBF0FBECDBF0E945A
:10280000050C8C016CE070E00E94D3327C01892BB6
:1028100019F48CE0E82EF12C809114049E012F5FB6
:102820003F4F6901882309F455C00C3011050CF0A5
:102830004EC00CE911E00E94F50B582E492E0E9463
:10284000FD0B782E692E0E94DB0B982E892E0E949C
:10285000ED0BB82EA92E0E94E50B1F930F934F92FC
:102860005F926F927F92FF92EF928F929F92AF92C0
:10287000BF929F938F938FE991E09F938F931F92C5
:102880008AE18F93DF92CF920E946E330FB6F89455
:10289000DEBF0FBECDBFB60184E794E00E943311C6
:1028A0006A960FB6F894DEBF0FBECDBFDF91CF9111
:1028B0001F910F91FF90EF90DF90CF90BF90AF905E
:1028C0009F908F907F906F905F904F90089509E94F
:1028D00011E0B1CF0E94F50B782E692E0E94FD0BFE
:1028E000982E892E0E94DB0BB82EA92E0E94E50B94
:1028F000F82EE92E0E94ED0B6F927F928F929F929D
:102900001F930F93AF92BF92EF92FF929F938F937B
:1029100082EC91E09F938F931F928AE18F93DF92D5
:10292000CF920E946E33B2CF85ED8093BC00809130
:10293000700490917104A0917204B0917304079691
:10294000A11DB11D23E0B695A795979587952A956A
:10295000D1F72091BC0024FD03C010926E040895AD
:1029600040917004509171046091720470917304ED
:10297000452B462B472B69F30097A105B10541F084
:102980002AE22A95F1F700C00197A109B109E1CF28
:1029900080916F040C94DA06CF92DF92EF92FF924F
:1029A0000F931F93CF93DF93EB017B012FE0E20E98
:1029B000F11C8B016C01C61AD70AC601800F911F4A
:1029C0000E94F830F80181938F01EE15FF05A9F7F9
:1029D000CE01DF91CF911F910F91FF90EF90DF908B
:1029E000CF9008950C94F8301F93CF93DF93EC01B0
:1029F000162F0E94F830181739F0612FCE01DF91A1
:102A0000CF911F910C940031DF91CF911F910895C8
:102A10008F929F92AF92BF92CF92DF92EF92FF92EE
:102A20000F931F93CF93DF93CDB7DEB761970FB6A8
:102A3000F894DEBF0FBECDBF809188038111B0C175
:102A4000809187038D7F813009F4AAC10E94050C13
:102A50008C016CE070E00E94D3325C01892B19F488
:102A60009CE0A92EB12CC0900C04D0900D04E090F5
:102A70000E04F0900F0480E00E947D1086E6882E00
:102A800083E0982E80916603882309F4B4C043E064
:102A900050E062EE71E0C4010E943733892BF9F4F3
:102AA0000E944A0E1F9220E12F9328EE33E040E06F
:102AB00050E00E9477315F934F933F932F9386EEC0
:102AC00091E09F938F931F9281E28F939F928F92B9
:102AD0000E946E330FB6F894DEBF0FBECDBF06E680
:102AE00013E0F80101900020E9F78F010756134029
:102AF000013198F466E673E083E295E00E943311B9
:102B0000112700311105F4F463E972E083E295E0E6
:102B10000E9433110F5F1F4FF4CF60916503062EA3
:102B2000000C770B6A597C4F40E150E0CE010196D2
:102B30000E944533198ABE016F5F7F4F83E295E0A3
:102B40000E94331181E00E947D1080913E03882312
:102B500009F439C144E050E066EF71E08EE393E0A0
:102B60000E943733892B39F52091030130910401FC
:102B70008091410590914205009711F487E495E01A
:102B80003F932F939E012F5F3F4F281B390B3F939D
:102B90002F938BEF91E09F938F931F9281E28F93FE
:102BA0008EE393E09F938F930E946E330FB6F89459
:102BB000DEBF0FBECDBF0EE313E0F8010190002091
:102BC000E9F78F010F531340013108F0D4C06EE3D1
:102BD00073E083E295E00E94331111270031110563
:102BE0000CF0DEC063E972E083E295E00E943311ED
:102BF0000F5F1F4FF3CF80911404882309F444C062
:102C0000FAE0AF16B1042CF460E383E295E00E9491
:102C10004505B50183E295E00E94E4116AE383E291
:102C200095E00E9445050E94FD0B0A972CF460E395
:102C300083E295E00E9445050E94FD0BBC0183E202
:102C400095E00E94E4116AE383E295E00E94450565
:102C50000E94F50B0A972CF460E383E295E00E9452
:102C600045050E94F50BBC0183E295E00E94E4114A
:102C700069EF75E00C30110514F063E076E083E253
:102C800095E00E944C055ECF0A3011052CF460E3FC
:102C900083E295E00E944505B80183E295E00E9439
:102CA000E4116AE383E295E00E9445050E94FD0B72
:102CB0000A972CF460E383E295E00E9445050E94A8
:102CC000FD0BBC0183E295E00E94E4116AE383E21C
:102CD00095E00E9445050E94F50B0A972CF460E3ED
:102CE00083E295E00E9445050E94F50BBC0183E25A
:102CF00095E00E94E41180916403882331F1809172
:102D00006303882311F160915F03709160038091E8
:102D10006103909162030E9487324B01CB0166EF01
:102D200075E08A3091052CF08436910534F464EF17
:102D300075E083E295E00E944C05B40183E295E0E2
:102D40000E94E4116EEE75E09ACF6CEE75E083E2BE
:102D500095E00E944C0521E030E0B701A60183E236
:102D600095E00E940F136FED83E295E00E94450508
:102D700066EE75E084CF60913D03062E000C770B64
:102D8000625C7C4F40E150E0CE0101960E944533E9
:102D9000198ABE016F5F7F4F83E295E00E94331175
:102DA00061960FB6F894DEBF0FBECDBFDF91CF9115
:102DB0001F910F91FF90EF90DF90CF90BF90AF9059
:102DC0009F908F90089580911404882309F489C0FE
:102DD0000E94E50B0A972CF460E383E295E00E94E1
:102DE00045050E94E50BBC0183E295E00E94E411D9
:102DF0006FE283E295E00E9445050E94ED0B0A9781
:102E00002CF460E383E295E00E9445050E94ED0BFF
:102E1000BC0183E295E00E94E4116FE283E295E059
:102E20000E9445050E94DB0BBC0183E295E00E94F5
:102E3000E41180916403882361F180916303882306
:102E400041F160915F037091600380916103909103
:102E500062030E9487326B01CB0162EE75E08A301B
:102E600091053CF06FED75E08436910514F06DED41
:102E700075E083E295E00E944C05B60183E295E09F
:102E80000E94E4116AED75E083E295E00E944C0532
:102E900087CF68ED75E083E295E00E944C0520E065
:102EA00030E040E151E4C701B6010E94373020E034
:102EB00030E040EA50E40E94153220E030E040E08B
:102EC00052E40E94A9310E94873283E295E00E9479
:102ED000E4116FED83E295E00E94450565ED75E034
:102EE000D3CF0E94ED0B0A972CF460E383E295E0C8
:102EF0000E9445050E94ED0BBC0183E295E00E9413
:102F0000E4116EE283E295E00E9445050E94E50B24
:102F10000A972CF460E383E295E00E9445050E9445
:102F2000E50BBC0183E295E00E94E4116EE283E2CE
:102F300095E00E9445050E94DB0BBC0183E295E011
:102F40000E94E4116EEC75E09FCF2F923F924F925A
:102F50005F926F927F928F929F92AF92BF92CF9229
:102F6000DF92EF92FF920F931F93CF93DF93CDB732
:102F7000DEB7C45AD1090FB6F894DEBF0FBECDBF7D
:102F80008091880300ED17E0811102C002E310E098
:102F90000E944A0EC0903703D0903803E090390366
:102FA000F0903A03AB01BC014C195D096E097F0931
:102FB00030E020E0041715072607370758F50E9470
:102FC0004A0E6093370370933803809339039093CC
:102FD0003A0361E088E30E94FB0610922304809389
:102FE0002204813009F4BBC080913101827090913C
:102FF0003603992309F4B8C0882361F01092360390
:103000001092350310923103109232031092330361
:10301000109234030E944A0E009128031091290354
:1030200020912A0330912B03601B710B820B930BB1
:10303000673971058105910580F184E10E94DB0407
:103040008C0185E10E94DB047C0180918703813043
:1030500009F03AC2C701885C910989359240E8F0CD
:1030600080913B0351E2E51653E0F5060CF427C2CC
:10307000833018F48F5F80933B0384E190E00E94DB
:10308000670E0E9457110E944A0E609328037093A6
:10309000290380932A0390932B0384E794E00E94F2
:1030A000CE05181619060CF01EC48E010F5F1F4FB7
:1030B0006801F12CE12C2FB7F894809116049091BF
:1030C0001704A0911804B09119042FBF80937C04B9
:1030D00090937D04A0937E04B0937F0484E794E0F2
:1030E0000E94AC0597FD02C00C9498282FB7F89465
:1030F0008091160490911704A0911804B0911904BE
:103100002FBF40917C0450917D0460917E047091AA
:103110007F04841B950BA60BB70B4091780450914C
:10312000790460917A0470917B0484179507A6074F
:10313000B707A0F2DE2CF801EE0DFF1D1082DD2096
:1031400011F40C94AB2882918D3019F0803209F083
:1031500082C3DA94D801AD0DB11D1C92F0CF80E38B
:1031600095E00E94DA0742CFC0903103D09032033D
:10317000E0903303F0903403811174C0CD28CE2841
:10318000CF2851F40E944A0E6093310370933203AA
:1031900080933303909334030E944A0E20913503A9
:1031A000211138CF00913103109132032091330364
:1031B00030913403601B710B820B930B693E73409B
:1031C0008105910508F426CF81E080933503809333
:1031D0003603809187038230B1F4109287031092F6
:1031E000880380911B05806480931B050E94300931
:1031F0000E948D0E0E94AE100E94081582ED94E090
:103200000E94481107CF843059F4109287030E941E
:103210008D0E0E94AE100E94081583EC94E0F0CF52
:10322000833009F0F7CE109287030E94AE1062EB54
:1032300074E083E295E00E944C050E948D0E87EABF
:1032400094E00E94481181E894E00E94481160E2F5
:1032500073E080E090E00E9412050E94AE100E9490
:103260000815D8CEC114D104E104F10409F4D2CE7A
:103270000E944A0E109231031092320310923303CF
:103280001092340320913503211137C06C197D0948
:103290008E099F09683E73408105910570F50E9473
:1032A0004A0E00912D0310912E0320912F0330918F
:1032B0003003601B710B820B930B693C7105810518
:1032C0009105D8F00E944A0E60932D0370932E034F
:1032D00080932F03909330038EE190E00E94670E5D
:1032E0008091870381110CC081E080938703109245
:1032F0003B030E94AE100E945711109235038ACEF4
:10330000833029F48AE794E00E944811F6CF813097
:10331000A1F780913B0381113BC082E0809387033A
:1033200081E08093880380911B058F7B80931B0530
:103330000E94300964E670E080E090E00E9412058F
:1033400010922205809118058F77809318050E94AE
:103350003009C0900501D0900601E0900701F0907F
:103360000801C701B6010E94850F66E970E080E0A0
:1033700090E00E941205C701B6010E94850F0E94CD
:10338000A50E0E94AE100E94111383E694E0BCCFFC
:10339000813009F067C084E08093870310922C038A
:1033A0000E947F0E0E94AE1080E00E947D1064EDAE
:1033B00070E083E295E00E944C0540910C0450912E
:1033C0000D0460910E0470910F0421E030E083E25F
:1033D00095E00E940F136FEC70E083E295E00E948D
:1033E0004C058091640340E050E0BA01882341F02D
:1033F0004091FA025091FB026091FC027091FD0233
:1034000021E030E083E295E00E940F136DEC70E064
:1034100083E295E00E944C0581E00E947D1080913E
:1034200064036FEA70E08823B1F069EC70E083E236
:1034300095E00E944C0540915F03509160036091BC
:1034400061037091620321E030E083E295E00E9425
:103450000F1360EC70E083E295E00E944C0587E575
:1034600094E052CF823001F583E0809387030E947D
:10347000AE1080E00E947D1066E474E083E295E087
:103480000E944C0581E00E947D1065E374E083E2B8
:1034900095E00E944C050E94A50E8BE294E00E94EC
:1034A000481185E094E030CF109287030E948D0E82
:1034B0000E94AE100E94081586EF93E025CF882366
:1034C00009F4DBCD8150D7CD843009F4E6CD9701E6
:1034D000285C3109B801685C71096B01833089F59A
:1034E00029353240B8F084E190E00E94670E81E215
:1034F000E81683E0F80614F18AEE93E00E94481182
:103500000E944A0E609328037093290380932A0334
:1035100090932B0399E5C91692E0D90608F4BDCD26
:1035200084E190E00E94670E86ED93E00132134043
:1035300014F48BEC93E00E944811A5CD8FED93E03D
:10354000DDCF2935324008F45CC080912703E1E2E9
:10355000EE16E3E0FE060CF4F7C08F5F80932703BE
:10356000809127038A3014F010922703809127035B
:1035700087FF03C089E08093270384E190E00E94E5
:10358000670E80918803882391F180912703FFE0E3
:103590008F02C0011124BE016F5F7F4F44960E94CD
:1035A000CC1489809A80AB80BC8020E030E04FEA68
:1035B00052E4C501B4010E94BD3287FD18C020E06D
:1035C00030E048ED52E4C501B4010E94D12F181635
:1035D00074F08092050190920601A0920701B092CA
:1035E0000801C501B4010E94850F0E9411130E94B9
:1035F0004A0E609328037093290380932A039093C3
:103600002B0329E5C21622E0D20608F446CD84E158
:1036100090E00E94670E0E944A0ECF55DF4F6883EC
:1036200079838A839B83C15AD040BDEC4B2EBCEC7E
:103630005B2E652CBDE37B2E013213403CF4ADECD8
:103640004A2EACEC5A2E652CADEB7A2E84E10E940A
:10365000DB04885C91098935924008F414CD0E94FE
:103660004A0E6B017C01CF55DF4F88809980AA807C
:10367000BB80C15AD040C818D908EA08FB0810918D
:10368000880320EDC21627E0D206E104F10408F019
:103690006AC02091050130910601409107015091C7
:1036A0000801C301B2010E94A9314B015C0120E075
:1036B00030E048ED52E40E94BD3218160CF446C0CA
:1036C0008092050190920601A0920701B092080134
:1036D00020E030E04FEA52E460910501709106016C
:1036E00080910701909108010E94D12F87FF0CC0A3
:1036F00080E090E0A8EDB2E480930501909306018C
:10370000A0930701B0930801112361F060910501B6
:103710007091060180910701909108010E94850F28
:103720000E9411136AEF70E080E090E054EFC5163C
:1037300051E0D506E104F10420F064E670E080E099
:1037400090E00E94120582CF815008CF40E050E007
:103750006FEA72E4409305015093060160930701FC
:1037600070930801B5CF112309F466C080911A0542
:103770008F79806280931A0584E10E94DB04813294
:1037800063E096070CF44CC080911A058068809322
:103790001A05F9E1FF2E80E00E947D106AEB73E0CC
:1037A00083E295E00E944C050E940D106CE370E0EE
:1037B00080E090E00E9412050E94C30F4B015C0163
:1037C0008092050190920601A0920701B092080133
:1037D0000E947C0F082F81E00E947D1021E030E0E4
:1037E000B501A40183E295E00E940F136FEA73E034
:1037F00083E295E00E944C05063058F50E945D0F6B
:1038000000911F0507FB002700F984E10E94DB04FB
:1038100081599140873C910558F40023B9F00AC0C2
:10382000883C91050CF0B5CF80911A058F77AFCF0A
:10383000002349F00E94A50E0E94AE100E941113B1
:103840000E944A0E20CCFA94F110A5CF0E947B0E64
:10385000F3CF012FDACF5E01F1E4AF0EB11C780196
:10386000D7018D917D0190E00E940133F501819394
:103870005F018E2D801BD81698F769E072E0CE01AB
:103880008F5B9F4F0E942733892B09F092C381E001
:103890008093140461E090E080E00E94F41483EAD5
:1038A00093E00E9448110E94AE1080E00E947D10BB
:1038B00062E973E083E295E00E944C0581E00E949A
:1038C0007D1061E873E083E295E00E944C050E9460
:1038D0007F0E68EE73E080E090E00E9412050E9487
:1038E00008150E940815C0901603D0901703E090A9
:1038F0001803F0901903C114D104E104F104A9F0F4
:103900000E944A0EC616D706E806F90670F4109211
:10391000660310923E031092160310921703109242
:103920001803109219030E9408158091F902882348
:1039300009F458C00E944A0E0091F0021091F10261
:103940002091F2023091F302601B710B820B930BFA
:103950006E3171058105910508F444C00E944A0E3C
:103960006093F0027093F1028093F2029093F3025D
:103970000EE312E03EE4E32E32E0F32EF8018491F0
:1039800060E00E948F040F5F1F4FE016F106B1F751
:103990000091F40210E0F801E25CFD4F849161E0D7
:1039A0000E948F04F8013196EF70FF27E093F40234
:1039B0008091F5029091F60201969093F602809321
:1039C000F5022091F7023091F8028217930750F028
:1039D000E25CFD4F849160E00E948F041092F90236
:1039E0000E942A0E0E944A0E0091100310911103AA
:1039F0002091120330911303601B710B820B930B08
:103A0000683C710581059105B8F10E944A0E6093EA
:103A1000100370931103809312039093130326E60F
:103A200033E0D9010D900020E9F79D01275633407E
:103A30008EE393E0FC0101900020E9F7CF018F5362
:103A40009340682F213148F040911503141614F06B
:103A50000C942327415040931503613168F030E006
:103A600020911403121614F00C9441272150209336
:103A7000140331110C945A2780912203882309F4EE
:103A80004AC00E944A0E2091200338E7211101C04C
:103A900036E4C0901A03D0901B03E0901C03F09012
:103AA0001D034B015C018C189D08AE08BF08750111
:103AB0006401832E912CB12CA12CC814D904EA04E2
:103AC000FB0448F160931A0370931B0380931C035B
:103AD00090931D0321110C946E270E94F80D1091F4
:103AE000210343E0149F90011124F901E952FF4F93
:103AF0006491F901E852FF4F449127523F4FF90179
:103B00002491812F0E94CC0D1F5F163010F00C9471
:103B10006327109321038090230390902403A090A7
:103B20002503B090260381149104A104B10409F483
:103B30007EC00E944A0E6B017C0180910B03909124
:103B40000C03A0910D03B0910E0320910F03B70158
:103B5000A601481B590B6A0B7B0BDB01CA01211123
:103B60000C949A2780329340A105B10580F0809192
:103B7000310181600E94560E81E080930F03C09254
:103B80000B03D0920C03E0920D03F0920E030E94FF
:103B90004A0E6B017C018091060390910703A0916E
:103BA0000803B091090320910A03B701A601481B3D
:103BB000590B6A0B7B0BDB01CA0121110C94AA275C
:103BC00080329340A105B10580F080913101816080
:103BD0000E94560E81E080930A03C0920603D092A1
:103BE0000703E0920803F09209030E944A0E86162A
:103BF0009706A806B906D8F410922303109224035E
:103C0000109225031092260310922203109266034D
:103C100010923E030E94F80D809131018E7F0E9428
:103C2000560E0E948D0E0E942A0E0E940815809149
:103C30006403882349F10E944A0E00910203109107
:103C400003032091040330910503601B710B820B69
:103C5000930B61157D4781059105B0F00E944A0ED6
:103C6000609302037093030380930403909305030E
:103C70008091630391E08927809363038091870398
:103C8000811102C00E9408150E944A0E0091FE0296
:103C90001091FF022091000330910103601B710B12
:103CA000820B930B613177428105910508F484C042
:103CB0000E944A0E6093FE027093FF0280930003FD
:103CC0009093010385E40E940E046CE280E395E08A
:103CD0000E941A0866E080E395E00E941A0880E3DB
:103CE00095E00E944908811167C06FE070E080E0B4
:103CF00090E00E94120566E085E40E94FB061092A7
:103D0000230480932204863009F056C08E010F5F91
:103D10001F4F7E01E7E0EE0EF11C80E395E00E946C
:103D2000DA07D8018D938D01EA16FB06B1F7698198
:103D30007A8176276727762790E080E00E94D62F49
:103D400020E030E04FE253E40E94373020E03FEFC4
:103D50004FE757E40E94153220E030E044E352E49C
:103D60000E94A8316B017C016C817D8176276727D9
:103D7000762790E080E00E94D62F20E030E048ECEB
:103D800052E40E94373020E03FEF4FE757E40E94B3
:103D90001532C092FA02D092FB02E092FC02F0923D
:103DA000FD0260935F0370936003809361039093BF
:103DB000620381E0809364030E944A0E009108042C
:103DC0001091090420910A0430910B04601B710BBF
:103DD000820B930B61307A4F8105910510F18CE3D2
:103DE00095E00E940D0CBC01990F880B990B0E9465
:103DF000D82F20E030E040E85EE30E943730609347
:103E00000C0470930D0480930E0490930F040E9491
:103E10004A0E609308047093090480930A049093F7
:103E20000B040E94F50B7C0180910001082E000C10
:103E3000990B8E159F0511F40C9464280E94050CB3
:103E40006CE070E00E94D3328C01892B11F40CE0FD
:103E500010E080911004882309F462C00E94670C6E
:103E6000882309F45DC0109210040E944A0E605D20
:103E70007A488F4F9F4F609323037093240380935E
:103E800025039093260381E080932203109221035F
:103E90001092200310921F0310921E0310921A0317
:103EA00010921B0310921C0310921D0380911104A9
:103EB0001F928F93809112041F928F93809113040D
:103EC0001F928F9383ED91E09F938F931F9282E1D6
:103ED0008F93FE0131966F01FF93EF930E946E3333
:103EE00064E171E084E794E00E944C05C6010E9401
:103EF0001A126BE672E086E693E00E94303364E8C3
:103F000072E08EE393E00E943033109265031092CA
:103F10003D030E9408150FB6F894DEBF0FBECDBF5B
:103F20000E94FD0B892B11F00C94BA27E114F104C7
:103F300011F00C94BA278091F90281110C94BA27E0
:103F4000C8010115110511F48CE090E024E0880F00
:103F5000991F2A95E1F79093F8028093F702109247
:103F6000F6021092F5021092F40281E08093F902B9
:103F70006CE271E080E090E00E941205D12C4801D3
:103F800031E0831A9108AD2CB12CA016B10614F0C3
:103F90000C94BA2788E790E00E94670EA814B90431
:103FA00034F464EB70E080E090E00E941205D3945A
:103FB000EACF60E172E0CE018F5B9F4F0E94273312
:103FC000892BE1F41092140460E090E080E00E94FC
:103FD000F41484E793E00E9448110E94AE1080E040
:103FE0000E947D1063E673E083E295E00E944C0539
:103FF00081E00E947D1062E573E065CC68E172E0CB
:10400000CE018F5B9F4F0E942733892B09F043C05D
:1040100080918703833039F40E947B0E8FE293E016
:104020000E9448115ECC81E08093880380911B053B
:104030008F7B80931B050E94300964E670E080E06E
:1040400090E00E94120510922205809118058F774A
:10405000809318050E943009C0900501D090060198
:10406000E0900701F0900801C701B6010E94850F9A
:1040700066E970E080E090E00E941205C701B60199
:104080000E94850F0E94A50E0E94AE100E9411137F
:104090008FE193E0C5CF6DE172E0CE018F5B9F4F62
:1040A0000E942733892BD9F480918703833009F448
:1040B00018CC1092880380911B05806480931B05A7
:1040C0000E9430091092660310923E030E948D0EEA
:1040D0000E94AE100E9408158EE093E0A1CF63E22B
:1040E00072E0CE018F5B9F4F0E942733892B51F0E6
:1040F0006CE272E0CE018F5B9F4F0E942733892BC9
:1041000009F0C5C080918803882309F4EACB8FEFBA
:1041100092E00E94481110911A05012F0F79802F0B
:10412000806280931A0563E272E0CE018F5B9F4F3D
:104130000E942733892B09F09FC0006A00931A055B
:10414000609105017091060180910701909108012D
:104150000E94850F6CE370E080E090E00E94120501
:104160001EE1EFE08E2E912CA12CB12C0E940D109F
:104170006CE370E080E090E00E9412050E94C30FA3
:104180006B017C01C0920501D0920601E09207010B
:10419000F092080120E030E04FEA52E40E94D12F73
:1041A00087FD72C020E030E048ED52E4C701B6015F
:1041B0000E94BD3218160CF467C00E947C0F082FB5
:1041C00065EF72E084E794E00E944C0540910501A0
:1041D00050910601609107017091080121E030E0E3
:1041E00084E794E00E940F1365EE72E084E794E0A8
:1041F0000E944C05202F30E0A4E6B0E00E949931E7
:10420000A50194010E940E31B90184E794E00E9457
:10421000E41183EE92E00E94481180E00E947D103C
:1042200062ED72E083E295E00E944C0581E00E941D
:104230007D10409105015091060160910701709138
:10424000080121E030E083E295E00E940F1363EC67
:1042500072E083E295E00E944C05063030F40E9443
:104260005D0F80911F0587FF0CC00E94A50E0E9464
:10427000111385EB92E0D4CE1F71106210931A05D2
:104280005FCF115009F072CF0E947B0EF0CF47E054
:1042900050E067E372E0CE018F5B9F4F0E9437339F
:1042A000892B09F064C06AE370E0C8010E941C33E6
:1042B000009709F416CB7C01FFEFEF1AFF0A6AE3BF
:1042C00070E0C7010E941C33009709F40ACB8C01EF
:1042D0000F5F1F4F6AE370E0C8010E941C336C013E
:1042E000892B09F4FECAC7010E943A2E7C01C8013D
:1042F0000E94362E2AE0E216F10408F0F2CAFE010E
:10430000EF57FF4F61937193819391938BE0DF019E
:104310001D928A95E9F7B6016F5F7F4F4AE050E042
:10432000CF010E9445332FE02E9D60012F9DD00CC0
:10433000112486010C5E1F4FFE01EF57FF4F7F01D6
:10434000F3E2CF0ED11CD701BD907D01C8010E94C0
:10435000F830B81621F06B2DC8010E9400310F5FB4
:104360001F4FC016D10679F70E947F0EBACA6FE3BD
:1043700072E0CE018F5B9F4F0E942733892B09F09B
:1043800060C00E947F0EC12CD12C760104E110E0A8
:1043900071E8A72EB12CAC0EBD1EB4E0AB0EB11C63
:1043A000BE016F577F4FC8010E94CC146CEA72E0C7
:1043B00084E794E00E944C052AE0B701A60184E757
:1043C00094E00E9498116AEA72E084E794E00E9407
:1043D0004C05CF57DF4F488159816A817B81C15895
:1043E000D04021E030E084E794E00E940F1368EAB7
:1043F00072E084E794E00E944C0520E030E04FEA50
:1044000052E4CF57DF4F688179818A819B81C158FF
:10441000D0400E94D12F87FF10C082EA92E00E9414
:104420004811015F1F4FEFEFCE1ADE0AEE0AFE0AB7
:104430000A3A110509F0B4CF54CAC5010E941A12F4
:10444000F0CF42E050E066E472E0CE018F5B9F4F18
:104450000E943733892B09F08AC069E472E0CE01EB
:1044600003960E940933892B49F590913C0321E082
:10447000922790933C0380911805992391F0209303
:1044800022058068809318050E9430090E947B0EE7
:104490000E94111380913C03882369F083E992E024
:1044A000BFCD109222058F77809318050E943009A6
:1044B0000E947F0EEDCF82E892E0B2CD6EE472E012
:1044C000CE0103960E942733892B51F480918803F3
:1044D000882309F406CA0E947F0E0E94111301CAA4
:1044E000CE0103960E94362E6B017C0120E030E065
:1044F0004FEA52E40E94BD3287FDF3C920E030E06C
:1045000048ED52E4C701B6010E94D12F18160CF4F1
:10451000E8C9C0920501D0920601E0920701F0922D
:10452000080180918803882361F0C701B6010E94C9
:10453000850F66E970E080E090E00E9412050E941D
:10454000111367E772E084E794E00E944C05409104
:10455000050150910601609107017091080122E068
:1045600084E794E00E9429120E944211BAC946E0F1
:1045700050E062E572E0CE018F5B9F4F0E943733BF
:10458000892B09F0A7C06E01F3E9CF0ED11CDF9291
:10459000CF927E0125E9E20EF11CFF92EF928E018F
:1045A00009561F4F1F930F9389E592E09F938F93B6
:1045B000CE0107969F938F930E949E330FB6F89477
:1045C000DEBF0FBECDBF039709F08BC9D8014C9158
:1045D00040931304F701608160931204D6018C911B
:1045E000809311040E94790C0E94670C0E945B0C5E
:1045F00081E0809310041092230310922403109200
:1046000025031092260361E084E090E00E94F414F8
:104610006091130485E090E00E94F414609112040C
:1046200086E090E00E94F4146091110487E090E02D
:104630000E94F414F60181818F9380818F93D701BA
:1046400011968C9111978F938C918F93F8018181A2
:104650008F9380818F9383ED91E09F938F931F922F
:1046600082E18F93065111091F930F930E946E33BD
:1046700068E672E084E794E00E944C05C8010E945D
:104680001A120E947F0E0E94AE1080E00E947D10E0
:1046900067E572E083E295E00E944C0581E00E94AC
:1046A0007D10B80183E295E00E9433116EE472E060
:1046B00083E295E00E944C056CED75E080E090E0AF
:1046C0000E9412050E9408150FB6F894DEBF0FBEB7
:1046D000CDBF07C962E672E0CE018F5B9F4F0E949B
:1046E0002733892BD1F510921004109223031092D6
:1046F00024031092250310922603109222030EE346
:1047000012E06EE4E62E62E0F62EF801849160E09D
:104710000E948F040F5F1F4FE016F106B1F70E9451
:104720002A0E0E945B0C0E94670C60E084E090E01F
:104730000E94F4146BE672E086E693E00E94273351
:10474000892B21F41092660310923E038FE292E0CF
:104750000E9448110E948D0EC2C86AE772E0CE0125
:104760008F5B9F4F0E942733892B09F067C00E94FF
:104770004A0E605D7A488F4F9F4F6093230370937A
:104780002403809325039093260381E080932203E2
:10479000109221031092200310921F0310921E0307
:1047A00010921A0310921B0310921C0310921D0307
:1047B000809111041F928F93809112041F928F9306
:1047C000809113041F928F9383ED91E09F938F93B9
:1047D0001F9282E18F938E010F571F4F1F930F93EC
:1047E0000E946E3362E272E084E794E00E944C051E
:1047F000C8010E941A126BE672E086E693E00E94FE
:10480000303364E872E08EE393E00E94303310921C
:10481000650310923D030E947B0E66E970E080E024
:1048200090E00E9412050E947B0E66E970E080E035
:1048300090E00E9412050E947B0E44CF65E972E071
:10484000CE018F5B9F4F0E942733892B59F58091B2
:104850001004882321F1809111041F928F9380917D
:1048600012041F928F93809113041F928F9383EDF4
:1048700091E09F938F931F9282E18F938E010F5748
:104880001F4F1F930F930E946E3363E172E084E722
:1048900094E00E944C05C8010E941A1215CF84E0D2
:1048A00092E0BECB6FE972E0C8010E942733892BEA
:1048B00009F0A1C00E947F0E8E010F571F4F8091FB
:1048C000410590914205009711F487E495E0081B9B
:1048D000190B80910301909104010817190724F422
:1048E00010930401009303016BEF71E084E794E0FF
:1048F0000E944C050E944A0E48EEC42E43E0D42E7E
:10490000E12CF12CA70196010E947731BA01A9018F
:104910002AE084E794E00E94981160EF71E084E758
:1049200094E00E944C052AE040E150E060E070E035
:1049300084E794E00E94981163EE71E084E794E0CC
:104940000E944C05B80184E794E00E94E41165EDF3
:1049500071E084E794E00E944C056091030170913E
:10496000040184E794E00E94E41182ED91E00E944A
:1049700048110E944A0E1F9220E12F93A701960131
:104980000E9477315F934F933F932F9386EE91E090
:104990009F938F931F9251E2F52EFF9286E693E04C
:1049A0009F938F930E946E33809104018F93809127
:1049B00003018F931F930F938BEF91E09F938F933E
:1049C0001F92FF928EE393E09F938F930E946E332A
:1049D0000E944A0E605F784D8F4F9F4F6093160381
:1049E0007093170380931803909319031092650333
:1049F00010923D0369CE6AEA72E0C8010E94273333
:104A0000892B99F41092660310923E0310921603BC
:104A10001092170310921803109219038CE390E080
:104A20000E94670E8FEA91E0FBCA45E050E060EB20
:104A300072E0C8010E943733892B09F06EC07E01F5
:104A400076E0E70EF11C4AE050E066EB72E0C70149
:104A50000E943733892B09F049C00E94A50E6CE7EC
:104A600070E0C7010E941C336C01009709F449C033
:104A7000082F0E19013208F000E210E0A801B7017A
:104A800086E693E00E944533F801EA59FC4F108214
:104A9000B6016F5F7F4F40E250E08EE393E00E94EB
:104AA000453310925E031092650381E0809302010A
:104AB0001092150310923D0380930101109214038C
:104AC00065EA71E084E794E00E944C0586E693E095
:104AD0000E941A126BE971E084E794E00E944C0591
:104AE0008EE393E00E941A120C94711C61EC72E048
:104AF000C7010E945433892B09F4B1CF0E948D0E57
:104B0000AECF40E250E0B70186E693E00E94453325
:104B10001092860310923E03C6CF44E050E069EC49
:104B200072E0C8010E94373343E050E0892B09F559
:104B30006EEC72E0CE0105960E943733892B21F48A
:104B400088E290E00E94670E40E250E0BE016B5F99
:104B50007F4F8EE393E00E94453310925E031092E4
:104B60003D0381E0809301011092140361E971E03B
:104B7000B3CF62ED72E0C8010E943733892B39F55B
:104B800088E290E00E94670E40E250E0BE016C5F58
:104B90007F4F86E693E00E94453310928603109281
:104BA0003E031092650381E0809302011092150389
:104BB00010923D03809301011092140367E871E0A5
:104BC00084E794E00E944C0586E693E08BCF8091C9
:104BD0001404DE01AD56BF4F7D01FE01EB56FF4FC1
:104BE0001F019E0129563F4F2901AE0147565F4FD5
:104BF0003A01BE0165567F4F6B011A965D0188230D
:104C000009F4A4C0FF92EF923F92EF935F922F932B
:104C10007F924F93DF926F93BF92AF934E01BFE9A4
:104C20008B0E911C9F928F9286ED92E09F938F93B3
:104C30001F930F930E949E330FB6F894DEBF0FBEF2
:104C4000CDBF049714F40C94711CD3012D913C91A9
:104C5000F401808191812130310509F06AC08C30E6
:104C600091051CF40C9691838083F4018081CD57CB
:104C7000DF4F8883C358D040D5018C91CE57DF4F8A
:104C80008883C258D040F6018081CF57DF4F888398
:104C9000C158D040D2018D919C911816190614F07C
:104CA0000E94E50BCA57DF4F8883C658D040F101F8
:104CB000808191811816190614F00E94ED0BCB57D4
:104CC000DF4F8883C558D040D7018D919C9118162D
:104CD0001906C4F584369105BCF5825EC957DF4FCD
:104CE0008883C758D040BE016F577F4F8CE395E053
:104CF0000E94E80CCE018F579F4F0E941B0A0E9412
:104D0000660982E691E00E9448110E947F0E0E948F
:104D1000AE1064E571E083E295E00E944C0568EE18
:104D200073E080E090E00E9412050E94AE100C94A7
:104D3000711C232B09F099CF0C9709F096CF1182A3
:104D4000108293CF0E94DB0B825BC8CFFF92EF9261
:104D50003F92EF935F922F937F924F93DF926F93E7
:104D6000BF92AF9389ED92E09F938F931F930F9320
:104D70000E949E330FB6F894DEBF0FBECDBF0397DF
:104D800014F40C94711CD5018C91CD57DF4F88839E
:104D9000C358D040F6018081CE57DF4F8883C25878
:104DA000D040D3018C91CF57DF4F8883C158D0407A
:104DB000F201808191811816190614F00E94ED0B02
:104DC000CB57DF4F8883C558D040D1018D919C913E
:104DD0001816190614F00E94E50BCA57DF4F888396
:104DE000C658D040F701808191811816190644F504
:104DF0008436910524F48053984F91838083D701A2
:104E00008C91825BC957DF4F8883C758D040BE0161
:104E10006F577F4F8CE395E00E94E80CCE018F57CF
:104E20009F4F0E941B0A0E9466098FE291E00E9438
:104E300048110E947F0E0E94AE1061E271E06BCFBC
:104E40000E94DB0BDECF5091020140916503450FBC
:104E500040936503E42F042E000CFF0B2051330B0D
:104E6000E217F30714F4141634F05195509302012D
:104E70002FE02093150331E0613110F00C94301DC8
:104E800019C02091010190913D03920F90933D0331
:104E9000692F092E000C770BA82FA051BB0B6A17A6
:104EA0007B0714F4191634F02195209301018FE04B
:104EB000809314038091880381110C943C1D0E94FF
:104EC00008150C943C1D1092210381E0809320036F
:104ED00010921F0310921E030C948B1D80911E03D1
:104EE00091E0892780931E03882309F107ED10E0E4
:104EF000F12CF801649131964491319624918F2DD3
:104F00000E94CC0DF3940D5F1F4FF6E0FF12F1CF1E
:104F100080911F038F5F80931F03883010F40C94DF
:104F20008B1D10922003109221030C948B1D0E9464
:104F3000F80DEECF84369105A105B10510F40C945F
:104F4000C71D809131018E7F0E94560E10920F0373
:104F50000C94BF1D84369105A105B10510F40C9485
:104F6000F51D809131018E7F0E94560E10920A032A
:104F70000C94ED1D8091F90281110EC080912303E4
:104F800090912403A0912503B0912603892B8A2BAD
:104F90008B2B11F40E942A0E80918703982F9D7FFE
:104FA00019F0843009F08EC00E94E71380918803C5
:104FB0008111BBC080911404882309F49FC020E0B4
:104FC00030E040E151E460910C0470910D04809157
:104FD0000E0490910F040E94373020E030E040EA48
:104FE00050E40E94153220E030E040E052E40E949C
:104FF000A9314B015C016AE071E084E794E00E9412
:105000004C0522E030E0B501A40184E794E00E9461
:105010000F1367E071E084E794E00E944C058091F3
:1050200064038823D1F062EF70E084E794E00E948B
:105030004C0540915F035091600360916103709152
:10504000620321E030E084E794E00E940F1360EFF8
:1050500070E084E794E00E944C050E944211809128
:105060006403882349F16BEE70E084E794E00E94CA
:105070004C054091FA025091FB026091FC02709144
:10508000FD0221E030E084E794E00E940F1369EE16
:1050900070E084E794E00E944C0540915F035091DA
:1050A0006003609161037091620321E084E794E002
:1050B0000E9429120E94421180918703843011F0CE
:1050C0000E940815E0920001CC55DF4F0FB6F8940E
:1050D000DEBF0FBECDBFDF91CF911F910F91FF902B
:1050E000EF90DF90CF90BF90AF909F908F907F9088
:1050F0006F905F904F903F902F9008956DEF70E00C
:1051000084E794E00E944C0540910C0450910D04FA
:1051100060910E0470910F0422E030E084E794E087
:105120000E940F136AEF70E076CF0E944211CACF3F
:105130008A30910511F40C949A18D6018D936D0163
:10514000BFEFEB1AFB0AEFE3EE16F10411F00C943B
:105150005B180C949A18898190E00E940133229682
:105160008FAF22970C943D1C1F920F920FB60F9297
:1051700011242F933F938F939F93AF93BF9380916D
:10518000160490911704A0911804B091190430915D
:10519000150423E0230F2D3758F50196A11DB11DED
:1051A000209315048093160490931704A093180479
:1051B000B093190480911A0490911B04A0911C04CF
:1051C000B0911D040196A11DB11D80931A04909306
:1051D0001B04A0931C04B0931D04BF91AF919F9139
:1051E0008F913F912F910F900FBE0F901F901895A8
:1051F00026E8230F0296A11DB11DD2CF1F920F9258
:105200000FB60F9211242F933F934F935F936F9399
:105210007F938F939F93AF93BF93EF93FF9384E715
:1052200094E00E94EE05FF91EF91BF91AF919F91A5
:105230008F917F916F915F914F913F912F910F903F
:105240000FBE0F901F9018951F920F920FB60F92DE
:1052500011242F938F939F93EF93FF93E0918404F6
:10526000F09185048081E0918A04F0918B0482FDA5
:105270001BC0908180918D048F5F8F7320918E046D
:10528000821741F0E0918D04F0E0EC58FB4F958FD0
:1052900080938D04FF91EF919F918F912F910F90AB
:1052A0000FBE0F901F9018958081F4CF1F920F9220
:1052B0000FB60F9211242F933F934F935F936F93E9
:1052C0007F938F939F93AF93BF93EF93FF938091BF
:1052D000B900887F803609F44AC0F0F5883209F4B5
:1052E000A7C018F5803109F49BC0B8F4882309F4ED
:1052F000F9C0883009F494C0FF91EF91BF91AF914C
:105300009F918F917F916F915F914F913F912F91DD
:105310000F900FBE0F901F901895883109F488C028
:10532000803251F780934C0414C0803409F49DC03E
:1053300040F48033B9F38833F9F680934C0485EC5C
:10534000B0C0803509F485C0883509F496C088342A
:1053500099F60E949414D0CF883909F48CC038F59E
:10536000883729F050F4883611F0803729F683E029
:1053700080936E041092FB0357C0883809F47BC0F9
:10538000803919F0803809F0B7CF8091FB03803263
:1053900008F071C0E091FB0381E08E0F8093FB0366
:1053A0008091BB00F0E0E552FC4F80833DC0803B24
:1053B00039F0E0F4803A09F479C0883A09F09CCFDA
:1053C00084E080936E041092DA031092D903E09186
:1053D0002004F091210409958091D90381110FC017
:1053E00081E08093D9031092B90309C0803C09F48D
:1053F000A6CF883C09F4A3CF883B09F07DCFE0918C
:10540000DA0381E08E0F8093DA03F0E0E754FC4F7B
:1054100080818093BB009091DA038091D90329C0E9
:10542000809149048093BB0085EC8093BC0064CFDD
:1054300090914B0480914A04981758F5E0914B04E1
:1054400081E08E0F80934B04F0E0E85DFB4F80819C
:10545000E9CFE0914B0481E08E0F80934B04809163
:10546000BB00F0E0E85DFB4F808390914B0480919E
:105470004A049817C8F285E8D8CFE0914B0481E040
:105480008E0F80934B048091BB00F0E0E85DFB4FF2
:10549000808380914D0481115CCF81E0809348042A
:1054A00084EA8093BC0010926E0426CF85EC809332
:1054B000BC0010926E048091FB03803230F4E091C6
:1054C000FB03F0E0E552FC4F10826091FB0370E0BB
:1054D000E0911E04F0911F048BED93E0099510926A
:1054E000FB030ACF10924C0434CF1F920F920FB6D9
:1054F0000F9211248F939F93AF93BF938091EC02EF
:105500009091ED02A091EE02B091EF020196A11DE3
:10551000B11D8093EC029093ED02A093EE02B09344
:10552000EF02BF91AF919F918F910F900FBE0F909F
:105530001F901895CF93E4E7F4E01382128288EE6F
:1055400093E0A0E0B0E084839583A683B7832AE448
:1055500031E03183208325EC30E03587248724EC4B
:1055600030E03787268720EC30E0318B208B21EC30
:1055700030E0338B228B22EC30E0358B248B26EC11
:1055800030E0378B268B118E128E138E148EE0E353
:10559000F5E01382128284839583A683B7838CE51A
:1055A00091E091838083ACE3B5E01396FC93EE9396
:1055B00012978AE791E08D939C93E3E2F5E01382E2
:1055C00012828EE691E09183808311868FE384833B
:1055D000C0E1C28782E0838714860E94C306E1E1AE
:1055E000F5E01782108680EB8187C2871386118AC7
:1055F000CF910895CF93DF93CDB7DEB7A1970FB6C4
:10560000F894DEBF0FBECDBF789484B5826084BDB0
:1056100084B5816084BD85B5826085BD85B58160B6
:1056200085BD80916E00816080936E001092810034
:1056300080918100826080938100809181008160EF
:1056400080938100809180008160809380008091B0
:10565000B10084608093B1008091B000816080933C
:10566000B00080917A00846080937A0080917A0003
:10567000826080937A0080917A00816080937A00C2
:1056800080917A00806880937A001092C10084B77C
:1056900014BE12E01093B00084E08093B10089EF53
:1056A0008093B300809170008260809370000E94AC
:1056B000C306809131010E94560EE0918404F0915E
:1056C00085041083E0918004F09181041082E091C0
:1056D0008204F091830480E1808310928C04E09135
:1056E0008804F091890486E08083E0918604F0913B
:1056F0008704808180618083E0918604F091870433
:10570000808188608083E0918604F09187048081A5
:1057100080688083E0918604F091870480818F7D8A
:1057200080838CE395E00E94CA0D0E94C30610920C
:10573000280580912E05823018F098E09093280576
:1057400080932B0562E370E080E090E00E941205F8
:1057500060912F0583E295E00E944C0968EE73E0AA
:1057600080E090E00E94120560E383E295E00E94F1
:105770004D100BE416E4C8010197F1F760E383E2F2
:1057800095E00E944D10C8010197F1F760E383E2B4
:1057900095E00E944D1083E592E00197F1F760E2F9
:1057A00083E295E00E944D1060912805606240E020
:1057B00083E295E00E94661084E08093290540E032
:1057C0006CE083E295E00E9466100E94AE1082E0D9
:1057D00080932A0540E066E083E295E00E9466102F
:1057E00040E062E083E295E00E9466108BE39FE177
:1057F0000197F1F788E080932F0560E083E295E060
:105800000E944C0969E271E081E00E94C61061E2E9
:1058100071E082E00E94C61069E171E083E00E94BD
:10582000C61061E171E084E00E94C61069E071E099
:1058300085E00E94C61090E080E00E94F21491E0A2
:10584000813009F090E09093140488E090E00E9489
:10585000F2148D34F1F06DE488E090E00E94F414CD
:1058600062E489E090E00E94F41467E08AE090E04E
:105870000E94F4146AEE8BE090E00E94F41465EA52
:105880008CE090E00E94F4146AE58DE090E00E94C4
:10589000F41480E00E947D1066E677E083E295E0F4
:1058A0000E944C0581E00E947D1066E577E083E26E
:1058B00095E00E944C058CE390E00E94670E60E545
:1058C00070E080E090E00E9412058CE390E00E947E
:1058D000670E60E570E080E090E00E94120584EBC6
:1058E00090E00E94670E68E770E080E090E00E9420
:1058F00012058CE390E00E94670E60E570E080E0A6
:1059000090E00E9412058CE390E00E94670E60E533
:1059100070E080E090E00E94120584EB90E00E942D
:10592000670E68E770E080E090E00E94120580E575
:1059300090E00E94670E6CE370E080E090E00E94CF
:10594000120580E590E00E94670E6CE370E080E055
:1059500090E00E94120580E590E00E94670E6CE3E3
:1059600070E080E090E00E94120580E590E00E94E7
:10597000670E6CE370E080E090E00E9412058CE21C
:1059800091E00E94670E68EC70E080E090E00E9479
:1059900012050E94AE1085E397E00E94481182E054
:1059A00097E00E94481180911404882309F448C1AB
:1059B0008EED96E00E94481184EA96E00E9448111C
:1059C000BE016D5E7F4F84E190E00E94CC14CB88D5
:1059D000DC88ED88FE8820E030E04FEA52E4C70121
:1059E000B6010E94BD3287FD12C020E030E048EDD4
:1059F00052E4C701B6010E94D12F181644F0C0929C
:105A00000501D0920601E0920701F0920801809111
:105A10001B05826080931B050E94300980911B0545
:105A2000806480931B050E94300989E59FE0909374
:105A30000504809304048091000490910104A091D6
:105A40000204B09103048093FC039093FD03A093A0
:105A5000FE03B093FF030E9494090E949409809171
:105A6000060490910704029709F4EDC00E947B0E92
:105A700068EC70E080E090E00E9412050E947B0ECE
:105A800068EC70E080E090E00E9412050E947B0EBE
:105A900084E996E00E94481180E00E947D1064E84D
:105AA00076E083E295E00E944C05E9E6F6E0849119
:105AB0000E942804EAE6F6E084910E942804EBE6BE
:105AC000F6E084910E942804ECE6F6E084910E94BE
:105AD000280403E616E099E6E92E96E0F92EF8018F
