:100000000C9462000C948A000C948A000C948A0070
:100010000C948A000C948A000C948A000C948A0038
:100020000C948A000C948A000C948A000C948A0028
:100030000C948A000C948A000C948A000C948A0018
:100040000C9497040C948A000C9407050C94E1041A
:100050000C948A000C948A000C948A000C948A00F8
:100060000C948A000C948A000000000023002600F3
:10007000290000000008000201000003040700003E
:1000800000000000000000000000250028002B00F8
:1000900000000000240027002A00040404040404D3
:1000A0000404020202020202030303030303010227
:1000B00004081020408001020408102001020408F6
:1000C0001020BF0611241FBECFEFD8E0DEBFCDBF8A
:1000D00011E0A0E0B1E0ECE7FEE002C005900D9277
:1000E000AE3CB107D9F722E0AEECB1E001C01D9201
:1000F000AD38B207E1F710E0C2E6D0E004C02197C6
:10010000FE010E943607C136D107C9F70E943905A2
:100110000C943C070C94000090E0FC01E255FF4F6A
:10012000249186569F4FFC018491882399F090E09A
:10013000880F991FFC01E057FF4FA591B491FC0176
:10014000EA57FF4F859194918FB7F894EC91E22B89
:10015000EC938FBF0895833081F028F4813099F0BB
:100160008230A9F008958730A9F08830C9F0843032
:10017000B1F4809180008F7D03C0809180008F77E3
:1001800080938000089584B58F7784BD089584B5E9
:100190008F7DFBCF8091B0008F778093B000089562
:1001A0008091B0008F7DF9CF1F93CF93DF93282FDD
:1001B00030E0F901EE58FF4F8491F901E255FF4F0D
:1001C000D491F901E656FF4FC491CC23A9F0162F24
:1001D00081110E94AB00EC2FF0E0EE0FFF1FEA57F9
:1001E000FF4FA591B4918FB7F894EC91111108C00D
:1001F000D095DE23DC938FBFDF91CF911F910895BF
:10020000DE2BF8CF3FB7F8948091EC019091ED018F
:10021000A091EE01B091EF0126B5A89B05C02F3F3C
:1002200019F00196A11DB11D3FBFBA2FA92F982F1C
:100230008827BC01CD01620F711D811D911D42E017
:10024000660F771F881F991F4A95D1F708958F92DF
:100250009F92AF92BF92CF92DF92EF92FF924B01AB
:100260005C010E9402016B017C010E9402016C1979
:100270007D098E099F09683E734081059105A8F3A9
:1002800021E0821A9108A108B10888EEC80E83E027
:10029000D81EE11CF11C81149104A104B10429F7BA
:1002A000FF90EF90DF90CF90BF90AF909F908F9096
:1002B0000895AF92BF92CF92DF92EF92FF920F9389
:1002C0001F93CF93DF936C017B018B01040F151FEC
:1002D000EB015E01AE18BF08C017D10759F0699154
:1002E000D601ED91FC910190F081E02DC6010995B8
:1002F000892B79F7C501DF91CF911F910F91FF9065
:10030000EF90DF90CF90BF90AF900895FC01538D98
:10031000448D252F30E0842F90E0821B930B5417DF
:1003200010F0CF96089501970895FC01918D828D6C
:10033000981761F0A28DAE0FBF2FB11D5D968C9105
:10034000928D9F5F9F73928F90E008958FEF9FEF44
:100350000895FC01918D828D981731F0828DE80F00
:10036000F11D858D90E008958FEF9FEF0895FC01BA
:10037000918D228D892F90E0805C9F4F821B910987
:100380008F739927089580EF91E00E94B70121E0D3
:10039000892B09F420E0822F089580E090E0892BDA
:1003A00029F00E94C30181110C9400000895FC0102
:1003B000A48DA80FB92FB11DA35ABF4F2C91848DC6
:1003C00090E001968F739927848FA689B7892C9323
:1003D000A089B1898C91837080648C93938D848D76
:1003E000981306C00288F389E02D80818F7D808379
:1003F0000895EF92FF920F931F93CF93DF93EC0139
:1004000081E0888F9B8D8C8D98131AC0E889F989BB
:10041000808185FF15C09FB7F894EE89FF896083BE
:10042000E889F98980818370806480839FBF81E03F
:1004300090E0DF91CF911F910F91FF90EF90089581
:10044000F62E0B8D10E00F5F1F4F0F731127E02E5C
:100450008C8D8E110CC00FB607FCFACFE889F98994
:10046000808185FFF5CFCE010E94D701F1CFEB8DC2
:10047000EC0FFD2FF11DE35AFF4FF0829FB7F89468
:100480000B8FEA89FB8980818062CFCFCF93DF9386
:10049000EC01888D8823B9F0AA89BB89E889F9899C
:1004A0008C9185FD03C0808186FD0DC00FB607FCD1
:1004B000F7CF8C9185FFF2CF808185FFEDCFCE0104
:1004C0000E94D701E9CFDF91CF9108956093DC01BD
:1004D0007093DD018093DE019093DF01645D7E4FB8
:1004E0008F4F9F4F6093D8017093D9018093DA01A9
:1004F0009093DB0182E090E09093D7018093D60146
:100500002FB7F8948091E8019091E901A091EA0158
:10051000B091EB012FBF8093D2019093D301A093B0
:10052000D401B093D5010895CF92DF92EF92FF925C
:100530000F931F938FB7F894C090E801D090E90112
:10054000E090EA01F090EB018FBF0091D201109191
:10055000D3012091D4013091D501C01AD10AE20A09
:10056000F30A6091DC017091DD018091DE019091D0
:10057000DF0148EEC41643E0D406E104F104C8F0FC
:100580006F5F7F4F8F4F9F4F6093DC017093DD0152
:100590008093DE019093DF0108511C4F2F4F3F4F96
:1005A0000093D2011093D3012093D4013093D5014D
:1005B000C1CF1F910F91FF90EF90DF90CF900895E2
:1005C0004F925F926F927F928F929F92AF92BF9263
:1005D000CF92DF92EF92FF920F931F93CF93DF930F
:1005E0004B015C018091CE019091CF01A091D0018F
:1005F000B091D10188159905AA05BB0509F4C6C0BB
:100600008CE3C82ED12CE12CF12CC501A701960159
:100610000E9400076093E001CA01B901A701960199
:100620000E9400076093E101C501B40120E13EE0B2
:1006300040E050E00E940007CA01B90128E130E023
:1006400040E050E00E9400076093E201C501B40160
:1006500020E831E541E050E00E94000769017A019D
:10066000CA01B9016C5F7F4F8F4F9F4F27E030E089
:1006700040E050E00E9400076F5F6093E301412C6F
:10068000512C320140E004E610E0C0E9D1E0242F13
:1006900030E02E54384FF901E370FF273097F9F41A
:1006A000C901B8010E94EC06892B31F4C901BE01D1
:1006B0000E94EC06892B99F48EE691E0A0E0B0E070
:1006C000480E591E6A1E7B1ED301C201AA27BB27F2
:1006D000C816D906EA06FB0638F04F5FD8CF8DE67C
:1006E00091E0A0E0B0E0ECCF4093E601C90164E600
:1006F00070E00E94EC06EC01C90160E971E00E9423
:10070000EC06309721F42097D9F40097C9F04DE614
:1007100051E060E070E0441A550A660A770AC4188E
:10072000D508E608F708A0E2B1E020E0213069F43E
:100730003097E9F5209711F40097C9F54DE106C00F
:100740004EE651E060E070E0E6CF4C9150E070E0A2
:1007500060E031E0320FC416D506E606F70640F039
:10076000C41AD50AE60AF70A1196232F3C30F1F68F
:100770002F5F2093E501C394C092E4018092CE01E3
:100780009092CF01A092D001B092D101DF91CF9190
:100790001F910F91FF90EF90DF90CF90BF90AF909F
:1007A0009F908F907F906F905F904F9008954CE155
:1007B000CDCFCF92DF92EF92FF920F931F93CF9303
:1007C000DF937B016A018C01D0E0C0E0F8018081F9
:1007D0000E5F1F4FB6010C2E02C0759567950A94E7
:1007E000E2F761700E94D4002196EC16FD0671F7C5
:1007F000DF91CF911F910F91FF90EF90DF90CF90FD
:100800000895FC0101900020E9F73197AF01481BE2
:10081000590BBC0180EF91E00C945901CF93DF9309
:100820000E940104EC018EE591E00E9401048C0F0E
:100830009D1FDF91CF9108958F929F92AF92BF92AB
:10084000CF92DF92EF92FF920F931F93CF93DF939C
:10085000CDB7DEB7A1970FB6F894DEBF0FBECDBF00
:100860006B017C01F7FE41C06DE280EF91E00E94D8
:10087000F9018C0122273327A9012C193D094E09C2
:100880005F0919A2CE0181967C019AE0892E912CF4
:10089000A12CB12CCA01B901A50194010E94000745
:1008A000605DF70162937F01211531054105510516
:1008B00089F790E080E0309719F0CF010E940104A1
:1008C000800F911FA1960FB6F894DEBF0FBECDBF6B
:1008D000DF91CF911F910F91FF90EF90DF90CF901C
:1008E000BF90AF909F908F900895AC019B0119A28B
:1008F0008E010F5D1F4F8AE0C82ED12CE12CF12C08
:10090000CA01B901A70196010E940007605DF801C4
:1009100062938F01211531054105510589F790E05A
:1009200080E0309779F2CF010E940104CBCF1F9273
:100930000F920FB60F9211242F933F938F939F9393
:10094000AF93BF938091E8019091E901A091EA01F2
:10095000B091EB013091E70123E0230F2D3758F5DB
:100960000196A11DB11D2093E7018093E8019093AA
:10097000E901A093EA01B093EB018091EC01909121
:10098000ED01A091EE01B091EF010196A11DB11D05
:100990008093EC019093ED01A093EE01B093EF01F1
:1009A000BF91AF919F918F913F912F910F900FBE6B
:1009B0000F901F90189526E8230F0296A11DB11DD8
:1009C000D2CF1F920F920FB60F9211242F933F9305
:1009D0004F935F936F937F938F939F93AF93BF9347
:1009E000EF93FF9380EF91E00E94D701FF91EF9189
:1009F000BF91AF919F918F917F916F915F914F9137
:100A00003F912F910F900FBE0F901F9018951F923E
:100A10000F920FB60F9211242F938F939F93EF9302
:100A2000FF93E0910002F09101028081E0910602C3
:100A3000F091070282FD1BC09081809109028F5FB7
:100A40008F7320910A02821741F0E0910902F0E0D1
:100A5000E051FE4F958F80930902FF91EF919F9196
:100A60008F912F910F900FBE0F901F90189580813E
:100A7000F4CF789484B5826084BD84B5816084BDF0
:100A800085B5826085BD85B5816085BD80916E002C
:100A9000816080936E00109281008091810082605D
:100AA000809381008091810081608093810080919A
:100AB00080008160809380008091B1008460809389
:100AC000B1008091B00081608093B00080917A0085
:100AD000846080937A0080917A00826080937A00AB
:100AE00080917A00816080937A0080917A0080689A
:100AF00080937A001092C100E0910002F09101020F
:100B000082E08083E091FC01F091FD011082E09190
:100B1000FE01F091FF018FEC808310920802E091BA
:100B20000402F091050286E08083E0910202F091D8
:100B30000302808180618083E0910202F0910302D0
:100B4000808188608083E0910202F09103028081BD
:100B500080688083E0910202F091030280818F7DA2
:100B6000808381E691E00E940E0480E891E00E947B
:100B70000E0486E991E00E940E0481EB91E00E9450
:100B80000E04C8E1D1E000E211E0888122960E94C3
:100B90008C000C171D07C9F7CCE0D1E088812296A4
:100BA0000E948C0081E0C831D807C1F7C0E0D1E0D5
:100BB0000CE011E0888122960E948C000C171D0722
:100BC000C9F760E070E0CB010E94660293E8692EED
:100BD00090E0792E2FEBC22E20E0D22E3BEAA32EFE
:100BE00030E0B32E40E0842E40E0942EF301849157
:100BF000F601D491F501C491CC2309F48AC0811186
:100C00000E94AB00EC2FF0E0EE0FFF1FE859FF4F02
:100C1000A591B4918C91D82309F47BC08091DC011B
:100C20009091DD01A091DE01B091DF010196A11D3F
:100C3000B11D8093DC019093DD01A093DE01B093A0
:100C4000DF010E9494021B012C010E94E0024091EE
:100C5000E20150E064E070E088E191E00E94D90395
:100C6000C201B1010E94E0024091E10150E066E062
:100C700070E08CE091E00E94D903C201B1010E94B2
:100C8000E0024091E00150E066E070E080E091E039
:100C90000E94D90361E070E080E090E00E942701AB
:100CA0000E9494020E94E0026091E20170E090E0F4
:100CB00080E00E941C048CEC91E00E9401040E94E0
:100CC00094020E94E0026091E10170E090E080E017
:100CD0000E941C048CEC91E00E9401040E9494028A
:100CE0000E94E0026091E00170E090E080E00E94EC
:100CF0001C048EE591E00E9401048114910409F422
:100D000075CF0E94C301882309F470CF0E940000B0
:100D10006DCF0E9494020E94E0028091E101811156
:100D200090CF0E9494020E94E0028091E001811124
:100D300088CF0E9494020E94E002E090E201F12C30
:100D400010E000E00E151F050CF07BCFCEE3D1E0E4
:100D50005880229661E0852D0E94D40062E370E005
:100D600080E090E00E94270160E0852D0E94D40081
:100D7000F1E0CE35DF0761F70F5F1F4FE3CFE0EF04
:100D8000F1E01382128288EE93E0A0E0B0E0848369
:100D90009583A683B78380E391E09183808385EC7C
:100DA00090E09587848784EC90E09787868780EC35
:100DB00090E0918B808B81EC90E0938B828B82EC26
:100DC00090E0958B848B86EC90E0978B868B118ED0
:100DD000128E138E148E089597FB072E16F400942E
:100DE00007D077FD09D00E94220707FC05D03EF40A
:100DF000909581959F4F0895709561957F4F0895C7
:100E0000A1E21A2EAA1BBB1BFD010DC0AA1FBB1F0E
:100E1000EE1FFF1FA217B307E407F50720F0A21B80
:100E2000B30BE40BF50B661F771F881F991F1A94ED
:100E300069F760957095809590959B01AC01BD0117
:100E4000CF010895AA1BBB1B51E107C0AA1FBB1FFE
:100E5000A617B70710F0A61BB70B881F991F5A9546
:100E6000A9F780959095BC01CD010895EE0FFF1F65
:0C0E70000590F491E02D0994F894FFCF58
:100E7C0010000F000E000D000C000B000A00090002
:100E8C000800070006000500040003000200130020
:100E9C001F1C1F1E1F1E1F1F1E1F1E1F00000000D9
:100EAC00F901590186014602B7019501A90110000B
:100EBC000F000E000D000C000B000A0009000800CA
:100ECC0007000600050004000300020013000D0AD1
:100EDC000050726F6A6563743A205247422042692F
:100EEC006E61727920436C6F636B2076312E30000B
:100EFC00436F70797269676874204D6172656B20FD
:100F0C0042756A6B6F004C6963656E73656420751E
:100F1C006E646572204D4954204C6963656E73652F
:100F2C00002D2D2D2D2D2D2D2D2D2D2D2D2D2D2D12
:0E0F3C002D2D2D2D2D2D2D2D2D2D2D003A007E
:00000001FF
